{
	"contracts/abiExplain.sol": {
		"A": {
			"abi": [
				{
					"inputs": [
						{
							"internalType": "bytes",
							"name": "data",
							"type": "bytes"
						}
					],
					"name": "decode",
					"outputs": [
						{
							"internalType": "uint256",
							"name": "",
							"type": "uint256"
						},
						{
							"internalType": "string",
							"name": "",
							"type": "string"
						}
					],
					"stateMutability": "pure",
					"type": "function"
				},
				{
					"inputs": [
						{
							"internalType": "bytes",
							"name": "data",
							"type": "bytes"
						}
					],
					"name": "decode1",
					"outputs": [
						{
							"internalType": "uint256",
							"name": "",
							"type": "uint256"
						}
					],
					"stateMutability": "pure",
					"type": "function"
				},
				{
					"inputs": [
						{
							"internalType": "uint256",
							"name": "a1",
							"type": "uint256"
						},
						{
							"internalType": "uint256",
							"name": "a2",
							"type": "uint256"
						}
					],
					"name": "encode",
					"outputs": [
						{
							"internalType": "bytes",
							"name": "",
							"type": "bytes"
						}
					],
					"stateMutability": "pure",
					"type": "function"
				},
				{
					"inputs": [
						{
							"internalType": "uint256",
							"name": "a",
							"type": "uint256"
						},
						{
							"internalType": "uint256",
							"name": "b",
							"type": "uint256"
						}
					],
					"name": "fun1",
					"outputs": [
						{
							"internalType": "uint256",
							"name": "",
							"type": "uint256"
						}
					],
					"stateMutability": "pure",
					"type": "function"
				}
			],
			"devdoc": {
				"kind": "dev",
				"methods": {},
				"version": 1
			},
			"evm": {
				"assembly": "    /* \"contracts/abiExplain.sol\":61:816  contract A{... */\n  mstore(0x40, 0x80)\n  callvalue\n  dup1\n  iszero\n  tag_1\n  jumpi\n  0x00\n  dup1\n  revert\ntag_1:\n  pop\n  dataSize(sub_0)\n  dup1\n  dataOffset(sub_0)\n  0x00\n  codecopy\n  0x00\n  return\nstop\n\nsub_0: assembly {\n        /* \"contracts/abiExplain.sol\":61:816  contract A{... */\n      mstore(0x40, 0x80)\n      callvalue\n      dup1\n      iszero\n      tag_1\n      jumpi\n      0x00\n      dup1\n      revert\n    tag_1:\n      pop\n      jumpi(tag_2, lt(calldatasize, 0x04))\n      shr(0xe0, calldataload(0x00))\n      dup1\n      0xbac1d572\n      eq\n      tag_3\n      jumpi\n      dup1\n      0xd591b6be\n      eq\n      tag_4\n      jumpi\n      dup1\n      0xdc0aa2af\n      eq\n      tag_5\n      jumpi\n      dup1\n      0xe5c5e9a3\n      eq\n      tag_6\n      jumpi\n    tag_2:\n      0x00\n      dup1\n      revert\n        /* \"contracts/abiExplain.sol\":338:483  function decode1(bytes memory data)public pure returns(uint){... */\n    tag_3:\n      tag_7\n      0x04\n      dup1\n      calldatasize\n      sub\n      dup2\n      add\n      swap1\n      tag_8\n      swap2\n      swap1\n      tag_9\n      jump\t// in\n    tag_8:\n      tag_10\n      jump\t// in\n    tag_7:\n      mload(0x40)\n      tag_11\n      swap2\n      swap1\n      tag_12\n      jump\t// in\n    tag_11:\n      mload(0x40)\n      dup1\n      swap2\n      sub\n      swap1\n      return\n        /* \"contracts/abiExplain.sol\":80:164  function fun1(uint a,uint b)public pure  returns(uint) {... */\n    tag_4:\n      tag_13\n      0x04\n      dup1\n      calldatasize\n      sub\n      dup2\n      add\n      swap1\n      tag_14\n      swap2\n      swap1\n      tag_15\n      jump\t// in\n    tag_14:\n      tag_16\n      jump\t// in\n    tag_13:\n      mload(0x40)\n      tag_17\n      swap2\n      swap1\n      tag_12\n      jump\t// in\n    tag_17:\n      mload(0x40)\n      dup1\n      swap2\n      sub\n      swap1\n      return\n        /* \"contracts/abiExplain.sol\":172:332  function encode(uint a1,uint a2)public pure returns(bytes memory) {... */\n    tag_5:\n      tag_18\n      0x04\n      dup1\n      calldatasize\n      sub\n      dup2\n      add\n      swap1\n      tag_19\n      swap2\n      swap1\n      tag_15\n      jump\t// in\n    tag_19:\n      tag_20\n      jump\t// in\n    tag_18:\n      mload(0x40)\n      tag_21\n      swap2\n      swap1\n      tag_22\n      jump\t// in\n    tag_21:\n      mload(0x40)\n      dup1\n      swap2\n      sub\n      swap1\n      return\n        /* \"contracts/abiExplain.sol\":489:811  function decode(bytes memory data) public pure returns (uint,string memory) {... */\n    tag_6:\n      tag_23\n      0x04\n      dup1\n      calldatasize\n      sub\n      dup2\n      add\n      swap1\n      tag_24\n      swap2\n      swap1\n      tag_9\n      jump\t// in\n    tag_24:\n      tag_25\n      jump\t// in\n    tag_23:\n      mload(0x40)\n      tag_26\n      swap3\n      swap2\n      swap1\n      tag_27\n      jump\t// in\n    tag_26:\n      mload(0x40)\n      dup1\n      swap2\n      sub\n      swap1\n      return\n        /* \"contracts/abiExplain.sol\":338:483  function decode1(bytes memory data)public pure returns(uint){... */\n    tag_10:\n        /* \"contracts/abiExplain.sol\":393:397  uint */\n      0x00\n        /* \"contracts/abiExplain.sol\":410:416  uint a */\n      dup1\n        /* \"contracts/abiExplain.sol\":417:423  uint b */\n      0x00\n        /* \"contracts/abiExplain.sol\":436:440  data */\n      dup4\n        /* \"contracts/abiExplain.sol\":425:454  abi.decode(data, (uint,uint)) */\n      dup1\n      0x20\n      add\n      swap1\n      mload\n      dup2\n      add\n      swap1\n      tag_29\n      swap2\n      swap1\n      tag_30\n      jump\t// in\n    tag_29:\n        /* \"contracts/abiExplain.sol\":409:454  (uint a,uint b)=abi.decode(data, (uint,uint)) */\n      swap2\n      pop\n      swap2\n      pop\n        /* \"contracts/abiExplain.sol\":474:475  b */\n      dup1\n        /* \"contracts/abiExplain.sol\":472:473  a */\n      dup3\n        /* \"contracts/abiExplain.sol\":472:475  a+b */\n      tag_31\n      swap2\n      swap1\n      tag_32\n      jump\t// in\n    tag_31:\n        /* \"contracts/abiExplain.sol\":465:475  return a+b */\n      swap3\n      pop\n      pop\n      pop\n        /* \"contracts/abiExplain.sol\":338:483  function decode1(bytes memory data)public pure returns(uint){... */\n      swap2\n      swap1\n      pop\n      jump\t// out\n        /* \"contracts/abiExplain.sol\":80:164  function fun1(uint a,uint b)public pure  returns(uint) {... */\n    tag_16:\n        /* \"contracts/abiExplain.sol\":129:133  uint */\n      0x00\n        /* \"contracts/abiExplain.sol\":155:156  b */\n      dup2\n        /* \"contracts/abiExplain.sol\":153:154  a */\n      dup4\n        /* \"contracts/abiExplain.sol\":153:156  a+b */\n      tag_34\n      swap2\n      swap1\n      tag_32\n      jump\t// in\n    tag_34:\n        /* \"contracts/abiExplain.sol\":146:156  return a+b */\n      swap1\n      pop\n        /* \"contracts/abiExplain.sol\":80:164  function fun1(uint a,uint b)public pure  returns(uint) {... */\n      swap3\n      swap2\n      pop\n      pop\n      jump\t// out\n        /* \"contracts/abiExplain.sol\":172:332  function encode(uint a1,uint a2)public pure returns(bytes memory) {... */\n    tag_20:\n        /* \"contracts/abiExplain.sol\":224:236  bytes memory */\n      0x60\n        /* \"contracts/abiExplain.sol\":250:267  bytes memory data */\n      0x00\n        /* \"contracts/abiExplain.sol\":287:289  a1 */\n      dup4\n        /* \"contracts/abiExplain.sol\":290:292  a2 */\n      dup4\n        /* \"contracts/abiExplain.sol\":269:293  abi.encode(\"fun1\",a1,a2) */\n      add(0x20, mload(0x40))\n      tag_36\n      swap3\n      swap2\n      swap1\n      tag_37\n      jump\t// in\n    tag_36:\n      mload(0x40)\n      0x20\n      dup2\n      dup4\n      sub\n      sub\n      dup2\n      mstore\n      swap1\n      0x40\n      mstore\n        /* \"contracts/abiExplain.sol\":250:293  bytes memory data= abi.encode(\"fun1\",a1,a2) */\n      swap1\n      pop\n        /* \"contracts/abiExplain.sol\":320:324  data */\n      dup1\n        /* \"contracts/abiExplain.sol\":312:324  return  data */\n      swap2\n      pop\n      pop\n        /* \"contracts/abiExplain.sol\":172:332  function encode(uint a1,uint a2)public pure returns(bytes memory) {... */\n      swap3\n      swap2\n      pop\n      pop\n      jump\t// out\n        /* \"contracts/abiExplain.sol\":489:811  function decode(bytes memory data) public pure returns (uint,string memory) {... */\n    tag_25:\n        /* \"contracts/abiExplain.sol\":545:549  uint */\n      0x00\n        /* \"contracts/abiExplain.sol\":550:563  string memory */\n      0x60\n        /* \"contracts/abiExplain.sol\":573:599  string memory functionName */\n      0x00\n        /* \"contracts/abiExplain.sol\":601:607  uint a */\n      dup1\n        /* \"contracts/abiExplain.sol\":609:615  uint b */\n      0x00\n        /* \"contracts/abiExplain.sol\":630:634  data */\n      dup6\n        /* \"contracts/abiExplain.sol\":619:657  abi.decode(data, (string, uint, uint)) */\n      dup1\n      0x20\n      add\n      swap1\n      mload\n      dup2\n      add\n      swap1\n      tag_39\n      swap2\n      swap1\n      tag_40\n      jump\t// in\n    tag_39:\n        /* \"contracts/abiExplain.sol\":572:657  (string memory functionName, uint a, uint b) = abi.decode(data, (string, uint, uint)) */\n      swap3\n      pop\n      swap3\n      pop\n      swap3\n      pop\n        /* \"contracts/abiExplain.sol\":792:793  b */\n      dup1\n        /* \"contracts/abiExplain.sol\":788:789  a */\n      dup3\n        /* \"contracts/abiExplain.sol\":788:793  a + b */\n      tag_41\n      swap2\n      swap1\n      tag_32\n      jump\t// in\n    tag_41:\n        /* \"contracts/abiExplain.sol\":794:806  functionName */\n      dup4\n        /* \"contracts/abiExplain.sol\":780:807  return (a + b,functionName) */\n      swap5\n      pop\n      swap5\n      pop\n      pop\n      pop\n      pop\n        /* \"contracts/abiExplain.sol\":489:811  function decode(bytes memory data) public pure returns (uint,string memory) {... */\n      swap2\n      pop\n      swap2\n      jump\t// out\n        /* \"#utility.yul\":7:82   */\n    tag_42:\n        /* \"#utility.yul\":40:46   */\n      0x00\n        /* \"#utility.yul\":73:75   */\n      0x40\n        /* \"#utility.yul\":67:76   */\n      mload\n        /* \"#utility.yul\":57:76   */\n      swap1\n      pop\n        /* \"#utility.yul\":7:82   */\n      swap1\n      jump\t// out\n        /* \"#utility.yul\":88:205   */\n    tag_43:\n        /* \"#utility.yul\":197:198   */\n      0x00\n        /* \"#utility.yul\":194:195   */\n      dup1\n        /* \"#utility.yul\":187:199   */\n      revert\n        /* \"#utility.yul\":211:328   */\n    tag_44:\n        /* \"#utility.yul\":320:321   */\n      0x00\n        /* \"#utility.yul\":317:318   */\n      dup1\n        /* \"#utility.yul\":310:322   */\n      revert\n        /* \"#utility.yul\":334:451   */\n    tag_45:\n        /* \"#utility.yul\":443:444   */\n      0x00\n        /* \"#utility.yul\":440:441   */\n      dup1\n        /* \"#utility.yul\":433:445   */\n      revert\n        /* \"#utility.yul\":457:574   */\n    tag_46:\n        /* \"#utility.yul\":566:567   */\n      0x00\n        /* \"#utility.yul\":563:564   */\n      dup1\n        /* \"#utility.yul\":556:568   */\n      revert\n        /* \"#utility.yul\":580:682   */\n    tag_47:\n        /* \"#utility.yul\":621:627   */\n      0x00\n        /* \"#utility.yul\":672:674   */\n      0x1f\n        /* \"#utility.yul\":668:675   */\n      not\n        /* \"#utility.yul\":663:665   */\n      0x1f\n        /* \"#utility.yul\":656:661   */\n      dup4\n        /* \"#utility.yul\":652:666   */\n      add\n        /* \"#utility.yul\":648:676   */\n      and\n        /* \"#utility.yul\":638:676   */\n      swap1\n      pop\n        /* \"#utility.yul\":580:682   */\n      swap2\n      swap1\n      pop\n      jump\t// out\n        /* \"#utility.yul\":688:868   */\n    tag_48:\n        /* \"#utility.yul\":736:813   */\n      0x4e487b7100000000000000000000000000000000000000000000000000000000\n        /* \"#utility.yul\":733:734   */\n      0x00\n        /* \"#utility.yul\":726:814   */\n      mstore\n        /* \"#utility.yul\":833:837   */\n      0x41\n        /* \"#utility.yul\":830:831   */\n      0x04\n        /* \"#utility.yul\":823:838   */\n      mstore\n        /* \"#utility.yul\":857:861   */\n      0x24\n        /* \"#utility.yul\":854:855   */\n      0x00\n        /* \"#utility.yul\":847:862   */\n      revert\n        /* \"#utility.yul\":874:1155   */\n    tag_49:\n        /* \"#utility.yul\":957:984   */\n      tag_82\n        /* \"#utility.yul\":979:983   */\n      dup3\n        /* \"#utility.yul\":957:984   */\n      tag_47\n      jump\t// in\n    tag_82:\n        /* \"#utility.yul\":949:955   */\n      dup2\n        /* \"#utility.yul\":945:985   */\n      add\n        /* \"#utility.yul\":1087:1093   */\n      dup2\n        /* \"#utility.yul\":1075:1085   */\n      dup2\n        /* \"#utility.yul\":1072:1094   */\n      lt\n        /* \"#utility.yul\":1051:1069   */\n      0xffffffffffffffff\n        /* \"#utility.yul\":1039:1049   */\n      dup3\n        /* \"#utility.yul\":1036:1070   */\n      gt\n        /* \"#utility.yul\":1033:1095   */\n      or\n        /* \"#utility.yul\":1030:1118   */\n      iszero\n      tag_83\n      jumpi\n        /* \"#utility.yul\":1098:1116   */\n      tag_84\n      tag_48\n      jump\t// in\n    tag_84:\n        /* \"#utility.yul\":1030:1118   */\n    tag_83:\n        /* \"#utility.yul\":1138:1148   */\n      dup1\n        /* \"#utility.yul\":1134:1136   */\n      0x40\n        /* \"#utility.yul\":1127:1149   */\n      mstore\n        /* \"#utility.yul\":917:1155   */\n      pop\n        /* \"#utility.yul\":874:1155   */\n      pop\n      pop\n      jump\t// out\n        /* \"#utility.yul\":1161:1290   */\n    tag_50:\n        /* \"#utility.yul\":1195:1201   */\n      0x00\n        /* \"#utility.yul\":1222:1242   */\n      tag_86\n      tag_42\n      jump\t// in\n    tag_86:\n        /* \"#utility.yul\":1212:1242   */\n      swap1\n      pop\n        /* \"#utility.yul\":1251:1284   */\n      tag_87\n        /* \"#utility.yul\":1279:1283   */\n      dup3\n        /* \"#utility.yul\":1271:1277   */\n      dup3\n        /* \"#utility.yul\":1251:1284   */\n      tag_49\n      jump\t// in\n    tag_87:\n        /* \"#utility.yul\":1161:1290   */\n      swap2\n      swap1\n      pop\n      jump\t// out\n        /* \"#utility.yul\":1296:1603   */\n    tag_51:\n        /* \"#utility.yul\":1357:1361   */\n      0x00\n        /* \"#utility.yul\":1447:1465   */\n      0xffffffffffffffff\n        /* \"#utility.yul\":1439:1445   */\n      dup3\n        /* \"#utility.yul\":1436:1466   */\n      gt\n        /* \"#utility.yul\":1433:1489   */\n      iszero\n      tag_89\n      jumpi\n        /* \"#utility.yul\":1469:1487   */\n      tag_90\n      tag_48\n      jump\t// in\n    tag_90:\n        /* \"#utility.yul\":1433:1489   */\n    tag_89:\n        /* \"#utility.yul\":1507:1536   */\n      tag_91\n        /* \"#utility.yul\":1529:1535   */\n      dup3\n        /* \"#utility.yul\":1507:1536   */\n      tag_47\n      jump\t// in\n    tag_91:\n        /* \"#utility.yul\":1499:1536   */\n      swap1\n      pop\n        /* \"#utility.yul\":1591:1595   */\n      0x20\n        /* \"#utility.yul\":1585:1589   */\n      dup2\n        /* \"#utility.yul\":1581:1596   */\n      add\n        /* \"#utility.yul\":1573:1596   */\n      swap1\n      pop\n        /* \"#utility.yul\":1296:1603   */\n      swap2\n      swap1\n      pop\n      jump\t// out\n        /* \"#utility.yul\":1609:1757   */\n    tag_52:\n        /* \"#utility.yul\":1707:1713   */\n      dup3\n        /* \"#utility.yul\":1702:1705   */\n      dup2\n        /* \"#utility.yul\":1697:1700   */\n      dup4\n        /* \"#utility.yul\":1684:1714   */\n      calldatacopy\n        /* \"#utility.yul\":1748:1749   */\n      0x00\n        /* \"#utility.yul\":1739:1745   */\n      dup4\n        /* \"#utility.yul\":1734:1737   */\n      dup4\n        /* \"#utility.yul\":1730:1746   */\n      add\n        /* \"#utility.yul\":1723:1750   */\n      mstore\n        /* \"#utility.yul\":1609:1757   */\n      pop\n      pop\n      pop\n      jump\t// out\n        /* \"#utility.yul\":1763:2186   */\n    tag_53:\n        /* \"#utility.yul\":1840:1845   */\n      0x00\n        /* \"#utility.yul\":1865:1930   */\n      tag_94\n        /* \"#utility.yul\":1881:1929   */\n      tag_95\n        /* \"#utility.yul\":1922:1928   */\n      dup5\n        /* \"#utility.yul\":1881:1929   */\n      tag_51\n      jump\t// in\n    tag_95:\n        /* \"#utility.yul\":1865:1930   */\n      tag_50\n      jump\t// in\n    tag_94:\n        /* \"#utility.yul\":1856:1930   */\n      swap1\n      pop\n        /* \"#utility.yul\":1953:1959   */\n      dup3\n        /* \"#utility.yul\":1946:1951   */\n      dup2\n        /* \"#utility.yul\":1939:1960   */\n      mstore\n        /* \"#utility.yul\":1991:1995   */\n      0x20\n        /* \"#utility.yul\":1984:1989   */\n      dup2\n        /* \"#utility.yul\":1980:1996   */\n      add\n        /* \"#utility.yul\":2029:2032   */\n      dup5\n        /* \"#utility.yul\":2020:2026   */\n      dup5\n        /* \"#utility.yul\":2015:2018   */\n      dup5\n        /* \"#utility.yul\":2011:2027   */\n      add\n        /* \"#utility.yul\":2008:2033   */\n      gt\n        /* \"#utility.yul\":2005:2117   */\n      iszero\n      tag_96\n      jumpi\n        /* \"#utility.yul\":2036:2115   */\n      tag_97\n      tag_46\n      jump\t// in\n    tag_97:\n        /* \"#utility.yul\":2005:2117   */\n    tag_96:\n        /* \"#utility.yul\":2126:2180   */\n      tag_98\n        /* \"#utility.yul\":2173:2179   */\n      dup5\n        /* \"#utility.yul\":2168:2171   */\n      dup3\n        /* \"#utility.yul\":2163:2166   */\n      dup6\n        /* \"#utility.yul\":2126:2180   */\n      tag_52\n      jump\t// in\n    tag_98:\n        /* \"#utility.yul\":1846:2186   */\n      pop\n        /* \"#utility.yul\":1763:2186   */\n      swap4\n      swap3\n      pop\n      pop\n      pop\n      jump\t// out\n        /* \"#utility.yul\":2205:2543   */\n    tag_54:\n        /* \"#utility.yul\":2260:2265   */\n      0x00\n        /* \"#utility.yul\":2309:2312   */\n      dup3\n        /* \"#utility.yul\":2302:2306   */\n      0x1f\n        /* \"#utility.yul\":2294:2300   */\n      dup4\n        /* \"#utility.yul\":2290:2307   */\n      add\n        /* \"#utility.yul\":2286:2313   */\n      slt\n        /* \"#utility.yul\":2276:2398   */\n      tag_100\n      jumpi\n        /* \"#utility.yul\":2317:2396   */\n      tag_101\n      tag_45\n      jump\t// in\n    tag_101:\n        /* \"#utility.yul\":2276:2398   */\n    tag_100:\n        /* \"#utility.yul\":2434:2440   */\n      dup2\n        /* \"#utility.yul\":2421:2441   */\n      calldataload\n        /* \"#utility.yul\":2459:2537   */\n      tag_102\n        /* \"#utility.yul\":2533:2536   */\n      dup5\n        /* \"#utility.yul\":2525:2531   */\n      dup3\n        /* \"#utility.yul\":2518:2522   */\n      0x20\n        /* \"#utility.yul\":2510:2516   */\n      dup7\n        /* \"#utility.yul\":2506:2523   */\n      add\n        /* \"#utility.yul\":2459:2537   */\n      tag_53\n      jump\t// in\n    tag_102:\n        /* \"#utility.yul\":2450:2537   */\n      swap2\n      pop\n        /* \"#utility.yul\":2266:2543   */\n      pop\n        /* \"#utility.yul\":2205:2543   */\n      swap3\n      swap2\n      pop\n      pop\n      jump\t// out\n        /* \"#utility.yul\":2549:3056   */\n    tag_9:\n        /* \"#utility.yul\":2617:2623   */\n      0x00\n        /* \"#utility.yul\":2666:2668   */\n      0x20\n        /* \"#utility.yul\":2654:2663   */\n      dup3\n        /* \"#utility.yul\":2645:2652   */\n      dup5\n        /* \"#utility.yul\":2641:2664   */\n      sub\n        /* \"#utility.yul\":2637:2669   */\n      slt\n        /* \"#utility.yul\":2634:2753   */\n      iszero\n      tag_104\n      jumpi\n        /* \"#utility.yul\":2672:2751   */\n      tag_105\n      tag_43\n      jump\t// in\n    tag_105:\n        /* \"#utility.yul\":2634:2753   */\n    tag_104:\n        /* \"#utility.yul\":2820:2821   */\n      0x00\n        /* \"#utility.yul\":2809:2818   */\n      dup3\n        /* \"#utility.yul\":2805:2822   */\n      add\n        /* \"#utility.yul\":2792:2823   */\n      calldataload\n        /* \"#utility.yul\":2850:2868   */\n      0xffffffffffffffff\n        /* \"#utility.yul\":2842:2848   */\n      dup2\n        /* \"#utility.yul\":2839:2869   */\n      gt\n        /* \"#utility.yul\":2836:2953   */\n      iszero\n      tag_106\n      jumpi\n        /* \"#utility.yul\":2872:2951   */\n      tag_107\n      tag_44\n      jump\t// in\n    tag_107:\n        /* \"#utility.yul\":2836:2953   */\n    tag_106:\n        /* \"#utility.yul\":2977:3039   */\n      tag_108\n        /* \"#utility.yul\":3031:3038   */\n      dup5\n        /* \"#utility.yul\":3022:3028   */\n      dup3\n        /* \"#utility.yul\":3011:3020   */\n      dup6\n        /* \"#utility.yul\":3007:3029   */\n      add\n        /* \"#utility.yul\":2977:3039   */\n      tag_54\n      jump\t// in\n    tag_108:\n        /* \"#utility.yul\":2967:3039   */\n      swap2\n      pop\n        /* \"#utility.yul\":2763:3049   */\n      pop\n        /* \"#utility.yul\":2549:3056   */\n      swap3\n      swap2\n      pop\n      pop\n      jump\t// out\n        /* \"#utility.yul\":3062:3139   */\n    tag_55:\n        /* \"#utility.yul\":3099:3106   */\n      0x00\n        /* \"#utility.yul\":3128:3133   */\n      dup2\n        /* \"#utility.yul\":3117:3133   */\n      swap1\n      pop\n        /* \"#utility.yul\":3062:3139   */\n      swap2\n      swap1\n      pop\n      jump\t// out\n        /* \"#utility.yul\":3145:3263   */\n    tag_56:\n        /* \"#utility.yul\":3232:3256   */\n      tag_111\n        /* \"#utility.yul\":3250:3255   */\n      dup2\n        /* \"#utility.yul\":3232:3256   */\n      tag_55\n      jump\t// in\n    tag_111:\n        /* \"#utility.yul\":3227:3230   */\n      dup3\n        /* \"#utility.yul\":3220:3257   */\n      mstore\n        /* \"#utility.yul\":3145:3263   */\n      pop\n      pop\n      jump\t// out\n        /* \"#utility.yul\":3269:3491   */\n    tag_12:\n        /* \"#utility.yul\":3362:3366   */\n      0x00\n        /* \"#utility.yul\":3400:3402   */\n      0x20\n        /* \"#utility.yul\":3389:3398   */\n      dup3\n        /* \"#utility.yul\":3385:3403   */\n      add\n        /* \"#utility.yul\":3377:3403   */\n      swap1\n      pop\n        /* \"#utility.yul\":3413:3484   */\n      tag_113\n        /* \"#utility.yul\":3481:3482   */\n      0x00\n        /* \"#utility.yul\":3470:3479   */\n      dup4\n        /* \"#utility.yul\":3466:3483   */\n      add\n        /* \"#utility.yul\":3457:3463   */\n      dup5\n        /* \"#utility.yul\":3413:3484   */\n      tag_56\n      jump\t// in\n    tag_113:\n        /* \"#utility.yul\":3269:3491   */\n      swap3\n      swap2\n      pop\n      pop\n      jump\t// out\n        /* \"#utility.yul\":3497:3619   */\n    tag_57:\n        /* \"#utility.yul\":3570:3594   */\n      tag_115\n        /* \"#utility.yul\":3588:3593   */\n      dup2\n        /* \"#utility.yul\":3570:3594   */\n      tag_55\n      jump\t// in\n    tag_115:\n        /* \"#utility.yul\":3563:3568   */\n      dup2\n        /* \"#utility.yul\":3560:3595   */\n      eq\n        /* \"#utility.yul\":3550:3613   */\n      tag_116\n      jumpi\n        /* \"#utility.yul\":3609:3610   */\n      0x00\n        /* \"#utility.yul\":3606:3607   */\n      dup1\n        /* \"#utility.yul\":3599:3611   */\n      revert\n        /* \"#utility.yul\":3550:3613   */\n    tag_116:\n        /* \"#utility.yul\":3497:3619   */\n      pop\n      jump\t// out\n        /* \"#utility.yul\":3625:3764   */\n    tag_58:\n        /* \"#utility.yul\":3671:3676   */\n      0x00\n        /* \"#utility.yul\":3709:3715   */\n      dup2\n        /* \"#utility.yul\":3696:3716   */\n      calldataload\n        /* \"#utility.yul\":3687:3716   */\n      swap1\n      pop\n        /* \"#utility.yul\":3725:3758   */\n      tag_118\n        /* \"#utility.yul\":3752:3757   */\n      dup2\n        /* \"#utility.yul\":3725:3758   */\n      tag_57\n      jump\t// in\n    tag_118:\n        /* \"#utility.yul\":3625:3764   */\n      swap3\n      swap2\n      pop\n      pop\n      jump\t// out\n        /* \"#utility.yul\":3770:4244   */\n    tag_15:\n        /* \"#utility.yul\":3838:3844   */\n      0x00\n        /* \"#utility.yul\":3846:3852   */\n      dup1\n        /* \"#utility.yul\":3895:3897   */\n      0x40\n        /* \"#utility.yul\":3883:3892   */\n      dup4\n        /* \"#utility.yul\":3874:3881   */\n      dup6\n        /* \"#utility.yul\":3870:3893   */\n      sub\n        /* \"#utility.yul\":3866:3898   */\n      slt\n        /* \"#utility.yul\":3863:3982   */\n      iszero\n      tag_120\n      jumpi\n        /* \"#utility.yul\":3901:3980   */\n      tag_121\n      tag_43\n      jump\t// in\n    tag_121:\n        /* \"#utility.yul\":3863:3982   */\n    tag_120:\n        /* \"#utility.yul\":4021:4022   */\n      0x00\n        /* \"#utility.yul\":4046:4099   */\n      tag_122\n        /* \"#utility.yul\":4091:4098   */\n      dup6\n        /* \"#utility.yul\":4082:4088   */\n      dup3\n        /* \"#utility.yul\":4071:4080   */\n      dup7\n        /* \"#utility.yul\":4067:4089   */\n      add\n        /* \"#utility.yul\":4046:4099   */\n      tag_58\n      jump\t// in\n    tag_122:\n        /* \"#utility.yul\":4036:4099   */\n      swap3\n      pop\n        /* \"#utility.yul\":3992:4109   */\n      pop\n        /* \"#utility.yul\":4148:4150   */\n      0x20\n        /* \"#utility.yul\":4174:4227   */\n      tag_123\n        /* \"#utility.yul\":4219:4226   */\n      dup6\n        /* \"#utility.yul\":4210:4216   */\n      dup3\n        /* \"#utility.yul\":4199:4208   */\n      dup7\n        /* \"#utility.yul\":4195:4217   */\n      add\n        /* \"#utility.yul\":4174:4227   */\n      tag_58\n      jump\t// in\n    tag_123:\n        /* \"#utility.yul\":4164:4227   */\n      swap2\n      pop\n        /* \"#utility.yul\":4119:4237   */\n      pop\n        /* \"#utility.yul\":3770:4244   */\n      swap3\n      pop\n      swap3\n      swap1\n      pop\n      jump\t// out\n        /* \"#utility.yul\":4250:4348   */\n    tag_59:\n        /* \"#utility.yul\":4301:4307   */\n      0x00\n        /* \"#utility.yul\":4335:4340   */\n      dup2\n        /* \"#utility.yul\":4329:4341   */\n      mload\n        /* \"#utility.yul\":4319:4341   */\n      swap1\n      pop\n        /* \"#utility.yul\":4250:4348   */\n      swap2\n      swap1\n      pop\n      jump\t// out\n        /* \"#utility.yul\":4354:4522   */\n    tag_60:\n        /* \"#utility.yul\":4437:4448   */\n      0x00\n        /* \"#utility.yul\":4471:4477   */\n      dup3\n        /* \"#utility.yul\":4466:4469   */\n      dup3\n        /* \"#utility.yul\":4459:4478   */\n      mstore\n        /* \"#utility.yul\":4511:4515   */\n      0x20\n        /* \"#utility.yul\":4506:4509   */\n      dup3\n        /* \"#utility.yul\":4502:4516   */\n      add\n        /* \"#utility.yul\":4487:4516   */\n      swap1\n      pop\n        /* \"#utility.yul\":4354:4522   */\n      swap3\n      swap2\n      pop\n      pop\n      jump\t// out\n        /* \"#utility.yul\":4528:4667   */\n    tag_61:\n        /* \"#utility.yul\":4617:4623   */\n      dup3\n        /* \"#utility.yul\":4612:4615   */\n      dup2\n        /* \"#utility.yul\":4607:4610   */\n      dup4\n        /* \"#utility.yul\":4601:4624   */\n      mcopy\n        /* \"#utility.yul\":4658:4659   */\n      0x00\n        /* \"#utility.yul\":4649:4655   */\n      dup4\n        /* \"#utility.yul\":4644:4647   */\n      dup4\n        /* \"#utility.yul\":4640:4656   */\n      add\n        /* \"#utility.yul\":4633:4660   */\n      mstore\n        /* \"#utility.yul\":4528:4667   */\n      pop\n      pop\n      pop\n      jump\t// out\n        /* \"#utility.yul\":4673:5046   */\n    tag_62:\n        /* \"#utility.yul\":4759:4762   */\n      0x00\n        /* \"#utility.yul\":4787:4825   */\n      tag_128\n        /* \"#utility.yul\":4819:4824   */\n      dup3\n        /* \"#utility.yul\":4787:4825   */\n      tag_59\n      jump\t// in\n    tag_128:\n        /* \"#utility.yul\":4841:4911   */\n      tag_129\n        /* \"#utility.yul\":4904:4910   */\n      dup2\n        /* \"#utility.yul\":4899:4902   */\n      dup6\n        /* \"#utility.yul\":4841:4911   */\n      tag_60\n      jump\t// in\n    tag_129:\n        /* \"#utility.yul\":4834:4911   */\n      swap4\n      pop\n        /* \"#utility.yul\":4920:4985   */\n      tag_130\n        /* \"#utility.yul\":4978:4984   */\n      dup2\n        /* \"#utility.yul\":4973:4976   */\n      dup6\n        /* \"#utility.yul\":4966:4970   */\n      0x20\n        /* \"#utility.yul\":4959:4964   */\n      dup7\n        /* \"#utility.yul\":4955:4971   */\n      add\n        /* \"#utility.yul\":4920:4985   */\n      tag_61\n      jump\t// in\n    tag_130:\n        /* \"#utility.yul\":5010:5039   */\n      tag_131\n        /* \"#utility.yul\":5032:5038   */\n      dup2\n        /* \"#utility.yul\":5010:5039   */\n      tag_47\n      jump\t// in\n    tag_131:\n        /* \"#utility.yul\":5005:5008   */\n      dup5\n        /* \"#utility.yul\":5001:5040   */\n      add\n        /* \"#utility.yul\":4994:5040   */\n      swap2\n      pop\n        /* \"#utility.yul\":4763:5046   */\n      pop\n        /* \"#utility.yul\":4673:5046   */\n      swap3\n      swap2\n      pop\n      pop\n      jump\t// out\n        /* \"#utility.yul\":5052:5361   */\n    tag_22:\n        /* \"#utility.yul\":5163:5167   */\n      0x00\n        /* \"#utility.yul\":5201:5203   */\n      0x20\n        /* \"#utility.yul\":5190:5199   */\n      dup3\n        /* \"#utility.yul\":5186:5204   */\n      add\n        /* \"#utility.yul\":5178:5204   */\n      swap1\n      pop\n        /* \"#utility.yul\":5250:5259   */\n      dup2\n        /* \"#utility.yul\":5244:5248   */\n      dup2\n        /* \"#utility.yul\":5240:5260   */\n      sub\n        /* \"#utility.yul\":5236:5237   */\n      0x00\n        /* \"#utility.yul\":5225:5234   */\n      dup4\n        /* \"#utility.yul\":5221:5238   */\n      add\n        /* \"#utility.yul\":5214:5261   */\n      mstore\n        /* \"#utility.yul\":5278:5354   */\n      tag_133\n        /* \"#utility.yul\":5349:5353   */\n      dup2\n        /* \"#utility.yul\":5340:5346   */\n      dup5\n        /* \"#utility.yul\":5278:5354   */\n      tag_62\n      jump\t// in\n    tag_133:\n        /* \"#utility.yul\":5270:5354   */\n      swap1\n      pop\n        /* \"#utility.yul\":5052:5361   */\n      swap3\n      swap2\n      pop\n      pop\n      jump\t// out\n        /* \"#utility.yul\":5367:5466   */\n    tag_63:\n        /* \"#utility.yul\":5419:5425   */\n      0x00\n        /* \"#utility.yul\":5453:5458   */\n      dup2\n        /* \"#utility.yul\":5447:5459   */\n      mload\n        /* \"#utility.yul\":5437:5459   */\n      swap1\n      pop\n        /* \"#utility.yul\":5367:5466   */\n      swap2\n      swap1\n      pop\n      jump\t// out\n        /* \"#utility.yul\":5472:5641   */\n    tag_64:\n        /* \"#utility.yul\":5556:5567   */\n      0x00\n        /* \"#utility.yul\":5590:5596   */\n      dup3\n        /* \"#utility.yul\":5585:5588   */\n      dup3\n        /* \"#utility.yul\":5578:5597   */\n      mstore\n        /* \"#utility.yul\":5630:5634   */\n      0x20\n        /* \"#utility.yul\":5625:5628   */\n      dup3\n        /* \"#utility.yul\":5621:5635   */\n      add\n        /* \"#utility.yul\":5606:5635   */\n      swap1\n      pop\n        /* \"#utility.yul\":5472:5641   */\n      swap3\n      swap2\n      pop\n      pop\n      jump\t// out\n        /* \"#utility.yul\":5647:6024   */\n    tag_65:\n        /* \"#utility.yul\":5735:5738   */\n      0x00\n        /* \"#utility.yul\":5763:5802   */\n      tag_137\n        /* \"#utility.yul\":5796:5801   */\n      dup3\n        /* \"#utility.yul\":5763:5802   */\n      tag_63\n      jump\t// in\n    tag_137:\n        /* \"#utility.yul\":5818:5889   */\n      tag_138\n        /* \"#utility.yul\":5882:5888   */\n      dup2\n        /* \"#utility.yul\":5877:5880   */\n      dup6\n        /* \"#utility.yul\":5818:5889   */\n      tag_64\n      jump\t// in\n    tag_138:\n        /* \"#utility.yul\":5811:5889   */\n      swap4\n      pop\n        /* \"#utility.yul\":5898:5963   */\n      tag_139\n        /* \"#utility.yul\":5956:5962   */\n      dup2\n        /* \"#utility.yul\":5951:5954   */\n      dup6\n        /* \"#utility.yul\":5944:5948   */\n      0x20\n        /* \"#utility.yul\":5937:5942   */\n      dup7\n        /* \"#utility.yul\":5933:5949   */\n      add\n        /* \"#utility.yul\":5898:5963   */\n      tag_61\n      jump\t// in\n    tag_139:\n        /* \"#utility.yul\":5988:6017   */\n      tag_140\n        /* \"#utility.yul\":6010:6016   */\n      dup2\n        /* \"#utility.yul\":5988:6017   */\n      tag_47\n      jump\t// in\n    tag_140:\n        /* \"#utility.yul\":5983:5986   */\n      dup5\n        /* \"#utility.yul\":5979:6018   */\n      add\n        /* \"#utility.yul\":5972:6018   */\n      swap2\n      pop\n        /* \"#utility.yul\":5739:6024   */\n      pop\n        /* \"#utility.yul\":5647:6024   */\n      swap3\n      swap2\n      pop\n      pop\n      jump\t// out\n        /* \"#utility.yul\":6030:6453   */\n    tag_27:\n        /* \"#utility.yul\":6171:6175   */\n      0x00\n        /* \"#utility.yul\":6209:6211   */\n      0x40\n        /* \"#utility.yul\":6198:6207   */\n      dup3\n        /* \"#utility.yul\":6194:6212   */\n      add\n        /* \"#utility.yul\":6186:6212   */\n      swap1\n      pop\n        /* \"#utility.yul\":6222:6293   */\n      tag_142\n        /* \"#utility.yul\":6290:6291   */\n      0x00\n        /* \"#utility.yul\":6279:6288   */\n      dup4\n        /* \"#utility.yul\":6275:6292   */\n      add\n        /* \"#utility.yul\":6266:6272   */\n      dup6\n        /* \"#utility.yul\":6222:6293   */\n      tag_56\n      jump\t// in\n    tag_142:\n        /* \"#utility.yul\":6340:6349   */\n      dup2\n        /* \"#utility.yul\":6334:6338   */\n      dup2\n        /* \"#utility.yul\":6330:6350   */\n      sub\n        /* \"#utility.yul\":6325:6327   */\n      0x20\n        /* \"#utility.yul\":6314:6323   */\n      dup4\n        /* \"#utility.yul\":6310:6328   */\n      add\n        /* \"#utility.yul\":6303:6351   */\n      mstore\n        /* \"#utility.yul\":6368:6446   */\n      tag_143\n        /* \"#utility.yul\":6441:6445   */\n      dup2\n        /* \"#utility.yul\":6432:6438   */\n      dup5\n        /* \"#utility.yul\":6368:6446   */\n      tag_65\n      jump\t// in\n    tag_143:\n        /* \"#utility.yul\":6360:6446   */\n      swap1\n      pop\n        /* \"#utility.yul\":6030:6453   */\n      swap4\n      swap3\n      pop\n      pop\n      pop\n      jump\t// out\n        /* \"#utility.yul\":6459:6602   */\n    tag_66:\n        /* \"#utility.yul\":6516:6521   */\n      0x00\n        /* \"#utility.yul\":6547:6553   */\n      dup2\n        /* \"#utility.yul\":6541:6554   */\n      mload\n        /* \"#utility.yul\":6532:6554   */\n      swap1\n      pop\n        /* \"#utility.yul\":6563:6596   */\n      tag_145\n        /* \"#utility.yul\":6590:6595   */\n      dup2\n        /* \"#utility.yul\":6563:6596   */\n      tag_57\n      jump\t// in\n    tag_145:\n        /* \"#utility.yul\":6459:6602   */\n      swap3\n      swap2\n      pop\n      pop\n      jump\t// out\n        /* \"#utility.yul\":6608:7115   */\n    tag_30:\n        /* \"#utility.yul\":6687:6693   */\n      0x00\n        /* \"#utility.yul\":6695:6701   */\n      dup1\n        /* \"#utility.yul\":6744:6746   */\n      0x40\n        /* \"#utility.yul\":6732:6741   */\n      dup4\n        /* \"#utility.yul\":6723:6730   */\n      dup6\n        /* \"#utility.yul\":6719:6742   */\n      sub\n        /* \"#utility.yul\":6715:6747   */\n      slt\n        /* \"#utility.yul\":6712:6831   */\n      iszero\n      tag_147\n      jumpi\n        /* \"#utility.yul\":6750:6829   */\n      tag_148\n      tag_43\n      jump\t// in\n    tag_148:\n        /* \"#utility.yul\":6712:6831   */\n    tag_147:\n        /* \"#utility.yul\":6870:6871   */\n      0x00\n        /* \"#utility.yul\":6895:6959   */\n      tag_149\n        /* \"#utility.yul\":6951:6958   */\n      dup6\n        /* \"#utility.yul\":6942:6948   */\n      dup3\n        /* \"#utility.yul\":6931:6940   */\n      dup7\n        /* \"#utility.yul\":6927:6949   */\n      add\n        /* \"#utility.yul\":6895:6959   */\n      tag_66\n      jump\t// in\n    tag_149:\n        /* \"#utility.yul\":6885:6959   */\n      swap3\n      pop\n        /* \"#utility.yul\":6841:6969   */\n      pop\n        /* \"#utility.yul\":7008:7010   */\n      0x20\n        /* \"#utility.yul\":7034:7098   */\n      tag_150\n        /* \"#utility.yul\":7090:7097   */\n      dup6\n        /* \"#utility.yul\":7081:7087   */\n      dup3\n        /* \"#utility.yul\":7070:7079   */\n      dup7\n        /* \"#utility.yul\":7066:7088   */\n      add\n        /* \"#utility.yul\":7034:7098   */\n      tag_66\n      jump\t// in\n    tag_150:\n        /* \"#utility.yul\":7024:7098   */\n      swap2\n      pop\n        /* \"#utility.yul\":6979:7108   */\n      pop\n        /* \"#utility.yul\":6608:7115   */\n      swap3\n      pop\n      swap3\n      swap1\n      pop\n      jump\t// out\n        /* \"#utility.yul\":7121:7301   */\n    tag_67:\n        /* \"#utility.yul\":7169:7246   */\n      0x4e487b7100000000000000000000000000000000000000000000000000000000\n        /* \"#utility.yul\":7166:7167   */\n      0x00\n        /* \"#utility.yul\":7159:7247   */\n      mstore\n        /* \"#utility.yul\":7266:7270   */\n      0x11\n        /* \"#utility.yul\":7263:7264   */\n      0x04\n        /* \"#utility.yul\":7256:7271   */\n      mstore\n        /* \"#utility.yul\":7290:7294   */\n      0x24\n        /* \"#utility.yul\":7287:7288   */\n      0x00\n        /* \"#utility.yul\":7280:7295   */\n      revert\n        /* \"#utility.yul\":7307:7498   */\n    tag_32:\n        /* \"#utility.yul\":7347:7350   */\n      0x00\n        /* \"#utility.yul\":7366:7386   */\n      tag_153\n        /* \"#utility.yul\":7384:7385   */\n      dup3\n        /* \"#utility.yul\":7366:7386   */\n      tag_55\n      jump\t// in\n    tag_153:\n        /* \"#utility.yul\":7361:7386   */\n      swap2\n      pop\n        /* \"#utility.yul\":7400:7420   */\n      tag_154\n        /* \"#utility.yul\":7418:7419   */\n      dup4\n        /* \"#utility.yul\":7400:7420   */\n      tag_55\n      jump\t// in\n    tag_154:\n        /* \"#utility.yul\":7395:7420   */\n      swap3\n      pop\n        /* \"#utility.yul\":7443:7444   */\n      dup3\n        /* \"#utility.yul\":7440:7441   */\n      dup3\n        /* \"#utility.yul\":7436:7445   */\n      add\n        /* \"#utility.yul\":7429:7445   */\n      swap1\n      pop\n        /* \"#utility.yul\":7464:7467   */\n      dup1\n        /* \"#utility.yul\":7461:7462   */\n      dup3\n        /* \"#utility.yul\":7458:7468   */\n      gt\n        /* \"#utility.yul\":7455:7491   */\n      iszero\n      tag_155\n      jumpi\n        /* \"#utility.yul\":7471:7489   */\n      tag_156\n      tag_67\n      jump\t// in\n    tag_156:\n        /* \"#utility.yul\":7455:7491   */\n    tag_155:\n        /* \"#utility.yul\":7307:7498   */\n      swap3\n      swap2\n      pop\n      pop\n      jump\t// out\n        /* \"#utility.yul\":7504:7658   */\n    tag_68:\n        /* \"#utility.yul\":7644:7650   */\n      0x66756e3100000000000000000000000000000000000000000000000000000000\n        /* \"#utility.yul\":7640:7641   */\n      0x00\n        /* \"#utility.yul\":7632:7638   */\n      dup3\n        /* \"#utility.yul\":7628:7642   */\n      add\n        /* \"#utility.yul\":7621:7651   */\n      mstore\n        /* \"#utility.yul\":7504:7658   */\n      pop\n      jump\t// out\n        /* \"#utility.yul\":7664:8029   */\n    tag_69:\n        /* \"#utility.yul\":7806:7809   */\n      0x00\n        /* \"#utility.yul\":7827:7893   */\n      tag_159\n        /* \"#utility.yul\":7891:7892   */\n      0x04\n        /* \"#utility.yul\":7886:7889   */\n      dup4\n        /* \"#utility.yul\":7827:7893   */\n      tag_64\n      jump\t// in\n    tag_159:\n        /* \"#utility.yul\":7820:7893   */\n      swap2\n      pop\n        /* \"#utility.yul\":7902:7995   */\n      tag_160\n        /* \"#utility.yul\":7991:7994   */\n      dup3\n        /* \"#utility.yul\":7902:7995   */\n      tag_68\n      jump\t// in\n    tag_160:\n        /* \"#utility.yul\":8020:8022   */\n      0x20\n        /* \"#utility.yul\":8015:8018   */\n      dup3\n        /* \"#utility.yul\":8011:8023   */\n      add\n        /* \"#utility.yul\":8004:8023   */\n      swap1\n      pop\n        /* \"#utility.yul\":7664:8029   */\n      swap2\n      swap1\n      pop\n      jump\t// out\n        /* \"#utility.yul\":8035:8674   */\n    tag_37:\n        /* \"#utility.yul\":8257:8261   */\n      0x00\n        /* \"#utility.yul\":8295:8297   */\n      0x60\n        /* \"#utility.yul\":8284:8293   */\n      dup3\n        /* \"#utility.yul\":8280:8298   */\n      add\n        /* \"#utility.yul\":8272:8298   */\n      swap1\n      pop\n        /* \"#utility.yul\":8344:8353   */\n      dup2\n        /* \"#utility.yul\":8338:8342   */\n      dup2\n        /* \"#utility.yul\":8334:8354   */\n      sub\n        /* \"#utility.yul\":8330:8331   */\n      0x00\n        /* \"#utility.yul\":8319:8328   */\n      dup4\n        /* \"#utility.yul\":8315:8332   */\n      add\n        /* \"#utility.yul\":8308:8355   */\n      mstore\n        /* \"#utility.yul\":8372:8503   */\n      tag_162\n        /* \"#utility.yul\":8498:8502   */\n      dup2\n        /* \"#utility.yul\":8372:8503   */\n      tag_69\n      jump\t// in\n    tag_162:\n        /* \"#utility.yul\":8364:8503   */\n      swap1\n      pop\n        /* \"#utility.yul\":8513:8585   */\n      tag_163\n        /* \"#utility.yul\":8581:8583   */\n      0x20\n        /* \"#utility.yul\":8570:8579   */\n      dup4\n        /* \"#utility.yul\":8566:8584   */\n      add\n        /* \"#utility.yul\":8557:8563   */\n      dup6\n        /* \"#utility.yul\":8513:8585   */\n      tag_56\n      jump\t// in\n    tag_163:\n        /* \"#utility.yul\":8595:8667   */\n      tag_164\n        /* \"#utility.yul\":8663:8665   */\n      0x40\n        /* \"#utility.yul\":8652:8661   */\n      dup4\n        /* \"#utility.yul\":8648:8666   */\n      add\n        /* \"#utility.yul\":8639:8645   */\n      dup5\n        /* \"#utility.yul\":8595:8667   */\n      tag_56\n      jump\t// in\n    tag_164:\n        /* \"#utility.yul\":8035:8674   */\n      swap4\n      swap3\n      pop\n      pop\n      pop\n      jump\t// out\n        /* \"#utility.yul\":8680:8988   */\n    tag_70:\n        /* \"#utility.yul\":8742:8746   */\n      0x00\n        /* \"#utility.yul\":8832:8850   */\n      0xffffffffffffffff\n        /* \"#utility.yul\":8824:8830   */\n      dup3\n        /* \"#utility.yul\":8821:8851   */\n      gt\n        /* \"#utility.yul\":8818:8874   */\n      iszero\n      tag_166\n      jumpi\n        /* \"#utility.yul\":8854:8872   */\n      tag_167\n      tag_48\n      jump\t// in\n    tag_167:\n        /* \"#utility.yul\":8818:8874   */\n    tag_166:\n        /* \"#utility.yul\":8892:8921   */\n      tag_168\n        /* \"#utility.yul\":8914:8920   */\n      dup3\n        /* \"#utility.yul\":8892:8921   */\n      tag_47\n      jump\t// in\n    tag_168:\n        /* \"#utility.yul\":8884:8921   */\n      swap1\n      pop\n        /* \"#utility.yul\":8976:8980   */\n      0x20\n        /* \"#utility.yul\":8970:8974   */\n      dup2\n        /* \"#utility.yul\":8966:8981   */\n      add\n        /* \"#utility.yul\":8958:8981   */\n      swap1\n      pop\n        /* \"#utility.yul\":8680:8988   */\n      swap2\n      swap1\n      pop\n      jump\t// out\n        /* \"#utility.yul\":8994:9428   */\n    tag_71:\n        /* \"#utility.yul\":9083:9088   */\n      0x00\n        /* \"#utility.yul\":9108:9174   */\n      tag_170\n        /* \"#utility.yul\":9124:9173   */\n      tag_171\n        /* \"#utility.yul\":9166:9172   */\n      dup5\n        /* \"#utility.yul\":9124:9173   */\n      tag_70\n      jump\t// in\n    tag_171:\n        /* \"#utility.yul\":9108:9174   */\n      tag_50\n      jump\t// in\n    tag_170:\n        /* \"#utility.yul\":9099:9174   */\n      swap1\n      pop\n        /* \"#utility.yul\":9197:9203   */\n      dup3\n        /* \"#utility.yul\":9190:9195   */\n      dup2\n        /* \"#utility.yul\":9183:9204   */\n      mstore\n        /* \"#utility.yul\":9235:9239   */\n      0x20\n        /* \"#utility.yul\":9228:9233   */\n      dup2\n        /* \"#utility.yul\":9224:9240   */\n      add\n        /* \"#utility.yul\":9273:9276   */\n      dup5\n        /* \"#utility.yul\":9264:9270   */\n      dup5\n        /* \"#utility.yul\":9259:9262   */\n      dup5\n        /* \"#utility.yul\":9255:9271   */\n      add\n        /* \"#utility.yul\":9252:9277   */\n      gt\n        /* \"#utility.yul\":9249:9361   */\n      iszero\n      tag_172\n      jumpi\n        /* \"#utility.yul\":9280:9359   */\n      tag_173\n      tag_46\n      jump\t// in\n    tag_173:\n        /* \"#utility.yul\":9249:9361   */\n    tag_172:\n        /* \"#utility.yul\":9370:9422   */\n      tag_174\n        /* \"#utility.yul\":9415:9421   */\n      dup5\n        /* \"#utility.yul\":9410:9413   */\n      dup3\n        /* \"#utility.yul\":9405:9408   */\n      dup6\n        /* \"#utility.yul\":9370:9422   */\n      tag_61\n      jump\t// in\n    tag_174:\n        /* \"#utility.yul\":9089:9428   */\n      pop\n        /* \"#utility.yul\":8994:9428   */\n      swap4\n      swap3\n      pop\n      pop\n      pop\n      jump\t// out\n        /* \"#utility.yul\":9448:9803   */\n    tag_72:\n        /* \"#utility.yul\":9515:9520   */\n      0x00\n        /* \"#utility.yul\":9564:9567   */\n      dup3\n        /* \"#utility.yul\":9557:9561   */\n      0x1f\n        /* \"#utility.yul\":9549:9555   */\n      dup4\n        /* \"#utility.yul\":9545:9562   */\n      add\n        /* \"#utility.yul\":9541:9568   */\n      slt\n        /* \"#utility.yul\":9531:9653   */\n      tag_176\n      jumpi\n        /* \"#utility.yul\":9572:9651   */\n      tag_177\n      tag_45\n      jump\t// in\n    tag_177:\n        /* \"#utility.yul\":9531:9653   */\n    tag_176:\n        /* \"#utility.yul\":9682:9688   */\n      dup2\n        /* \"#utility.yul\":9676:9689   */\n      mload\n        /* \"#utility.yul\":9707:9797   */\n      tag_178\n        /* \"#utility.yul\":9793:9796   */\n      dup5\n        /* \"#utility.yul\":9785:9791   */\n      dup3\n        /* \"#utility.yul\":9778:9782   */\n      0x20\n        /* \"#utility.yul\":9770:9776   */\n      dup7\n        /* \"#utility.yul\":9766:9783   */\n      add\n        /* \"#utility.yul\":9707:9797   */\n      tag_71\n      jump\t// in\n    tag_178:\n        /* \"#utility.yul\":9698:9797   */\n      swap2\n      pop\n        /* \"#utility.yul\":9521:9803   */\n      pop\n        /* \"#utility.yul\":9448:9803   */\n      swap3\n      swap2\n      pop\n      pop\n      jump\t// out\n        /* \"#utility.yul\":9809:10645   */\n    tag_40:\n        /* \"#utility.yul\":9907:9913   */\n      0x00\n        /* \"#utility.yul\":9915:9921   */\n      dup1\n        /* \"#utility.yul\":9923:9929   */\n      0x00\n        /* \"#utility.yul\":9972:9974   */\n      0x60\n        /* \"#utility.yul\":9960:9969   */\n      dup5\n        /* \"#utility.yul\":9951:9958   */\n      dup7\n        /* \"#utility.yul\":9947:9970   */\n      sub\n        /* \"#utility.yul\":9943:9975   */\n      slt\n        /* \"#utility.yul\":9940:10059   */\n      iszero\n      tag_180\n      jumpi\n        /* \"#utility.yul\":9978:10057   */\n      tag_181\n      tag_43\n      jump\t// in\n    tag_181:\n        /* \"#utility.yul\":9940:10059   */\n    tag_180:\n        /* \"#utility.yul\":10119:10120   */\n      0x00\n        /* \"#utility.yul\":10108:10117   */\n      dup5\n        /* \"#utility.yul\":10104:10121   */\n      add\n        /* \"#utility.yul\":10098:10122   */\n      mload\n        /* \"#utility.yul\":10149:10167   */\n      0xffffffffffffffff\n        /* \"#utility.yul\":10141:10147   */\n      dup2\n        /* \"#utility.yul\":10138:10168   */\n      gt\n        /* \"#utility.yul\":10135:10252   */\n      iszero\n      tag_182\n      jumpi\n        /* \"#utility.yul\":10171:10250   */\n      tag_183\n      tag_44\n      jump\t// in\n    tag_183:\n        /* \"#utility.yul\":10135:10252   */\n    tag_182:\n        /* \"#utility.yul\":10276:10350   */\n      tag_184\n        /* \"#utility.yul\":10342:10349   */\n      dup7\n        /* \"#utility.yul\":10333:10339   */\n      dup3\n        /* \"#utility.yul\":10322:10331   */\n      dup8\n        /* \"#utility.yul\":10318:10340   */\n      add\n        /* \"#utility.yul\":10276:10350   */\n      tag_72\n      jump\t// in\n    tag_184:\n        /* \"#utility.yul\":10266:10350   */\n      swap4\n      pop\n        /* \"#utility.yul\":10069:10360   */\n      pop\n        /* \"#utility.yul\":10399:10401   */\n      0x20\n        /* \"#utility.yul\":10425:10489   */\n      tag_185\n        /* \"#utility.yul\":10481:10488   */\n      dup7\n        /* \"#utility.yul\":10472:10478   */\n      dup3\n        /* \"#utility.yul\":10461:10470   */\n      dup8\n        /* \"#utility.yul\":10457:10479   */\n      add\n        /* \"#utility.yul\":10425:10489   */\n      tag_66\n      jump\t// in\n    tag_185:\n        /* \"#utility.yul\":10415:10489   */\n      swap3\n      pop\n        /* \"#utility.yul\":10370:10499   */\n      pop\n        /* \"#utility.yul\":10538:10540   */\n      0x40\n        /* \"#utility.yul\":10564:10628   */\n      tag_186\n        /* \"#utility.yul\":10620:10627   */\n      dup7\n        /* \"#utility.yul\":10611:10617   */\n      dup3\n        /* \"#utility.yul\":10600:10609   */\n      dup8\n        /* \"#utility.yul\":10596:10618   */\n      add\n        /* \"#utility.yul\":10564:10628   */\n      tag_66\n      jump\t// in\n    tag_186:\n        /* \"#utility.yul\":10554:10628   */\n      swap2\n      pop\n        /* \"#utility.yul\":10509:10638   */\n      pop\n        /* \"#utility.yul\":9809:10645   */\n      swap3\n      pop\n      swap3\n      pop\n      swap3\n      jump\t// out\n\n    auxdata: 0xa264697066735822122068dbd80c8595fc1bb617724daba8f591d59c1bb9c1e26caa2e3d8a46093b31ad64736f6c63430008190033\n}\n",
				"bytecode": {
					"linkReferences": {},
					"object": "6080604052348015600e575f80fd5b506107618061001c5f395ff3fe608060405234801561000f575f80fd5b506004361061004a575f3560e01c8063bac1d5721461004e578063d591b6be1461007e578063dc0aa2af146100ae578063e5c5e9a3146100de575b5f80fd5b6100686004803603810190610063919061030b565b61010f565b604051610075919061036a565b60405180910390f35b610098600480360381019061009391906103ad565b61013f565b6040516100a5919061036a565b60405180910390f35b6100c860048036038101906100c391906103ad565b610154565b6040516100d5919061044b565b60405180910390f35b6100f860048036038101906100f3919061030b565b610185565b6040516101069291906104bd565b60405180910390f35b5f805f8380602001905181019061012691906104ff565b915091508082610136919061056a565b92505050919050565b5f818361014c919061056a565b905092915050565b60605f838360405160200161016a9291906105e7565b60405160208183030381529060405290508091505092915050565b5f60605f805f8580602001905181019061019f91906106bf565b92509250925080826101b1919061056a565b8394509450505050915091565b5f604051905090565b5f80fd5b5f80fd5b5f80fd5b5f80fd5b5f601f19601f8301169050919050565b7f4e487b71000000000000000000000000000000000000000000000000000000005f52604160045260245ffd5b61021d826101d7565b810181811067ffffffffffffffff8211171561023c5761023b6101e7565b5b80604052505050565b5f61024e6101be565b905061025a8282610214565b919050565b5f67ffffffffffffffff821115610279576102786101e7565b5b610282826101d7565b9050602081019050919050565b828183375f83830152505050565b5f6102af6102aa8461025f565b610245565b9050828152602081018484840111156102cb576102ca6101d3565b5b6102d684828561028f565b509392505050565b5f82601f8301126102f2576102f16101cf565b5b813561030284826020860161029d565b91505092915050565b5f602082840312156103205761031f6101c7565b5b5f82013567ffffffffffffffff81111561033d5761033c6101cb565b5b610349848285016102de565b91505092915050565b5f819050919050565b61036481610352565b82525050565b5f60208201905061037d5f83018461035b565b92915050565b61038c81610352565b8114610396575f80fd5b50565b5f813590506103a781610383565b92915050565b5f80604083850312156103c3576103c26101c7565b5b5f6103d085828601610399565b92505060206103e185828601610399565b9150509250929050565b5f81519050919050565b5f82825260208201905092915050565b8281835e5f83830152505050565b5f61041d826103eb565b61042781856103f5565b9350610437818560208601610405565b610440816101d7565b840191505092915050565b5f6020820190508181035f8301526104638184610413565b905092915050565b5f81519050919050565b5f82825260208201905092915050565b5f61048f8261046b565b6104998185610475565b93506104a9818560208601610405565b6104b2816101d7565b840191505092915050565b5f6040820190506104d05f83018561035b565b81810360208301526104e28184610485565b90509392505050565b5f815190506104f981610383565b92915050565b5f8060408385031215610515576105146101c7565b5b5f610522858286016104eb565b9250506020610533858286016104eb565b9150509250929050565b7f4e487b71000000000000000000000000000000000000000000000000000000005f52601160045260245ffd5b5f61057482610352565b915061057f83610352565b92508282019050808211156105975761059661053d565b5b92915050565b7f66756e31000000000000000000000000000000000000000000000000000000005f82015250565b5f6105d1600483610475565b91506105dc8261059d565b602082019050919050565b5f6060820190508181035f8301526105fe816105c5565b905061060d602083018561035b565b61061a604083018461035b565b9392505050565b5f67ffffffffffffffff82111561063b5761063a6101e7565b5b610644826101d7565b9050602081019050919050565b5f61066361065e84610621565b610245565b90508281526020810184848401111561067f5761067e6101d3565b5b61068a848285610405565b509392505050565b5f82601f8301126106a6576106a56101cf565b5b81516106b6848260208601610651565b91505092915050565b5f805f606084860312156106d6576106d56101c7565b5b5f84015167ffffffffffffffff8111156106f3576106f26101cb565b5b6106ff86828701610692565b9350506020610710868287016104eb565b9250506040610721868287016104eb565b915050925092509256fea264697066735822122068dbd80c8595fc1bb617724daba8f591d59c1bb9c1e26caa2e3d8a46093b31ad64736f6c63430008190033",
					"opcodes": "PUSH1 0x80 PUSH1 0x40 MSTORE CALLVALUE DUP1 ISZERO PUSH1 0xE JUMPI PUSH0 DUP1 REVERT JUMPDEST POP PUSH2 0x761 DUP1 PUSH2 0x1C PUSH0 CODECOPY PUSH0 RETURN INVALID PUSH1 0x80 PUSH1 0x40 MSTORE CALLVALUE DUP1 ISZERO PUSH2 0xF JUMPI PUSH0 DUP1 REVERT JUMPDEST POP PUSH1 0x4 CALLDATASIZE LT PUSH2 0x4A JUMPI PUSH0 CALLDATALOAD PUSH1 0xE0 SHR DUP1 PUSH4 0xBAC1D572 EQ PUSH2 0x4E JUMPI DUP1 PUSH4 0xD591B6BE EQ PUSH2 0x7E JUMPI DUP1 PUSH4 0xDC0AA2AF EQ PUSH2 0xAE JUMPI DUP1 PUSH4 0xE5C5E9A3 EQ PUSH2 0xDE JUMPI JUMPDEST PUSH0 DUP1 REVERT JUMPDEST PUSH2 0x68 PUSH1 0x4 DUP1 CALLDATASIZE SUB DUP2 ADD SWAP1 PUSH2 0x63 SWAP2 SWAP1 PUSH2 0x30B JUMP JUMPDEST PUSH2 0x10F JUMP JUMPDEST PUSH1 0x40 MLOAD PUSH2 0x75 SWAP2 SWAP1 PUSH2 0x36A JUMP JUMPDEST PUSH1 0x40 MLOAD DUP1 SWAP2 SUB SWAP1 RETURN JUMPDEST PUSH2 0x98 PUSH1 0x4 DUP1 CALLDATASIZE SUB DUP2 ADD SWAP1 PUSH2 0x93 SWAP2 SWAP1 PUSH2 0x3AD JUMP JUMPDEST PUSH2 0x13F JUMP JUMPDEST PUSH1 0x40 MLOAD PUSH2 0xA5 SWAP2 SWAP1 PUSH2 0x36A JUMP JUMPDEST PUSH1 0x40 MLOAD DUP1 SWAP2 SUB SWAP1 RETURN JUMPDEST PUSH2 0xC8 PUSH1 0x4 DUP1 CALLDATASIZE SUB DUP2 ADD SWAP1 PUSH2 0xC3 SWAP2 SWAP1 PUSH2 0x3AD JUMP JUMPDEST PUSH2 0x154 JUMP JUMPDEST PUSH1 0x40 MLOAD PUSH2 0xD5 SWAP2 SWAP1 PUSH2 0x44B JUMP JUMPDEST PUSH1 0x40 MLOAD DUP1 SWAP2 SUB SWAP1 RETURN JUMPDEST PUSH2 0xF8 PUSH1 0x4 DUP1 CALLDATASIZE SUB DUP2 ADD SWAP1 PUSH2 0xF3 SWAP2 SWAP1 PUSH2 0x30B JUMP JUMPDEST PUSH2 0x185 JUMP JUMPDEST PUSH1 0x40 MLOAD PUSH2 0x106 SWAP3 SWAP2 SWAP1 PUSH2 0x4BD JUMP JUMPDEST PUSH1 0x40 MLOAD DUP1 SWAP2 SUB SWAP1 RETURN JUMPDEST PUSH0 DUP1 PUSH0 DUP4 DUP1 PUSH1 0x20 ADD SWAP1 MLOAD DUP2 ADD SWAP1 PUSH2 0x126 SWAP2 SWAP1 PUSH2 0x4FF JUMP JUMPDEST SWAP2 POP SWAP2 POP DUP1 DUP3 PUSH2 0x136 SWAP2 SWAP1 PUSH2 0x56A JUMP JUMPDEST SWAP3 POP POP POP SWAP2 SWAP1 POP JUMP JUMPDEST PUSH0 DUP2 DUP4 PUSH2 0x14C SWAP2 SWAP1 PUSH2 0x56A JUMP JUMPDEST SWAP1 POP SWAP3 SWAP2 POP POP JUMP JUMPDEST PUSH1 0x60 PUSH0 DUP4 DUP4 PUSH1 0x40 MLOAD PUSH1 0x20 ADD PUSH2 0x16A SWAP3 SWAP2 SWAP1 PUSH2 0x5E7 JUMP JUMPDEST PUSH1 0x40 MLOAD PUSH1 0x20 DUP2 DUP4 SUB SUB DUP2 MSTORE SWAP1 PUSH1 0x40 MSTORE SWAP1 POP DUP1 SWAP2 POP POP SWAP3 SWAP2 POP POP JUMP JUMPDEST PUSH0 PUSH1 0x60 PUSH0 DUP1 PUSH0 DUP6 DUP1 PUSH1 0x20 ADD SWAP1 MLOAD DUP2 ADD SWAP1 PUSH2 0x19F SWAP2 SWAP1 PUSH2 0x6BF JUMP JUMPDEST SWAP3 POP SWAP3 POP SWAP3 POP DUP1 DUP3 PUSH2 0x1B1 SWAP2 SWAP1 PUSH2 0x56A JUMP JUMPDEST DUP4 SWAP5 POP SWAP5 POP POP POP POP SWAP2 POP SWAP2 JUMP JUMPDEST PUSH0 PUSH1 0x40 MLOAD SWAP1 POP SWAP1 JUMP JUMPDEST PUSH0 DUP1 REVERT JUMPDEST PUSH0 DUP1 REVERT JUMPDEST PUSH0 DUP1 REVERT JUMPDEST PUSH0 DUP1 REVERT JUMPDEST PUSH0 PUSH1 0x1F NOT PUSH1 0x1F DUP4 ADD AND SWAP1 POP SWAP2 SWAP1 POP JUMP JUMPDEST PUSH32 0x4E487B7100000000000000000000000000000000000000000000000000000000 PUSH0 MSTORE PUSH1 0x41 PUSH1 0x4 MSTORE PUSH1 0x24 PUSH0 REVERT JUMPDEST PUSH2 0x21D DUP3 PUSH2 0x1D7 JUMP JUMPDEST DUP2 ADD DUP2 DUP2 LT PUSH8 0xFFFFFFFFFFFFFFFF DUP3 GT OR ISZERO PUSH2 0x23C JUMPI PUSH2 0x23B PUSH2 0x1E7 JUMP JUMPDEST JUMPDEST DUP1 PUSH1 0x40 MSTORE POP POP POP JUMP JUMPDEST PUSH0 PUSH2 0x24E PUSH2 0x1BE JUMP JUMPDEST SWAP1 POP PUSH2 0x25A DUP3 DUP3 PUSH2 0x214 JUMP JUMPDEST SWAP2 SWAP1 POP JUMP JUMPDEST PUSH0 PUSH8 0xFFFFFFFFFFFFFFFF DUP3 GT ISZERO PUSH2 0x279 JUMPI PUSH2 0x278 PUSH2 0x1E7 JUMP JUMPDEST JUMPDEST PUSH2 0x282 DUP3 PUSH2 0x1D7 JUMP JUMPDEST SWAP1 POP PUSH1 0x20 DUP2 ADD SWAP1 POP SWAP2 SWAP1 POP JUMP JUMPDEST DUP3 DUP2 DUP4 CALLDATACOPY PUSH0 DUP4 DUP4 ADD MSTORE POP POP POP JUMP JUMPDEST PUSH0 PUSH2 0x2AF PUSH2 0x2AA DUP5 PUSH2 0x25F JUMP JUMPDEST PUSH2 0x245 JUMP JUMPDEST SWAP1 POP DUP3 DUP2 MSTORE PUSH1 0x20 DUP2 ADD DUP5 DUP5 DUP5 ADD GT ISZERO PUSH2 0x2CB JUMPI PUSH2 0x2CA PUSH2 0x1D3 JUMP JUMPDEST JUMPDEST PUSH2 0x2D6 DUP5 DUP3 DUP6 PUSH2 0x28F JUMP JUMPDEST POP SWAP4 SWAP3 POP POP POP JUMP JUMPDEST PUSH0 DUP3 PUSH1 0x1F DUP4 ADD SLT PUSH2 0x2F2 JUMPI PUSH2 0x2F1 PUSH2 0x1CF JUMP JUMPDEST JUMPDEST DUP2 CALLDATALOAD PUSH2 0x302 DUP5 DUP3 PUSH1 0x20 DUP7 ADD PUSH2 0x29D JUMP JUMPDEST SWAP2 POP POP SWAP3 SWAP2 POP POP JUMP JUMPDEST PUSH0 PUSH1 0x20 DUP3 DUP5 SUB SLT ISZERO PUSH2 0x320 JUMPI PUSH2 0x31F PUSH2 0x1C7 JUMP JUMPDEST JUMPDEST PUSH0 DUP3 ADD CALLDATALOAD PUSH8 0xFFFFFFFFFFFFFFFF DUP2 GT ISZERO PUSH2 0x33D JUMPI PUSH2 0x33C PUSH2 0x1CB JUMP JUMPDEST JUMPDEST PUSH2 0x349 DUP5 DUP3 DUP6 ADD PUSH2 0x2DE JUMP JUMPDEST SWAP2 POP POP SWAP3 SWAP2 POP POP JUMP JUMPDEST PUSH0 DUP2 SWAP1 POP SWAP2 SWAP1 POP JUMP JUMPDEST PUSH2 0x364 DUP2 PUSH2 0x352 JUMP JUMPDEST DUP3 MSTORE POP POP JUMP JUMPDEST PUSH0 PUSH1 0x20 DUP3 ADD SWAP1 POP PUSH2 0x37D PUSH0 DUP4 ADD DUP5 PUSH2 0x35B JUMP JUMPDEST SWAP3 SWAP2 POP POP JUMP JUMPDEST PUSH2 0x38C DUP2 PUSH2 0x352 JUMP JUMPDEST DUP2 EQ PUSH2 0x396 JUMPI PUSH0 DUP1 REVERT JUMPDEST POP JUMP JUMPDEST PUSH0 DUP2 CALLDATALOAD SWAP1 POP PUSH2 0x3A7 DUP2 PUSH2 0x383 JUMP JUMPDEST SWAP3 SWAP2 POP POP JUMP JUMPDEST PUSH0 DUP1 PUSH1 0x40 DUP4 DUP6 SUB SLT ISZERO PUSH2 0x3C3 JUMPI PUSH2 0x3C2 PUSH2 0x1C7 JUMP JUMPDEST JUMPDEST PUSH0 PUSH2 0x3D0 DUP6 DUP3 DUP7 ADD PUSH2 0x399 JUMP JUMPDEST SWAP3 POP POP PUSH1 0x20 PUSH2 0x3E1 DUP6 DUP3 DUP7 ADD PUSH2 0x399 JUMP JUMPDEST SWAP2 POP POP SWAP3 POP SWAP3 SWAP1 POP JUMP JUMPDEST PUSH0 DUP2 MLOAD SWAP1 POP SWAP2 SWAP1 POP JUMP JUMPDEST PUSH0 DUP3 DUP3 MSTORE PUSH1 0x20 DUP3 ADD SWAP1 POP SWAP3 SWAP2 POP POP JUMP JUMPDEST DUP3 DUP2 DUP4 MCOPY PUSH0 DUP4 DUP4 ADD MSTORE POP POP POP JUMP JUMPDEST PUSH0 PUSH2 0x41D DUP3 PUSH2 0x3EB JUMP JUMPDEST PUSH2 0x427 DUP2 DUP6 PUSH2 0x3F5 JUMP JUMPDEST SWAP4 POP PUSH2 0x437 DUP2 DUP6 PUSH1 0x20 DUP7 ADD PUSH2 0x405 JUMP JUMPDEST PUSH2 0x440 DUP2 PUSH2 0x1D7 JUMP JUMPDEST DUP5 ADD SWAP2 POP POP SWAP3 SWAP2 POP POP JUMP JUMPDEST PUSH0 PUSH1 0x20 DUP3 ADD SWAP1 POP DUP2 DUP2 SUB PUSH0 DUP4 ADD MSTORE PUSH2 0x463 DUP2 DUP5 PUSH2 0x413 JUMP JUMPDEST SWAP1 POP SWAP3 SWAP2 POP POP JUMP JUMPDEST PUSH0 DUP2 MLOAD SWAP1 POP SWAP2 SWAP1 POP JUMP JUMPDEST PUSH0 DUP3 DUP3 MSTORE PUSH1 0x20 DUP3 ADD SWAP1 POP SWAP3 SWAP2 POP POP JUMP JUMPDEST PUSH0 PUSH2 0x48F DUP3 PUSH2 0x46B JUMP JUMPDEST PUSH2 0x499 DUP2 DUP6 PUSH2 0x475 JUMP JUMPDEST SWAP4 POP PUSH2 0x4A9 DUP2 DUP6 PUSH1 0x20 DUP7 ADD PUSH2 0x405 JUMP JUMPDEST PUSH2 0x4B2 DUP2 PUSH2 0x1D7 JUMP JUMPDEST DUP5 ADD SWAP2 POP POP SWAP3 SWAP2 POP POP JUMP JUMPDEST PUSH0 PUSH1 0x40 DUP3 ADD SWAP1 POP PUSH2 0x4D0 PUSH0 DUP4 ADD DUP6 PUSH2 0x35B JUMP JUMPDEST DUP2 DUP2 SUB PUSH1 0x20 DUP4 ADD MSTORE PUSH2 0x4E2 DUP2 DUP5 PUSH2 0x485 JUMP JUMPDEST SWAP1 POP SWAP4 SWAP3 POP POP POP JUMP JUMPDEST PUSH0 DUP2 MLOAD SWAP1 POP PUSH2 0x4F9 DUP2 PUSH2 0x383 JUMP JUMPDEST SWAP3 SWAP2 POP POP JUMP JUMPDEST PUSH0 DUP1 PUSH1 0x40 DUP4 DUP6 SUB SLT ISZERO PUSH2 0x515 JUMPI PUSH2 0x514 PUSH2 0x1C7 JUMP JUMPDEST JUMPDEST PUSH0 PUSH2 0x522 DUP6 DUP3 DUP7 ADD PUSH2 0x4EB JUMP JUMPDEST SWAP3 POP POP PUSH1 0x20 PUSH2 0x533 DUP6 DUP3 DUP7 ADD PUSH2 0x4EB JUMP JUMPDEST SWAP2 POP POP SWAP3 POP SWAP3 SWAP1 POP JUMP JUMPDEST PUSH32 0x4E487B7100000000000000000000000000000000000000000000000000000000 PUSH0 MSTORE PUSH1 0x11 PUSH1 0x4 MSTORE PUSH1 0x24 PUSH0 REVERT JUMPDEST PUSH0 PUSH2 0x574 DUP3 PUSH2 0x352 JUMP JUMPDEST SWAP2 POP PUSH2 0x57F DUP4 PUSH2 0x352 JUMP JUMPDEST SWAP3 POP DUP3 DUP3 ADD SWAP1 POP DUP1 DUP3 GT ISZERO PUSH2 0x597 JUMPI PUSH2 0x596 PUSH2 0x53D JUMP JUMPDEST JUMPDEST SWAP3 SWAP2 POP POP JUMP JUMPDEST PUSH32 0x66756E3100000000000000000000000000000000000000000000000000000000 PUSH0 DUP3 ADD MSTORE POP JUMP JUMPDEST PUSH0 PUSH2 0x5D1 PUSH1 0x4 DUP4 PUSH2 0x475 JUMP JUMPDEST SWAP2 POP PUSH2 0x5DC DUP3 PUSH2 0x59D JUMP JUMPDEST PUSH1 0x20 DUP3 ADD SWAP1 POP SWAP2 SWAP1 POP JUMP JUMPDEST PUSH0 PUSH1 0x60 DUP3 ADD SWAP1 POP DUP2 DUP2 SUB PUSH0 DUP4 ADD MSTORE PUSH2 0x5FE DUP2 PUSH2 0x5C5 JUMP JUMPDEST SWAP1 POP PUSH2 0x60D PUSH1 0x20 DUP4 ADD DUP6 PUSH2 0x35B JUMP JUMPDEST PUSH2 0x61A PUSH1 0x40 DUP4 ADD DUP5 PUSH2 0x35B JUMP JUMPDEST SWAP4 SWAP3 POP POP POP JUMP JUMPDEST PUSH0 PUSH8 0xFFFFFFFFFFFFFFFF DUP3 GT ISZERO PUSH2 0x63B JUMPI PUSH2 0x63A PUSH2 0x1E7 JUMP JUMPDEST JUMPDEST PUSH2 0x644 DUP3 PUSH2 0x1D7 JUMP JUMPDEST SWAP1 POP PUSH1 0x20 DUP2 ADD SWAP1 POP SWAP2 SWAP1 POP JUMP JUMPDEST PUSH0 PUSH2 0x663 PUSH2 0x65E DUP5 PUSH2 0x621 JUMP JUMPDEST PUSH2 0x245 JUMP JUMPDEST SWAP1 POP DUP3 DUP2 MSTORE PUSH1 0x20 DUP2 ADD DUP5 DUP5 DUP5 ADD GT ISZERO PUSH2 0x67F JUMPI PUSH2 0x67E PUSH2 0x1D3 JUMP JUMPDEST JUMPDEST PUSH2 0x68A DUP5 DUP3 DUP6 PUSH2 0x405 JUMP JUMPDEST POP SWAP4 SWAP3 POP POP POP JUMP JUMPDEST PUSH0 DUP3 PUSH1 0x1F DUP4 ADD SLT PUSH2 0x6A6 JUMPI PUSH2 0x6A5 PUSH2 0x1CF JUMP JUMPDEST JUMPDEST DUP2 MLOAD PUSH2 0x6B6 DUP5 DUP3 PUSH1 0x20 DUP7 ADD PUSH2 0x651 JUMP JUMPDEST SWAP2 POP POP SWAP3 SWAP2 POP POP JUMP JUMPDEST PUSH0 DUP1 PUSH0 PUSH1 0x60 DUP5 DUP7 SUB SLT ISZERO PUSH2 0x6D6 JUMPI PUSH2 0x6D5 PUSH2 0x1C7 JUMP JUMPDEST JUMPDEST PUSH0 DUP5 ADD MLOAD PUSH8 0xFFFFFFFFFFFFFFFF DUP2 GT ISZERO PUSH2 0x6F3 JUMPI PUSH2 0x6F2 PUSH2 0x1CB JUMP JUMPDEST JUMPDEST PUSH2 0x6FF DUP7 DUP3 DUP8 ADD PUSH2 0x692 JUMP JUMPDEST SWAP4 POP POP PUSH1 0x20 PUSH2 0x710 DUP7 DUP3 DUP8 ADD PUSH2 0x4EB JUMP JUMPDEST SWAP3 POP POP PUSH1 0x40 PUSH2 0x721 DUP7 DUP3 DUP8 ADD PUSH2 0x4EB JUMP JUMPDEST SWAP2 POP POP SWAP3 POP SWAP3 POP SWAP3 JUMP INVALID LOG2 PUSH5 0x6970667358 0x22 SLT KECCAK256 PUSH9 0xDBD80C8595FC1BB617 PUSH19 0x4DABA8F591D59C1BB9C1E26CAA2E3D8A46093B BALANCE 0xAD PUSH5 0x736F6C6343 STOP ADDMOD NOT STOP CALLER "
				},
				"gasEstimates": {
					"creation": {
						"codeDepositCost": "377800",
						"executionCost": "416",
						"totalCost": "378216"
					},
					"external": {
						"decode(bytes)": "infinite",
						"decode1(bytes)": "infinite",
						"encode(uint256,uint256)": "infinite",
						"fun1(uint256,uint256)": "infinite"
					}
				},
				"methodIdentifiers": {
					"decode(bytes)": "e5c5e9a3",
					"decode1(bytes)": "bac1d572",
					"encode(uint256,uint256)": "dc0aa2af",
					"fun1(uint256,uint256)": "d591b6be"
				}
			},
			"storageLayout": {
				"storage": [],
				"types": null
			},
			"userdoc": {
				"kind": "user",
				"methods": {},
				"version": 1
			}
		}
	}
}