{
	"contracts/Attack.sol": {
		"AB": {
			"abi": [
				{
					"inputs": [],
					"stateMutability": "payable",
					"type": "constructor"
				},
				{
					"inputs": [
						{
							"internalType": "address",
							"name": "delegate",
							"type": "address"
						},
						{
							"internalType": "bytes",
							"name": "args",
							"type": "bytes"
						}
					],
					"name": "steal",
					"outputs": [],
					"stateMutability": "nonpayable",
					"type": "function"
				},
				{
					"inputs": [],
					"name": "withdraw",
					"outputs": [],
					"stateMutability": "nonpayable",
					"type": "function"
				}
			],
			"devdoc": {
				"kind": "dev",
				"methods": {},
				"version": 1
			},
			"evm": {
				"assembly": "    /* \"contracts/Attack.sol\":61:659  contract AB{... */\n  mstore(0x40, 0x80)\n    /* \"contracts/Attack.sol\":161:168  1 ether */\n  0x0de0b6b3a7640000\n    /* \"contracts/Attack.sol\":150:159  msg.value */\n  callvalue\n    /* \"contracts/Attack.sol\":150:168  msg.value==1 ether */\n  eq\n    /* \"contracts/Attack.sol\":142:169  require(msg.value==1 ether) */\n  tag_3\n  jumpi\n  0x00\n  dup1\n  revert\ntag_3:\n    /* \"contracts/Attack.sol\":186:196  msg.sender */\n  caller\n    /* \"contracts/Attack.sol\":180:185  owner */\n  0x00\n  dup1\n    /* \"contracts/Attack.sol\":180:196  owner=msg.sender */\n  0x0100\n  exp\n  dup2\n  sload\n  dup2\n  0xffffffffffffffffffffffffffffffffffffffff\n  mul\n  not\n  and\n  swap1\n  dup4\n  0xffffffffffffffffffffffffffffffffffffffff\n  and\n  mul\n  or\n  swap1\n  sstore\n  pop\n    /* \"contracts/Attack.sol\":61:659  contract AB{... */\n  dataSize(sub_0)\n  dup1\n  dataOffset(sub_0)\n  0x00\n  codecopy\n  0x00\n  return\nstop\n\nsub_0: assembly {\n        /* \"contracts/Attack.sol\":61:659  contract AB{... */\n      mstore(0x40, 0x80)\n      callvalue\n      dup1\n      iszero\n      tag_1\n      jumpi\n      0x00\n      dup1\n      revert\n    tag_1:\n      pop\n      jumpi(tag_2, lt(calldatasize, 0x04))\n      shr(0xe0, calldataload(0x00))\n      dup1\n      0x3ccfd60b\n      eq\n      tag_3\n      jumpi\n      dup1\n      0xaee5a550\n      eq\n      tag_4\n      jumpi\n    tag_2:\n      0x00\n      dup1\n      revert\n        /* \"contracts/Attack.sol\":498:656  function withdraw()external {... */\n    tag_3:\n      tag_5\n      tag_6\n      jump\t// in\n    tag_5:\n      stop\n        /* \"contracts/Attack.sol\":283:492  function steal(address delegate,bytes memory args)external{... */\n    tag_4:\n      tag_7\n      0x04\n      dup1\n      calldatasize\n      sub\n      dup2\n      add\n      swap1\n      tag_8\n      swap2\n      swap1\n      tag_9\n      jump\t// in\n    tag_8:\n      tag_10\n      jump\t// in\n    tag_7:\n      stop\n        /* \"contracts/Attack.sol\":498:656  function withdraw()external {... */\n    tag_6:\n        /* \"contracts/Attack.sol\":557:562  owner */\n      0x00\n      dup1\n      sload\n      swap1\n      0x0100\n      exp\n      swap1\n      div\n      0xffffffffffffffffffffffffffffffffffffffff\n      and\n        /* \"contracts/Attack.sol\":545:562  msg.sender==owner */\n      0xffffffffffffffffffffffffffffffffffffffff\n      and\n        /* \"contracts/Attack.sol\":545:555  msg.sender */\n      caller\n        /* \"contracts/Attack.sol\":545:562  msg.sender==owner */\n      0xffffffffffffffffffffffffffffffffffffffff\n      and\n      eq\n        /* \"contracts/Attack.sol\":537:583  require(msg.sender==owner,\"u are not a owner\") */\n      tag_12\n      jumpi\n      mload(0x40)\n      0x08c379a000000000000000000000000000000000000000000000000000000000\n      dup2\n      mstore\n      0x04\n      add\n      tag_13\n      swap1\n      tag_14\n      jump\t// in\n    tag_13:\n      mload(0x40)\n      dup1\n      swap2\n      sub\n      swap1\n      revert\n    tag_12:\n        /* \"contracts/Attack.sol\":603:613  msg.sender */\n      caller\n        /* \"contracts/Attack.sol\":594:623  payable (msg.sender).transfer */\n      0xffffffffffffffffffffffffffffffffffffffff\n      and\n        /* \"contracts/Attack.sol\":594:646  payable (msg.sender).transfer(address(this).balance) */\n      0x08fc\n        /* \"contracts/Attack.sol\":624:645  address(this).balance */\n      selfbalance\n        /* \"contracts/Attack.sol\":594:646  payable (msg.sender).transfer(address(this).balance) */\n      swap1\n      dup2\n      iszero\n      mul\n      swap1\n      mload(0x40)\n      0x00\n      mload(0x40)\n      dup1\n      dup4\n      sub\n      dup2\n      dup6\n      dup9\n      dup9\n      call\n      swap4\n      pop\n      pop\n      pop\n      pop\n      iszero\n      dup1\n      iszero\n      tag_16\n      jumpi\n      returndatasize\n      0x00\n      dup1\n      returndatacopy\n      revert(0x00, returndatasize)\n    tag_16:\n      pop\n        /* \"contracts/Attack.sol\":498:656  function withdraw()external {... */\n      jump\t// out\n        /* \"contracts/Attack.sol\":283:492  function steal(address delegate,bytes memory args)external{... */\n    tag_10:\n        /* \"contracts/Attack.sol\":355:364  bool sent */\n      0x00\n        /* \"contracts/Attack.sol\":367:375  delegate */\n      dup3\n        /* \"contracts/Attack.sol\":367:388  delegate.delegatecall */\n      0xffffffffffffffffffffffffffffffffffffffff\n      and\n        /* \"contracts/Attack.sol\":389:393  args */\n      dup3\n        /* \"contracts/Attack.sol\":367:394  delegate.delegatecall(args) */\n      mload(0x40)\n      tag_18\n      swap2\n      swap1\n      tag_19\n      jump\t// in\n    tag_18:\n      0x00\n      mload(0x40)\n      dup1\n      dup4\n      sub\n      dup2\n      dup6\n      gas\n      delegatecall\n      swap2\n      pop\n      pop\n      returndatasize\n      dup1\n      0x00\n      dup2\n      eq\n      tag_22\n      jumpi\n      mload(0x40)\n      swap2\n      pop\n      and(add(returndatasize, 0x3f), not(0x1f))\n      dup3\n      add\n      0x40\n      mstore\n      returndatasize\n      dup3\n      mstore\n      returndatasize\n      0x00\n      0x20\n      dup5\n      add\n      returndatacopy\n      jump(tag_21)\n    tag_22:\n      0x60\n      swap2\n      pop\n    tag_21:\n      pop\n        /* \"contracts/Attack.sol\":354:394  (bool sent,)=delegate.delegatecall(args) */\n      pop\n      swap1\n      pop\n        /* \"contracts/Attack.sol\":413:417  sent */\n      dup1\n        /* \"contracts/Attack.sol\":405:427  require(sent,\"failed\") */\n      tag_23\n      jumpi\n      mload(0x40)\n      0x08c379a000000000000000000000000000000000000000000000000000000000\n      dup2\n      mstore\n      0x04\n      add\n      tag_24\n      swap1\n      tag_25\n      jump\t// in\n    tag_24:\n      mload(0x40)\n      dup1\n      swap2\n      sub\n      swap1\n      revert\n    tag_23:\n        /* \"contracts/Attack.sol\":469:476  1 ether */\n      0x0de0b6b3a7640000\n        /* \"contracts/Attack.sol\":446:467  address(this).balance */\n      selfbalance\n        /* \"contracts/Attack.sol\":446:476  address(this).balance==1 ether */\n      eq\n        /* \"contracts/Attack.sol\":438:482  require(address(this).balance==1 ether,\"no\") */\n      tag_26\n      jumpi\n      mload(0x40)\n      0x08c379a000000000000000000000000000000000000000000000000000000000\n      dup2\n      mstore\n      0x04\n      add\n      tag_27\n      swap1\n      tag_28\n      jump\t// in\n    tag_27:\n      mload(0x40)\n      dup1\n      swap2\n      sub\n      swap1\n      revert\n    tag_26:\n        /* \"contracts/Attack.sol\":341:492  {... */\n      pop\n        /* \"contracts/Attack.sol\":283:492  function steal(address delegate,bytes memory args)external{... */\n      pop\n      pop\n      jump\t// out\n        /* \"#utility.yul\":7:82   */\n    tag_29:\n        /* \"#utility.yul\":40:46   */\n      0x00\n        /* \"#utility.yul\":73:75   */\n      0x40\n        /* \"#utility.yul\":67:76   */\n      mload\n        /* \"#utility.yul\":57:76   */\n      swap1\n      pop\n        /* \"#utility.yul\":7:82   */\n      swap1\n      jump\t// out\n        /* \"#utility.yul\":88:205   */\n    tag_30:\n        /* \"#utility.yul\":197:198   */\n      0x00\n        /* \"#utility.yul\":194:195   */\n      dup1\n        /* \"#utility.yul\":187:199   */\n      revert\n        /* \"#utility.yul\":211:328   */\n    tag_31:\n        /* \"#utility.yul\":320:321   */\n      0x00\n        /* \"#utility.yul\":317:318   */\n      dup1\n        /* \"#utility.yul\":310:322   */\n      revert\n        /* \"#utility.yul\":334:460   */\n    tag_32:\n        /* \"#utility.yul\":371:378   */\n      0x00\n        /* \"#utility.yul\":411:453   */\n      0xffffffffffffffffffffffffffffffffffffffff\n        /* \"#utility.yul\":404:409   */\n      dup3\n        /* \"#utility.yul\":400:454   */\n      and\n        /* \"#utility.yul\":389:454   */\n      swap1\n      pop\n        /* \"#utility.yul\":334:460   */\n      swap2\n      swap1\n      pop\n      jump\t// out\n        /* \"#utility.yul\":466:562   */\n    tag_33:\n        /* \"#utility.yul\":503:510   */\n      0x00\n        /* \"#utility.yul\":532:556   */\n      tag_63\n        /* \"#utility.yul\":550:555   */\n      dup3\n        /* \"#utility.yul\":532:556   */\n      tag_32\n      jump\t// in\n    tag_63:\n        /* \"#utility.yul\":521:556   */\n      swap1\n      pop\n        /* \"#utility.yul\":466:562   */\n      swap2\n      swap1\n      pop\n      jump\t// out\n        /* \"#utility.yul\":568:690   */\n    tag_34:\n        /* \"#utility.yul\":641:665   */\n      tag_65\n        /* \"#utility.yul\":659:664   */\n      dup2\n        /* \"#utility.yul\":641:665   */\n      tag_33\n      jump\t// in\n    tag_65:\n        /* \"#utility.yul\":634:639   */\n      dup2\n        /* \"#utility.yul\":631:666   */\n      eq\n        /* \"#utility.yul\":621:684   */\n      tag_66\n      jumpi\n        /* \"#utility.yul\":680:681   */\n      0x00\n        /* \"#utility.yul\":677:678   */\n      dup1\n        /* \"#utility.yul\":670:682   */\n      revert\n        /* \"#utility.yul\":621:684   */\n    tag_66:\n        /* \"#utility.yul\":568:690   */\n      pop\n      jump\t// out\n        /* \"#utility.yul\":696:835   */\n    tag_35:\n        /* \"#utility.yul\":742:747   */\n      0x00\n        /* \"#utility.yul\":780:786   */\n      dup2\n        /* \"#utility.yul\":767:787   */\n      calldataload\n        /* \"#utility.yul\":758:787   */\n      swap1\n      pop\n        /* \"#utility.yul\":796:829   */\n      tag_68\n        /* \"#utility.yul\":823:828   */\n      dup2\n        /* \"#utility.yul\":796:829   */\n      tag_34\n      jump\t// in\n    tag_68:\n        /* \"#utility.yul\":696:835   */\n      swap3\n      swap2\n      pop\n      pop\n      jump\t// out\n        /* \"#utility.yul\":841:958   */\n    tag_36:\n        /* \"#utility.yul\":950:951   */\n      0x00\n        /* \"#utility.yul\":947:948   */\n      dup1\n        /* \"#utility.yul\":940:952   */\n      revert\n        /* \"#utility.yul\":964:1081   */\n    tag_37:\n        /* \"#utility.yul\":1073:1074   */\n      0x00\n        /* \"#utility.yul\":1070:1071   */\n      dup1\n        /* \"#utility.yul\":1063:1075   */\n      revert\n        /* \"#utility.yul\":1087:1189   */\n    tag_38:\n        /* \"#utility.yul\":1128:1134   */\n      0x00\n        /* \"#utility.yul\":1179:1181   */\n      0x1f\n        /* \"#utility.yul\":1175:1182   */\n      not\n        /* \"#utility.yul\":1170:1172   */\n      0x1f\n        /* \"#utility.yul\":1163:1168   */\n      dup4\n        /* \"#utility.yul\":1159:1173   */\n      add\n        /* \"#utility.yul\":1155:1183   */\n      and\n        /* \"#utility.yul\":1145:1183   */\n      swap1\n      pop\n        /* \"#utility.yul\":1087:1189   */\n      swap2\n      swap1\n      pop\n      jump\t// out\n        /* \"#utility.yul\":1195:1375   */\n    tag_39:\n        /* \"#utility.yul\":1243:1320   */\n      0x4e487b7100000000000000000000000000000000000000000000000000000000\n        /* \"#utility.yul\":1240:1241   */\n      0x00\n        /* \"#utility.yul\":1233:1321   */\n      mstore\n        /* \"#utility.yul\":1340:1344   */\n      0x41\n        /* \"#utility.yul\":1337:1338   */\n      0x04\n        /* \"#utility.yul\":1330:1345   */\n      mstore\n        /* \"#utility.yul\":1364:1368   */\n      0x24\n        /* \"#utility.yul\":1361:1362   */\n      0x00\n        /* \"#utility.yul\":1354:1369   */\n      revert\n        /* \"#utility.yul\":1381:1662   */\n    tag_40:\n        /* \"#utility.yul\":1464:1491   */\n      tag_74\n        /* \"#utility.yul\":1486:1490   */\n      dup3\n        /* \"#utility.yul\":1464:1491   */\n      tag_38\n      jump\t// in\n    tag_74:\n        /* \"#utility.yul\":1456:1462   */\n      dup2\n        /* \"#utility.yul\":1452:1492   */\n      add\n        /* \"#utility.yul\":1594:1600   */\n      dup2\n        /* \"#utility.yul\":1582:1592   */\n      dup2\n        /* \"#utility.yul\":1579:1601   */\n      lt\n        /* \"#utility.yul\":1558:1576   */\n      0xffffffffffffffff\n        /* \"#utility.yul\":1546:1556   */\n      dup3\n        /* \"#utility.yul\":1543:1577   */\n      gt\n        /* \"#utility.yul\":1540:1602   */\n      or\n        /* \"#utility.yul\":1537:1625   */\n      iszero\n      tag_75\n      jumpi\n        /* \"#utility.yul\":1605:1623   */\n      tag_76\n      tag_39\n      jump\t// in\n    tag_76:\n        /* \"#utility.yul\":1537:1625   */\n    tag_75:\n        /* \"#utility.yul\":1645:1655   */\n      dup1\n        /* \"#utility.yul\":1641:1643   */\n      0x40\n        /* \"#utility.yul\":1634:1656   */\n      mstore\n        /* \"#utility.yul\":1424:1662   */\n      pop\n        /* \"#utility.yul\":1381:1662   */\n      pop\n      pop\n      jump\t// out\n        /* \"#utility.yul\":1668:1797   */\n    tag_41:\n        /* \"#utility.yul\":1702:1708   */\n      0x00\n        /* \"#utility.yul\":1729:1749   */\n      tag_78\n      tag_29\n      jump\t// in\n    tag_78:\n        /* \"#utility.yul\":1719:1749   */\n      swap1\n      pop\n        /* \"#utility.yul\":1758:1791   */\n      tag_79\n        /* \"#utility.yul\":1786:1790   */\n      dup3\n        /* \"#utility.yul\":1778:1784   */\n      dup3\n        /* \"#utility.yul\":1758:1791   */\n      tag_40\n      jump\t// in\n    tag_79:\n        /* \"#utility.yul\":1668:1797   */\n      swap2\n      swap1\n      pop\n      jump\t// out\n        /* \"#utility.yul\":1803:2110   */\n    tag_42:\n        /* \"#utility.yul\":1864:1868   */\n      0x00\n        /* \"#utility.yul\":1954:1972   */\n      0xffffffffffffffff\n        /* \"#utility.yul\":1946:1952   */\n      dup3\n        /* \"#utility.yul\":1943:1973   */\n      gt\n        /* \"#utility.yul\":1940:1996   */\n      iszero\n      tag_81\n      jumpi\n        /* \"#utility.yul\":1976:1994   */\n      tag_82\n      tag_39\n      jump\t// in\n    tag_82:\n        /* \"#utility.yul\":1940:1996   */\n    tag_81:\n        /* \"#utility.yul\":2014:2043   */\n      tag_83\n        /* \"#utility.yul\":2036:2042   */\n      dup3\n        /* \"#utility.yul\":2014:2043   */\n      tag_38\n      jump\t// in\n    tag_83:\n        /* \"#utility.yul\":2006:2043   */\n      swap1\n      pop\n        /* \"#utility.yul\":2098:2102   */\n      0x20\n        /* \"#utility.yul\":2092:2096   */\n      dup2\n        /* \"#utility.yul\":2088:2103   */\n      add\n        /* \"#utility.yul\":2080:2103   */\n      swap1\n      pop\n        /* \"#utility.yul\":1803:2110   */\n      swap2\n      swap1\n      pop\n      jump\t// out\n        /* \"#utility.yul\":2116:2264   */\n    tag_43:\n        /* \"#utility.yul\":2214:2220   */\n      dup3\n        /* \"#utility.yul\":2209:2212   */\n      dup2\n        /* \"#utility.yul\":2204:2207   */\n      dup4\n        /* \"#utility.yul\":2191:2221   */\n      calldatacopy\n        /* \"#utility.yul\":2255:2256   */\n      0x00\n        /* \"#utility.yul\":2246:2252   */\n      dup4\n        /* \"#utility.yul\":2241:2244   */\n      dup4\n        /* \"#utility.yul\":2237:2253   */\n      add\n        /* \"#utility.yul\":2230:2257   */\n      mstore\n        /* \"#utility.yul\":2116:2264   */\n      pop\n      pop\n      pop\n      jump\t// out\n        /* \"#utility.yul\":2270:2693   */\n    tag_44:\n        /* \"#utility.yul\":2347:2352   */\n      0x00\n        /* \"#utility.yul\":2372:2437   */\n      tag_86\n        /* \"#utility.yul\":2388:2436   */\n      tag_87\n        /* \"#utility.yul\":2429:2435   */\n      dup5\n        /* \"#utility.yul\":2388:2436   */\n      tag_42\n      jump\t// in\n    tag_87:\n        /* \"#utility.yul\":2372:2437   */\n      tag_41\n      jump\t// in\n    tag_86:\n        /* \"#utility.yul\":2363:2437   */\n      swap1\n      pop\n        /* \"#utility.yul\":2460:2466   */\n      dup3\n        /* \"#utility.yul\":2453:2458   */\n      dup2\n        /* \"#utility.yul\":2446:2467   */\n      mstore\n        /* \"#utility.yul\":2498:2502   */\n      0x20\n        /* \"#utility.yul\":2491:2496   */\n      dup2\n        /* \"#utility.yul\":2487:2503   */\n      add\n        /* \"#utility.yul\":2536:2539   */\n      dup5\n        /* \"#utility.yul\":2527:2533   */\n      dup5\n        /* \"#utility.yul\":2522:2525   */\n      dup5\n        /* \"#utility.yul\":2518:2534   */\n      add\n        /* \"#utility.yul\":2515:2540   */\n      gt\n        /* \"#utility.yul\":2512:2624   */\n      iszero\n      tag_88\n      jumpi\n        /* \"#utility.yul\":2543:2622   */\n      tag_89\n      tag_37\n      jump\t// in\n    tag_89:\n        /* \"#utility.yul\":2512:2624   */\n    tag_88:\n        /* \"#utility.yul\":2633:2687   */\n      tag_90\n        /* \"#utility.yul\":2680:2686   */\n      dup5\n        /* \"#utility.yul\":2675:2678   */\n      dup3\n        /* \"#utility.yul\":2670:2673   */\n      dup6\n        /* \"#utility.yul\":2633:2687   */\n      tag_43\n      jump\t// in\n    tag_90:\n        /* \"#utility.yul\":2353:2693   */\n      pop\n        /* \"#utility.yul\":2270:2693   */\n      swap4\n      swap3\n      pop\n      pop\n      pop\n      jump\t// out\n        /* \"#utility.yul\":2712:3050   */\n    tag_45:\n        /* \"#utility.yul\":2767:2772   */\n      0x00\n        /* \"#utility.yul\":2816:2819   */\n      dup3\n        /* \"#utility.yul\":2809:2813   */\n      0x1f\n        /* \"#utility.yul\":2801:2807   */\n      dup4\n        /* \"#utility.yul\":2797:2814   */\n      add\n        /* \"#utility.yul\":2793:2820   */\n      slt\n        /* \"#utility.yul\":2783:2905   */\n      tag_92\n      jumpi\n        /* \"#utility.yul\":2824:2903   */\n      tag_93\n      tag_36\n      jump\t// in\n    tag_93:\n        /* \"#utility.yul\":2783:2905   */\n    tag_92:\n        /* \"#utility.yul\":2941:2947   */\n      dup2\n        /* \"#utility.yul\":2928:2948   */\n      calldataload\n        /* \"#utility.yul\":2966:3044   */\n      tag_94\n        /* \"#utility.yul\":3040:3043   */\n      dup5\n        /* \"#utility.yul\":3032:3038   */\n      dup3\n        /* \"#utility.yul\":3025:3029   */\n      0x20\n        /* \"#utility.yul\":3017:3023   */\n      dup7\n        /* \"#utility.yul\":3013:3030   */\n      add\n        /* \"#utility.yul\":2966:3044   */\n      tag_44\n      jump\t// in\n    tag_94:\n        /* \"#utility.yul\":2957:3044   */\n      swap2\n      pop\n        /* \"#utility.yul\":2773:3050   */\n      pop\n        /* \"#utility.yul\":2712:3050   */\n      swap3\n      swap2\n      pop\n      pop\n      jump\t// out\n        /* \"#utility.yul\":3056:3708   */\n    tag_9:\n        /* \"#utility.yul\":3133:3139   */\n      0x00\n        /* \"#utility.yul\":3141:3147   */\n      dup1\n        /* \"#utility.yul\":3190:3192   */\n      0x40\n        /* \"#utility.yul\":3178:3187   */\n      dup4\n        /* \"#utility.yul\":3169:3176   */\n      dup6\n        /* \"#utility.yul\":3165:3188   */\n      sub\n        /* \"#utility.yul\":3161:3193   */\n      slt\n        /* \"#utility.yul\":3158:3277   */\n      iszero\n      tag_96\n      jumpi\n        /* \"#utility.yul\":3196:3275   */\n      tag_97\n      tag_30\n      jump\t// in\n    tag_97:\n        /* \"#utility.yul\":3158:3277   */\n    tag_96:\n        /* \"#utility.yul\":3316:3317   */\n      0x00\n        /* \"#utility.yul\":3341:3394   */\n      tag_98\n        /* \"#utility.yul\":3386:3393   */\n      dup6\n        /* \"#utility.yul\":3377:3383   */\n      dup3\n        /* \"#utility.yul\":3366:3375   */\n      dup7\n        /* \"#utility.yul\":3362:3384   */\n      add\n        /* \"#utility.yul\":3341:3394   */\n      tag_35\n      jump\t// in\n    tag_98:\n        /* \"#utility.yul\":3331:3394   */\n      swap3\n      pop\n        /* \"#utility.yul\":3287:3404   */\n      pop\n        /* \"#utility.yul\":3471:3473   */\n      0x20\n        /* \"#utility.yul\":3460:3469   */\n      dup4\n        /* \"#utility.yul\":3456:3474   */\n      add\n        /* \"#utility.yul\":3443:3475   */\n      calldataload\n        /* \"#utility.yul\":3502:3520   */\n      0xffffffffffffffff\n        /* \"#utility.yul\":3494:3500   */\n      dup2\n        /* \"#utility.yul\":3491:3521   */\n      gt\n        /* \"#utility.yul\":3488:3605   */\n      iszero\n      tag_99\n      jumpi\n        /* \"#utility.yul\":3524:3603   */\n      tag_100\n      tag_31\n      jump\t// in\n    tag_100:\n        /* \"#utility.yul\":3488:3605   */\n    tag_99:\n        /* \"#utility.yul\":3629:3691   */\n      tag_101\n        /* \"#utility.yul\":3683:3690   */\n      dup6\n        /* \"#utility.yul\":3674:3680   */\n      dup3\n        /* \"#utility.yul\":3663:3672   */\n      dup7\n        /* \"#utility.yul\":3659:3681   */\n      add\n        /* \"#utility.yul\":3629:3691   */\n      tag_45\n      jump\t// in\n    tag_101:\n        /* \"#utility.yul\":3619:3691   */\n      swap2\n      pop\n        /* \"#utility.yul\":3414:3701   */\n      pop\n        /* \"#utility.yul\":3056:3708   */\n      swap3\n      pop\n      swap3\n      swap1\n      pop\n      jump\t// out\n        /* \"#utility.yul\":3714:3883   */\n    tag_46:\n        /* \"#utility.yul\":3798:3809   */\n      0x00\n        /* \"#utility.yul\":3832:3838   */\n      dup3\n        /* \"#utility.yul\":3827:3830   */\n      dup3\n        /* \"#utility.yul\":3820:3839   */\n      mstore\n        /* \"#utility.yul\":3872:3876   */\n      0x20\n        /* \"#utility.yul\":3867:3870   */\n      dup3\n        /* \"#utility.yul\":3863:3877   */\n      add\n        /* \"#utility.yul\":3848:3877   */\n      swap1\n      pop\n        /* \"#utility.yul\":3714:3883   */\n      swap3\n      swap2\n      pop\n      pop\n      jump\t// out\n        /* \"#utility.yul\":3889:4056   */\n    tag_47:\n        /* \"#utility.yul\":4029:4048   */\n      0x7520617265206e6f742061206f776e6572000000000000000000000000000000\n        /* \"#utility.yul\":4025:4026   */\n      0x00\n        /* \"#utility.yul\":4017:4023   */\n      dup3\n        /* \"#utility.yul\":4013:4027   */\n      add\n        /* \"#utility.yul\":4006:4049   */\n      mstore\n        /* \"#utility.yul\":3889:4056   */\n      pop\n      jump\t// out\n        /* \"#utility.yul\":4062:4428   */\n    tag_48:\n        /* \"#utility.yul\":4204:4207   */\n      0x00\n        /* \"#utility.yul\":4225:4292   */\n      tag_105\n        /* \"#utility.yul\":4289:4291   */\n      0x11\n        /* \"#utility.yul\":4284:4287   */\n      dup4\n        /* \"#utility.yul\":4225:4292   */\n      tag_46\n      jump\t// in\n    tag_105:\n        /* \"#utility.yul\":4218:4292   */\n      swap2\n      pop\n        /* \"#utility.yul\":4301:4394   */\n      tag_106\n        /* \"#utility.yul\":4390:4393   */\n      dup3\n        /* \"#utility.yul\":4301:4394   */\n      tag_47\n      jump\t// in\n    tag_106:\n        /* \"#utility.yul\":4419:4421   */\n      0x20\n        /* \"#utility.yul\":4414:4417   */\n      dup3\n        /* \"#utility.yul\":4410:4422   */\n      add\n        /* \"#utility.yul\":4403:4422   */\n      swap1\n      pop\n        /* \"#utility.yul\":4062:4428   */\n      swap2\n      swap1\n      pop\n      jump\t// out\n        /* \"#utility.yul\":4434:4853   */\n    tag_14:\n        /* \"#utility.yul\":4600:4604   */\n      0x00\n        /* \"#utility.yul\":4638:4640   */\n      0x20\n        /* \"#utility.yul\":4627:4636   */\n      dup3\n        /* \"#utility.yul\":4623:4641   */\n      add\n        /* \"#utility.yul\":4615:4641   */\n      swap1\n      pop\n        /* \"#utility.yul\":4687:4696   */\n      dup2\n        /* \"#utility.yul\":4681:4685   */\n      dup2\n        /* \"#utility.yul\":4677:4697   */\n      sub\n        /* \"#utility.yul\":4673:4674   */\n      0x00\n        /* \"#utility.yul\":4662:4671   */\n      dup4\n        /* \"#utility.yul\":4658:4675   */\n      add\n        /* \"#utility.yul\":4651:4698   */\n      mstore\n        /* \"#utility.yul\":4715:4846   */\n      tag_108\n        /* \"#utility.yul\":4841:4845   */\n      dup2\n        /* \"#utility.yul\":4715:4846   */\n      tag_48\n      jump\t// in\n    tag_108:\n        /* \"#utility.yul\":4707:4846   */\n      swap1\n      pop\n        /* \"#utility.yul\":4434:4853   */\n      swap2\n      swap1\n      pop\n      jump\t// out\n        /* \"#utility.yul\":4859:4957   */\n    tag_49:\n        /* \"#utility.yul\":4910:4916   */\n      0x00\n        /* \"#utility.yul\":4944:4949   */\n      dup2\n        /* \"#utility.yul\":4938:4950   */\n      mload\n        /* \"#utility.yul\":4928:4950   */\n      swap1\n      pop\n        /* \"#utility.yul\":4859:4957   */\n      swap2\n      swap1\n      pop\n      jump\t// out\n        /* \"#utility.yul\":4963:5110   */\n    tag_50:\n        /* \"#utility.yul\":5064:5075   */\n      0x00\n        /* \"#utility.yul\":5101:5104   */\n      dup2\n        /* \"#utility.yul\":5086:5104   */\n      swap1\n      pop\n        /* \"#utility.yul\":4963:5110   */\n      swap3\n      swap2\n      pop\n      pop\n      jump\t// out\n        /* \"#utility.yul\":5116:5255   */\n    tag_51:\n        /* \"#utility.yul\":5205:5211   */\n      dup3\n        /* \"#utility.yul\":5200:5203   */\n      dup2\n        /* \"#utility.yul\":5195:5198   */\n      dup4\n        /* \"#utility.yul\":5189:5212   */\n      mcopy\n        /* \"#utility.yul\":5246:5247   */\n      0x00\n        /* \"#utility.yul\":5237:5243   */\n      dup4\n        /* \"#utility.yul\":5232:5235   */\n      dup4\n        /* \"#utility.yul\":5228:5244   */\n      add\n        /* \"#utility.yul\":5221:5248   */\n      mstore\n        /* \"#utility.yul\":5116:5255   */\n      pop\n      pop\n      pop\n      jump\t// out\n        /* \"#utility.yul\":5261:5647   */\n    tag_52:\n        /* \"#utility.yul\":5365:5368   */\n      0x00\n        /* \"#utility.yul\":5393:5431   */\n      tag_113\n        /* \"#utility.yul\":5425:5430   */\n      dup3\n        /* \"#utility.yul\":5393:5431   */\n      tag_49\n      jump\t// in\n    tag_113:\n        /* \"#utility.yul\":5447:5535   */\n      tag_114\n        /* \"#utility.yul\":5528:5534   */\n      dup2\n        /* \"#utility.yul\":5523:5526   */\n      dup6\n        /* \"#utility.yul\":5447:5535   */\n      tag_50\n      jump\t// in\n    tag_114:\n        /* \"#utility.yul\":5440:5535   */\n      swap4\n      pop\n        /* \"#utility.yul\":5544:5609   */\n      tag_115\n        /* \"#utility.yul\":5602:5608   */\n      dup2\n        /* \"#utility.yul\":5597:5600   */\n      dup6\n        /* \"#utility.yul\":5590:5594   */\n      0x20\n        /* \"#utility.yul\":5583:5588   */\n      dup7\n        /* \"#utility.yul\":5579:5595   */\n      add\n        /* \"#utility.yul\":5544:5609   */\n      tag_51\n      jump\t// in\n    tag_115:\n        /* \"#utility.yul\":5634:5640   */\n      dup1\n        /* \"#utility.yul\":5629:5632   */\n      dup5\n        /* \"#utility.yul\":5625:5641   */\n      add\n        /* \"#utility.yul\":5618:5641   */\n      swap2\n      pop\n        /* \"#utility.yul\":5369:5647   */\n      pop\n        /* \"#utility.yul\":5261:5647   */\n      swap3\n      swap2\n      pop\n      pop\n      jump\t// out\n        /* \"#utility.yul\":5653:5924   */\n    tag_19:\n        /* \"#utility.yul\":5783:5786   */\n      0x00\n        /* \"#utility.yul\":5805:5898   */\n      tag_117\n        /* \"#utility.yul\":5894:5897   */\n      dup3\n        /* \"#utility.yul\":5885:5891   */\n      dup5\n        /* \"#utility.yul\":5805:5898   */\n      tag_52\n      jump\t// in\n    tag_117:\n        /* \"#utility.yul\":5798:5898   */\n      swap2\n      pop\n        /* \"#utility.yul\":5915:5918   */\n      dup2\n        /* \"#utility.yul\":5908:5918   */\n      swap1\n      pop\n        /* \"#utility.yul\":5653:5924   */\n      swap3\n      swap2\n      pop\n      pop\n      jump\t// out\n        /* \"#utility.yul\":5930:6086   */\n    tag_53:\n        /* \"#utility.yul\":6070:6078   */\n      0x6661696c65640000000000000000000000000000000000000000000000000000\n        /* \"#utility.yul\":6066:6067   */\n      0x00\n        /* \"#utility.yul\":6058:6064   */\n      dup3\n        /* \"#utility.yul\":6054:6068   */\n      add\n        /* \"#utility.yul\":6047:6079   */\n      mstore\n        /* \"#utility.yul\":5930:6086   */\n      pop\n      jump\t// out\n        /* \"#utility.yul\":6092:6457   */\n    tag_54:\n        /* \"#utility.yul\":6234:6237   */\n      0x00\n        /* \"#utility.yul\":6255:6321   */\n      tag_120\n        /* \"#utility.yul\":6319:6320   */\n      0x06\n        /* \"#utility.yul\":6314:6317   */\n      dup4\n        /* \"#utility.yul\":6255:6321   */\n      tag_46\n      jump\t// in\n    tag_120:\n        /* \"#utility.yul\":6248:6321   */\n      swap2\n      pop\n        /* \"#utility.yul\":6330:6423   */\n      tag_121\n        /* \"#utility.yul\":6419:6422   */\n      dup3\n        /* \"#utility.yul\":6330:6423   */\n      tag_53\n      jump\t// in\n    tag_121:\n        /* \"#utility.yul\":6448:6450   */\n      0x20\n        /* \"#utility.yul\":6443:6446   */\n      dup3\n        /* \"#utility.yul\":6439:6451   */\n      add\n        /* \"#utility.yul\":6432:6451   */\n      swap1\n      pop\n        /* \"#utility.yul\":6092:6457   */\n      swap2\n      swap1\n      pop\n      jump\t// out\n        /* \"#utility.yul\":6463:6882   */\n    tag_25:\n        /* \"#utility.yul\":6629:6633   */\n      0x00\n        /* \"#utility.yul\":6667:6669   */\n      0x20\n        /* \"#utility.yul\":6656:6665   */\n      dup3\n        /* \"#utility.yul\":6652:6670   */\n      add\n        /* \"#utility.yul\":6644:6670   */\n      swap1\n      pop\n        /* \"#utility.yul\":6716:6725   */\n      dup2\n        /* \"#utility.yul\":6710:6714   */\n      dup2\n        /* \"#utility.yul\":6706:6726   */\n      sub\n        /* \"#utility.yul\":6702:6703   */\n      0x00\n        /* \"#utility.yul\":6691:6700   */\n      dup4\n        /* \"#utility.yul\":6687:6704   */\n      add\n        /* \"#utility.yul\":6680:6727   */\n      mstore\n        /* \"#utility.yul\":6744:6875   */\n      tag_123\n        /* \"#utility.yul\":6870:6874   */\n      dup2\n        /* \"#utility.yul\":6744:6875   */\n      tag_54\n      jump\t// in\n    tag_123:\n        /* \"#utility.yul\":6736:6875   */\n      swap1\n      pop\n        /* \"#utility.yul\":6463:6882   */\n      swap2\n      swap1\n      pop\n      jump\t// out\n        /* \"#utility.yul\":6888:7040   */\n    tag_55:\n        /* \"#utility.yul\":7028:7032   */\n      0x6e6f000000000000000000000000000000000000000000000000000000000000\n        /* \"#utility.yul\":7024:7025   */\n      0x00\n        /* \"#utility.yul\":7016:7022   */\n      dup3\n        /* \"#utility.yul\":7012:7026   */\n      add\n        /* \"#utility.yul\":7005:7033   */\n      mstore\n        /* \"#utility.yul\":6888:7040   */\n      pop\n      jump\t// out\n        /* \"#utility.yul\":7046:7411   */\n    tag_56:\n        /* \"#utility.yul\":7188:7191   */\n      0x00\n        /* \"#utility.yul\":7209:7275   */\n      tag_126\n        /* \"#utility.yul\":7273:7274   */\n      0x02\n        /* \"#utility.yul\":7268:7271   */\n      dup4\n        /* \"#utility.yul\":7209:7275   */\n      tag_46\n      jump\t// in\n    tag_126:\n        /* \"#utility.yul\":7202:7275   */\n      swap2\n      pop\n        /* \"#utility.yul\":7284:7377   */\n      tag_127\n        /* \"#utility.yul\":7373:7376   */\n      dup3\n        /* \"#utility.yul\":7284:7377   */\n      tag_55\n      jump\t// in\n    tag_127:\n        /* \"#utility.yul\":7402:7404   */\n      0x20\n        /* \"#utility.yul\":7397:7400   */\n      dup3\n        /* \"#utility.yul\":7393:7405   */\n      add\n        /* \"#utility.yul\":7386:7405   */\n      swap1\n      pop\n        /* \"#utility.yul\":7046:7411   */\n      swap2\n      swap1\n      pop\n      jump\t// out\n        /* \"#utility.yul\":7417:7836   */\n    tag_28:\n        /* \"#utility.yul\":7583:7587   */\n      0x00\n        /* \"#utility.yul\":7621:7623   */\n      0x20\n        /* \"#utility.yul\":7610:7619   */\n      dup3\n        /* \"#utility.yul\":7606:7624   */\n      add\n        /* \"#utility.yul\":7598:7624   */\n      swap1\n      pop\n        /* \"#utility.yul\":7670:7679   */\n      dup2\n        /* \"#utility.yul\":7664:7668   */\n      dup2\n        /* \"#utility.yul\":7660:7680   */\n      sub\n        /* \"#utility.yul\":7656:7657   */\n      0x00\n        /* \"#utility.yul\":7645:7654   */\n      dup4\n        /* \"#utility.yul\":7641:7658   */\n      add\n        /* \"#utility.yul\":7634:7681   */\n      mstore\n        /* \"#utility.yul\":7698:7829   */\n      tag_129\n        /* \"#utility.yul\":7824:7828   */\n      dup2\n        /* \"#utility.yul\":7698:7829   */\n      tag_56\n      jump\t// in\n    tag_129:\n        /* \"#utility.yul\":7690:7829   */\n      swap1\n      pop\n        /* \"#utility.yul\":7417:7836   */\n      swap2\n      swap1\n      pop\n      jump\t// out\n\n    auxdata: 0xa2646970667358221220605b696579cc0d05012847e59564687b1c2c3188c14bc6f6999fee91d2ed175264736f6c63430008190033\n}\n",
				"bytecode": {
					"linkReferences": {},
					"object": "6080604052670de0b6b3a764000034146016575f80fd5b335f806101000a81548173ffffffffffffffffffffffffffffffffffffffff021916908373ffffffffffffffffffffffffffffffffffffffff16021790555061060e806100625f395ff3fe608060405234801561000f575f80fd5b5060043610610034575f3560e01c80633ccfd60b14610038578063aee5a55014610042575b5f80fd5b61004061005e565b005b61005c600480360381019061005791906103ce565b610131565b005b5f8054906101000a900473ffffffffffffffffffffffffffffffffffffffff1673ffffffffffffffffffffffffffffffffffffffff163373ffffffffffffffffffffffffffffffffffffffff16146100eb576040517f08c379a00000000000000000000000000000000000000000000000000000000081526004016100e290610482565b60405180910390fd5b3373ffffffffffffffffffffffffffffffffffffffff166108fc4790811502906040515f60405180830381858888f1935050505015801561012e573d5f803e3d5ffd5b50565b5f8273ffffffffffffffffffffffffffffffffffffffff168260405161015791906104f2565b5f60405180830381855af49150503d805f811461018f576040519150601f19603f3d011682016040523d82523d5f602084013e610194565b606091505b50509050806101d8576040517f08c379a00000000000000000000000000000000000000000000000000000000081526004016101cf90610552565b60405180910390fd5b670de0b6b3a76400004714610222576040517f08c379a0000000000000000000000000000000000000000000000000000000008152600401610219906105ba565b60405180910390fd5b505050565b5f604051905090565b5f80fd5b5f80fd5b5f73ffffffffffffffffffffffffffffffffffffffff82169050919050565b5f61026182610238565b9050919050565b61027181610257565b811461027b575f80fd5b50565b5f8135905061028c81610268565b92915050565b5f80fd5b5f80fd5b5f601f19601f8301169050919050565b7f4e487b71000000000000000000000000000000000000000000000000000000005f52604160045260245ffd5b6102e08261029a565b810181811067ffffffffffffffff821117156102ff576102fe6102aa565b5b80604052505050565b5f610311610227565b905061031d82826102d7565b919050565b5f67ffffffffffffffff82111561033c5761033b6102aa565b5b6103458261029a565b9050602081019050919050565b828183375f83830152505050565b5f61037261036d84610322565b610308565b90508281526020810184848401111561038e5761038d610296565b5b610399848285610352565b509392505050565b5f82601f8301126103b5576103b4610292565b5b81356103c5848260208601610360565b91505092915050565b5f80604083850312156103e4576103e3610230565b5b5f6103f18582860161027e565b925050602083013567ffffffffffffffff81111561041257610411610234565b5b61041e858286016103a1565b9150509250929050565b5f82825260208201905092915050565b7f7520617265206e6f742061206f776e65720000000000000000000000000000005f82015250565b5f61046c601183610428565b915061047782610438565b602082019050919050565b5f6020820190508181035f83015261049981610460565b9050919050565b5f81519050919050565b5f81905092915050565b8281835e5f83830152505050565b5f6104cc826104a0565b6104d681856104aa565b93506104e68185602086016104b4565b80840191505092915050565b5f6104fd82846104c2565b915081905092915050565b7f6661696c656400000000000000000000000000000000000000000000000000005f82015250565b5f61053c600683610428565b915061054782610508565b602082019050919050565b5f6020820190508181035f83015261056981610530565b9050919050565b7f6e6f0000000000000000000000000000000000000000000000000000000000005f82015250565b5f6105a4600283610428565b91506105af82610570565b602082019050919050565b5f6020820190508181035f8301526105d181610598565b905091905056fea2646970667358221220605b696579cc0d05012847e59564687b1c2c3188c14bc6f6999fee91d2ed175264736f6c63430008190033",
					"opcodes": "PUSH1 0x80 PUSH1 0x40 MSTORE PUSH8 0xDE0B6B3A7640000 CALLVALUE EQ PUSH1 0x16 JUMPI PUSH0 DUP1 REVERT JUMPDEST CALLER PUSH0 DUP1 PUSH2 0x100 EXP DUP2 SLOAD DUP2 PUSH20 0xFFFFFFFFFFFFFFFFFFFFFFFFFFFFFFFFFFFFFFFF MUL NOT AND SWAP1 DUP4 PUSH20 0xFFFFFFFFFFFFFFFFFFFFFFFFFFFFFFFFFFFFFFFF AND MUL OR SWAP1 SSTORE POP PUSH2 0x60E DUP1 PUSH2 0x62 PUSH0 CODECOPY PUSH0 RETURN INVALID PUSH1 0x80 PUSH1 0x40 MSTORE CALLVALUE DUP1 ISZERO PUSH2 0xF JUMPI PUSH0 DUP1 REVERT JUMPDEST POP PUSH1 0x4 CALLDATASIZE LT PUSH2 0x34 JUMPI PUSH0 CALLDATALOAD PUSH1 0xE0 SHR DUP1 PUSH4 0x3CCFD60B EQ PUSH2 0x38 JUMPI DUP1 PUSH4 0xAEE5A550 EQ PUSH2 0x42 JUMPI JUMPDEST PUSH0 DUP1 REVERT JUMPDEST PUSH2 0x40 PUSH2 0x5E JUMP JUMPDEST STOP JUMPDEST PUSH2 0x5C PUSH1 0x4 DUP1 CALLDATASIZE SUB DUP2 ADD SWAP1 PUSH2 0x57 SWAP2 SWAP1 PUSH2 0x3CE JUMP JUMPDEST PUSH2 0x131 JUMP JUMPDEST STOP JUMPDEST PUSH0 DUP1 SLOAD SWAP1 PUSH2 0x100 EXP SWAP1 DIV PUSH20 0xFFFFFFFFFFFFFFFFFFFFFFFFFFFFFFFFFFFFFFFF AND PUSH20 0xFFFFFFFFFFFFFFFFFFFFFFFFFFFFFFFFFFFFFFFF AND CALLER PUSH20 0xFFFFFFFFFFFFFFFFFFFFFFFFFFFFFFFFFFFFFFFF AND EQ PUSH2 0xEB JUMPI PUSH1 0x40 MLOAD PUSH32 0x8C379A000000000000000000000000000000000000000000000000000000000 DUP2 MSTORE PUSH1 0x4 ADD PUSH2 0xE2 SWAP1 PUSH2 0x482 JUMP JUMPDEST PUSH1 0x40 MLOAD DUP1 SWAP2 SUB SWAP1 REVERT JUMPDEST CALLER PUSH20 0xFFFFFFFFFFFFFFFFFFFFFFFFFFFFFFFFFFFFFFFF AND PUSH2 0x8FC SELFBALANCE SWAP1 DUP2 ISZERO MUL SWAP1 PUSH1 0x40 MLOAD PUSH0 PUSH1 0x40 MLOAD DUP1 DUP4 SUB DUP2 DUP6 DUP9 DUP9 CALL SWAP4 POP POP POP POP ISZERO DUP1 ISZERO PUSH2 0x12E JUMPI RETURNDATASIZE PUSH0 DUP1 RETURNDATACOPY RETURNDATASIZE PUSH0 REVERT JUMPDEST POP JUMP JUMPDEST PUSH0 DUP3 PUSH20 0xFFFFFFFFFFFFFFFFFFFFFFFFFFFFFFFFFFFFFFFF AND DUP3 PUSH1 0x40 MLOAD PUSH2 0x157 SWAP2 SWAP1 PUSH2 0x4F2 JUMP JUMPDEST PUSH0 PUSH1 0x40 MLOAD DUP1 DUP4 SUB DUP2 DUP6 GAS DELEGATECALL SWAP2 POP POP RETURNDATASIZE DUP1 PUSH0 DUP2 EQ PUSH2 0x18F JUMPI PUSH1 0x40 MLOAD SWAP2 POP PUSH1 0x1F NOT PUSH1 0x3F RETURNDATASIZE ADD AND DUP3 ADD PUSH1 0x40 MSTORE RETURNDATASIZE DUP3 MSTORE RETURNDATASIZE PUSH0 PUSH1 0x20 DUP5 ADD RETURNDATACOPY PUSH2 0x194 JUMP JUMPDEST PUSH1 0x60 SWAP2 POP JUMPDEST POP POP SWAP1 POP DUP1 PUSH2 0x1D8 JUMPI PUSH1 0x40 MLOAD PUSH32 0x8C379A000000000000000000000000000000000000000000000000000000000 DUP2 MSTORE PUSH1 0x4 ADD PUSH2 0x1CF SWAP1 PUSH2 0x552 JUMP JUMPDEST PUSH1 0x40 MLOAD DUP1 SWAP2 SUB SWAP1 REVERT JUMPDEST PUSH8 0xDE0B6B3A7640000 SELFBALANCE EQ PUSH2 0x222 JUMPI PUSH1 0x40 MLOAD PUSH32 0x8C379A000000000000000000000000000000000000000000000000000000000 DUP2 MSTORE PUSH1 0x4 ADD PUSH2 0x219 SWAP1 PUSH2 0x5BA JUMP JUMPDEST PUSH1 0x40 MLOAD DUP1 SWAP2 SUB SWAP1 REVERT JUMPDEST POP POP POP JUMP JUMPDEST PUSH0 PUSH1 0x40 MLOAD SWAP1 POP SWAP1 JUMP JUMPDEST PUSH0 DUP1 REVERT JUMPDEST PUSH0 DUP1 REVERT JUMPDEST PUSH0 PUSH20 0xFFFFFFFFFFFFFFFFFFFFFFFFFFFFFFFFFFFFFFFF DUP3 AND SWAP1 POP SWAP2 SWAP1 POP JUMP JUMPDEST PUSH0 PUSH2 0x261 DUP3 PUSH2 0x238 JUMP JUMPDEST SWAP1 POP SWAP2 SWAP1 POP JUMP JUMPDEST PUSH2 0x271 DUP2 PUSH2 0x257 JUMP JUMPDEST DUP2 EQ PUSH2 0x27B JUMPI PUSH0 DUP1 REVERT JUMPDEST POP JUMP JUMPDEST PUSH0 DUP2 CALLDATALOAD SWAP1 POP PUSH2 0x28C DUP2 PUSH2 0x268 JUMP JUMPDEST SWAP3 SWAP2 POP POP JUMP JUMPDEST PUSH0 DUP1 REVERT JUMPDEST PUSH0 DUP1 REVERT JUMPDEST PUSH0 PUSH1 0x1F NOT PUSH1 0x1F DUP4 ADD AND SWAP1 POP SWAP2 SWAP1 POP JUMP JUMPDEST PUSH32 0x4E487B7100000000000000000000000000000000000000000000000000000000 PUSH0 MSTORE PUSH1 0x41 PUSH1 0x4 MSTORE PUSH1 0x24 PUSH0 REVERT JUMPDEST PUSH2 0x2E0 DUP3 PUSH2 0x29A JUMP JUMPDEST DUP2 ADD DUP2 DUP2 LT PUSH8 0xFFFFFFFFFFFFFFFF DUP3 GT OR ISZERO PUSH2 0x2FF JUMPI PUSH2 0x2FE PUSH2 0x2AA JUMP JUMPDEST JUMPDEST DUP1 PUSH1 0x40 MSTORE POP POP POP JUMP JUMPDEST PUSH0 PUSH2 0x311 PUSH2 0x227 JUMP JUMPDEST SWAP1 POP PUSH2 0x31D DUP3 DUP3 PUSH2 0x2D7 JUMP JUMPDEST SWAP2 SWAP1 POP JUMP JUMPDEST PUSH0 PUSH8 0xFFFFFFFFFFFFFFFF DUP3 GT ISZERO PUSH2 0x33C JUMPI PUSH2 0x33B PUSH2 0x2AA JUMP JUMPDEST JUMPDEST PUSH2 0x345 DUP3 PUSH2 0x29A JUMP JUMPDEST SWAP1 POP PUSH1 0x20 DUP2 ADD SWAP1 POP SWAP2 SWAP1 POP JUMP JUMPDEST DUP3 DUP2 DUP4 CALLDATACOPY PUSH0 DUP4 DUP4 ADD MSTORE POP POP POP JUMP JUMPDEST PUSH0 PUSH2 0x372 PUSH2 0x36D DUP5 PUSH2 0x322 JUMP JUMPDEST PUSH2 0x308 JUMP JUMPDEST SWAP1 POP DUP3 DUP2 MSTORE PUSH1 0x20 DUP2 ADD DUP5 DUP5 DUP5 ADD GT ISZERO PUSH2 0x38E JUMPI PUSH2 0x38D PUSH2 0x296 JUMP JUMPDEST JUMPDEST PUSH2 0x399 DUP5 DUP3 DUP6 PUSH2 0x352 JUMP JUMPDEST POP SWAP4 SWAP3 POP POP POP JUMP JUMPDEST PUSH0 DUP3 PUSH1 0x1F DUP4 ADD SLT PUSH2 0x3B5 JUMPI PUSH2 0x3B4 PUSH2 0x292 JUMP JUMPDEST JUMPDEST DUP2 CALLDATALOAD PUSH2 0x3C5 DUP5 DUP3 PUSH1 0x20 DUP7 ADD PUSH2 0x360 JUMP JUMPDEST SWAP2 POP POP SWAP3 SWAP2 POP POP JUMP JUMPDEST PUSH0 DUP1 PUSH1 0x40 DUP4 DUP6 SUB SLT ISZERO PUSH2 0x3E4 JUMPI PUSH2 0x3E3 PUSH2 0x230 JUMP JUMPDEST JUMPDEST PUSH0 PUSH2 0x3F1 DUP6 DUP3 DUP7 ADD PUSH2 0x27E JUMP JUMPDEST SWAP3 POP POP PUSH1 0x20 DUP4 ADD CALLDATALOAD PUSH8 0xFFFFFFFFFFFFFFFF DUP2 GT ISZERO PUSH2 0x412 JUMPI PUSH2 0x411 PUSH2 0x234 JUMP JUMPDEST JUMPDEST PUSH2 0x41E DUP6 DUP3 DUP7 ADD PUSH2 0x3A1 JUMP JUMPDEST SWAP2 POP POP SWAP3 POP SWAP3 SWAP1 POP JUMP JUMPDEST PUSH0 DUP3 DUP3 MSTORE PUSH1 0x20 DUP3 ADD SWAP1 POP SWAP3 SWAP2 POP POP JUMP JUMPDEST PUSH32 0x7520617265206E6F742061206F776E6572000000000000000000000000000000 PUSH0 DUP3 ADD MSTORE POP JUMP JUMPDEST PUSH0 PUSH2 0x46C PUSH1 0x11 DUP4 PUSH2 0x428 JUMP JUMPDEST SWAP2 POP PUSH2 0x477 DUP3 PUSH2 0x438 JUMP JUMPDEST PUSH1 0x20 DUP3 ADD SWAP1 POP SWAP2 SWAP1 POP JUMP JUMPDEST PUSH0 PUSH1 0x20 DUP3 ADD SWAP1 POP DUP2 DUP2 SUB PUSH0 DUP4 ADD MSTORE PUSH2 0x499 DUP2 PUSH2 0x460 JUMP JUMPDEST SWAP1 POP SWAP2 SWAP1 POP JUMP JUMPDEST PUSH0 DUP2 MLOAD SWAP1 POP SWAP2 SWAP1 POP JUMP JUMPDEST PUSH0 DUP2 SWAP1 POP SWAP3 SWAP2 POP POP JUMP JUMPDEST DUP3 DUP2 DUP4 MCOPY PUSH0 DUP4 DUP4 ADD MSTORE POP POP POP JUMP JUMPDEST PUSH0 PUSH2 0x4CC DUP3 PUSH2 0x4A0 JUMP JUMPDEST PUSH2 0x4D6 DUP2 DUP6 PUSH2 0x4AA JUMP JUMPDEST SWAP4 POP PUSH2 0x4E6 DUP2 DUP6 PUSH1 0x20 DUP7 ADD PUSH2 0x4B4 JUMP JUMPDEST DUP1 DUP5 ADD SWAP2 POP POP SWAP3 SWAP2 POP POP JUMP JUMPDEST PUSH0 PUSH2 0x4FD DUP3 DUP5 PUSH2 0x4C2 JUMP JUMPDEST SWAP2 POP DUP2 SWAP1 POP SWAP3 SWAP2 POP POP JUMP JUMPDEST PUSH32 0x6661696C65640000000000000000000000000000000000000000000000000000 PUSH0 DUP3 ADD MSTORE POP JUMP JUMPDEST PUSH0 PUSH2 0x53C PUSH1 0x6 DUP4 PUSH2 0x428 JUMP JUMPDEST SWAP2 POP PUSH2 0x547 DUP3 PUSH2 0x508 JUMP JUMPDEST PUSH1 0x20 DUP3 ADD SWAP1 POP SWAP2 SWAP1 POP JUMP JUMPDEST PUSH0 PUSH1 0x20 DUP3 ADD SWAP1 POP DUP2 DUP2 SUB PUSH0 DUP4 ADD MSTORE PUSH2 0x569 DUP2 PUSH2 0x530 JUMP JUMPDEST SWAP1 POP SWAP2 SWAP1 POP JUMP JUMPDEST PUSH32 0x6E6F000000000000000000000000000000000000000000000000000000000000 PUSH0 DUP3 ADD MSTORE POP JUMP JUMPDEST PUSH0 PUSH2 0x5A4 PUSH1 0x2 DUP4 PUSH2 0x428 JUMP JUMPDEST SWAP2 POP PUSH2 0x5AF DUP3 PUSH2 0x570 JUMP JUMPDEST PUSH1 0x20 DUP3 ADD SWAP1 POP SWAP2 SWAP1 POP JUMP JUMPDEST PUSH0 PUSH1 0x20 DUP3 ADD SWAP1 POP DUP2 DUP2 SUB PUSH0 DUP4 ADD MSTORE PUSH2 0x5D1 DUP2 PUSH2 0x598 JUMP JUMPDEST SWAP1 POP SWAP2 SWAP1 POP JUMP INVALID LOG2 PUSH5 0x6970667358 0x22 SLT KECCAK256 PUSH1 0x5B PUSH10 0x6579CC0D05012847E595 PUSH5 0x687B1C2C31 DUP9 0xC1 0x4B 0xC6 0xF6 SWAP10 SWAP16 0xEE SWAP2 0xD2 0xED OR MSTORE PUSH5 0x736F6C6343 STOP ADDMOD NOT STOP CALLER "
				},
				"gasEstimates": {
					"creation": {
						"codeDepositCost": "310000",
						"executionCost": "24610",
						"totalCost": "334610"
					},
					"external": {
						"steal(address,bytes)": "infinite",
						"withdraw()": "infinite"
					}
				},
				"methodIdentifiers": {
					"steal(address,bytes)": "aee5a550",
					"withdraw()": "3ccfd60b"
				}
			},
			"storageLayout": {
				"storage": [
					{
						"astId": 3,
						"contract": "contracts/Attack.sol:AB",
						"label": "owner",
						"offset": 0,
						"slot": "0",
						"type": "t_address"
					}
				],
				"types": {
					"t_address": {
						"encoding": "inplace",
						"label": "address",
						"numberOfBytes": "20"
					}
				}
			},
			"userdoc": {
				"kind": "user",
				"methods": {},
				"version": 1
			}
		}
	}
}