{
	"contracts/Hello.sol": {
		"A": {
			"abi": [
				{
					"inputs": [],
					"stateMutability": "nonpayable",
					"type": "constructor"
				},
				{
					"inputs": [
						{
							"internalType": "uint256",
							"name": "key",
							"type": "uint256"
						},
						{
							"internalType": "string",
							"name": "Name",
							"type": "string"
						},
						{
							"internalType": "string",
							"name": "BankName",
							"type": "string"
						}
					],
					"name": "AddData",
					"outputs": [],
					"stateMutability": "nonpayable",
					"type": "function"
				},
				{
					"inputs": [
						{
							"internalType": "uint256",
							"name": "",
							"type": "uint256"
						}
					],
					"name": "C",
					"outputs": [
						{
							"internalType": "address",
							"name": "AccountNumber",
							"type": "address"
						},
						{
							"internalType": "string",
							"name": "name",
							"type": "string"
						},
						{
							"internalType": "string",
							"name": "bankname",
							"type": "string"
						}
					],
					"stateMutability": "view",
					"type": "function"
				},
				{
					"inputs": [
						{
							"internalType": "uint256",
							"name": "no",
							"type": "uint256"
						}
					],
					"name": "privacy",
					"outputs": [
						{
							"components": [
								{
									"internalType": "address",
									"name": "AccountNumber",
									"type": "address"
								},
								{
									"internalType": "string",
									"name": "name",
									"type": "string"
								},
								{
									"internalType": "string",
									"name": "bankname",
									"type": "string"
								}
							],
							"internalType": "struct A.AB",
							"name": "",
							"type": "tuple"
						}
					],
					"stateMutability": "view",
					"type": "function"
				}
			],
			"devdoc": {
				"kind": "dev",
				"methods": {},
				"version": 1
			},
			"evm": {
				"assembly": "    /* \"contracts/Hello.sol\":59:597  contract A{... */\n  mstore(0x40, 0x80)\n    /* \"contracts/Hello.sol\":218:281  constructor(){... */\n  callvalue\n  dup1\n  iszero\n  tag_1\n  jumpi\n  0x00\n  dup1\n  revert\ntag_1:\n  pop\n    /* \"contracts/Hello.sol\":254:264  msg.sender */\n  caller\n    /* \"contracts/Hello.sol\":242:253  Bankmanager */\n  0x00\n  dup1\n    /* \"contracts/Hello.sol\":242:264  Bankmanager=msg.sender */\n  0x0100\n  exp\n  dup2\n  sload\n  dup2\n  0xffffffffffffffffffffffffffffffffffffffff\n  mul\n  not\n  and\n  swap1\n  dup4\n  0xffffffffffffffffffffffffffffffffffffffff\n  and\n  mul\n  or\n  swap1\n  sstore\n  pop\n    /* \"contracts/Hello.sol\":59:597  contract A{... */\n  dataSize(sub_0)\n  dup1\n  dataOffset(sub_0)\n  0x00\n  codecopy\n  0x00\n  return\nstop\n\nsub_0: assembly {\n        /* \"contracts/Hello.sol\":59:597  contract A{... */\n      mstore(0x40, 0x80)\n      callvalue\n      dup1\n      iszero\n      tag_1\n      jumpi\n      0x00\n      dup1\n      revert\n    tag_1:\n      pop\n      jumpi(tag_2, lt(calldatasize, 0x04))\n      shr(0xe0, calldataload(0x00))\n      dup1\n      0x03544d50\n      eq\n      tag_3\n      jumpi\n      dup1\n      0x1597a9e3\n      eq\n      tag_4\n      jumpi\n      dup1\n      0x6e9ed8cf\n      eq\n      tag_5\n      jumpi\n    tag_2:\n      0x00\n      dup1\n      revert\n        /* \"contracts/Hello.sol\":288:505  function AddData(uint key,string memory Name,string memory BankName)public {... */\n    tag_3:\n      tag_6\n      0x04\n      dup1\n      calldatasize\n      sub\n      dup2\n      add\n      swap1\n      tag_7\n      swap2\n      swap1\n      tag_8\n      jump\t// in\n    tag_7:\n      tag_9\n      jump\t// in\n    tag_6:\n      stop\n        /* \"contracts/Hello.sol\":511:594  function privacy(uint no)public view returns(AB memory){... */\n    tag_4:\n      tag_10\n      0x04\n      dup1\n      calldatasize\n      sub\n      dup2\n      add\n      swap1\n      tag_11\n      swap2\n      swap1\n      tag_12\n      jump\t// in\n    tag_11:\n      tag_13\n      jump\t// in\n    tag_10:\n      mload(0x40)\n      tag_14\n      swap2\n      swap1\n      tag_15\n      jump\t// in\n    tag_14:\n      mload(0x40)\n      dup1\n      swap2\n      sub\n      swap1\n      return\n        /* \"contracts/Hello.sol\":185:211  mapping (uint=>AB)public C */\n    tag_5:\n      tag_16\n      0x04\n      dup1\n      calldatasize\n      sub\n      dup2\n      add\n      swap1\n      tag_17\n      swap2\n      swap1\n      tag_12\n      jump\t// in\n    tag_17:\n      tag_18\n      jump\t// in\n    tag_16:\n      mload(0x40)\n      tag_19\n      swap4\n      swap3\n      swap2\n      swap1\n      tag_20\n      jump\t// in\n    tag_19:\n      mload(0x40)\n      dup1\n      swap2\n      sub\n      swap1\n      return\n        /* \"contracts/Hello.sol\":288:505  function AddData(uint key,string memory Name,string memory BankName)public {... */\n    tag_9:\n        /* \"contracts/Hello.sol\":372:385  AB memory obj */\n      tag_22\n      tag_23\n      jump\t// in\n    tag_22:\n        /* \"contracts/Hello.sol\":412:422  msg.sender */\n      caller\n        /* \"contracts/Hello.sol\":394:397  obj */\n      dup2\n        /* \"contracts/Hello.sol\":394:411  obj.AccountNumber */\n      0x00\n      add\n        /* \"contracts/Hello.sol\":394:422  obj.AccountNumber=msg.sender */\n      swap1\n      0xffffffffffffffffffffffffffffffffffffffff\n      and\n      swap1\n      dup2\n      0xffffffffffffffffffffffffffffffffffffffff\n      and\n      dup2\n      mstore\n      pop\n      pop\n        /* \"contracts/Hello.sol\":444:452  BankName */\n      dup2\n        /* \"contracts/Hello.sol\":431:434  obj */\n      dup2\n        /* \"contracts/Hello.sol\":431:443  obj.bankname */\n      0x40\n      add\n        /* \"contracts/Hello.sol\":431:452  obj.bankname=BankName */\n      dup2\n      swap1\n      mstore\n      pop\n        /* \"contracts/Hello.sol\":470:474  Name */\n      dup3\n        /* \"contracts/Hello.sol\":461:464  obj */\n      dup2\n        /* \"contracts/Hello.sol\":461:469  obj.name */\n      0x20\n      add\n        /* \"contracts/Hello.sol\":461:474  obj.name=Name */\n      dup2\n      swap1\n      mstore\n      pop\n        /* \"contracts/Hello.sol\":490:493  obj */\n      dup1\n        /* \"contracts/Hello.sol\":483:484  C */\n      0x01\n        /* \"contracts/Hello.sol\":483:489  C[key] */\n      0x00\n        /* \"contracts/Hello.sol\":485:488  key */\n      dup7\n        /* \"contracts/Hello.sol\":483:489  C[key] */\n      dup2\n      mstore\n      0x20\n      add\n      swap1\n      dup2\n      mstore\n      0x20\n      add\n      0x00\n      keccak256\n        /* \"contracts/Hello.sol\":483:493  C[key]=obj */\n      0x00\n      dup3\n      add\n      mload\n      dup2\n      0x00\n      add\n      exp(0x0100, 0x00)\n      dup2\n      sload\n      dup2\n      0xffffffffffffffffffffffffffffffffffffffff\n      mul\n      not\n      and\n      swap1\n      dup4\n      0xffffffffffffffffffffffffffffffffffffffff\n      and\n      mul\n      or\n      swap1\n      sstore\n      pop\n      0x20\n      dup3\n      add\n      mload\n      dup2\n      0x01\n      add\n      swap1\n      dup2\n      tag_24\n      swap2\n      swap1\n      tag_25\n      jump\t// in\n    tag_24:\n      pop\n      0x40\n      dup3\n      add\n      mload\n      dup2\n      0x02\n      add\n      swap1\n      dup2\n      tag_26\n      swap2\n      swap1\n      tag_25\n      jump\t// in\n    tag_26:\n      pop\n      swap1\n      pop\n      pop\n        /* \"contracts/Hello.sol\":363:505  {... */\n      pop\n        /* \"contracts/Hello.sol\":288:505  function AddData(uint key,string memory Name,string memory BankName)public {... */\n      pop\n      pop\n      pop\n      jump\t// out\n        /* \"contracts/Hello.sol\":511:594  function privacy(uint no)public view returns(AB memory){... */\n    tag_13:\n        /* \"contracts/Hello.sol\":556:565  AB memory */\n      tag_27\n      tag_23\n      jump\t// in\n    tag_27:\n        /* \"contracts/Hello.sol\":581:582  C */\n      0x01\n        /* \"contracts/Hello.sol\":581:586  C[no] */\n      0x00\n        /* \"contracts/Hello.sol\":583:585  no */\n      dup4\n        /* \"contracts/Hello.sol\":581:586  C[no] */\n      dup2\n      mstore\n      0x20\n      add\n      swap1\n      dup2\n      mstore\n      0x20\n      add\n      0x00\n      keccak256\n        /* \"contracts/Hello.sol\":573:587  return (C[no]) */\n      mload(0x40)\n      dup1\n      0x60\n      add\n      0x40\n      mstore\n      swap1\n      dup2\n      0x00\n      dup3\n      add\n      0x00\n      swap1\n      sload\n      swap1\n      0x0100\n      exp\n      swap1\n      div\n      0xffffffffffffffffffffffffffffffffffffffff\n      and\n      0xffffffffffffffffffffffffffffffffffffffff\n      and\n      0xffffffffffffffffffffffffffffffffffffffff\n      and\n      dup2\n      mstore\n      0x20\n      add\n      0x01\n      dup3\n      add\n      dup1\n      sload\n      tag_29\n      swap1\n      tag_30\n      jump\t// in\n    tag_29:\n      dup1\n      0x1f\n      add\n      0x20\n      dup1\n      swap2\n      div\n      mul\n      0x20\n      add\n      mload(0x40)\n      swap1\n      dup2\n      add\n      0x40\n      mstore\n      dup1\n      swap3\n      swap2\n      swap1\n      dup2\n      dup2\n      mstore\n      0x20\n      add\n      dup3\n      dup1\n      sload\n      tag_31\n      swap1\n      tag_30\n      jump\t// in\n    tag_31:\n      dup1\n      iszero\n      tag_32\n      jumpi\n      dup1\n      0x1f\n      lt\n      tag_33\n      jumpi\n      0x0100\n      dup1\n      dup4\n      sload\n      div\n      mul\n      dup4\n      mstore\n      swap2\n      0x20\n      add\n      swap2\n      jump(tag_32)\n    tag_33:\n      dup3\n      add\n      swap2\n      swap1\n      0x00\n      mstore\n      keccak256(0x00, 0x20)\n      swap1\n    tag_34:\n      dup2\n      sload\n      dup2\n      mstore\n      swap1\n      0x01\n      add\n      swap1\n      0x20\n      add\n      dup1\n      dup4\n      gt\n      tag_34\n      jumpi\n      dup3\n      swap1\n      sub\n      0x1f\n      and\n      dup3\n      add\n      swap2\n    tag_32:\n      pop\n      pop\n      pop\n      pop\n      pop\n      dup2\n      mstore\n      0x20\n      add\n      0x02\n      dup3\n      add\n      dup1\n      sload\n      tag_35\n      swap1\n      tag_30\n      jump\t// in\n    tag_35:\n      dup1\n      0x1f\n      add\n      0x20\n      dup1\n      swap2\n      div\n      mul\n      0x20\n      add\n      mload(0x40)\n      swap1\n      dup2\n      add\n      0x40\n      mstore\n      dup1\n      swap3\n      swap2\n      swap1\n      dup2\n      dup2\n      mstore\n      0x20\n      add\n      dup3\n      dup1\n      sload\n      tag_36\n      swap1\n      tag_30\n      jump\t// in\n    tag_36:\n      dup1\n      iszero\n      tag_37\n      jumpi\n      dup1\n      0x1f\n      lt\n      tag_38\n      jumpi\n      0x0100\n      dup1\n      dup4\n      sload\n      div\n      mul\n      dup4\n      mstore\n      swap2\n      0x20\n      add\n      swap2\n      jump(tag_37)\n    tag_38:\n      dup3\n      add\n      swap2\n      swap1\n      0x00\n      mstore\n      keccak256(0x00, 0x20)\n      swap1\n    tag_39:\n      dup2\n      sload\n      dup2\n      mstore\n      swap1\n      0x01\n      add\n      swap1\n      0x20\n      add\n      dup1\n      dup4\n      gt\n      tag_39\n      jumpi\n      dup3\n      swap1\n      sub\n      0x1f\n      and\n      dup3\n      add\n      swap2\n    tag_37:\n      pop\n      pop\n      pop\n      pop\n      pop\n      dup2\n      mstore\n      pop\n      pop\n      swap1\n      pop\n        /* \"contracts/Hello.sol\":511:594  function privacy(uint no)public view returns(AB memory){... */\n      swap2\n      swap1\n      pop\n      jump\t// out\n        /* \"contracts/Hello.sol\":185:211  mapping (uint=>AB)public C */\n    tag_18:\n      mstore(0x20, 0x01)\n      dup1\n      0x00\n      mstore\n      keccak256(0x00, 0x40)\n      0x00\n      swap2\n      pop\n      swap1\n      pop\n      dup1\n      0x00\n      add\n      0x00\n      swap1\n      sload\n      swap1\n      0x0100\n      exp\n      swap1\n      div\n      0xffffffffffffffffffffffffffffffffffffffff\n      and\n      swap1\n      dup1\n      0x01\n      add\n      dup1\n      sload\n      tag_40\n      swap1\n      tag_30\n      jump\t// in\n    tag_40:\n      dup1\n      0x1f\n      add\n      0x20\n      dup1\n      swap2\n      div\n      mul\n      0x20\n      add\n      mload(0x40)\n      swap1\n      dup2\n      add\n      0x40\n      mstore\n      dup1\n      swap3\n      swap2\n      swap1\n      dup2\n      dup2\n      mstore\n      0x20\n      add\n      dup3\n      dup1\n      sload\n      tag_41\n      swap1\n      tag_30\n      jump\t// in\n    tag_41:\n      dup1\n      iszero\n      tag_42\n      jumpi\n      dup1\n      0x1f\n      lt\n      tag_43\n      jumpi\n      0x0100\n      dup1\n      dup4\n      sload\n      div\n      mul\n      dup4\n      mstore\n      swap2\n      0x20\n      add\n      swap2\n      jump(tag_42)\n    tag_43:\n      dup3\n      add\n      swap2\n      swap1\n      0x00\n      mstore\n      keccak256(0x00, 0x20)\n      swap1\n    tag_44:\n      dup2\n      sload\n      dup2\n      mstore\n      swap1\n      0x01\n      add\n      swap1\n      0x20\n      add\n      dup1\n      dup4\n      gt\n      tag_44\n      jumpi\n      dup3\n      swap1\n      sub\n      0x1f\n      and\n      dup3\n      add\n      swap2\n    tag_42:\n      pop\n      pop\n      pop\n      pop\n      pop\n      swap1\n      dup1\n      0x02\n      add\n      dup1\n      sload\n      tag_45\n      swap1\n      tag_30\n      jump\t// in\n    tag_45:\n      dup1\n      0x1f\n      add\n      0x20\n      dup1\n      swap2\n      div\n      mul\n      0x20\n      add\n      mload(0x40)\n      swap1\n      dup2\n      add\n      0x40\n      mstore\n      dup1\n      swap3\n      swap2\n      swap1\n      dup2\n      dup2\n      mstore\n      0x20\n      add\n      dup3\n      dup1\n      sload\n      tag_46\n      swap1\n      tag_30\n      jump\t// in\n    tag_46:\n      dup1\n      iszero\n      tag_47\n      jumpi\n      dup1\n      0x1f\n      lt\n      tag_48\n      jumpi\n      0x0100\n      dup1\n      dup4\n      sload\n      div\n      mul\n      dup4\n      mstore\n      swap2\n      0x20\n      add\n      swap2\n      jump(tag_47)\n    tag_48:\n      dup3\n      add\n      swap2\n      swap1\n      0x00\n      mstore\n      keccak256(0x00, 0x20)\n      swap1\n    tag_49:\n      dup2\n      sload\n      dup2\n      mstore\n      swap1\n      0x01\n      add\n      swap1\n      0x20\n      add\n      dup1\n      dup4\n      gt\n      tag_49\n      jumpi\n      dup3\n      swap1\n      sub\n      0x1f\n      and\n      dup3\n      add\n      swap2\n    tag_47:\n      pop\n      pop\n      pop\n      pop\n      pop\n      swap1\n      pop\n      dup4\n      jump\t// out\n    tag_23:\n      mload(0x40)\n      dup1\n      0x60\n      add\n      0x40\n      mstore\n      dup1\n      and(0xffffffffffffffffffffffffffffffffffffffff, 0x00)\n      dup2\n      mstore\n      0x20\n      add\n      0x60\n      dup2\n      mstore\n      0x20\n      add\n      0x60\n      dup2\n      mstore\n      pop\n      swap1\n      jump\t// out\n        /* \"#utility.yul\":7:82   */\n    tag_50:\n        /* \"#utility.yul\":40:46   */\n      0x00\n        /* \"#utility.yul\":73:75   */\n      0x40\n        /* \"#utility.yul\":67:76   */\n      mload\n        /* \"#utility.yul\":57:76   */\n      swap1\n      pop\n        /* \"#utility.yul\":7:82   */\n      swap1\n      jump\t// out\n        /* \"#utility.yul\":88:205   */\n    tag_51:\n        /* \"#utility.yul\":197:198   */\n      0x00\n        /* \"#utility.yul\":194:195   */\n      dup1\n        /* \"#utility.yul\":187:199   */\n      revert\n        /* \"#utility.yul\":211:328   */\n    tag_52:\n        /* \"#utility.yul\":320:321   */\n      0x00\n        /* \"#utility.yul\":317:318   */\n      dup1\n        /* \"#utility.yul\":310:322   */\n      revert\n        /* \"#utility.yul\":334:411   */\n    tag_53:\n        /* \"#utility.yul\":371:378   */\n      0x00\n        /* \"#utility.yul\":400:405   */\n      dup2\n        /* \"#utility.yul\":389:405   */\n      swap1\n      pop\n        /* \"#utility.yul\":334:411   */\n      swap2\n      swap1\n      pop\n      jump\t// out\n        /* \"#utility.yul\":417:539   */\n    tag_54:\n        /* \"#utility.yul\":490:514   */\n      tag_99\n        /* \"#utility.yul\":508:513   */\n      dup2\n        /* \"#utility.yul\":490:514   */\n      tag_53\n      jump\t// in\n    tag_99:\n        /* \"#utility.yul\":483:488   */\n      dup2\n        /* \"#utility.yul\":480:515   */\n      eq\n        /* \"#utility.yul\":470:533   */\n      tag_100\n      jumpi\n        /* \"#utility.yul\":529:530   */\n      0x00\n        /* \"#utility.yul\":526:527   */\n      dup1\n        /* \"#utility.yul\":519:531   */\n      revert\n        /* \"#utility.yul\":470:533   */\n    tag_100:\n        /* \"#utility.yul\":417:539   */\n      pop\n      jump\t// out\n        /* \"#utility.yul\":545:684   */\n    tag_55:\n        /* \"#utility.yul\":591:596   */\n      0x00\n        /* \"#utility.yul\":629:635   */\n      dup2\n        /* \"#utility.yul\":616:636   */\n      calldataload\n        /* \"#utility.yul\":607:636   */\n      swap1\n      pop\n        /* \"#utility.yul\":645:678   */\n      tag_102\n        /* \"#utility.yul\":672:677   */\n      dup2\n        /* \"#utility.yul\":645:678   */\n      tag_54\n      jump\t// in\n    tag_102:\n        /* \"#utility.yul\":545:684   */\n      swap3\n      swap2\n      pop\n      pop\n      jump\t// out\n        /* \"#utility.yul\":690:807   */\n    tag_56:\n        /* \"#utility.yul\":799:800   */\n      0x00\n        /* \"#utility.yul\":796:797   */\n      dup1\n        /* \"#utility.yul\":789:801   */\n      revert\n        /* \"#utility.yul\":813:930   */\n    tag_57:\n        /* \"#utility.yul\":922:923   */\n      0x00\n        /* \"#utility.yul\":919:920   */\n      dup1\n        /* \"#utility.yul\":912:924   */\n      revert\n        /* \"#utility.yul\":936:1038   */\n    tag_58:\n        /* \"#utility.yul\":977:983   */\n      0x00\n        /* \"#utility.yul\":1028:1030   */\n      0x1f\n        /* \"#utility.yul\":1024:1031   */\n      not\n        /* \"#utility.yul\":1019:1021   */\n      0x1f\n        /* \"#utility.yul\":1012:1017   */\n      dup4\n        /* \"#utility.yul\":1008:1022   */\n      add\n        /* \"#utility.yul\":1004:1032   */\n      and\n        /* \"#utility.yul\":994:1032   */\n      swap1\n      pop\n        /* \"#utility.yul\":936:1038   */\n      swap2\n      swap1\n      pop\n      jump\t// out\n        /* \"#utility.yul\":1044:1224   */\n    tag_59:\n        /* \"#utility.yul\":1092:1169   */\n      0x4e487b7100000000000000000000000000000000000000000000000000000000\n        /* \"#utility.yul\":1089:1090   */\n      0x00\n        /* \"#utility.yul\":1082:1170   */\n      mstore\n        /* \"#utility.yul\":1189:1193   */\n      0x41\n        /* \"#utility.yul\":1186:1187   */\n      0x04\n        /* \"#utility.yul\":1179:1194   */\n      mstore\n        /* \"#utility.yul\":1213:1217   */\n      0x24\n        /* \"#utility.yul\":1210:1211   */\n      0x00\n        /* \"#utility.yul\":1203:1218   */\n      revert\n        /* \"#utility.yul\":1230:1511   */\n    tag_60:\n        /* \"#utility.yul\":1313:1340   */\n      tag_108\n        /* \"#utility.yul\":1335:1339   */\n      dup3\n        /* \"#utility.yul\":1313:1340   */\n      tag_58\n      jump\t// in\n    tag_108:\n        /* \"#utility.yul\":1305:1311   */\n      dup2\n        /* \"#utility.yul\":1301:1341   */\n      add\n        /* \"#utility.yul\":1443:1449   */\n      dup2\n        /* \"#utility.yul\":1431:1441   */\n      dup2\n        /* \"#utility.yul\":1428:1450   */\n      lt\n        /* \"#utility.yul\":1407:1425   */\n      0xffffffffffffffff\n        /* \"#utility.yul\":1395:1405   */\n      dup3\n        /* \"#utility.yul\":1392:1426   */\n      gt\n        /* \"#utility.yul\":1389:1451   */\n      or\n        /* \"#utility.yul\":1386:1474   */\n      iszero\n      tag_109\n      jumpi\n        /* \"#utility.yul\":1454:1472   */\n      tag_110\n      tag_59\n      jump\t// in\n    tag_110:\n        /* \"#utility.yul\":1386:1474   */\n    tag_109:\n        /* \"#utility.yul\":1494:1504   */\n      dup1\n        /* \"#utility.yul\":1490:1492   */\n      0x40\n        /* \"#utility.yul\":1483:1505   */\n      mstore\n        /* \"#utility.yul\":1273:1511   */\n      pop\n        /* \"#utility.yul\":1230:1511   */\n      pop\n      pop\n      jump\t// out\n        /* \"#utility.yul\":1517:1646   */\n    tag_61:\n        /* \"#utility.yul\":1551:1557   */\n      0x00\n        /* \"#utility.yul\":1578:1598   */\n      tag_112\n      tag_50\n      jump\t// in\n    tag_112:\n        /* \"#utility.yul\":1568:1598   */\n      swap1\n      pop\n        /* \"#utility.yul\":1607:1640   */\n      tag_113\n        /* \"#utility.yul\":1635:1639   */\n      dup3\n        /* \"#utility.yul\":1627:1633   */\n      dup3\n        /* \"#utility.yul\":1607:1640   */\n      tag_60\n      jump\t// in\n    tag_113:\n        /* \"#utility.yul\":1517:1646   */\n      swap2\n      swap1\n      pop\n      jump\t// out\n        /* \"#utility.yul\":1652:1960   */\n    tag_62:\n        /* \"#utility.yul\":1714:1718   */\n      0x00\n        /* \"#utility.yul\":1804:1822   */\n      0xffffffffffffffff\n        /* \"#utility.yul\":1796:1802   */\n      dup3\n        /* \"#utility.yul\":1793:1823   */\n      gt\n        /* \"#utility.yul\":1790:1846   */\n      iszero\n      tag_115\n      jumpi\n        /* \"#utility.yul\":1826:1844   */\n      tag_116\n      tag_59\n      jump\t// in\n    tag_116:\n        /* \"#utility.yul\":1790:1846   */\n    tag_115:\n        /* \"#utility.yul\":1864:1893   */\n      tag_117\n        /* \"#utility.yul\":1886:1892   */\n      dup3\n        /* \"#utility.yul\":1864:1893   */\n      tag_58\n      jump\t// in\n    tag_117:\n        /* \"#utility.yul\":1856:1893   */\n      swap1\n      pop\n        /* \"#utility.yul\":1948:1952   */\n      0x20\n        /* \"#utility.yul\":1942:1946   */\n      dup2\n        /* \"#utility.yul\":1938:1953   */\n      add\n        /* \"#utility.yul\":1930:1953   */\n      swap1\n      pop\n        /* \"#utility.yul\":1652:1960   */\n      swap2\n      swap1\n      pop\n      jump\t// out\n        /* \"#utility.yul\":1966:2114   */\n    tag_63:\n        /* \"#utility.yul\":2064:2070   */\n      dup3\n        /* \"#utility.yul\":2059:2062   */\n      dup2\n        /* \"#utility.yul\":2054:2057   */\n      dup4\n        /* \"#utility.yul\":2041:2071   */\n      calldatacopy\n        /* \"#utility.yul\":2105:2106   */\n      0x00\n        /* \"#utility.yul\":2096:2102   */\n      dup4\n        /* \"#utility.yul\":2091:2094   */\n      dup4\n        /* \"#utility.yul\":2087:2103   */\n      add\n        /* \"#utility.yul\":2080:2107   */\n      mstore\n        /* \"#utility.yul\":1966:2114   */\n      pop\n      pop\n      pop\n      jump\t// out\n        /* \"#utility.yul\":2120:2545   */\n    tag_64:\n        /* \"#utility.yul\":2198:2203   */\n      0x00\n        /* \"#utility.yul\":2223:2289   */\n      tag_120\n        /* \"#utility.yul\":2239:2288   */\n      tag_121\n        /* \"#utility.yul\":2281:2287   */\n      dup5\n        /* \"#utility.yul\":2239:2288   */\n      tag_62\n      jump\t// in\n    tag_121:\n        /* \"#utility.yul\":2223:2289   */\n      tag_61\n      jump\t// in\n    tag_120:\n        /* \"#utility.yul\":2214:2289   */\n      swap1\n      pop\n        /* \"#utility.yul\":2312:2318   */\n      dup3\n        /* \"#utility.yul\":2305:2310   */\n      dup2\n        /* \"#utility.yul\":2298:2319   */\n      mstore\n        /* \"#utility.yul\":2350:2354   */\n      0x20\n        /* \"#utility.yul\":2343:2348   */\n      dup2\n        /* \"#utility.yul\":2339:2355   */\n      add\n        /* \"#utility.yul\":2388:2391   */\n      dup5\n        /* \"#utility.yul\":2379:2385   */\n      dup5\n        /* \"#utility.yul\":2374:2377   */\n      dup5\n        /* \"#utility.yul\":2370:2386   */\n      add\n        /* \"#utility.yul\":2367:2392   */\n      gt\n        /* \"#utility.yul\":2364:2476   */\n      iszero\n      tag_122\n      jumpi\n        /* \"#utility.yul\":2395:2474   */\n      tag_123\n      tag_57\n      jump\t// in\n    tag_123:\n        /* \"#utility.yul\":2364:2476   */\n    tag_122:\n        /* \"#utility.yul\":2485:2539   */\n      tag_124\n        /* \"#utility.yul\":2532:2538   */\n      dup5\n        /* \"#utility.yul\":2527:2530   */\n      dup3\n        /* \"#utility.yul\":2522:2525   */\n      dup6\n        /* \"#utility.yul\":2485:2539   */\n      tag_63\n      jump\t// in\n    tag_124:\n        /* \"#utility.yul\":2204:2545   */\n      pop\n        /* \"#utility.yul\":2120:2545   */\n      swap4\n      swap3\n      pop\n      pop\n      pop\n      jump\t// out\n        /* \"#utility.yul\":2565:2905   */\n    tag_65:\n        /* \"#utility.yul\":2621:2626   */\n      0x00\n        /* \"#utility.yul\":2670:2673   */\n      dup3\n        /* \"#utility.yul\":2663:2667   */\n      0x1f\n        /* \"#utility.yul\":2655:2661   */\n      dup4\n        /* \"#utility.yul\":2651:2668   */\n      add\n        /* \"#utility.yul\":2647:2674   */\n      slt\n        /* \"#utility.yul\":2637:2759   */\n      tag_126\n      jumpi\n        /* \"#utility.yul\":2678:2757   */\n      tag_127\n      tag_56\n      jump\t// in\n    tag_127:\n        /* \"#utility.yul\":2637:2759   */\n    tag_126:\n        /* \"#utility.yul\":2795:2801   */\n      dup2\n        /* \"#utility.yul\":2782:2802   */\n      calldataload\n        /* \"#utility.yul\":2820:2899   */\n      tag_128\n        /* \"#utility.yul\":2895:2898   */\n      dup5\n        /* \"#utility.yul\":2887:2893   */\n      dup3\n        /* \"#utility.yul\":2880:2884   */\n      0x20\n        /* \"#utility.yul\":2872:2878   */\n      dup7\n        /* \"#utility.yul\":2868:2885   */\n      add\n        /* \"#utility.yul\":2820:2899   */\n      tag_64\n      jump\t// in\n    tag_128:\n        /* \"#utility.yul\":2811:2899   */\n      swap2\n      pop\n        /* \"#utility.yul\":2627:2905   */\n      pop\n        /* \"#utility.yul\":2565:2905   */\n      swap3\n      swap2\n      pop\n      pop\n      jump\t// out\n        /* \"#utility.yul\":2911:3890   */\n    tag_8:\n        /* \"#utility.yul\":3008:3014   */\n      0x00\n        /* \"#utility.yul\":3016:3022   */\n      dup1\n        /* \"#utility.yul\":3024:3030   */\n      0x00\n        /* \"#utility.yul\":3073:3075   */\n      0x60\n        /* \"#utility.yul\":3061:3070   */\n      dup5\n        /* \"#utility.yul\":3052:3059   */\n      dup7\n        /* \"#utility.yul\":3048:3071   */\n      sub\n        /* \"#utility.yul\":3044:3076   */\n      slt\n        /* \"#utility.yul\":3041:3160   */\n      iszero\n      tag_130\n      jumpi\n        /* \"#utility.yul\":3079:3158   */\n      tag_131\n      tag_51\n      jump\t// in\n    tag_131:\n        /* \"#utility.yul\":3041:3160   */\n    tag_130:\n        /* \"#utility.yul\":3199:3200   */\n      0x00\n        /* \"#utility.yul\":3224:3277   */\n      tag_132\n        /* \"#utility.yul\":3269:3276   */\n      dup7\n        /* \"#utility.yul\":3260:3266   */\n      dup3\n        /* \"#utility.yul\":3249:3258   */\n      dup8\n        /* \"#utility.yul\":3245:3267   */\n      add\n        /* \"#utility.yul\":3224:3277   */\n      tag_55\n      jump\t// in\n    tag_132:\n        /* \"#utility.yul\":3214:3277   */\n      swap4\n      pop\n        /* \"#utility.yul\":3170:3287   */\n      pop\n        /* \"#utility.yul\":3354:3356   */\n      0x20\n        /* \"#utility.yul\":3343:3352   */\n      dup5\n        /* \"#utility.yul\":3339:3357   */\n      add\n        /* \"#utility.yul\":3326:3358   */\n      calldataload\n        /* \"#utility.yul\":3385:3403   */\n      0xffffffffffffffff\n        /* \"#utility.yul\":3377:3383   */\n      dup2\n        /* \"#utility.yul\":3374:3404   */\n      gt\n        /* \"#utility.yul\":3371:3488   */\n      iszero\n      tag_133\n      jumpi\n        /* \"#utility.yul\":3407:3486   */\n      tag_134\n      tag_52\n      jump\t// in\n    tag_134:\n        /* \"#utility.yul\":3371:3488   */\n    tag_133:\n        /* \"#utility.yul\":3512:3575   */\n      tag_135\n        /* \"#utility.yul\":3567:3574   */\n      dup7\n        /* \"#utility.yul\":3558:3564   */\n      dup3\n        /* \"#utility.yul\":3547:3556   */\n      dup8\n        /* \"#utility.yul\":3543:3565   */\n      add\n        /* \"#utility.yul\":3512:3575   */\n      tag_65\n      jump\t// in\n    tag_135:\n        /* \"#utility.yul\":3502:3575   */\n      swap3\n      pop\n        /* \"#utility.yul\":3297:3585   */\n      pop\n        /* \"#utility.yul\":3652:3654   */\n      0x40\n        /* \"#utility.yul\":3641:3650   */\n      dup5\n        /* \"#utility.yul\":3637:3655   */\n      add\n        /* \"#utility.yul\":3624:3656   */\n      calldataload\n        /* \"#utility.yul\":3683:3701   */\n      0xffffffffffffffff\n        /* \"#utility.yul\":3675:3681   */\n      dup2\n        /* \"#utility.yul\":3672:3702   */\n      gt\n        /* \"#utility.yul\":3669:3786   */\n      iszero\n      tag_136\n      jumpi\n        /* \"#utility.yul\":3705:3784   */\n      tag_137\n      tag_52\n      jump\t// in\n    tag_137:\n        /* \"#utility.yul\":3669:3786   */\n    tag_136:\n        /* \"#utility.yul\":3810:3873   */\n      tag_138\n        /* \"#utility.yul\":3865:3872   */\n      dup7\n        /* \"#utility.yul\":3856:3862   */\n      dup3\n        /* \"#utility.yul\":3845:3854   */\n      dup8\n        /* \"#utility.yul\":3841:3863   */\n      add\n        /* \"#utility.yul\":3810:3873   */\n      tag_65\n      jump\t// in\n    tag_138:\n        /* \"#utility.yul\":3800:3873   */\n      swap2\n      pop\n        /* \"#utility.yul\":3595:3883   */\n      pop\n        /* \"#utility.yul\":2911:3890   */\n      swap3\n      pop\n      swap3\n      pop\n      swap3\n      jump\t// out\n        /* \"#utility.yul\":3896:4225   */\n    tag_12:\n        /* \"#utility.yul\":3955:3961   */\n      0x00\n        /* \"#utility.yul\":4004:4006   */\n      0x20\n        /* \"#utility.yul\":3992:4001   */\n      dup3\n        /* \"#utility.yul\":3983:3990   */\n      dup5\n        /* \"#utility.yul\":3979:4002   */\n      sub\n        /* \"#utility.yul\":3975:4007   */\n      slt\n        /* \"#utility.yul\":3972:4091   */\n      iszero\n      tag_140\n      jumpi\n        /* \"#utility.yul\":4010:4089   */\n      tag_141\n      tag_51\n      jump\t// in\n    tag_141:\n        /* \"#utility.yul\":3972:4091   */\n    tag_140:\n        /* \"#utility.yul\":4130:4131   */\n      0x00\n        /* \"#utility.yul\":4155:4208   */\n      tag_142\n        /* \"#utility.yul\":4200:4207   */\n      dup5\n        /* \"#utility.yul\":4191:4197   */\n      dup3\n        /* \"#utility.yul\":4180:4189   */\n      dup6\n        /* \"#utility.yul\":4176:4198   */\n      add\n        /* \"#utility.yul\":4155:4208   */\n      tag_55\n      jump\t// in\n    tag_142:\n        /* \"#utility.yul\":4145:4208   */\n      swap2\n      pop\n        /* \"#utility.yul\":4101:4218   */\n      pop\n        /* \"#utility.yul\":3896:4225   */\n      swap3\n      swap2\n      pop\n      pop\n      jump\t// out\n        /* \"#utility.yul\":4231:4357   */\n    tag_66:\n        /* \"#utility.yul\":4268:4275   */\n      0x00\n        /* \"#utility.yul\":4308:4350   */\n      0xffffffffffffffffffffffffffffffffffffffff\n        /* \"#utility.yul\":4301:4306   */\n      dup3\n        /* \"#utility.yul\":4297:4351   */\n      and\n        /* \"#utility.yul\":4286:4351   */\n      swap1\n      pop\n        /* \"#utility.yul\":4231:4357   */\n      swap2\n      swap1\n      pop\n      jump\t// out\n        /* \"#utility.yul\":4363:4459   */\n    tag_67:\n        /* \"#utility.yul\":4400:4407   */\n      0x00\n        /* \"#utility.yul\":4429:4453   */\n      tag_145\n        /* \"#utility.yul\":4447:4452   */\n      dup3\n        /* \"#utility.yul\":4429:4453   */\n      tag_66\n      jump\t// in\n    tag_145:\n        /* \"#utility.yul\":4418:4453   */\n      swap1\n      pop\n        /* \"#utility.yul\":4363:4459   */\n      swap2\n      swap1\n      pop\n      jump\t// out\n        /* \"#utility.yul\":4465:4573   */\n    tag_68:\n        /* \"#utility.yul\":4542:4566   */\n      tag_147\n        /* \"#utility.yul\":4560:4565   */\n      dup2\n        /* \"#utility.yul\":4542:4566   */\n      tag_67\n      jump\t// in\n    tag_147:\n        /* \"#utility.yul\":4537:4540   */\n      dup3\n        /* \"#utility.yul\":4530:4567   */\n      mstore\n        /* \"#utility.yul\":4465:4573   */\n      pop\n      pop\n      jump\t// out\n        /* \"#utility.yul\":4579:4678   */\n    tag_69:\n        /* \"#utility.yul\":4631:4637   */\n      0x00\n        /* \"#utility.yul\":4665:4670   */\n      dup2\n        /* \"#utility.yul\":4659:4671   */\n      mload\n        /* \"#utility.yul\":4649:4671   */\n      swap1\n      pop\n        /* \"#utility.yul\":4579:4678   */\n      swap2\n      swap1\n      pop\n      jump\t// out\n        /* \"#utility.yul\":4684:4843   */\n    tag_70:\n        /* \"#utility.yul\":4758:4769   */\n      0x00\n        /* \"#utility.yul\":4792:4798   */\n      dup3\n        /* \"#utility.yul\":4787:4790   */\n      dup3\n        /* \"#utility.yul\":4780:4799   */\n      mstore\n        /* \"#utility.yul\":4832:4836   */\n      0x20\n        /* \"#utility.yul\":4827:4830   */\n      dup3\n        /* \"#utility.yul\":4823:4837   */\n      add\n        /* \"#utility.yul\":4808:4837   */\n      swap1\n      pop\n        /* \"#utility.yul\":4684:4843   */\n      swap3\n      swap2\n      pop\n      pop\n      jump\t// out\n        /* \"#utility.yul\":4849:4988   */\n    tag_71:\n        /* \"#utility.yul\":4938:4944   */\n      dup3\n        /* \"#utility.yul\":4933:4936   */\n      dup2\n        /* \"#utility.yul\":4928:4931   */\n      dup4\n        /* \"#utility.yul\":4922:4945   */\n      mcopy\n        /* \"#utility.yul\":4979:4980   */\n      0x00\n        /* \"#utility.yul\":4970:4976   */\n      dup4\n        /* \"#utility.yul\":4965:4968   */\n      dup4\n        /* \"#utility.yul\":4961:4977   */\n      add\n        /* \"#utility.yul\":4954:4981   */\n      mstore\n        /* \"#utility.yul\":4849:4988   */\n      pop\n      pop\n      pop\n      jump\t// out\n        /* \"#utility.yul\":4994:5351   */\n    tag_72:\n        /* \"#utility.yul\":5072:5075   */\n      0x00\n        /* \"#utility.yul\":5100:5139   */\n      tag_152\n        /* \"#utility.yul\":5133:5138   */\n      dup3\n        /* \"#utility.yul\":5100:5139   */\n      tag_69\n      jump\t// in\n    tag_152:\n        /* \"#utility.yul\":5155:5216   */\n      tag_153\n        /* \"#utility.yul\":5209:5215   */\n      dup2\n        /* \"#utility.yul\":5204:5207   */\n      dup6\n        /* \"#utility.yul\":5155:5216   */\n      tag_70\n      jump\t// in\n    tag_153:\n        /* \"#utility.yul\":5148:5216   */\n      swap4\n      pop\n        /* \"#utility.yul\":5225:5290   */\n      tag_154\n        /* \"#utility.yul\":5283:5289   */\n      dup2\n        /* \"#utility.yul\":5278:5281   */\n      dup6\n        /* \"#utility.yul\":5271:5275   */\n      0x20\n        /* \"#utility.yul\":5264:5269   */\n      dup7\n        /* \"#utility.yul\":5260:5276   */\n      add\n        /* \"#utility.yul\":5225:5290   */\n      tag_71\n      jump\t// in\n    tag_154:\n        /* \"#utility.yul\":5315:5344   */\n      tag_155\n        /* \"#utility.yul\":5337:5343   */\n      dup2\n        /* \"#utility.yul\":5315:5344   */\n      tag_58\n      jump\t// in\n    tag_155:\n        /* \"#utility.yul\":5310:5313   */\n      dup5\n        /* \"#utility.yul\":5306:5345   */\n      add\n        /* \"#utility.yul\":5299:5345   */\n      swap2\n      pop\n        /* \"#utility.yul\":5076:5351   */\n      pop\n        /* \"#utility.yul\":4994:5351   */\n      swap3\n      swap2\n      pop\n      pop\n      jump\t// out\n        /* \"#utility.yul\":5391:6239   */\n    tag_73:\n        /* \"#utility.yul\":5494:5497   */\n      0x00\n        /* \"#utility.yul\":5530:5534   */\n      0x60\n        /* \"#utility.yul\":5525:5528   */\n      dup4\n        /* \"#utility.yul\":5521:5535   */\n      add\n        /* \"#utility.yul\":5626:5630   */\n      0x00\n        /* \"#utility.yul\":5619:5624   */\n      dup4\n        /* \"#utility.yul\":5615:5631   */\n      add\n        /* \"#utility.yul\":5609:5632   */\n      mload\n        /* \"#utility.yul\":5645:5708   */\n      tag_157\n        /* \"#utility.yul\":5702:5706   */\n      0x00\n        /* \"#utility.yul\":5697:5700   */\n      dup7\n        /* \"#utility.yul\":5693:5707   */\n      add\n        /* \"#utility.yul\":5679:5691   */\n      dup3\n        /* \"#utility.yul\":5645:5708   */\n      tag_68\n      jump\t// in\n    tag_157:\n        /* \"#utility.yul\":5545:5718   */\n      pop\n        /* \"#utility.yul\":5800:5804   */\n      0x20\n        /* \"#utility.yul\":5793:5798   */\n      dup4\n        /* \"#utility.yul\":5789:5805   */\n      add\n        /* \"#utility.yul\":5783:5806   */\n      mload\n        /* \"#utility.yul\":5853:5856   */\n      dup5\n        /* \"#utility.yul\":5847:5851   */\n      dup3\n        /* \"#utility.yul\":5843:5857   */\n      sub\n        /* \"#utility.yul\":5836:5840   */\n      0x20\n        /* \"#utility.yul\":5831:5834   */\n      dup7\n        /* \"#utility.yul\":5827:5841   */\n      add\n        /* \"#utility.yul\":5820:5858   */\n      mstore\n        /* \"#utility.yul\":5879:5952   */\n      tag_158\n        /* \"#utility.yul\":5947:5951   */\n      dup3\n        /* \"#utility.yul\":5933:5945   */\n      dup3\n        /* \"#utility.yul\":5879:5952   */\n      tag_72\n      jump\t// in\n    tag_158:\n        /* \"#utility.yul\":5871:5952   */\n      swap2\n      pop\n        /* \"#utility.yul\":5728:5963   */\n      pop\n        /* \"#utility.yul\":6049:6053   */\n      0x40\n        /* \"#utility.yul\":6042:6047   */\n      dup4\n        /* \"#utility.yul\":6038:6054   */\n      add\n        /* \"#utility.yul\":6032:6055   */\n      mload\n        /* \"#utility.yul\":6102:6105   */\n      dup5\n        /* \"#utility.yul\":6096:6100   */\n      dup3\n        /* \"#utility.yul\":6092:6106   */\n      sub\n        /* \"#utility.yul\":6085:6089   */\n      0x40\n        /* \"#utility.yul\":6080:6083   */\n      dup7\n        /* \"#utility.yul\":6076:6090   */\n      add\n        /* \"#utility.yul\":6069:6107   */\n      mstore\n        /* \"#utility.yul\":6128:6201   */\n      tag_159\n        /* \"#utility.yul\":6196:6200   */\n      dup3\n        /* \"#utility.yul\":6182:6194   */\n      dup3\n        /* \"#utility.yul\":6128:6201   */\n      tag_72\n      jump\t// in\n    tag_159:\n        /* \"#utility.yul\":6120:6201   */\n      swap2\n      pop\n        /* \"#utility.yul\":5973:6212   */\n      pop\n        /* \"#utility.yul\":6229:6233   */\n      dup1\n        /* \"#utility.yul\":6222:6233   */\n      swap2\n      pop\n        /* \"#utility.yul\":5499:6239   */\n      pop\n        /* \"#utility.yul\":5391:6239   */\n      swap3\n      swap2\n      pop\n      pop\n      jump\t// out\n        /* \"#utility.yul\":6245:6586   */\n    tag_15:\n        /* \"#utility.yul\":6372:6376   */\n      0x00\n        /* \"#utility.yul\":6410:6412   */\n      0x20\n        /* \"#utility.yul\":6399:6408   */\n      dup3\n        /* \"#utility.yul\":6395:6413   */\n      add\n        /* \"#utility.yul\":6387:6413   */\n      swap1\n      pop\n        /* \"#utility.yul\":6459:6468   */\n      dup2\n        /* \"#utility.yul\":6453:6457   */\n      dup2\n        /* \"#utility.yul\":6449:6469   */\n      sub\n        /* \"#utility.yul\":6445:6446   */\n      0x00\n        /* \"#utility.yul\":6434:6443   */\n      dup4\n        /* \"#utility.yul\":6430:6447   */\n      add\n        /* \"#utility.yul\":6423:6470   */\n      mstore\n        /* \"#utility.yul\":6487:6579   */\n      tag_161\n        /* \"#utility.yul\":6574:6578   */\n      dup2\n        /* \"#utility.yul\":6565:6571   */\n      dup5\n        /* \"#utility.yul\":6487:6579   */\n      tag_73\n      jump\t// in\n    tag_161:\n        /* \"#utility.yul\":6479:6579   */\n      swap1\n      pop\n        /* \"#utility.yul\":6245:6586   */\n      swap3\n      swap2\n      pop\n      pop\n      jump\t// out\n        /* \"#utility.yul\":6592:6710   */\n    tag_74:\n        /* \"#utility.yul\":6679:6703   */\n      tag_163\n        /* \"#utility.yul\":6697:6702   */\n      dup2\n        /* \"#utility.yul\":6679:6703   */\n      tag_67\n      jump\t// in\n    tag_163:\n        /* \"#utility.yul\":6674:6677   */\n      dup3\n        /* \"#utility.yul\":6667:6704   */\n      mstore\n        /* \"#utility.yul\":6592:6710   */\n      pop\n      pop\n      jump\t// out\n        /* \"#utility.yul\":6716:6885   */\n    tag_75:\n        /* \"#utility.yul\":6800:6811   */\n      0x00\n        /* \"#utility.yul\":6834:6840   */\n      dup3\n        /* \"#utility.yul\":6829:6832   */\n      dup3\n        /* \"#utility.yul\":6822:6841   */\n      mstore\n        /* \"#utility.yul\":6874:6878   */\n      0x20\n        /* \"#utility.yul\":6869:6872   */\n      dup3\n        /* \"#utility.yul\":6865:6879   */\n      add\n        /* \"#utility.yul\":6850:6879   */\n      swap1\n      pop\n        /* \"#utility.yul\":6716:6885   */\n      swap3\n      swap2\n      pop\n      pop\n      jump\t// out\n        /* \"#utility.yul\":6891:7268   */\n    tag_76:\n        /* \"#utility.yul\":6979:6982   */\n      0x00\n        /* \"#utility.yul\":7007:7046   */\n      tag_166\n        /* \"#utility.yul\":7040:7045   */\n      dup3\n        /* \"#utility.yul\":7007:7046   */\n      tag_69\n      jump\t// in\n    tag_166:\n        /* \"#utility.yul\":7062:7133   */\n      tag_167\n        /* \"#utility.yul\":7126:7132   */\n      dup2\n        /* \"#utility.yul\":7121:7124   */\n      dup6\n        /* \"#utility.yul\":7062:7133   */\n      tag_75\n      jump\t// in\n    tag_167:\n        /* \"#utility.yul\":7055:7133   */\n      swap4\n      pop\n        /* \"#utility.yul\":7142:7207   */\n      tag_168\n        /* \"#utility.yul\":7200:7206   */\n      dup2\n        /* \"#utility.yul\":7195:7198   */\n      dup6\n        /* \"#utility.yul\":7188:7192   */\n      0x20\n        /* \"#utility.yul\":7181:7186   */\n      dup7\n        /* \"#utility.yul\":7177:7193   */\n      add\n        /* \"#utility.yul\":7142:7207   */\n      tag_71\n      jump\t// in\n    tag_168:\n        /* \"#utility.yul\":7232:7261   */\n      tag_169\n        /* \"#utility.yul\":7254:7260   */\n      dup2\n        /* \"#utility.yul\":7232:7261   */\n      tag_58\n      jump\t// in\n    tag_169:\n        /* \"#utility.yul\":7227:7230   */\n      dup5\n        /* \"#utility.yul\":7223:7262   */\n      add\n        /* \"#utility.yul\":7216:7262   */\n      swap2\n      pop\n        /* \"#utility.yul\":6983:7268   */\n      pop\n        /* \"#utility.yul\":6891:7268   */\n      swap3\n      swap2\n      pop\n      pop\n      jump\t// out\n        /* \"#utility.yul\":7274:7898   */\n    tag_20:\n        /* \"#utility.yul\":7463:7467   */\n      0x00\n        /* \"#utility.yul\":7501:7503   */\n      0x60\n        /* \"#utility.yul\":7490:7499   */\n      dup3\n        /* \"#utility.yul\":7486:7504   */\n      add\n        /* \"#utility.yul\":7478:7504   */\n      swap1\n      pop\n        /* \"#utility.yul\":7514:7585   */\n      tag_171\n        /* \"#utility.yul\":7582:7583   */\n      0x00\n        /* \"#utility.yul\":7571:7580   */\n      dup4\n        /* \"#utility.yul\":7567:7584   */\n      add\n        /* \"#utility.yul\":7558:7564   */\n      dup7\n        /* \"#utility.yul\":7514:7585   */\n      tag_74\n      jump\t// in\n    tag_171:\n        /* \"#utility.yul\":7632:7641   */\n      dup2\n        /* \"#utility.yul\":7626:7630   */\n      dup2\n        /* \"#utility.yul\":7622:7642   */\n      sub\n        /* \"#utility.yul\":7617:7619   */\n      0x20\n        /* \"#utility.yul\":7606:7615   */\n      dup4\n        /* \"#utility.yul\":7602:7620   */\n      add\n        /* \"#utility.yul\":7595:7643   */\n      mstore\n        /* \"#utility.yul\":7660:7738   */\n      tag_172\n        /* \"#utility.yul\":7733:7737   */\n      dup2\n        /* \"#utility.yul\":7724:7730   */\n      dup6\n        /* \"#utility.yul\":7660:7738   */\n      tag_76\n      jump\t// in\n    tag_172:\n        /* \"#utility.yul\":7652:7738   */\n      swap1\n      pop\n        /* \"#utility.yul\":7785:7794   */\n      dup2\n        /* \"#utility.yul\":7779:7783   */\n      dup2\n        /* \"#utility.yul\":7775:7795   */\n      sub\n        /* \"#utility.yul\":7770:7772   */\n      0x40\n        /* \"#utility.yul\":7759:7768   */\n      dup4\n        /* \"#utility.yul\":7755:7773   */\n      add\n        /* \"#utility.yul\":7748:7796   */\n      mstore\n        /* \"#utility.yul\":7813:7891   */\n      tag_173\n        /* \"#utility.yul\":7886:7890   */\n      dup2\n        /* \"#utility.yul\":7877:7883   */\n      dup5\n        /* \"#utility.yul\":7813:7891   */\n      tag_76\n      jump\t// in\n    tag_173:\n        /* \"#utility.yul\":7805:7891   */\n      swap1\n      pop\n        /* \"#utility.yul\":7274:7898   */\n      swap5\n      swap4\n      pop\n      pop\n      pop\n      pop\n      jump\t// out\n        /* \"#utility.yul\":7904:8084   */\n    tag_77:\n        /* \"#utility.yul\":7952:8029   */\n      0x4e487b7100000000000000000000000000000000000000000000000000000000\n        /* \"#utility.yul\":7949:7950   */\n      0x00\n        /* \"#utility.yul\":7942:8030   */\n      mstore\n        /* \"#utility.yul\":8049:8053   */\n      0x22\n        /* \"#utility.yul\":8046:8047   */\n      0x04\n        /* \"#utility.yul\":8039:8054   */\n      mstore\n        /* \"#utility.yul\":8073:8077   */\n      0x24\n        /* \"#utility.yul\":8070:8071   */\n      0x00\n        /* \"#utility.yul\":8063:8078   */\n      revert\n        /* \"#utility.yul\":8090:8410   */\n    tag_30:\n        /* \"#utility.yul\":8134:8140   */\n      0x00\n        /* \"#utility.yul\":8171:8172   */\n      0x02\n        /* \"#utility.yul\":8165:8169   */\n      dup3\n        /* \"#utility.yul\":8161:8173   */\n      div\n        /* \"#utility.yul\":8151:8173   */\n      swap1\n      pop\n        /* \"#utility.yul\":8218:8219   */\n      0x01\n        /* \"#utility.yul\":8212:8216   */\n      dup3\n        /* \"#utility.yul\":8208:8220   */\n      and\n        /* \"#utility.yul\":8239:8257   */\n      dup1\n        /* \"#utility.yul\":8229:8310   */\n      tag_176\n      jumpi\n        /* \"#utility.yul\":8295:8299   */\n      0x7f\n        /* \"#utility.yul\":8287:8293   */\n      dup3\n        /* \"#utility.yul\":8283:8300   */\n      and\n        /* \"#utility.yul\":8273:8300   */\n      swap2\n      pop\n        /* \"#utility.yul\":8229:8310   */\n    tag_176:\n        /* \"#utility.yul\":8357:8359   */\n      0x20\n        /* \"#utility.yul\":8349:8355   */\n      dup3\n        /* \"#utility.yul\":8346:8360   */\n      lt\n        /* \"#utility.yul\":8326:8344   */\n      dup2\n        /* \"#utility.yul\":8323:8361   */\n      sub\n        /* \"#utility.yul\":8320:8404   */\n      tag_177\n      jumpi\n        /* \"#utility.yul\":8376:8394   */\n      tag_178\n      tag_77\n      jump\t// in\n    tag_178:\n        /* \"#utility.yul\":8320:8404   */\n    tag_177:\n        /* \"#utility.yul\":8141:8410   */\n      pop\n        /* \"#utility.yul\":8090:8410   */\n      swap2\n      swap1\n      pop\n      jump\t// out\n        /* \"#utility.yul\":8416:8557   */\n    tag_78:\n        /* \"#utility.yul\":8465:8469   */\n      0x00\n        /* \"#utility.yul\":8488:8491   */\n      dup2\n        /* \"#utility.yul\":8480:8491   */\n      swap1\n      pop\n        /* \"#utility.yul\":8511:8514   */\n      dup2\n        /* \"#utility.yul\":8508:8509   */\n      0x00\n        /* \"#utility.yul\":8501:8515   */\n      mstore\n        /* \"#utility.yul\":8545:8549   */\n      0x20\n        /* \"#utility.yul\":8542:8543   */\n      0x00\n        /* \"#utility.yul\":8532:8550   */\n      keccak256\n        /* \"#utility.yul\":8524:8550   */\n      swap1\n      pop\n        /* \"#utility.yul\":8416:8557   */\n      swap2\n      swap1\n      pop\n      jump\t// out\n        /* \"#utility.yul\":8563:8656   */\n    tag_79:\n        /* \"#utility.yul\":8600:8606   */\n      0x00\n        /* \"#utility.yul\":8647:8649   */\n      0x20\n        /* \"#utility.yul\":8642:8644   */\n      0x1f\n        /* \"#utility.yul\":8635:8640   */\n      dup4\n        /* \"#utility.yul\":8631:8645   */\n      add\n        /* \"#utility.yul\":8627:8650   */\n      div\n        /* \"#utility.yul\":8617:8650   */\n      swap1\n      pop\n        /* \"#utility.yul\":8563:8656   */\n      swap2\n      swap1\n      pop\n      jump\t// out\n        /* \"#utility.yul\":8662:8769   */\n    tag_80:\n        /* \"#utility.yul\":8706:8714   */\n      0x00\n        /* \"#utility.yul\":8756:8761   */\n      dup3\n        /* \"#utility.yul\":8750:8754   */\n      dup3\n        /* \"#utility.yul\":8746:8762   */\n      shl\n        /* \"#utility.yul\":8725:8762   */\n      swap1\n      pop\n        /* \"#utility.yul\":8662:8769   */\n      swap3\n      swap2\n      pop\n      pop\n      jump\t// out\n        /* \"#utility.yul\":8775:9168   */\n    tag_81:\n        /* \"#utility.yul\":8844:8850   */\n      0x00\n        /* \"#utility.yul\":8894:8895   */\n      0x08\n        /* \"#utility.yul\":8882:8892   */\n      dup4\n        /* \"#utility.yul\":8878:8896   */\n      mul\n        /* \"#utility.yul\":8917:9014   */\n      tag_183\n        /* \"#utility.yul\":8947:9013   */\n      0xffffffffffffffffffffffffffffffffffffffffffffffffffffffffffffffff\n        /* \"#utility.yul\":8936:8945   */\n      dup3\n        /* \"#utility.yul\":8917:9014   */\n      tag_80\n      jump\t// in\n    tag_183:\n        /* \"#utility.yul\":9035:9074   */\n      tag_184\n        /* \"#utility.yul\":9065:9073   */\n      dup7\n        /* \"#utility.yul\":9054:9063   */\n      dup4\n        /* \"#utility.yul\":9035:9074   */\n      tag_80\n      jump\t// in\n    tag_184:\n        /* \"#utility.yul\":9023:9074   */\n      swap6\n      pop\n        /* \"#utility.yul\":9107:9111   */\n      dup1\n        /* \"#utility.yul\":9103:9112   */\n      not\n        /* \"#utility.yul\":9096:9101   */\n      dup5\n        /* \"#utility.yul\":9092:9113   */\n      and\n        /* \"#utility.yul\":9083:9113   */\n      swap4\n      pop\n        /* \"#utility.yul\":9156:9160   */\n      dup1\n        /* \"#utility.yul\":9146:9154   */\n      dup7\n        /* \"#utility.yul\":9142:9161   */\n      and\n        /* \"#utility.yul\":9135:9140   */\n      dup5\n        /* \"#utility.yul\":9132:9162   */\n      or\n        /* \"#utility.yul\":9122:9162   */\n      swap3\n      pop\n        /* \"#utility.yul\":8851:9168   */\n      pop\n      pop\n        /* \"#utility.yul\":8775:9168   */\n      swap4\n      swap3\n      pop\n      pop\n      pop\n      jump\t// out\n        /* \"#utility.yul\":9174:9234   */\n    tag_82:\n        /* \"#utility.yul\":9202:9205   */\n      0x00\n        /* \"#utility.yul\":9223:9228   */\n      dup2\n        /* \"#utility.yul\":9216:9228   */\n      swap1\n      pop\n        /* \"#utility.yul\":9174:9234   */\n      swap2\n      swap1\n      pop\n      jump\t// out\n        /* \"#utility.yul\":9240:9382   */\n    tag_83:\n        /* \"#utility.yul\":9290:9299   */\n      0x00\n        /* \"#utility.yul\":9323:9376   */\n      tag_187\n        /* \"#utility.yul\":9341:9375   */\n      tag_188\n        /* \"#utility.yul\":9350:9374   */\n      tag_189\n        /* \"#utility.yul\":9368:9373   */\n      dup5\n        /* \"#utility.yul\":9350:9374   */\n      tag_53\n      jump\t// in\n    tag_189:\n        /* \"#utility.yul\":9341:9375   */\n      tag_82\n      jump\t// in\n    tag_188:\n        /* \"#utility.yul\":9323:9376   */\n      tag_53\n      jump\t// in\n    tag_187:\n        /* \"#utility.yul\":9310:9376   */\n      swap1\n      pop\n        /* \"#utility.yul\":9240:9382   */\n      swap2\n      swap1\n      pop\n      jump\t// out\n        /* \"#utility.yul\":9388:9463   */\n    tag_84:\n        /* \"#utility.yul\":9431:9434   */\n      0x00\n        /* \"#utility.yul\":9452:9457   */\n      dup2\n        /* \"#utility.yul\":9445:9457   */\n      swap1\n      pop\n        /* \"#utility.yul\":9388:9463   */\n      swap2\n      swap1\n      pop\n      jump\t// out\n        /* \"#utility.yul\":9469:9738   */\n    tag_85:\n        /* \"#utility.yul\":9579:9618   */\n      tag_192\n        /* \"#utility.yul\":9610:9617   */\n      dup4\n        /* \"#utility.yul\":9579:9618   */\n      tag_83\n      jump\t// in\n    tag_192:\n        /* \"#utility.yul\":9640:9731   */\n      tag_193\n        /* \"#utility.yul\":9689:9730   */\n      tag_194\n        /* \"#utility.yul\":9713:9729   */\n      dup3\n        /* \"#utility.yul\":9689:9730   */\n      tag_84\n      jump\t// in\n    tag_194:\n        /* \"#utility.yul\":9681:9687   */\n      dup5\n        /* \"#utility.yul\":9674:9678   */\n      dup5\n        /* \"#utility.yul\":9668:9679   */\n      sload\n        /* \"#utility.yul\":9640:9731   */\n      tag_81\n      jump\t// in\n    tag_193:\n        /* \"#utility.yul\":9634:9638   */\n      dup3\n        /* \"#utility.yul\":9627:9732   */\n      sstore\n        /* \"#utility.yul\":9545:9738   */\n      pop\n        /* \"#utility.yul\":9469:9738   */\n      pop\n      pop\n      pop\n      jump\t// out\n        /* \"#utility.yul\":9744:9817   */\n    tag_86:\n        /* \"#utility.yul\":9789:9792   */\n      0x00\n        /* \"#utility.yul\":9744:9817   */\n      swap1\n      jump\t// out\n        /* \"#utility.yul\":9823:10012   */\n    tag_87:\n        /* \"#utility.yul\":9900:9932   */\n      tag_197\n      tag_86\n      jump\t// in\n    tag_197:\n        /* \"#utility.yul\":9941:10006   */\n      tag_198\n        /* \"#utility.yul\":9999:10005   */\n      dup2\n        /* \"#utility.yul\":9991:9997   */\n      dup5\n        /* \"#utility.yul\":9985:9989   */\n      dup5\n        /* \"#utility.yul\":9941:10006   */\n      tag_85\n      jump\t// in\n    tag_198:\n        /* \"#utility.yul\":9876:10012   */\n      pop\n        /* \"#utility.yul\":9823:10012   */\n      pop\n      pop\n      jump\t// out\n        /* \"#utility.yul\":10018:10204   */\n    tag_88:\n        /* \"#utility.yul\":10078:10198   */\n    tag_200:\n        /* \"#utility.yul\":10095:10098   */\n      dup2\n        /* \"#utility.yul\":10088:10093   */\n      dup2\n        /* \"#utility.yul\":10085:10099   */\n      lt\n        /* \"#utility.yul\":10078:10198   */\n      iszero\n      tag_202\n      jumpi\n        /* \"#utility.yul\":10149:10188   */\n      tag_203\n        /* \"#utility.yul\":10186:10187   */\n      0x00\n        /* \"#utility.yul\":10179:10184   */\n      dup3\n        /* \"#utility.yul\":10149:10188   */\n      tag_87\n      jump\t// in\n    tag_203:\n        /* \"#utility.yul\":10122:10123   */\n      0x01\n        /* \"#utility.yul\":10115:10120   */\n      dup2\n        /* \"#utility.yul\":10111:10124   */\n      add\n        /* \"#utility.yul\":10102:10124   */\n      swap1\n      pop\n        /* \"#utility.yul\":10078:10198   */\n      jump(tag_200)\n    tag_202:\n        /* \"#utility.yul\":10018:10204   */\n      pop\n      pop\n      jump\t// out\n        /* \"#utility.yul\":10210:10753   */\n    tag_89:\n        /* \"#utility.yul\":10311:10313   */\n      0x1f\n        /* \"#utility.yul\":10306:10309   */\n      dup3\n        /* \"#utility.yul\":10303:10314   */\n      gt\n        /* \"#utility.yul\":10300:10746   */\n      iszero\n      tag_205\n      jumpi\n        /* \"#utility.yul\":10345:10383   */\n      tag_206\n        /* \"#utility.yul\":10377:10382   */\n      dup2\n        /* \"#utility.yul\":10345:10383   */\n      tag_78\n      jump\t// in\n    tag_206:\n        /* \"#utility.yul\":10429:10458   */\n      tag_207\n        /* \"#utility.yul\":10447:10457   */\n      dup5\n        /* \"#utility.yul\":10429:10458   */\n      tag_79\n      jump\t// in\n    tag_207:\n        /* \"#utility.yul\":10419:10427   */\n      dup2\n        /* \"#utility.yul\":10415:10459   */\n      add\n        /* \"#utility.yul\":10612:10614   */\n      0x20\n        /* \"#utility.yul\":10600:10610   */\n      dup6\n        /* \"#utility.yul\":10597:10615   */\n      lt\n        /* \"#utility.yul\":10594:10643   */\n      iszero\n      tag_208\n      jumpi\n        /* \"#utility.yul\":10633:10641   */\n      dup2\n        /* \"#utility.yul\":10618:10641   */\n      swap1\n      pop\n        /* \"#utility.yul\":10594:10643   */\n    tag_208:\n        /* \"#utility.yul\":10656:10736   */\n      tag_209\n        /* \"#utility.yul\":10712:10734   */\n      tag_210\n        /* \"#utility.yul\":10730:10733   */\n      dup6\n        /* \"#utility.yul\":10712:10734   */\n      tag_79\n      jump\t// in\n    tag_210:\n        /* \"#utility.yul\":10702:10710   */\n      dup4\n        /* \"#utility.yul\":10698:10735   */\n      add\n        /* \"#utility.yul\":10685:10696   */\n      dup3\n        /* \"#utility.yul\":10656:10736   */\n      tag_88\n      jump\t// in\n    tag_209:\n        /* \"#utility.yul\":10315:10746   */\n      pop\n      pop\n        /* \"#utility.yul\":10300:10746   */\n    tag_205:\n        /* \"#utility.yul\":10210:10753   */\n      pop\n      pop\n      pop\n      jump\t// out\n        /* \"#utility.yul\":10759:10876   */\n    tag_90:\n        /* \"#utility.yul\":10813:10821   */\n      0x00\n        /* \"#utility.yul\":10863:10868   */\n      dup3\n        /* \"#utility.yul\":10857:10861   */\n      dup3\n        /* \"#utility.yul\":10853:10869   */\n      shr\n        /* \"#utility.yul\":10832:10869   */\n      swap1\n      pop\n        /* \"#utility.yul\":10759:10876   */\n      swap3\n      swap2\n      pop\n      pop\n      jump\t// out\n        /* \"#utility.yul\":10882:11051   */\n    tag_91:\n        /* \"#utility.yul\":10926:10932   */\n      0x00\n        /* \"#utility.yul\":10959:11010   */\n      tag_213\n        /* \"#utility.yul\":11007:11008   */\n      0x00\n        /* \"#utility.yul\":11003:11009   */\n      not\n        /* \"#utility.yul\":10995:11000   */\n      dup5\n        /* \"#utility.yul\":10992:10993   */\n      0x08\n        /* \"#utility.yul\":10988:11001   */\n      mul\n        /* \"#utility.yul\":10959:11010   */\n      tag_90\n      jump\t// in\n    tag_213:\n        /* \"#utility.yul\":10955:11011   */\n      not\n        /* \"#utility.yul\":11040:11044   */\n      dup1\n        /* \"#utility.yul\":11034:11038   */\n      dup4\n        /* \"#utility.yul\":11030:11045   */\n      and\n        /* \"#utility.yul\":11020:11045   */\n      swap2\n      pop\n        /* \"#utility.yul\":10933:11051   */\n      pop\n        /* \"#utility.yul\":10882:11051   */\n      swap3\n      swap2\n      pop\n      pop\n      jump\t// out\n        /* \"#utility.yul\":11056:11351   */\n    tag_92:\n        /* \"#utility.yul\":11132:11136   */\n      0x00\n        /* \"#utility.yul\":11278:11307   */\n      tag_215\n        /* \"#utility.yul\":11303:11306   */\n      dup4\n        /* \"#utility.yul\":11297:11301   */\n      dup4\n        /* \"#utility.yul\":11278:11307   */\n      tag_91\n      jump\t// in\n    tag_215:\n        /* \"#utility.yul\":11270:11307   */\n      swap2\n      pop\n        /* \"#utility.yul\":11340:11343   */\n      dup3\n        /* \"#utility.yul\":11337:11338   */\n      0x02\n        /* \"#utility.yul\":11333:11344   */\n      mul\n        /* \"#utility.yul\":11327:11331   */\n      dup3\n        /* \"#utility.yul\":11324:11345   */\n      or\n        /* \"#utility.yul\":11316:11345   */\n      swap1\n      pop\n        /* \"#utility.yul\":11056:11351   */\n      swap3\n      swap2\n      pop\n      pop\n      jump\t// out\n        /* \"#utility.yul\":11356:12751   */\n    tag_25:\n        /* \"#utility.yul\":11473:11510   */\n      tag_217\n        /* \"#utility.yul\":11506:11509   */\n      dup3\n        /* \"#utility.yul\":11473:11510   */\n      tag_69\n      jump\t// in\n    tag_217:\n        /* \"#utility.yul\":11575:11593   */\n      0xffffffffffffffff\n        /* \"#utility.yul\":11567:11573   */\n      dup2\n        /* \"#utility.yul\":11564:11594   */\n      gt\n        /* \"#utility.yul\":11561:11617   */\n      iszero\n      tag_218\n      jumpi\n        /* \"#utility.yul\":11597:11615   */\n      tag_219\n      tag_59\n      jump\t// in\n    tag_219:\n        /* \"#utility.yul\":11561:11617   */\n    tag_218:\n        /* \"#utility.yul\":11641:11679   */\n      tag_220\n        /* \"#utility.yul\":11673:11677   */\n      dup3\n        /* \"#utility.yul\":11667:11678   */\n      sload\n        /* \"#utility.yul\":11641:11679   */\n      tag_30\n      jump\t// in\n    tag_220:\n        /* \"#utility.yul\":11726:11793   */\n      tag_221\n        /* \"#utility.yul\":11786:11792   */\n      dup3\n        /* \"#utility.yul\":11778:11784   */\n      dup3\n        /* \"#utility.yul\":11772:11776   */\n      dup6\n        /* \"#utility.yul\":11726:11793   */\n      tag_89\n      jump\t// in\n    tag_221:\n        /* \"#utility.yul\":11820:11821   */\n      0x00\n        /* \"#utility.yul\":11844:11848   */\n      0x20\n        /* \"#utility.yul\":11831:11848   */\n      swap1\n      pop\n        /* \"#utility.yul\":11876:11878   */\n      0x1f\n        /* \"#utility.yul\":11868:11874   */\n      dup4\n        /* \"#utility.yul\":11865:11879   */\n      gt\n        /* \"#utility.yul\":11893:11894   */\n      0x01\n        /* \"#utility.yul\":11888:12506   */\n      dup2\n      eq\n      tag_223\n      jumpi\n        /* \"#utility.yul\":12550:12551   */\n      0x00\n        /* \"#utility.yul\":12567:12573   */\n      dup5\n        /* \"#utility.yul\":12564:12641   */\n      iszero\n      tag_224\n      jumpi\n        /* \"#utility.yul\":12616:12625   */\n      dup3\n        /* \"#utility.yul\":12611:12614   */\n      dup8\n        /* \"#utility.yul\":12607:12626   */\n      add\n        /* \"#utility.yul\":12601:12627   */\n      mload\n        /* \"#utility.yul\":12592:12627   */\n      swap1\n      pop\n        /* \"#utility.yul\":12564:12641   */\n    tag_224:\n        /* \"#utility.yul\":12667:12734   */\n      tag_225\n        /* \"#utility.yul\":12727:12733   */\n      dup6\n        /* \"#utility.yul\":12720:12725   */\n      dup3\n        /* \"#utility.yul\":12667:12734   */\n      tag_92\n      jump\t// in\n    tag_225:\n        /* \"#utility.yul\":12661:12665   */\n      dup7\n        /* \"#utility.yul\":12654:12735   */\n      sstore\n        /* \"#utility.yul\":12523:12745   */\n      pop\n        /* \"#utility.yul\":11858:12745   */\n      jump(tag_222)\n        /* \"#utility.yul\":11888:12506   */\n    tag_223:\n        /* \"#utility.yul\":11940:11944   */\n      0x1f\n        /* \"#utility.yul\":11936:11945   */\n      not\n        /* \"#utility.yul\":11928:11934   */\n      dup5\n        /* \"#utility.yul\":11924:11946   */\n      and\n        /* \"#utility.yul\":11974:12011   */\n      tag_226\n        /* \"#utility.yul\":12006:12010   */\n      dup7\n        /* \"#utility.yul\":11974:12011   */\n      tag_78\n      jump\t// in\n    tag_226:\n        /* \"#utility.yul\":12033:12034   */\n      0x00\n        /* \"#utility.yul\":12047:12255   */\n    tag_227:\n        /* \"#utility.yul\":12061:12068   */\n      dup3\n        /* \"#utility.yul\":12058:12059   */\n      dup2\n        /* \"#utility.yul\":12055:12069   */\n      lt\n        /* \"#utility.yul\":12047:12255   */\n      iszero\n      tag_229\n      jumpi\n        /* \"#utility.yul\":12140:12149   */\n      dup5\n        /* \"#utility.yul\":12135:12138   */\n      dup10\n        /* \"#utility.yul\":12131:12150   */\n      add\n        /* \"#utility.yul\":12125:12151   */\n      mload\n        /* \"#utility.yul\":12117:12123   */\n      dup3\n        /* \"#utility.yul\":12110:12152   */\n      sstore\n        /* \"#utility.yul\":12191:12192   */\n      0x01\n        /* \"#utility.yul\":12183:12189   */\n      dup3\n        /* \"#utility.yul\":12179:12193   */\n      add\n        /* \"#utility.yul\":12169:12193   */\n      swap2\n      pop\n        /* \"#utility.yul\":12238:12240   */\n      0x20\n        /* \"#utility.yul\":12227:12236   */\n      dup6\n        /* \"#utility.yul\":12223:12241   */\n      add\n        /* \"#utility.yul\":12210:12241   */\n      swap5\n      pop\n        /* \"#utility.yul\":12084:12088   */\n      0x20\n        /* \"#utility.yul\":12081:12082   */\n      dup2\n        /* \"#utility.yul\":12077:12089   */\n      add\n        /* \"#utility.yul\":12072:12089   */\n      swap1\n      pop\n        /* \"#utility.yul\":12047:12255   */\n      jump(tag_227)\n    tag_229:\n        /* \"#utility.yul\":12283:12289   */\n      dup7\n        /* \"#utility.yul\":12274:12281   */\n      dup4\n        /* \"#utility.yul\":12271:12290   */\n      lt\n        /* \"#utility.yul\":12268:12447   */\n      iszero\n      tag_230\n      jumpi\n        /* \"#utility.yul\":12341:12350   */\n      dup5\n        /* \"#utility.yul\":12336:12339   */\n      dup10\n        /* \"#utility.yul\":12332:12351   */\n      add\n        /* \"#utility.yul\":12326:12352   */\n      mload\n        /* \"#utility.yul\":12384:12432   */\n      tag_231\n        /* \"#utility.yul\":12426:12430   */\n      0x1f\n        /* \"#utility.yul\":12418:12424   */\n      dup10\n        /* \"#utility.yul\":12414:12431   */\n      and\n        /* \"#utility.yul\":12403:12412   */\n      dup3\n        /* \"#utility.yul\":12384:12432   */\n      tag_91\n      jump\t// in\n    tag_231:\n        /* \"#utility.yul\":12376:12382   */\n      dup4\n        /* \"#utility.yul\":12369:12433   */\n      sstore\n        /* \"#utility.yul\":12291:12447   */\n      pop\n        /* \"#utility.yul\":12268:12447   */\n    tag_230:\n        /* \"#utility.yul\":12493:12494   */\n      0x01\n        /* \"#utility.yul\":12489:12490   */\n      0x02\n        /* \"#utility.yul\":12481:12487   */\n      dup9\n        /* \"#utility.yul\":12477:12491   */\n      mul\n        /* \"#utility.yul\":12473:12495   */\n      add\n        /* \"#utility.yul\":12467:12471   */\n      dup9\n        /* \"#utility.yul\":12460:12496   */\n      sstore\n        /* \"#utility.yul\":11895:12506   */\n      pop\n      pop\n      pop\n        /* \"#utility.yul\":11858:12745   */\n    tag_222:\n      pop\n        /* \"#utility.yul\":11448:12751   */\n      pop\n      pop\n      pop\n        /* \"#utility.yul\":11356:12751   */\n      pop\n      pop\n      jump\t// out\n\n    auxdata: 0xa2646970667358221220ddbf05c63bd891938ec573085458f8170533ef4f24dcd6482345ee0baea3c17a64736f6c63430008190033\n}\n",
				"bytecode": {
					"linkReferences": {},
					"object": "6080604052348015600e575f80fd5b50335f806101000a81548173ffffffffffffffffffffffffffffffffffffffff021916908373ffffffffffffffffffffffffffffffffffffffff160217905550610ba28061005b5f395ff3fe608060405234801561000f575f80fd5b506004361061003f575f3560e01c806303544d50146100435780631597a9e31461005f5780636e9ed8cf1461008f575b5f80fd5b61005d60048036038101906100589190610643565b6100c1565b005b610079600480360381019061007491906106cb565b61019d565b60405161008691906107e9565b60405180910390f35b6100a960048036038101906100a491906106cb565b61033c565b6040516100b893929190610860565b60405180910390f35b6100c961048d565b33815f019073ffffffffffffffffffffffffffffffffffffffff16908173ffffffffffffffffffffffffffffffffffffffff16815250508181604001819052508281602001819052508060015f8681526020019081526020015f205f820151815f015f6101000a81548173ffffffffffffffffffffffffffffffffffffffff021916908373ffffffffffffffffffffffffffffffffffffffff160217905550602082015181600101908161017d9190610a9d565b5060408201518160020190816101939190610a9d565b5090505050505050565b6101a561048d565b60015f8381526020019081526020015f206040518060600160405290815f82015f9054906101000a900473ffffffffffffffffffffffffffffffffffffffff1673ffffffffffffffffffffffffffffffffffffffff1673ffffffffffffffffffffffffffffffffffffffff168152602001600182018054610225906108d0565b80601f0160208091040260200160405190810160405280929190818152602001828054610251906108d0565b801561029c5780601f106102735761010080835404028352916020019161029c565b820191905f5260205f20905b81548152906001019060200180831161027f57829003601f168201915b505050505081526020016002820180546102b5906108d0565b80601f01602080910402602001604051908101604052809291908181526020018280546102e1906108d0565b801561032c5780601f106103035761010080835404028352916020019161032c565b820191905f5260205f20905b81548152906001019060200180831161030f57829003601f168201915b5050505050815250509050919050565b6001602052805f5260405f205f91509050805f015f9054906101000a900473ffffffffffffffffffffffffffffffffffffffff1690806001018054610380906108d0565b80601f01602080910402602001604051908101604052809291908181526020018280546103ac906108d0565b80156103f75780601f106103ce576101008083540402835291602001916103f7565b820191905f5260205f20905b8154815290600101906020018083116103da57829003601f168201915b50505050509080600201805461040c906108d0565b80601f0160208091040260200160405190810160405280929190818152602001828054610438906108d0565b80156104835780601f1061045a57610100808354040283529160200191610483565b820191905f5260205f20905b81548152906001019060200180831161046657829003601f168201915b5050505050905083565b60405180606001604052805f73ffffffffffffffffffffffffffffffffffffffff16815260200160608152602001606081525090565b5f604051905090565b5f80fd5b5f80fd5b5f819050919050565b6104e6816104d4565b81146104f0575f80fd5b50565b5f81359050610501816104dd565b92915050565b5f80fd5b5f80fd5b5f601f19601f8301169050919050565b7f4e487b71000000000000000000000000000000000000000000000000000000005f52604160045260245ffd5b6105558261050f565b810181811067ffffffffffffffff821117156105745761057361051f565b5b80604052505050565b5f6105866104c3565b9050610592828261054c565b919050565b5f67ffffffffffffffff8211156105b1576105b061051f565b5b6105ba8261050f565b9050602081019050919050565b828183375f83830152505050565b5f6105e76105e284610597565b61057d565b9050828152602081018484840111156106035761060261050b565b5b61060e8482856105c7565b509392505050565b5f82601f83011261062a57610629610507565b5b813561063a8482602086016105d5565b91505092915050565b5f805f6060848603121561065a576106596104cc565b5b5f610667868287016104f3565b935050602084013567ffffffffffffffff811115610688576106876104d0565b5b61069486828701610616565b925050604084013567ffffffffffffffff8111156106b5576106b46104d0565b5b6106c186828701610616565b9150509250925092565b5f602082840312156106e0576106df6104cc565b5b5f6106ed848285016104f3565b91505092915050565b5f73ffffffffffffffffffffffffffffffffffffffff82169050919050565b5f61071f826106f6565b9050919050565b61072f81610715565b82525050565b5f81519050919050565b5f82825260208201905092915050565b8281835e5f83830152505050565b5f61076782610735565b610771818561073f565b935061078181856020860161074f565b61078a8161050f565b840191505092915050565b5f606083015f8301516107aa5f860182610726565b50602083015184820360208601526107c2828261075d565b915050604083015184820360408601526107dc828261075d565b9150508091505092915050565b5f6020820190508181035f8301526108018184610795565b905092915050565b61081281610715565b82525050565b5f82825260208201905092915050565b5f61083282610735565b61083c8185610818565b935061084c81856020860161074f565b6108558161050f565b840191505092915050565b5f6060820190506108735f830186610809565b81810360208301526108858185610828565b905081810360408301526108998184610828565b9050949350505050565b7f4e487b71000000000000000000000000000000000000000000000000000000005f52602260045260245ffd5b5f60028204905060018216806108e757607f821691505b6020821081036108fa576108f96108a3565b5b50919050565b5f819050815f5260205f209050919050565b5f6020601f8301049050919050565b5f82821b905092915050565b5f6008830261095c7fffffffffffffffffffffffffffffffffffffffffffffffffffffffffffffffff82610921565b6109668683610921565b95508019841693508086168417925050509392505050565b5f819050919050565b5f6109a161099c610997846104d4565b61097e565b6104d4565b9050919050565b5f819050919050565b6109ba83610987565b6109ce6109c6826109a8565b84845461092d565b825550505050565b5f90565b6109e26109d6565b6109ed8184846109b1565b505050565b5b81811015610a1057610a055f826109da565b6001810190506109f3565b5050565b601f821115610a5557610a2681610900565b610a2f84610912565b81016020851015610a3e578190505b610a52610a4a85610912565b8301826109f2565b50505b505050565b5f82821c905092915050565b5f610a755f1984600802610a5a565b1980831691505092915050565b5f610a8d8383610a66565b9150826002028217905092915050565b610aa682610735565b67ffffffffffffffff811115610abf57610abe61051f565b5b610ac982546108d0565b610ad4828285610a14565b5f60209050601f831160018114610b05575f8415610af3578287015190505b610afd8582610a82565b865550610b64565b601f198416610b1386610900565b5f5b82811015610b3a57848901518255600182019150602085019450602081019050610b15565b86831015610b575784890151610b53601f891682610a66565b8355505b6001600288020188555050505b50505050505056fea2646970667358221220ddbf05c63bd891938ec573085458f8170533ef4f24dcd6482345ee0baea3c17a64736f6c63430008190033",
					"opcodes": "PUSH1 0x80 PUSH1 0x40 MSTORE CALLVALUE DUP1 ISZERO PUSH1 0xE JUMPI PUSH0 DUP1 REVERT JUMPDEST POP CALLER PUSH0 DUP1 PUSH2 0x100 EXP DUP2 SLOAD DUP2 PUSH20 0xFFFFFFFFFFFFFFFFFFFFFFFFFFFFFFFFFFFFFFFF MUL NOT AND SWAP1 DUP4 PUSH20 0xFFFFFFFFFFFFFFFFFFFFFFFFFFFFFFFFFFFFFFFF AND MUL OR SWAP1 SSTORE POP PUSH2 0xBA2 DUP1 PUSH2 0x5B PUSH0 CODECOPY PUSH0 RETURN INVALID PUSH1 0x80 PUSH1 0x40 MSTORE CALLVALUE DUP1 ISZERO PUSH2 0xF JUMPI PUSH0 DUP1 REVERT JUMPDEST POP PUSH1 0x4 CALLDATASIZE LT PUSH2 0x3F JUMPI PUSH0 CALLDATALOAD PUSH1 0xE0 SHR DUP1 PUSH4 0x3544D50 EQ PUSH2 0x43 JUMPI DUP1 PUSH4 0x1597A9E3 EQ PUSH2 0x5F JUMPI DUP1 PUSH4 0x6E9ED8CF EQ PUSH2 0x8F JUMPI JUMPDEST PUSH0 DUP1 REVERT JUMPDEST PUSH2 0x5D PUSH1 0x4 DUP1 CALLDATASIZE SUB DUP2 ADD SWAP1 PUSH2 0x58 SWAP2 SWAP1 PUSH2 0x643 JUMP JUMPDEST PUSH2 0xC1 JUMP JUMPDEST STOP JUMPDEST PUSH2 0x79 PUSH1 0x4 DUP1 CALLDATASIZE SUB DUP2 ADD SWAP1 PUSH2 0x74 SWAP2 SWAP1 PUSH2 0x6CB JUMP JUMPDEST PUSH2 0x19D JUMP JUMPDEST PUSH1 0x40 MLOAD PUSH2 0x86 SWAP2 SWAP1 PUSH2 0x7E9 JUMP JUMPDEST PUSH1 0x40 MLOAD DUP1 SWAP2 SUB SWAP1 RETURN JUMPDEST PUSH2 0xA9 PUSH1 0x4 DUP1 CALLDATASIZE SUB DUP2 ADD SWAP1 PUSH2 0xA4 SWAP2 SWAP1 PUSH2 0x6CB JUMP JUMPDEST PUSH2 0x33C JUMP JUMPDEST PUSH1 0x40 MLOAD PUSH2 0xB8 SWAP4 SWAP3 SWAP2 SWAP1 PUSH2 0x860 JUMP JUMPDEST PUSH1 0x40 MLOAD DUP1 SWAP2 SUB SWAP1 RETURN JUMPDEST PUSH2 0xC9 PUSH2 0x48D JUMP JUMPDEST CALLER DUP2 PUSH0 ADD SWAP1 PUSH20 0xFFFFFFFFFFFFFFFFFFFFFFFFFFFFFFFFFFFFFFFF AND SWAP1 DUP2 PUSH20 0xFFFFFFFFFFFFFFFFFFFFFFFFFFFFFFFFFFFFFFFF AND DUP2 MSTORE POP POP DUP2 DUP2 PUSH1 0x40 ADD DUP2 SWAP1 MSTORE POP DUP3 DUP2 PUSH1 0x20 ADD DUP2 SWAP1 MSTORE POP DUP1 PUSH1 0x1 PUSH0 DUP7 DUP2 MSTORE PUSH1 0x20 ADD SWAP1 DUP2 MSTORE PUSH1 0x20 ADD PUSH0 KECCAK256 PUSH0 DUP3 ADD MLOAD DUP2 PUSH0 ADD PUSH0 PUSH2 0x100 EXP DUP2 SLOAD DUP2 PUSH20 0xFFFFFFFFFFFFFFFFFFFFFFFFFFFFFFFFFFFFFFFF MUL NOT AND SWAP1 DUP4 PUSH20 0xFFFFFFFFFFFFFFFFFFFFFFFFFFFFFFFFFFFFFFFF AND MUL OR SWAP1 SSTORE POP PUSH1 0x20 DUP3 ADD MLOAD DUP2 PUSH1 0x1 ADD SWAP1 DUP2 PUSH2 0x17D SWAP2 SWAP1 PUSH2 0xA9D JUMP JUMPDEST POP PUSH1 0x40 DUP3 ADD MLOAD DUP2 PUSH1 0x2 ADD SWAP1 DUP2 PUSH2 0x193 SWAP2 SWAP1 PUSH2 0xA9D JUMP JUMPDEST POP SWAP1 POP POP POP POP POP POP JUMP JUMPDEST PUSH2 0x1A5 PUSH2 0x48D JUMP JUMPDEST PUSH1 0x1 PUSH0 DUP4 DUP2 MSTORE PUSH1 0x20 ADD SWAP1 DUP2 MSTORE PUSH1 0x20 ADD PUSH0 KECCAK256 PUSH1 0x40 MLOAD DUP1 PUSH1 0x60 ADD PUSH1 0x40 MSTORE SWAP1 DUP2 PUSH0 DUP3 ADD PUSH0 SWAP1 SLOAD SWAP1 PUSH2 0x100 EXP SWAP1 DIV PUSH20 0xFFFFFFFFFFFFFFFFFFFFFFFFFFFFFFFFFFFFFFFF AND PUSH20 0xFFFFFFFFFFFFFFFFFFFFFFFFFFFFFFFFFFFFFFFF AND PUSH20 0xFFFFFFFFFFFFFFFFFFFFFFFFFFFFFFFFFFFFFFFF AND DUP2 MSTORE PUSH1 0x20 ADD PUSH1 0x1 DUP3 ADD DUP1 SLOAD PUSH2 0x225 SWAP1 PUSH2 0x8D0 JUMP JUMPDEST DUP1 PUSH1 0x1F ADD PUSH1 0x20 DUP1 SWAP2 DIV MUL PUSH1 0x20 ADD PUSH1 0x40 MLOAD SWAP1 DUP2 ADD PUSH1 0x40 MSTORE DUP1 SWAP3 SWAP2 SWAP1 DUP2 DUP2 MSTORE PUSH1 0x20 ADD DUP3 DUP1 SLOAD PUSH2 0x251 SWAP1 PUSH2 0x8D0 JUMP JUMPDEST DUP1 ISZERO PUSH2 0x29C JUMPI DUP1 PUSH1 0x1F LT PUSH2 0x273 JUMPI PUSH2 0x100 DUP1 DUP4 SLOAD DIV MUL DUP4 MSTORE SWAP2 PUSH1 0x20 ADD SWAP2 PUSH2 0x29C JUMP JUMPDEST DUP3 ADD SWAP2 SWAP1 PUSH0 MSTORE PUSH1 0x20 PUSH0 KECCAK256 SWAP1 JUMPDEST DUP2 SLOAD DUP2 MSTORE SWAP1 PUSH1 0x1 ADD SWAP1 PUSH1 0x20 ADD DUP1 DUP4 GT PUSH2 0x27F JUMPI DUP3 SWAP1 SUB PUSH1 0x1F AND DUP3 ADD SWAP2 JUMPDEST POP POP POP POP POP DUP2 MSTORE PUSH1 0x20 ADD PUSH1 0x2 DUP3 ADD DUP1 SLOAD PUSH2 0x2B5 SWAP1 PUSH2 0x8D0 JUMP JUMPDEST DUP1 PUSH1 0x1F ADD PUSH1 0x20 DUP1 SWAP2 DIV MUL PUSH1 0x20 ADD PUSH1 0x40 MLOAD SWAP1 DUP2 ADD PUSH1 0x40 MSTORE DUP1 SWAP3 SWAP2 SWAP1 DUP2 DUP2 MSTORE PUSH1 0x20 ADD DUP3 DUP1 SLOAD PUSH2 0x2E1 SWAP1 PUSH2 0x8D0 JUMP JUMPDEST DUP1 ISZERO PUSH2 0x32C JUMPI DUP1 PUSH1 0x1F LT PUSH2 0x303 JUMPI PUSH2 0x100 DUP1 DUP4 SLOAD DIV MUL DUP4 MSTORE SWAP2 PUSH1 0x20 ADD SWAP2 PUSH2 0x32C JUMP JUMPDEST DUP3 ADD SWAP2 SWAP1 PUSH0 MSTORE PUSH1 0x20 PUSH0 KECCAK256 SWAP1 JUMPDEST DUP2 SLOAD DUP2 MSTORE SWAP1 PUSH1 0x1 ADD SWAP1 PUSH1 0x20 ADD DUP1 DUP4 GT PUSH2 0x30F JUMPI DUP3 SWAP1 SUB PUSH1 0x1F AND DUP3 ADD SWAP2 JUMPDEST POP POP POP POP POP DUP2 MSTORE POP POP SWAP1 POP SWAP2 SWAP1 POP JUMP JUMPDEST PUSH1 0x1 PUSH1 0x20 MSTORE DUP1 PUSH0 MSTORE PUSH1 0x40 PUSH0 KECCAK256 PUSH0 SWAP2 POP SWAP1 POP DUP1 PUSH0 ADD PUSH0 SWAP1 SLOAD SWAP1 PUSH2 0x100 EXP SWAP1 DIV PUSH20 0xFFFFFFFFFFFFFFFFFFFFFFFFFFFFFFFFFFFFFFFF AND SWAP1 DUP1 PUSH1 0x1 ADD DUP1 SLOAD PUSH2 0x380 SWAP1 PUSH2 0x8D0 JUMP JUMPDEST DUP1 PUSH1 0x1F ADD PUSH1 0x20 DUP1 SWAP2 DIV MUL PUSH1 0x20 ADD PUSH1 0x40 MLOAD SWAP1 DUP2 ADD PUSH1 0x40 MSTORE DUP1 SWAP3 SWAP2 SWAP1 DUP2 DUP2 MSTORE PUSH1 0x20 ADD DUP3 DUP1 SLOAD PUSH2 0x3AC SWAP1 PUSH2 0x8D0 JUMP JUMPDEST DUP1 ISZERO PUSH2 0x3F7 JUMPI DUP1 PUSH1 0x1F LT PUSH2 0x3CE JUMPI PUSH2 0x100 DUP1 DUP4 SLOAD DIV MUL DUP4 MSTORE SWAP2 PUSH1 0x20 ADD SWAP2 PUSH2 0x3F7 JUMP JUMPDEST DUP3 ADD SWAP2 SWAP1 PUSH0 MSTORE PUSH1 0x20 PUSH0 KECCAK256 SWAP1 JUMPDEST DUP2 SLOAD DUP2 MSTORE SWAP1 PUSH1 0x1 ADD SWAP1 PUSH1 0x20 ADD DUP1 DUP4 GT PUSH2 0x3DA JUMPI DUP3 SWAP1 SUB PUSH1 0x1F AND DUP3 ADD SWAP2 JUMPDEST POP POP POP POP POP SWAP1 DUP1 PUSH1 0x2 ADD DUP1 SLOAD PUSH2 0x40C SWAP1 PUSH2 0x8D0 JUMP JUMPDEST DUP1 PUSH1 0x1F ADD PUSH1 0x20 DUP1 SWAP2 DIV MUL PUSH1 0x20 ADD PUSH1 0x40 MLOAD SWAP1 DUP2 ADD PUSH1 0x40 MSTORE DUP1 SWAP3 SWAP2 SWAP1 DUP2 DUP2 MSTORE PUSH1 0x20 ADD DUP3 DUP1 SLOAD PUSH2 0x438 SWAP1 PUSH2 0x8D0 JUMP JUMPDEST DUP1 ISZERO PUSH2 0x483 JUMPI DUP1 PUSH1 0x1F LT PUSH2 0x45A JUMPI PUSH2 0x100 DUP1 DUP4 SLOAD DIV MUL DUP4 MSTORE SWAP2 PUSH1 0x20 ADD SWAP2 PUSH2 0x483 JUMP JUMPDEST DUP3 ADD SWAP2 SWAP1 PUSH0 MSTORE PUSH1 0x20 PUSH0 KECCAK256 SWAP1 JUMPDEST DUP2 SLOAD DUP2 MSTORE SWAP1 PUSH1 0x1 ADD SWAP1 PUSH1 0x20 ADD DUP1 DUP4 GT PUSH2 0x466 JUMPI DUP3 SWAP1 SUB PUSH1 0x1F AND DUP3 ADD SWAP2 JUMPDEST POP POP POP POP POP SWAP1 POP DUP4 JUMP JUMPDEST PUSH1 0x40 MLOAD DUP1 PUSH1 0x60 ADD PUSH1 0x40 MSTORE DUP1 PUSH0 PUSH20 0xFFFFFFFFFFFFFFFFFFFFFFFFFFFFFFFFFFFFFFFF AND DUP2 MSTORE PUSH1 0x20 ADD PUSH1 0x60 DUP2 MSTORE PUSH1 0x20 ADD PUSH1 0x60 DUP2 MSTORE POP SWAP1 JUMP JUMPDEST PUSH0 PUSH1 0x40 MLOAD SWAP1 POP SWAP1 JUMP JUMPDEST PUSH0 DUP1 REVERT JUMPDEST PUSH0 DUP1 REVERT JUMPDEST PUSH0 DUP2 SWAP1 POP SWAP2 SWAP1 POP JUMP JUMPDEST PUSH2 0x4E6 DUP2 PUSH2 0x4D4 JUMP JUMPDEST DUP2 EQ PUSH2 0x4F0 JUMPI PUSH0 DUP1 REVERT JUMPDEST POP JUMP JUMPDEST PUSH0 DUP2 CALLDATALOAD SWAP1 POP PUSH2 0x501 DUP2 PUSH2 0x4DD JUMP JUMPDEST SWAP3 SWAP2 POP POP JUMP JUMPDEST PUSH0 DUP1 REVERT JUMPDEST PUSH0 DUP1 REVERT JUMPDEST PUSH0 PUSH1 0x1F NOT PUSH1 0x1F DUP4 ADD AND SWAP1 POP SWAP2 SWAP1 POP JUMP JUMPDEST PUSH32 0x4E487B7100000000000000000000000000000000000000000000000000000000 PUSH0 MSTORE PUSH1 0x41 PUSH1 0x4 MSTORE PUSH1 0x24 PUSH0 REVERT JUMPDEST PUSH2 0x555 DUP3 PUSH2 0x50F JUMP JUMPDEST DUP2 ADD DUP2 DUP2 LT PUSH8 0xFFFFFFFFFFFFFFFF DUP3 GT OR ISZERO PUSH2 0x574 JUMPI PUSH2 0x573 PUSH2 0x51F JUMP JUMPDEST JUMPDEST DUP1 PUSH1 0x40 MSTORE POP POP POP JUMP JUMPDEST PUSH0 PUSH2 0x586 PUSH2 0x4C3 JUMP JUMPDEST SWAP1 POP PUSH2 0x592 DUP3 DUP3 PUSH2 0x54C JUMP JUMPDEST SWAP2 SWAP1 POP JUMP JUMPDEST PUSH0 PUSH8 0xFFFFFFFFFFFFFFFF DUP3 GT ISZERO PUSH2 0x5B1 JUMPI PUSH2 0x5B0 PUSH2 0x51F JUMP JUMPDEST JUMPDEST PUSH2 0x5BA DUP3 PUSH2 0x50F JUMP JUMPDEST SWAP1 POP PUSH1 0x20 DUP2 ADD SWAP1 POP SWAP2 SWAP1 POP JUMP JUMPDEST DUP3 DUP2 DUP4 CALLDATACOPY PUSH0 DUP4 DUP4 ADD MSTORE POP POP POP JUMP JUMPDEST PUSH0 PUSH2 0x5E7 PUSH2 0x5E2 DUP5 PUSH2 0x597 JUMP JUMPDEST PUSH2 0x57D JUMP JUMPDEST SWAP1 POP DUP3 DUP2 MSTORE PUSH1 0x20 DUP2 ADD DUP5 DUP5 DUP5 ADD GT ISZERO PUSH2 0x603 JUMPI PUSH2 0x602 PUSH2 0x50B JUMP JUMPDEST JUMPDEST PUSH2 0x60E DUP5 DUP3 DUP6 PUSH2 0x5C7 JUMP JUMPDEST POP SWAP4 SWAP3 POP POP POP JUMP JUMPDEST PUSH0 DUP3 PUSH1 0x1F DUP4 ADD SLT PUSH2 0x62A JUMPI PUSH2 0x629 PUSH2 0x507 JUMP JUMPDEST JUMPDEST DUP2 CALLDATALOAD PUSH2 0x63A DUP5 DUP3 PUSH1 0x20 DUP7 ADD PUSH2 0x5D5 JUMP JUMPDEST SWAP2 POP POP SWAP3 SWAP2 POP POP JUMP JUMPDEST PUSH0 DUP1 PUSH0 PUSH1 0x60 DUP5 DUP7 SUB SLT ISZERO PUSH2 0x65A JUMPI PUSH2 0x659 PUSH2 0x4CC JUMP JUMPDEST JUMPDEST PUSH0 PUSH2 0x667 DUP7 DUP3 DUP8 ADD PUSH2 0x4F3 JUMP JUMPDEST SWAP4 POP POP PUSH1 0x20 DUP5 ADD CALLDATALOAD PUSH8 0xFFFFFFFFFFFFFFFF DUP2 GT ISZERO PUSH2 0x688 JUMPI PUSH2 0x687 PUSH2 0x4D0 JUMP JUMPDEST JUMPDEST PUSH2 0x694 DUP7 DUP3 DUP8 ADD PUSH2 0x616 JUMP JUMPDEST SWAP3 POP POP PUSH1 0x40 DUP5 ADD CALLDATALOAD PUSH8 0xFFFFFFFFFFFFFFFF DUP2 GT ISZERO PUSH2 0x6B5 JUMPI PUSH2 0x6B4 PUSH2 0x4D0 JUMP JUMPDEST JUMPDEST PUSH2 0x6C1 DUP7 DUP3 DUP8 ADD PUSH2 0x616 JUMP JUMPDEST SWAP2 POP POP SWAP3 POP SWAP3 POP SWAP3 JUMP JUMPDEST PUSH0 PUSH1 0x20 DUP3 DUP5 SUB SLT ISZERO PUSH2 0x6E0 JUMPI PUSH2 0x6DF PUSH2 0x4CC JUMP JUMPDEST JUMPDEST PUSH0 PUSH2 0x6ED DUP5 DUP3 DUP6 ADD PUSH2 0x4F3 JUMP JUMPDEST SWAP2 POP POP SWAP3 SWAP2 POP POP JUMP JUMPDEST PUSH0 PUSH20 0xFFFFFFFFFFFFFFFFFFFFFFFFFFFFFFFFFFFFFFFF DUP3 AND SWAP1 POP SWAP2 SWAP1 POP JUMP JUMPDEST PUSH0 PUSH2 0x71F DUP3 PUSH2 0x6F6 JUMP JUMPDEST SWAP1 POP SWAP2 SWAP1 POP JUMP JUMPDEST PUSH2 0x72F DUP2 PUSH2 0x715 JUMP JUMPDEST DUP3 MSTORE POP POP JUMP JUMPDEST PUSH0 DUP2 MLOAD SWAP1 POP SWAP2 SWAP1 POP JUMP JUMPDEST PUSH0 DUP3 DUP3 MSTORE PUSH1 0x20 DUP3 ADD SWAP1 POP SWAP3 SWAP2 POP POP JUMP JUMPDEST DUP3 DUP2 DUP4 MCOPY PUSH0 DUP4 DUP4 ADD MSTORE POP POP POP JUMP JUMPDEST PUSH0 PUSH2 0x767 DUP3 PUSH2 0x735 JUMP JUMPDEST PUSH2 0x771 DUP2 DUP6 PUSH2 0x73F JUMP JUMPDEST SWAP4 POP PUSH2 0x781 DUP2 DUP6 PUSH1 0x20 DUP7 ADD PUSH2 0x74F JUMP JUMPDEST PUSH2 0x78A DUP2 PUSH2 0x50F JUMP JUMPDEST DUP5 ADD SWAP2 POP POP SWAP3 SWAP2 POP POP JUMP JUMPDEST PUSH0 PUSH1 0x60 DUP4 ADD PUSH0 DUP4 ADD MLOAD PUSH2 0x7AA PUSH0 DUP7 ADD DUP3 PUSH2 0x726 JUMP JUMPDEST POP PUSH1 0x20 DUP4 ADD MLOAD DUP5 DUP3 SUB PUSH1 0x20 DUP7 ADD MSTORE PUSH2 0x7C2 DUP3 DUP3 PUSH2 0x75D JUMP JUMPDEST SWAP2 POP POP PUSH1 0x40 DUP4 ADD MLOAD DUP5 DUP3 SUB PUSH1 0x40 DUP7 ADD MSTORE PUSH2 0x7DC DUP3 DUP3 PUSH2 0x75D JUMP JUMPDEST SWAP2 POP POP DUP1 SWAP2 POP POP SWAP3 SWAP2 POP POP JUMP JUMPDEST PUSH0 PUSH1 0x20 DUP3 ADD SWAP1 POP DUP2 DUP2 SUB PUSH0 DUP4 ADD MSTORE PUSH2 0x801 DUP2 DUP5 PUSH2 0x795 JUMP JUMPDEST SWAP1 POP SWAP3 SWAP2 POP POP JUMP JUMPDEST PUSH2 0x812 DUP2 PUSH2 0x715 JUMP JUMPDEST DUP3 MSTORE POP POP JUMP JUMPDEST PUSH0 DUP3 DUP3 MSTORE PUSH1 0x20 DUP3 ADD SWAP1 POP SWAP3 SWAP2 POP POP JUMP JUMPDEST PUSH0 PUSH2 0x832 DUP3 PUSH2 0x735 JUMP JUMPDEST PUSH2 0x83C DUP2 DUP6 PUSH2 0x818 JUMP JUMPDEST SWAP4 POP PUSH2 0x84C DUP2 DUP6 PUSH1 0x20 DUP7 ADD PUSH2 0x74F JUMP JUMPDEST PUSH2 0x855 DUP2 PUSH2 0x50F JUMP JUMPDEST DUP5 ADD SWAP2 POP POP SWAP3 SWAP2 POP POP JUMP JUMPDEST PUSH0 PUSH1 0x60 DUP3 ADD SWAP1 POP PUSH2 0x873 PUSH0 DUP4 ADD DUP7 PUSH2 0x809 JUMP JUMPDEST DUP2 DUP2 SUB PUSH1 0x20 DUP4 ADD MSTORE PUSH2 0x885 DUP2 DUP6 PUSH2 0x828 JUMP JUMPDEST SWAP1 POP DUP2 DUP2 SUB PUSH1 0x40 DUP4 ADD MSTORE PUSH2 0x899 DUP2 DUP5 PUSH2 0x828 JUMP JUMPDEST SWAP1 POP SWAP5 SWAP4 POP POP POP POP JUMP JUMPDEST PUSH32 0x4E487B7100000000000000000000000000000000000000000000000000000000 PUSH0 MSTORE PUSH1 0x22 PUSH1 0x4 MSTORE PUSH1 0x24 PUSH0 REVERT JUMPDEST PUSH0 PUSH1 0x2 DUP3 DIV SWAP1 POP PUSH1 0x1 DUP3 AND DUP1 PUSH2 0x8E7 JUMPI PUSH1 0x7F DUP3 AND SWAP2 POP JUMPDEST PUSH1 0x20 DUP3 LT DUP2 SUB PUSH2 0x8FA JUMPI PUSH2 0x8F9 PUSH2 0x8A3 JUMP JUMPDEST JUMPDEST POP SWAP2 SWAP1 POP JUMP JUMPDEST PUSH0 DUP2 SWAP1 POP DUP2 PUSH0 MSTORE PUSH1 0x20 PUSH0 KECCAK256 SWAP1 POP SWAP2 SWAP1 POP JUMP JUMPDEST PUSH0 PUSH1 0x20 PUSH1 0x1F DUP4 ADD DIV SWAP1 POP SWAP2 SWAP1 POP JUMP JUMPDEST PUSH0 DUP3 DUP3 SHL SWAP1 POP SWAP3 SWAP2 POP POP JUMP JUMPDEST PUSH0 PUSH1 0x8 DUP4 MUL PUSH2 0x95C PUSH32 0xFFFFFFFFFFFFFFFFFFFFFFFFFFFFFFFFFFFFFFFFFFFFFFFFFFFFFFFFFFFFFFFF DUP3 PUSH2 0x921 JUMP JUMPDEST PUSH2 0x966 DUP7 DUP4 PUSH2 0x921 JUMP JUMPDEST SWAP6 POP DUP1 NOT DUP5 AND SWAP4 POP DUP1 DUP7 AND DUP5 OR SWAP3 POP POP POP SWAP4 SWAP3 POP POP POP JUMP JUMPDEST PUSH0 DUP2 SWAP1 POP SWAP2 SWAP1 POP JUMP JUMPDEST PUSH0 PUSH2 0x9A1 PUSH2 0x99C PUSH2 0x997 DUP5 PUSH2 0x4D4 JUMP JUMPDEST PUSH2 0x97E JUMP JUMPDEST PUSH2 0x4D4 JUMP JUMPDEST SWAP1 POP SWAP2 SWAP1 POP JUMP JUMPDEST PUSH0 DUP2 SWAP1 POP SWAP2 SWAP1 POP JUMP JUMPDEST PUSH2 0x9BA DUP4 PUSH2 0x987 JUMP JUMPDEST PUSH2 0x9CE PUSH2 0x9C6 DUP3 PUSH2 0x9A8 JUMP JUMPDEST DUP5 DUP5 SLOAD PUSH2 0x92D JUMP JUMPDEST DUP3 SSTORE POP POP POP POP JUMP JUMPDEST PUSH0 SWAP1 JUMP JUMPDEST PUSH2 0x9E2 PUSH2 0x9D6 JUMP JUMPDEST PUSH2 0x9ED DUP2 DUP5 DUP5 PUSH2 0x9B1 JUMP JUMPDEST POP POP POP JUMP JUMPDEST JUMPDEST DUP2 DUP2 LT ISZERO PUSH2 0xA10 JUMPI PUSH2 0xA05 PUSH0 DUP3 PUSH2 0x9DA JUMP JUMPDEST PUSH1 0x1 DUP2 ADD SWAP1 POP PUSH2 0x9F3 JUMP JUMPDEST POP POP JUMP JUMPDEST PUSH1 0x1F DUP3 GT ISZERO PUSH2 0xA55 JUMPI PUSH2 0xA26 DUP2 PUSH2 0x900 JUMP JUMPDEST PUSH2 0xA2F DUP5 PUSH2 0x912 JUMP JUMPDEST DUP2 ADD PUSH1 0x20 DUP6 LT ISZERO PUSH2 0xA3E JUMPI DUP2 SWAP1 POP JUMPDEST PUSH2 0xA52 PUSH2 0xA4A DUP6 PUSH2 0x912 JUMP JUMPDEST DUP4 ADD DUP3 PUSH2 0x9F2 JUMP JUMPDEST POP POP JUMPDEST POP POP POP JUMP JUMPDEST PUSH0 DUP3 DUP3 SHR SWAP1 POP SWAP3 SWAP2 POP POP JUMP JUMPDEST PUSH0 PUSH2 0xA75 PUSH0 NOT DUP5 PUSH1 0x8 MUL PUSH2 0xA5A JUMP JUMPDEST NOT DUP1 DUP4 AND SWAP2 POP POP SWAP3 SWAP2 POP POP JUMP JUMPDEST PUSH0 PUSH2 0xA8D DUP4 DUP4 PUSH2 0xA66 JUMP JUMPDEST SWAP2 POP DUP3 PUSH1 0x2 MUL DUP3 OR SWAP1 POP SWAP3 SWAP2 POP POP JUMP JUMPDEST PUSH2 0xAA6 DUP3 PUSH2 0x735 JUMP JUMPDEST PUSH8 0xFFFFFFFFFFFFFFFF DUP2 GT ISZERO PUSH2 0xABF JUMPI PUSH2 0xABE PUSH2 0x51F JUMP JUMPDEST JUMPDEST PUSH2 0xAC9 DUP3 SLOAD PUSH2 0x8D0 JUMP JUMPDEST PUSH2 0xAD4 DUP3 DUP3 DUP6 PUSH2 0xA14 JUMP JUMPDEST PUSH0 PUSH1 0x20 SWAP1 POP PUSH1 0x1F DUP4 GT PUSH1 0x1 DUP2 EQ PUSH2 0xB05 JUMPI PUSH0 DUP5 ISZERO PUSH2 0xAF3 JUMPI DUP3 DUP8 ADD MLOAD SWAP1 POP JUMPDEST PUSH2 0xAFD DUP6 DUP3 PUSH2 0xA82 JUMP JUMPDEST DUP7 SSTORE POP PUSH2 0xB64 JUMP JUMPDEST PUSH1 0x1F NOT DUP5 AND PUSH2 0xB13 DUP7 PUSH2 0x900 JUMP JUMPDEST PUSH0 JUMPDEST DUP3 DUP2 LT ISZERO PUSH2 0xB3A JUMPI DUP5 DUP10 ADD MLOAD DUP3 SSTORE PUSH1 0x1 DUP3 ADD SWAP2 POP PUSH1 0x20 DUP6 ADD SWAP5 POP PUSH1 0x20 DUP2 ADD SWAP1 POP PUSH2 0xB15 JUMP JUMPDEST DUP7 DUP4 LT ISZERO PUSH2 0xB57 JUMPI DUP5 DUP10 ADD MLOAD PUSH2 0xB53 PUSH1 0x1F DUP10 AND DUP3 PUSH2 0xA66 JUMP JUMPDEST DUP4 SSTORE POP JUMPDEST PUSH1 0x1 PUSH1 0x2 DUP9 MUL ADD DUP9 SSTORE POP POP POP JUMPDEST POP POP POP POP POP POP JUMP INVALID LOG2 PUSH5 0x6970667358 0x22 SLT KECCAK256 0xDD 0xBF SDIV 0xC6 EXTCODESIZE 0xD8 SWAP2 SWAP4 DUP15 0xC5 PUSH20 0x85458F8170533EF4F24DCD6482345EE0BAEA3C1 PUSH27 0x64736F6C6343000819003300000000000000000000000000000000 "
				},
				"gasEstimates": {
					"creation": {
						"codeDepositCost": "595600",
						"executionCost": "24895",
						"totalCost": "620495"
					},
					"external": {
						"AddData(uint256,string,string)": "infinite",
						"C(uint256)": "infinite",
						"privacy(uint256)": "infinite"
					}
				},
				"methodIdentifiers": {
					"AddData(uint256,string,string)": "03544d50",
					"C(uint256)": "6e9ed8cf",
					"privacy(uint256)": "1597a9e3"
				}
			},
			"storageLayout": {
				"storage": [
					{
						"astId": 10,
						"contract": "contracts/Hello.sol:A",
						"label": "Bankmanager",
						"offset": 0,
						"slot": "0",
						"type": "t_address"
					},
					{
						"astId": 15,
						"contract": "contracts/Hello.sol:A",
						"label": "C",
						"offset": 0,
						"slot": "1",
						"type": "t_mapping(t_uint256,t_struct(AB)8_storage)"
					}
				],
				"types": {
					"t_address": {
						"encoding": "inplace",
						"label": "address",
						"numberOfBytes": "20"
					},
					"t_mapping(t_uint256,t_struct(AB)8_storage)": {
						"encoding": "mapping",
						"key": "t_uint256",
						"label": "mapping(uint256 => struct A.AB)",
						"numberOfBytes": "32",
						"value": "t_struct(AB)8_storage"
					},
					"t_string_storage": {
						"encoding": "bytes",
						"label": "string",
						"numberOfBytes": "32"
					},
					"t_struct(AB)8_storage": {
						"encoding": "inplace",
						"label": "struct A.AB",
						"members": [
							{
								"astId": 3,
								"contract": "contracts/Hello.sol:A",
								"label": "AccountNumber",
								"offset": 0,
								"slot": "0",
								"type": "t_address"
							},
							{
								"astId": 5,
								"contract": "contracts/Hello.sol:A",
								"label": "name",
								"offset": 0,
								"slot": "1",
								"type": "t_string_storage"
							},
							{
								"astId": 7,
								"contract": "contracts/Hello.sol:A",
								"label": "bankname",
								"offset": 0,
								"slot": "2",
								"type": "t_string_storage"
							}
						],
						"numberOfBytes": "96"
					},
					"t_uint256": {
						"encoding": "inplace",
						"label": "uint256",
						"numberOfBytes": "32"
					}
				}
			},
			"userdoc": {
				"kind": "user",
				"methods": {},
				"version": 1
			}
		}
	}
}