{
	"contracts/question.sol": {
		"A": {
			"abi": [
				{
					"inputs": [
						{
							"internalType": "address",
							"name": "",
							"type": "address"
						}
					],
					"name": "c",
					"outputs": [
						{
							"internalType": "uint256",
							"name": "age",
							"type": "uint256"
						},
						{
							"internalType": "string",
							"name": "name",
							"type": "string"
						}
					],
					"stateMutability": "view",
					"type": "function"
				},
				{
					"inputs": [],
					"name": "getCurrenttimestamp",
					"outputs": [
						{
							"internalType": "uint256",
							"name": "",
							"type": "uint256"
						}
					],
					"stateMutability": "view",
					"type": "function"
				},
				{
					"inputs": [
						{
							"internalType": "address",
							"name": "account",
							"type": "address"
						}
					],
					"name": "getpacking_address",
					"outputs": [
						{
							"components": [
								{
									"internalType": "uint256",
									"name": "age",
									"type": "uint256"
								},
								{
									"internalType": "string",
									"name": "name",
									"type": "string"
								}
							],
							"internalType": "struct A.st",
							"name": "",
							"type": "tuple"
						}
					],
					"stateMutability": "view",
					"type": "function"
				},
				{
					"inputs": [
						{
							"internalType": "uint256",
							"name": "age",
							"type": "uint256"
						},
						{
							"internalType": "string",
							"name": "name",
							"type": "string"
						}
					],
					"name": "packing_varibles",
					"outputs": [],
					"stateMutability": "nonpayable",
					"type": "function"
				}
			],
			"devdoc": {
				"kind": "dev",
				"methods": {},
				"version": 1
			},
			"evm": {
				"assembly": "    /* \"contracts/question.sol\":61:490  contract A{... */\n  mstore(0x40, 0x80)\n  callvalue\n  dup1\n  iszero\n  tag_1\n  jumpi\n  0x00\n  dup1\n  revert\ntag_1:\n  pop\n  dataSize(sub_0)\n  dup1\n  dataOffset(sub_0)\n  0x00\n  codecopy\n  0x00\n  return\nstop\n\nsub_0: assembly {\n        /* \"contracts/question.sol\":61:490  contract A{... */\n      mstore(0x40, 0x80)\n      callvalue\n      dup1\n      iszero\n      tag_1\n      jumpi\n      0x00\n      dup1\n      revert\n    tag_1:\n      pop\n      jumpi(tag_2, lt(calldatasize, 0x04))\n      shr(0xe0, calldataload(0x00))\n      dup1\n      0x04ee65c0\n      eq\n      tag_3\n      jumpi\n      dup1\n      0x36fa96ff\n      eq\n      tag_4\n      jumpi\n      dup1\n      0x6ace5f1a\n      eq\n      tag_5\n      jumpi\n      dup1\n      0xdcd10e2a\n      eq\n      tag_6\n      jumpi\n    tag_2:\n      0x00\n      dup1\n      revert\n        /* \"contracts/question.sol\":140:171  mapping (address =>st) public c */\n    tag_3:\n      tag_7\n      0x04\n      dup1\n      calldatasize\n      sub\n      dup2\n      add\n      swap1\n      tag_8\n      swap2\n      swap1\n      tag_9\n      jump\t// in\n    tag_8:\n      tag_10\n      jump\t// in\n    tag_7:\n      mload(0x40)\n      tag_11\n      swap3\n      swap2\n      swap1\n      tag_12\n      jump\t// in\n    tag_11:\n      mload(0x40)\n      dup1\n      swap2\n      sub\n      swap1\n      return\n        /* \"contracts/question.sol\":385:487  function getpacking_address(address account)public view returns(st memory){... */\n    tag_4:\n      tag_13\n      0x04\n      dup1\n      calldatasize\n      sub\n      dup2\n      add\n      swap1\n      tag_14\n      swap2\n      swap1\n      tag_9\n      jump\t// in\n    tag_14:\n      tag_15\n      jump\t// in\n    tag_13:\n      mload(0x40)\n      tag_16\n      swap2\n      swap1\n      tag_17\n      jump\t// in\n    tag_16:\n      mload(0x40)\n      dup1\n      swap2\n      sub\n      swap1\n      return\n        /* \"contracts/question.sol\":272:383  function packing_varibles(uint age,string  memory name)public {... */\n    tag_5:\n      tag_18\n      0x04\n      dup1\n      calldatasize\n      sub\n      dup2\n      add\n      swap1\n      tag_19\n      swap2\n      swap1\n      tag_20\n      jump\t// in\n    tag_19:\n      tag_21\n      jump\t// in\n    tag_18:\n      stop\n        /* \"contracts/question.sol\":176:270  function getCurrenttimestamp()public view  returns(uint256)... */\n    tag_6:\n      tag_22\n      tag_23\n      jump\t// in\n    tag_22:\n      mload(0x40)\n      tag_24\n      swap2\n      swap1\n      tag_25\n      jump\t// in\n    tag_24:\n      mload(0x40)\n      dup1\n      swap2\n      sub\n      swap1\n      return\n        /* \"contracts/question.sol\":140:171  mapping (address =>st) public c */\n    tag_10:\n      mstore(0x20, 0x00)\n      dup1\n      0x00\n      mstore\n      keccak256(0x00, 0x40)\n      0x00\n      swap2\n      pop\n      swap1\n      pop\n      dup1\n      0x00\n      add\n      sload\n      swap1\n      dup1\n      0x01\n      add\n      dup1\n      sload\n      tag_26\n      swap1\n      tag_27\n      jump\t// in\n    tag_26:\n      dup1\n      0x1f\n      add\n      0x20\n      dup1\n      swap2\n      div\n      mul\n      0x20\n      add\n      mload(0x40)\n      swap1\n      dup2\n      add\n      0x40\n      mstore\n      dup1\n      swap3\n      swap2\n      swap1\n      dup2\n      dup2\n      mstore\n      0x20\n      add\n      dup3\n      dup1\n      sload\n      tag_28\n      swap1\n      tag_27\n      jump\t// in\n    tag_28:\n      dup1\n      iszero\n      tag_29\n      jumpi\n      dup1\n      0x1f\n      lt\n      tag_30\n      jumpi\n      0x0100\n      dup1\n      dup4\n      sload\n      div\n      mul\n      dup4\n      mstore\n      swap2\n      0x20\n      add\n      swap2\n      jump(tag_29)\n    tag_30:\n      dup3\n      add\n      swap2\n      swap1\n      0x00\n      mstore\n      keccak256(0x00, 0x20)\n      swap1\n    tag_31:\n      dup2\n      sload\n      dup2\n      mstore\n      swap1\n      0x01\n      add\n      swap1\n      0x20\n      add\n      dup1\n      dup4\n      gt\n      tag_31\n      jumpi\n      dup3\n      swap1\n      sub\n      0x1f\n      and\n      dup3\n      add\n      swap2\n    tag_29:\n      pop\n      pop\n      pop\n      pop\n      pop\n      swap1\n      pop\n      dup3\n      jump\t// out\n        /* \"contracts/question.sol\":385:487  function getpacking_address(address account)public view returns(st memory){... */\n    tag_15:\n        /* \"contracts/question.sol\":449:458  st memory */\n      tag_32\n      tag_33\n      jump\t// in\n    tag_32:\n        /* \"contracts/question.sol\":473:474  c */\n      0x00\n        /* \"contracts/question.sol\":473:483  c[account] */\n      dup1\n        /* \"contracts/question.sol\":475:482  account */\n      dup4\n        /* \"contracts/question.sol\":473:483  c[account] */\n      0xffffffffffffffffffffffffffffffffffffffff\n      and\n      0xffffffffffffffffffffffffffffffffffffffff\n      and\n      dup2\n      mstore\n      0x20\n      add\n      swap1\n      dup2\n      mstore\n      0x20\n      add\n      0x00\n      keccak256\n        /* \"contracts/question.sol\":466:483  return c[account] */\n      mload(0x40)\n      dup1\n      0x40\n      add\n      0x40\n      mstore\n      swap1\n      dup2\n      0x00\n      dup3\n      add\n      sload\n      dup2\n      mstore\n      0x20\n      add\n      0x01\n      dup3\n      add\n      dup1\n      sload\n      tag_35\n      swap1\n      tag_27\n      jump\t// in\n    tag_35:\n      dup1\n      0x1f\n      add\n      0x20\n      dup1\n      swap2\n      div\n      mul\n      0x20\n      add\n      mload(0x40)\n      swap1\n      dup2\n      add\n      0x40\n      mstore\n      dup1\n      swap3\n      swap2\n      swap1\n      dup2\n      dup2\n      mstore\n      0x20\n      add\n      dup3\n      dup1\n      sload\n      tag_36\n      swap1\n      tag_27\n      jump\t// in\n    tag_36:\n      dup1\n      iszero\n      tag_37\n      jumpi\n      dup1\n      0x1f\n      lt\n      tag_38\n      jumpi\n      0x0100\n      dup1\n      dup4\n      sload\n      div\n      mul\n      dup4\n      mstore\n      swap2\n      0x20\n      add\n      swap2\n      jump(tag_37)\n    tag_38:\n      dup3\n      add\n      swap2\n      swap1\n      0x00\n      mstore\n      keccak256(0x00, 0x20)\n      swap1\n    tag_39:\n      dup2\n      sload\n      dup2\n      mstore\n      swap1\n      0x01\n      add\n      swap1\n      0x20\n      add\n      dup1\n      dup4\n      gt\n      tag_39\n      jumpi\n      dup3\n      swap1\n      sub\n      0x1f\n      and\n      dup3\n      add\n      swap2\n    tag_37:\n      pop\n      pop\n      pop\n      pop\n      pop\n      dup2\n      mstore\n      pop\n      pop\n      swap1\n      pop\n        /* \"contracts/question.sol\":385:487  function getpacking_address(address account)public view returns(st memory){... */\n      swap2\n      swap1\n      pop\n      jump\t// out\n        /* \"contracts/question.sol\":272:383  function packing_varibles(uint age,string  memory name)public {... */\n    tag_21:\n        /* \"contracts/question.sol\":358:370  st(age,name) */\n      mload(0x40)\n      dup1\n      0x40\n      add\n      0x40\n      mstore\n      dup1\n        /* \"contracts/question.sol\":361:364  age */\n      dup4\n        /* \"contracts/question.sol\":358:370  st(age,name) */\n      dup2\n      mstore\n      0x20\n      add\n        /* \"contracts/question.sol\":365:369  name */\n      dup3\n        /* \"contracts/question.sol\":358:370  st(age,name) */\n      dup2\n      mstore\n      pop\n        /* \"contracts/question.sol\":344:345  c */\n      0x00\n        /* \"contracts/question.sol\":344:357  c[msg.sender] */\n      dup1\n        /* \"contracts/question.sol\":346:356  msg.sender */\n      caller\n        /* \"contracts/question.sol\":344:357  c[msg.sender] */\n      0xffffffffffffffffffffffffffffffffffffffff\n      and\n      0xffffffffffffffffffffffffffffffffffffffff\n      and\n      dup2\n      mstore\n      0x20\n      add\n      swap1\n      dup2\n      mstore\n      0x20\n      add\n      0x00\n      keccak256\n        /* \"contracts/question.sol\":344:370  c[msg.sender]=st(age,name) */\n      0x00\n      dup3\n      add\n      mload\n      dup2\n      0x00\n      add\n      sstore\n      0x20\n      dup3\n      add\n      mload\n      dup2\n      0x01\n      add\n      swap1\n      dup2\n      tag_41\n      swap2\n      swap1\n      tag_42\n      jump\t// in\n    tag_41:\n      pop\n      swap1\n      pop\n      pop\n        /* \"contracts/question.sol\":272:383  function packing_varibles(uint age,string  memory name)public {... */\n      pop\n      pop\n      jump\t// out\n        /* \"contracts/question.sol\":176:270  function getCurrenttimestamp()public view  returns(uint256)... */\n    tag_23:\n        /* \"contracts/question.sol\":227:234  uint256 */\n      0x00\n        /* \"contracts/question.sol\":251:266  block.timestamp */\n      timestamp\n        /* \"contracts/question.sol\":244:266  return block.timestamp */\n      swap1\n      pop\n        /* \"contracts/question.sol\":176:270  function getCurrenttimestamp()public view  returns(uint256)... */\n      swap1\n      jump\t// out\n    tag_33:\n      mload(0x40)\n      dup1\n      0x40\n      add\n      0x40\n      mstore\n      dup1\n      0x00\n      dup2\n      mstore\n      0x20\n      add\n      0x60\n      dup2\n      mstore\n      pop\n      swap1\n      jump\t// out\n        /* \"#utility.yul\":7:82   */\n    tag_44:\n        /* \"#utility.yul\":40:46   */\n      0x00\n        /* \"#utility.yul\":73:75   */\n      0x40\n        /* \"#utility.yul\":67:76   */\n      mload\n        /* \"#utility.yul\":57:76   */\n      swap1\n      pop\n        /* \"#utility.yul\":7:82   */\n      swap1\n      jump\t// out\n        /* \"#utility.yul\":88:205   */\n    tag_45:\n        /* \"#utility.yul\":197:198   */\n      0x00\n        /* \"#utility.yul\":194:195   */\n      dup1\n        /* \"#utility.yul\":187:199   */\n      revert\n        /* \"#utility.yul\":211:328   */\n    tag_46:\n        /* \"#utility.yul\":320:321   */\n      0x00\n        /* \"#utility.yul\":317:318   */\n      dup1\n        /* \"#utility.yul\":310:322   */\n      revert\n        /* \"#utility.yul\":334:460   */\n    tag_47:\n        /* \"#utility.yul\":371:378   */\n      0x00\n        /* \"#utility.yul\":411:453   */\n      0xffffffffffffffffffffffffffffffffffffffff\n        /* \"#utility.yul\":404:409   */\n      dup3\n        /* \"#utility.yul\":400:454   */\n      and\n        /* \"#utility.yul\":389:454   */\n      swap1\n      pop\n        /* \"#utility.yul\":334:460   */\n      swap2\n      swap1\n      pop\n      jump\t// out\n        /* \"#utility.yul\":466:562   */\n    tag_48:\n        /* \"#utility.yul\":503:510   */\n      0x00\n        /* \"#utility.yul\":532:556   */\n      tag_95\n        /* \"#utility.yul\":550:555   */\n      dup3\n        /* \"#utility.yul\":532:556   */\n      tag_47\n      jump\t// in\n    tag_95:\n        /* \"#utility.yul\":521:556   */\n      swap1\n      pop\n        /* \"#utility.yul\":466:562   */\n      swap2\n      swap1\n      pop\n      jump\t// out\n        /* \"#utility.yul\":568:690   */\n    tag_49:\n        /* \"#utility.yul\":641:665   */\n      tag_97\n        /* \"#utility.yul\":659:664   */\n      dup2\n        /* \"#utility.yul\":641:665   */\n      tag_48\n      jump\t// in\n    tag_97:\n        /* \"#utility.yul\":634:639   */\n      dup2\n        /* \"#utility.yul\":631:666   */\n      eq\n        /* \"#utility.yul\":621:684   */\n      tag_98\n      jumpi\n        /* \"#utility.yul\":680:681   */\n      0x00\n        /* \"#utility.yul\":677:678   */\n      dup1\n        /* \"#utility.yul\":670:682   */\n      revert\n        /* \"#utility.yul\":621:684   */\n    tag_98:\n        /* \"#utility.yul\":568:690   */\n      pop\n      jump\t// out\n        /* \"#utility.yul\":696:835   */\n    tag_50:\n        /* \"#utility.yul\":742:747   */\n      0x00\n        /* \"#utility.yul\":780:786   */\n      dup2\n        /* \"#utility.yul\":767:787   */\n      calldataload\n        /* \"#utility.yul\":758:787   */\n      swap1\n      pop\n        /* \"#utility.yul\":796:829   */\n      tag_100\n        /* \"#utility.yul\":823:828   */\n      dup2\n        /* \"#utility.yul\":796:829   */\n      tag_49\n      jump\t// in\n    tag_100:\n        /* \"#utility.yul\":696:835   */\n      swap3\n      swap2\n      pop\n      pop\n      jump\t// out\n        /* \"#utility.yul\":841:1170   */\n    tag_9:\n        /* \"#utility.yul\":900:906   */\n      0x00\n        /* \"#utility.yul\":949:951   */\n      0x20\n        /* \"#utility.yul\":937:946   */\n      dup3\n        /* \"#utility.yul\":928:935   */\n      dup5\n        /* \"#utility.yul\":924:947   */\n      sub\n        /* \"#utility.yul\":920:952   */\n      slt\n        /* \"#utility.yul\":917:1036   */\n      iszero\n      tag_102\n      jumpi\n        /* \"#utility.yul\":955:1034   */\n      tag_103\n      tag_45\n      jump\t// in\n    tag_103:\n        /* \"#utility.yul\":917:1036   */\n    tag_102:\n        /* \"#utility.yul\":1075:1076   */\n      0x00\n        /* \"#utility.yul\":1100:1153   */\n      tag_104\n        /* \"#utility.yul\":1145:1152   */\n      dup5\n        /* \"#utility.yul\":1136:1142   */\n      dup3\n        /* \"#utility.yul\":1125:1134   */\n      dup6\n        /* \"#utility.yul\":1121:1143   */\n      add\n        /* \"#utility.yul\":1100:1153   */\n      tag_50\n      jump\t// in\n    tag_104:\n        /* \"#utility.yul\":1090:1153   */\n      swap2\n      pop\n        /* \"#utility.yul\":1046:1163   */\n      pop\n        /* \"#utility.yul\":841:1170   */\n      swap3\n      swap2\n      pop\n      pop\n      jump\t// out\n        /* \"#utility.yul\":1176:1253   */\n    tag_51:\n        /* \"#utility.yul\":1213:1220   */\n      0x00\n        /* \"#utility.yul\":1242:1247   */\n      dup2\n        /* \"#utility.yul\":1231:1247   */\n      swap1\n      pop\n        /* \"#utility.yul\":1176:1253   */\n      swap2\n      swap1\n      pop\n      jump\t// out\n        /* \"#utility.yul\":1259:1377   */\n    tag_52:\n        /* \"#utility.yul\":1346:1370   */\n      tag_107\n        /* \"#utility.yul\":1364:1369   */\n      dup2\n        /* \"#utility.yul\":1346:1370   */\n      tag_51\n      jump\t// in\n    tag_107:\n        /* \"#utility.yul\":1341:1344   */\n      dup3\n        /* \"#utility.yul\":1334:1371   */\n      mstore\n        /* \"#utility.yul\":1259:1377   */\n      pop\n      pop\n      jump\t// out\n        /* \"#utility.yul\":1383:1482   */\n    tag_53:\n        /* \"#utility.yul\":1435:1441   */\n      0x00\n        /* \"#utility.yul\":1469:1474   */\n      dup2\n        /* \"#utility.yul\":1463:1475   */\n      mload\n        /* \"#utility.yul\":1453:1475   */\n      swap1\n      pop\n        /* \"#utility.yul\":1383:1482   */\n      swap2\n      swap1\n      pop\n      jump\t// out\n        /* \"#utility.yul\":1488:1657   */\n    tag_54:\n        /* \"#utility.yul\":1572:1583   */\n      0x00\n        /* \"#utility.yul\":1606:1612   */\n      dup3\n        /* \"#utility.yul\":1601:1604   */\n      dup3\n        /* \"#utility.yul\":1594:1613   */\n      mstore\n        /* \"#utility.yul\":1646:1650   */\n      0x20\n        /* \"#utility.yul\":1641:1644   */\n      dup3\n        /* \"#utility.yul\":1637:1651   */\n      add\n        /* \"#utility.yul\":1622:1651   */\n      swap1\n      pop\n        /* \"#utility.yul\":1488:1657   */\n      swap3\n      swap2\n      pop\n      pop\n      jump\t// out\n        /* \"#utility.yul\":1663:1802   */\n    tag_55:\n        /* \"#utility.yul\":1752:1758   */\n      dup3\n        /* \"#utility.yul\":1747:1750   */\n      dup2\n        /* \"#utility.yul\":1742:1745   */\n      dup4\n        /* \"#utility.yul\":1736:1759   */\n      mcopy\n        /* \"#utility.yul\":1793:1794   */\n      0x00\n        /* \"#utility.yul\":1784:1790   */\n      dup4\n        /* \"#utility.yul\":1779:1782   */\n      dup4\n        /* \"#utility.yul\":1775:1791   */\n      add\n        /* \"#utility.yul\":1768:1795   */\n      mstore\n        /* \"#utility.yul\":1663:1802   */\n      pop\n      pop\n      pop\n      jump\t// out\n        /* \"#utility.yul\":1808:1910   */\n    tag_56:\n        /* \"#utility.yul\":1849:1855   */\n      0x00\n        /* \"#utility.yul\":1900:1902   */\n      0x1f\n        /* \"#utility.yul\":1896:1903   */\n      not\n        /* \"#utility.yul\":1891:1893   */\n      0x1f\n        /* \"#utility.yul\":1884:1889   */\n      dup4\n        /* \"#utility.yul\":1880:1894   */\n      add\n        /* \"#utility.yul\":1876:1904   */\n      and\n        /* \"#utility.yul\":1866:1904   */\n      swap1\n      pop\n        /* \"#utility.yul\":1808:1910   */\n      swap2\n      swap1\n      pop\n      jump\t// out\n        /* \"#utility.yul\":1916:2293   */\n    tag_57:\n        /* \"#utility.yul\":2004:2007   */\n      0x00\n        /* \"#utility.yul\":2032:2071   */\n      tag_113\n        /* \"#utility.yul\":2065:2070   */\n      dup3\n        /* \"#utility.yul\":2032:2071   */\n      tag_53\n      jump\t// in\n    tag_113:\n        /* \"#utility.yul\":2087:2158   */\n      tag_114\n        /* \"#utility.yul\":2151:2157   */\n      dup2\n        /* \"#utility.yul\":2146:2149   */\n      dup6\n        /* \"#utility.yul\":2087:2158   */\n      tag_54\n      jump\t// in\n    tag_114:\n        /* \"#utility.yul\":2080:2158   */\n      swap4\n      pop\n        /* \"#utility.yul\":2167:2232   */\n      tag_115\n        /* \"#utility.yul\":2225:2231   */\n      dup2\n        /* \"#utility.yul\":2220:2223   */\n      dup6\n        /* \"#utility.yul\":2213:2217   */\n      0x20\n        /* \"#utility.yul\":2206:2211   */\n      dup7\n        /* \"#utility.yul\":2202:2218   */\n      add\n        /* \"#utility.yul\":2167:2232   */\n      tag_55\n      jump\t// in\n    tag_115:\n        /* \"#utility.yul\":2257:2286   */\n      tag_116\n        /* \"#utility.yul\":2279:2285   */\n      dup2\n        /* \"#utility.yul\":2257:2286   */\n      tag_56\n      jump\t// in\n    tag_116:\n        /* \"#utility.yul\":2252:2255   */\n      dup5\n        /* \"#utility.yul\":2248:2287   */\n      add\n        /* \"#utility.yul\":2241:2287   */\n      swap2\n      pop\n        /* \"#utility.yul\":2008:2293   */\n      pop\n        /* \"#utility.yul\":1916:2293   */\n      swap3\n      swap2\n      pop\n      pop\n      jump\t// out\n        /* \"#utility.yul\":2299:2722   */\n    tag_12:\n        /* \"#utility.yul\":2440:2444   */\n      0x00\n        /* \"#utility.yul\":2478:2480   */\n      0x40\n        /* \"#utility.yul\":2467:2476   */\n      dup3\n        /* \"#utility.yul\":2463:2481   */\n      add\n        /* \"#utility.yul\":2455:2481   */\n      swap1\n      pop\n        /* \"#utility.yul\":2491:2562   */\n      tag_118\n        /* \"#utility.yul\":2559:2560   */\n      0x00\n        /* \"#utility.yul\":2548:2557   */\n      dup4\n        /* \"#utility.yul\":2544:2561   */\n      add\n        /* \"#utility.yul\":2535:2541   */\n      dup6\n        /* \"#utility.yul\":2491:2562   */\n      tag_52\n      jump\t// in\n    tag_118:\n        /* \"#utility.yul\":2609:2618   */\n      dup2\n        /* \"#utility.yul\":2603:2607   */\n      dup2\n        /* \"#utility.yul\":2599:2619   */\n      sub\n        /* \"#utility.yul\":2594:2596   */\n      0x20\n        /* \"#utility.yul\":2583:2592   */\n      dup4\n        /* \"#utility.yul\":2579:2597   */\n      add\n        /* \"#utility.yul\":2572:2620   */\n      mstore\n        /* \"#utility.yul\":2637:2715   */\n      tag_119\n        /* \"#utility.yul\":2710:2714   */\n      dup2\n        /* \"#utility.yul\":2701:2707   */\n      dup5\n        /* \"#utility.yul\":2637:2715   */\n      tag_57\n      jump\t// in\n    tag_119:\n        /* \"#utility.yul\":2629:2715   */\n      swap1\n      pop\n        /* \"#utility.yul\":2299:2722   */\n      swap4\n      swap3\n      pop\n      pop\n      pop\n      jump\t// out\n        /* \"#utility.yul\":2728:2836   */\n    tag_58:\n        /* \"#utility.yul\":2805:2829   */\n      tag_121\n        /* \"#utility.yul\":2823:2828   */\n      dup2\n        /* \"#utility.yul\":2805:2829   */\n      tag_51\n      jump\t// in\n    tag_121:\n        /* \"#utility.yul\":2800:2803   */\n      dup3\n        /* \"#utility.yul\":2793:2830   */\n      mstore\n        /* \"#utility.yul\":2728:2836   */\n      pop\n      pop\n      jump\t// out\n        /* \"#utility.yul\":2842:3001   */\n    tag_59:\n        /* \"#utility.yul\":2916:2927   */\n      0x00\n        /* \"#utility.yul\":2950:2956   */\n      dup3\n        /* \"#utility.yul\":2945:2948   */\n      dup3\n        /* \"#utility.yul\":2938:2957   */\n      mstore\n        /* \"#utility.yul\":2990:2994   */\n      0x20\n        /* \"#utility.yul\":2985:2988   */\n      dup3\n        /* \"#utility.yul\":2981:2995   */\n      add\n        /* \"#utility.yul\":2966:2995   */\n      swap1\n      pop\n        /* \"#utility.yul\":2842:3001   */\n      swap3\n      swap2\n      pop\n      pop\n      jump\t// out\n        /* \"#utility.yul\":3007:3364   */\n    tag_60:\n        /* \"#utility.yul\":3085:3088   */\n      0x00\n        /* \"#utility.yul\":3113:3152   */\n      tag_124\n        /* \"#utility.yul\":3146:3151   */\n      dup3\n        /* \"#utility.yul\":3113:3152   */\n      tag_53\n      jump\t// in\n    tag_124:\n        /* \"#utility.yul\":3168:3229   */\n      tag_125\n        /* \"#utility.yul\":3222:3228   */\n      dup2\n        /* \"#utility.yul\":3217:3220   */\n      dup6\n        /* \"#utility.yul\":3168:3229   */\n      tag_59\n      jump\t// in\n    tag_125:\n        /* \"#utility.yul\":3161:3229   */\n      swap4\n      pop\n        /* \"#utility.yul\":3238:3303   */\n      tag_126\n        /* \"#utility.yul\":3296:3302   */\n      dup2\n        /* \"#utility.yul\":3291:3294   */\n      dup6\n        /* \"#utility.yul\":3284:3288   */\n      0x20\n        /* \"#utility.yul\":3277:3282   */\n      dup7\n        /* \"#utility.yul\":3273:3289   */\n      add\n        /* \"#utility.yul\":3238:3303   */\n      tag_55\n      jump\t// in\n    tag_126:\n        /* \"#utility.yul\":3328:3357   */\n      tag_127\n        /* \"#utility.yul\":3350:3356   */\n      dup2\n        /* \"#utility.yul\":3328:3357   */\n      tag_56\n      jump\t// in\n    tag_127:\n        /* \"#utility.yul\":3323:3326   */\n      dup5\n        /* \"#utility.yul\":3319:3358   */\n      add\n        /* \"#utility.yul\":3312:3358   */\n      swap2\n      pop\n        /* \"#utility.yul\":3089:3364   */\n      pop\n        /* \"#utility.yul\":3007:3364   */\n      swap3\n      swap2\n      pop\n      pop\n      jump\t// out\n        /* \"#utility.yul\":3404:3993   */\n    tag_61:\n        /* \"#utility.yul\":3507:3510   */\n      0x00\n        /* \"#utility.yul\":3543:3547   */\n      0x40\n        /* \"#utility.yul\":3538:3541   */\n      dup4\n        /* \"#utility.yul\":3534:3548   */\n      add\n        /* \"#utility.yul\":3629:3633   */\n      0x00\n        /* \"#utility.yul\":3622:3627   */\n      dup4\n        /* \"#utility.yul\":3618:3634   */\n      add\n        /* \"#utility.yul\":3612:3635   */\n      mload\n        /* \"#utility.yul\":3648:3711   */\n      tag_129\n        /* \"#utility.yul\":3705:3709   */\n      0x00\n        /* \"#utility.yul\":3700:3703   */\n      dup7\n        /* \"#utility.yul\":3696:3710   */\n      add\n        /* \"#utility.yul\":3682:3694   */\n      dup3\n        /* \"#utility.yul\":3648:3711   */\n      tag_58\n      jump\t// in\n    tag_129:\n        /* \"#utility.yul\":3558:3721   */\n      pop\n        /* \"#utility.yul\":3803:3807   */\n      0x20\n        /* \"#utility.yul\":3796:3801   */\n      dup4\n        /* \"#utility.yul\":3792:3808   */\n      add\n        /* \"#utility.yul\":3786:3809   */\n      mload\n        /* \"#utility.yul\":3856:3859   */\n      dup5\n        /* \"#utility.yul\":3850:3854   */\n      dup3\n        /* \"#utility.yul\":3846:3860   */\n      sub\n        /* \"#utility.yul\":3839:3843   */\n      0x20\n        /* \"#utility.yul\":3834:3837   */\n      dup7\n        /* \"#utility.yul\":3830:3844   */\n      add\n        /* \"#utility.yul\":3823:3861   */\n      mstore\n        /* \"#utility.yul\":3882:3955   */\n      tag_130\n        /* \"#utility.yul\":3950:3954   */\n      dup3\n        /* \"#utility.yul\":3936:3948   */\n      dup3\n        /* \"#utility.yul\":3882:3955   */\n      tag_60\n      jump\t// in\n    tag_130:\n        /* \"#utility.yul\":3874:3955   */\n      swap2\n      pop\n        /* \"#utility.yul\":3731:3966   */\n      pop\n        /* \"#utility.yul\":3983:3987   */\n      dup1\n        /* \"#utility.yul\":3976:3987   */\n      swap2\n      pop\n        /* \"#utility.yul\":3512:3993   */\n      pop\n        /* \"#utility.yul\":3404:3993   */\n      swap3\n      swap2\n      pop\n      pop\n      jump\t// out\n        /* \"#utility.yul\":3999:4340   */\n    tag_17:\n        /* \"#utility.yul\":4126:4130   */\n      0x00\n        /* \"#utility.yul\":4164:4166   */\n      0x20\n        /* \"#utility.yul\":4153:4162   */\n      dup3\n        /* \"#utility.yul\":4149:4167   */\n      add\n        /* \"#utility.yul\":4141:4167   */\n      swap1\n      pop\n        /* \"#utility.yul\":4213:4222   */\n      dup2\n        /* \"#utility.yul\":4207:4211   */\n      dup2\n        /* \"#utility.yul\":4203:4223   */\n      sub\n        /* \"#utility.yul\":4199:4200   */\n      0x00\n        /* \"#utility.yul\":4188:4197   */\n      dup4\n        /* \"#utility.yul\":4184:4201   */\n      add\n        /* \"#utility.yul\":4177:4224   */\n      mstore\n        /* \"#utility.yul\":4241:4333   */\n      tag_132\n        /* \"#utility.yul\":4328:4332   */\n      dup2\n        /* \"#utility.yul\":4319:4325   */\n      dup5\n        /* \"#utility.yul\":4241:4333   */\n      tag_61\n      jump\t// in\n    tag_132:\n        /* \"#utility.yul\":4233:4333   */\n      swap1\n      pop\n        /* \"#utility.yul\":3999:4340   */\n      swap3\n      swap2\n      pop\n      pop\n      jump\t// out\n        /* \"#utility.yul\":4346:4468   */\n    tag_62:\n        /* \"#utility.yul\":4419:4443   */\n      tag_134\n        /* \"#utility.yul\":4437:4442   */\n      dup2\n        /* \"#utility.yul\":4419:4443   */\n      tag_51\n      jump\t// in\n    tag_134:\n        /* \"#utility.yul\":4412:4417   */\n      dup2\n        /* \"#utility.yul\":4409:4444   */\n      eq\n        /* \"#utility.yul\":4399:4462   */\n      tag_135\n      jumpi\n        /* \"#utility.yul\":4458:4459   */\n      0x00\n        /* \"#utility.yul\":4455:4456   */\n      dup1\n        /* \"#utility.yul\":4448:4460   */\n      revert\n        /* \"#utility.yul\":4399:4462   */\n    tag_135:\n        /* \"#utility.yul\":4346:4468   */\n      pop\n      jump\t// out\n        /* \"#utility.yul\":4474:4613   */\n    tag_63:\n        /* \"#utility.yul\":4520:4525   */\n      0x00\n        /* \"#utility.yul\":4558:4564   */\n      dup2\n        /* \"#utility.yul\":4545:4565   */\n      calldataload\n        /* \"#utility.yul\":4536:4565   */\n      swap1\n      pop\n        /* \"#utility.yul\":4574:4607   */\n      tag_137\n        /* \"#utility.yul\":4601:4606   */\n      dup2\n        /* \"#utility.yul\":4574:4607   */\n      tag_62\n      jump\t// in\n    tag_137:\n        /* \"#utility.yul\":4474:4613   */\n      swap3\n      swap2\n      pop\n      pop\n      jump\t// out\n        /* \"#utility.yul\":4619:4736   */\n    tag_64:\n        /* \"#utility.yul\":4728:4729   */\n      0x00\n        /* \"#utility.yul\":4725:4726   */\n      dup1\n        /* \"#utility.yul\":4718:4730   */\n      revert\n        /* \"#utility.yul\":4742:4859   */\n    tag_65:\n        /* \"#utility.yul\":4851:4852   */\n      0x00\n        /* \"#utility.yul\":4848:4849   */\n      dup1\n        /* \"#utility.yul\":4841:4853   */\n      revert\n        /* \"#utility.yul\":4865:5045   */\n    tag_66:\n        /* \"#utility.yul\":4913:4990   */\n      0x4e487b7100000000000000000000000000000000000000000000000000000000\n        /* \"#utility.yul\":4910:4911   */\n      0x00\n        /* \"#utility.yul\":4903:4991   */\n      mstore\n        /* \"#utility.yul\":5010:5014   */\n      0x41\n        /* \"#utility.yul\":5007:5008   */\n      0x04\n        /* \"#utility.yul\":5000:5015   */\n      mstore\n        /* \"#utility.yul\":5034:5038   */\n      0x24\n        /* \"#utility.yul\":5031:5032   */\n      0x00\n        /* \"#utility.yul\":5024:5039   */\n      revert\n        /* \"#utility.yul\":5051:5332   */\n    tag_67:\n        /* \"#utility.yul\":5134:5161   */\n      tag_142\n        /* \"#utility.yul\":5156:5160   */\n      dup3\n        /* \"#utility.yul\":5134:5161   */\n      tag_56\n      jump\t// in\n    tag_142:\n        /* \"#utility.yul\":5126:5132   */\n      dup2\n        /* \"#utility.yul\":5122:5162   */\n      add\n        /* \"#utility.yul\":5264:5270   */\n      dup2\n        /* \"#utility.yul\":5252:5262   */\n      dup2\n        /* \"#utility.yul\":5249:5271   */\n      lt\n        /* \"#utility.yul\":5228:5246   */\n      0xffffffffffffffff\n        /* \"#utility.yul\":5216:5226   */\n      dup3\n        /* \"#utility.yul\":5213:5247   */\n      gt\n        /* \"#utility.yul\":5210:5272   */\n      or\n        /* \"#utility.yul\":5207:5295   */\n      iszero\n      tag_143\n      jumpi\n        /* \"#utility.yul\":5275:5293   */\n      tag_144\n      tag_66\n      jump\t// in\n    tag_144:\n        /* \"#utility.yul\":5207:5295   */\n    tag_143:\n        /* \"#utility.yul\":5315:5325   */\n      dup1\n        /* \"#utility.yul\":5311:5313   */\n      0x40\n        /* \"#utility.yul\":5304:5326   */\n      mstore\n        /* \"#utility.yul\":5094:5332   */\n      pop\n        /* \"#utility.yul\":5051:5332   */\n      pop\n      pop\n      jump\t// out\n        /* \"#utility.yul\":5338:5467   */\n    tag_68:\n        /* \"#utility.yul\":5372:5378   */\n      0x00\n        /* \"#utility.yul\":5399:5419   */\n      tag_146\n      tag_44\n      jump\t// in\n    tag_146:\n        /* \"#utility.yul\":5389:5419   */\n      swap1\n      pop\n        /* \"#utility.yul\":5428:5461   */\n      tag_147\n        /* \"#utility.yul\":5456:5460   */\n      dup3\n        /* \"#utility.yul\":5448:5454   */\n      dup3\n        /* \"#utility.yul\":5428:5461   */\n      tag_67\n      jump\t// in\n    tag_147:\n        /* \"#utility.yul\":5338:5467   */\n      swap2\n      swap1\n      pop\n      jump\t// out\n        /* \"#utility.yul\":5473:5781   */\n    tag_69:\n        /* \"#utility.yul\":5535:5539   */\n      0x00\n        /* \"#utility.yul\":5625:5643   */\n      0xffffffffffffffff\n        /* \"#utility.yul\":5617:5623   */\n      dup3\n        /* \"#utility.yul\":5614:5644   */\n      gt\n        /* \"#utility.yul\":5611:5667   */\n      iszero\n      tag_149\n      jumpi\n        /* \"#utility.yul\":5647:5665   */\n      tag_150\n      tag_66\n      jump\t// in\n    tag_150:\n        /* \"#utility.yul\":5611:5667   */\n    tag_149:\n        /* \"#utility.yul\":5685:5714   */\n      tag_151\n        /* \"#utility.yul\":5707:5713   */\n      dup3\n        /* \"#utility.yul\":5685:5714   */\n      tag_56\n      jump\t// in\n    tag_151:\n        /* \"#utility.yul\":5677:5714   */\n      swap1\n      pop\n        /* \"#utility.yul\":5769:5773   */\n      0x20\n        /* \"#utility.yul\":5763:5767   */\n      dup2\n        /* \"#utility.yul\":5759:5774   */\n      add\n        /* \"#utility.yul\":5751:5774   */\n      swap1\n      pop\n        /* \"#utility.yul\":5473:5781   */\n      swap2\n      swap1\n      pop\n      jump\t// out\n        /* \"#utility.yul\":5787:5935   */\n    tag_70:\n        /* \"#utility.yul\":5885:5891   */\n      dup3\n        /* \"#utility.yul\":5880:5883   */\n      dup2\n        /* \"#utility.yul\":5875:5878   */\n      dup4\n        /* \"#utility.yul\":5862:5892   */\n      calldatacopy\n        /* \"#utility.yul\":5926:5927   */\n      0x00\n        /* \"#utility.yul\":5917:5923   */\n      dup4\n        /* \"#utility.yul\":5912:5915   */\n      dup4\n        /* \"#utility.yul\":5908:5924   */\n      add\n        /* \"#utility.yul\":5901:5928   */\n      mstore\n        /* \"#utility.yul\":5787:5935   */\n      pop\n      pop\n      pop\n      jump\t// out\n        /* \"#utility.yul\":5941:6366   */\n    tag_71:\n        /* \"#utility.yul\":6019:6024   */\n      0x00\n        /* \"#utility.yul\":6044:6110   */\n      tag_154\n        /* \"#utility.yul\":6060:6109   */\n      tag_155\n        /* \"#utility.yul\":6102:6108   */\n      dup5\n        /* \"#utility.yul\":6060:6109   */\n      tag_69\n      jump\t// in\n    tag_155:\n        /* \"#utility.yul\":6044:6110   */\n      tag_68\n      jump\t// in\n    tag_154:\n        /* \"#utility.yul\":6035:6110   */\n      swap1\n      pop\n        /* \"#utility.yul\":6133:6139   */\n      dup3\n        /* \"#utility.yul\":6126:6131   */\n      dup2\n        /* \"#utility.yul\":6119:6140   */\n      mstore\n        /* \"#utility.yul\":6171:6175   */\n      0x20\n        /* \"#utility.yul\":6164:6169   */\n      dup2\n        /* \"#utility.yul\":6160:6176   */\n      add\n        /* \"#utility.yul\":6209:6212   */\n      dup5\n        /* \"#utility.yul\":6200:6206   */\n      dup5\n        /* \"#utility.yul\":6195:6198   */\n      dup5\n        /* \"#utility.yul\":6191:6207   */\n      add\n        /* \"#utility.yul\":6188:6213   */\n      gt\n        /* \"#utility.yul\":6185:6297   */\n      iszero\n      tag_156\n      jumpi\n        /* \"#utility.yul\":6216:6295   */\n      tag_157\n      tag_65\n      jump\t// in\n    tag_157:\n        /* \"#utility.yul\":6185:6297   */\n    tag_156:\n        /* \"#utility.yul\":6306:6360   */\n      tag_158\n        /* \"#utility.yul\":6353:6359   */\n      dup5\n        /* \"#utility.yul\":6348:6351   */\n      dup3\n        /* \"#utility.yul\":6343:6346   */\n      dup6\n        /* \"#utility.yul\":6306:6360   */\n      tag_70\n      jump\t// in\n    tag_158:\n        /* \"#utility.yul\":6025:6366   */\n      pop\n        /* \"#utility.yul\":5941:6366   */\n      swap4\n      swap3\n      pop\n      pop\n      pop\n      jump\t// out\n        /* \"#utility.yul\":6386:6726   */\n    tag_72:\n        /* \"#utility.yul\":6442:6447   */\n      0x00\n        /* \"#utility.yul\":6491:6494   */\n      dup3\n        /* \"#utility.yul\":6484:6488   */\n      0x1f\n        /* \"#utility.yul\":6476:6482   */\n      dup4\n        /* \"#utility.yul\":6472:6489   */\n      add\n        /* \"#utility.yul\":6468:6495   */\n      slt\n        /* \"#utility.yul\":6458:6580   */\n      tag_160\n      jumpi\n        /* \"#utility.yul\":6499:6578   */\n      tag_161\n      tag_64\n      jump\t// in\n    tag_161:\n        /* \"#utility.yul\":6458:6580   */\n    tag_160:\n        /* \"#utility.yul\":6616:6622   */\n      dup2\n        /* \"#utility.yul\":6603:6623   */\n      calldataload\n        /* \"#utility.yul\":6641:6720   */\n      tag_162\n        /* \"#utility.yul\":6716:6719   */\n      dup5\n        /* \"#utility.yul\":6708:6714   */\n      dup3\n        /* \"#utility.yul\":6701:6705   */\n      0x20\n        /* \"#utility.yul\":6693:6699   */\n      dup7\n        /* \"#utility.yul\":6689:6706   */\n      add\n        /* \"#utility.yul\":6641:6720   */\n      tag_71\n      jump\t// in\n    tag_162:\n        /* \"#utility.yul\":6632:6720   */\n      swap2\n      pop\n        /* \"#utility.yul\":6448:6726   */\n      pop\n        /* \"#utility.yul\":6386:6726   */\n      swap3\n      swap2\n      pop\n      pop\n      jump\t// out\n        /* \"#utility.yul\":6732:7386   */\n    tag_20:\n        /* \"#utility.yul\":6810:6816   */\n      0x00\n        /* \"#utility.yul\":6818:6824   */\n      dup1\n        /* \"#utility.yul\":6867:6869   */\n      0x40\n        /* \"#utility.yul\":6855:6864   */\n      dup4\n        /* \"#utility.yul\":6846:6853   */\n      dup6\n        /* \"#utility.yul\":6842:6865   */\n      sub\n        /* \"#utility.yul\":6838:6870   */\n      slt\n        /* \"#utility.yul\":6835:6954   */\n      iszero\n      tag_164\n      jumpi\n        /* \"#utility.yul\":6873:6952   */\n      tag_165\n      tag_45\n      jump\t// in\n    tag_165:\n        /* \"#utility.yul\":6835:6954   */\n    tag_164:\n        /* \"#utility.yul\":6993:6994   */\n      0x00\n        /* \"#utility.yul\":7018:7071   */\n      tag_166\n        /* \"#utility.yul\":7063:7070   */\n      dup6\n        /* \"#utility.yul\":7054:7060   */\n      dup3\n        /* \"#utility.yul\":7043:7052   */\n      dup7\n        /* \"#utility.yul\":7039:7061   */\n      add\n        /* \"#utility.yul\":7018:7071   */\n      tag_63\n      jump\t// in\n    tag_166:\n        /* \"#utility.yul\":7008:7071   */\n      swap3\n      pop\n        /* \"#utility.yul\":6964:7081   */\n      pop\n        /* \"#utility.yul\":7148:7150   */\n      0x20\n        /* \"#utility.yul\":7137:7146   */\n      dup4\n        /* \"#utility.yul\":7133:7151   */\n      add\n        /* \"#utility.yul\":7120:7152   */\n      calldataload\n        /* \"#utility.yul\":7179:7197   */\n      0xffffffffffffffff\n        /* \"#utility.yul\":7171:7177   */\n      dup2\n        /* \"#utility.yul\":7168:7198   */\n      gt\n        /* \"#utility.yul\":7165:7282   */\n      iszero\n      tag_167\n      jumpi\n        /* \"#utility.yul\":7201:7280   */\n      tag_168\n      tag_46\n      jump\t// in\n    tag_168:\n        /* \"#utility.yul\":7165:7282   */\n    tag_167:\n        /* \"#utility.yul\":7306:7369   */\n      tag_169\n        /* \"#utility.yul\":7361:7368   */\n      dup6\n        /* \"#utility.yul\":7352:7358   */\n      dup3\n        /* \"#utility.yul\":7341:7350   */\n      dup7\n        /* \"#utility.yul\":7337:7359   */\n      add\n        /* \"#utility.yul\":7306:7369   */\n      tag_72\n      jump\t// in\n    tag_169:\n        /* \"#utility.yul\":7296:7369   */\n      swap2\n      pop\n        /* \"#utility.yul\":7091:7379   */\n      pop\n        /* \"#utility.yul\":6732:7386   */\n      swap3\n      pop\n      swap3\n      swap1\n      pop\n      jump\t// out\n        /* \"#utility.yul\":7392:7614   */\n    tag_25:\n        /* \"#utility.yul\":7485:7489   */\n      0x00\n        /* \"#utility.yul\":7523:7525   */\n      0x20\n        /* \"#utility.yul\":7512:7521   */\n      dup3\n        /* \"#utility.yul\":7508:7526   */\n      add\n        /* \"#utility.yul\":7500:7526   */\n      swap1\n      pop\n        /* \"#utility.yul\":7536:7607   */\n      tag_171\n        /* \"#utility.yul\":7604:7605   */\n      0x00\n        /* \"#utility.yul\":7593:7602   */\n      dup4\n        /* \"#utility.yul\":7589:7606   */\n      add\n        /* \"#utility.yul\":7580:7586   */\n      dup5\n        /* \"#utility.yul\":7536:7607   */\n      tag_52\n      jump\t// in\n    tag_171:\n        /* \"#utility.yul\":7392:7614   */\n      swap3\n      swap2\n      pop\n      pop\n      jump\t// out\n        /* \"#utility.yul\":7620:7800   */\n    tag_73:\n        /* \"#utility.yul\":7668:7745   */\n      0x4e487b7100000000000000000000000000000000000000000000000000000000\n        /* \"#utility.yul\":7665:7666   */\n      0x00\n        /* \"#utility.yul\":7658:7746   */\n      mstore\n        /* \"#utility.yul\":7765:7769   */\n      0x22\n        /* \"#utility.yul\":7762:7763   */\n      0x04\n        /* \"#utility.yul\":7755:7770   */\n      mstore\n        /* \"#utility.yul\":7789:7793   */\n      0x24\n        /* \"#utility.yul\":7786:7787   */\n      0x00\n        /* \"#utility.yul\":7779:7794   */\n      revert\n        /* \"#utility.yul\":7806:8126   */\n    tag_27:\n        /* \"#utility.yul\":7850:7856   */\n      0x00\n        /* \"#utility.yul\":7887:7888   */\n      0x02\n        /* \"#utility.yul\":7881:7885   */\n      dup3\n        /* \"#utility.yul\":7877:7889   */\n      div\n        /* \"#utility.yul\":7867:7889   */\n      swap1\n      pop\n        /* \"#utility.yul\":7934:7935   */\n      0x01\n        /* \"#utility.yul\":7928:7932   */\n      dup3\n        /* \"#utility.yul\":7924:7936   */\n      and\n        /* \"#utility.yul\":7955:7973   */\n      dup1\n        /* \"#utility.yul\":7945:8026   */\n      tag_174\n      jumpi\n        /* \"#utility.yul\":8011:8015   */\n      0x7f\n        /* \"#utility.yul\":8003:8009   */\n      dup3\n        /* \"#utility.yul\":7999:8016   */\n      and\n        /* \"#utility.yul\":7989:8016   */\n      swap2\n      pop\n        /* \"#utility.yul\":7945:8026   */\n    tag_174:\n        /* \"#utility.yul\":8073:8075   */\n      0x20\n        /* \"#utility.yul\":8065:8071   */\n      dup3\n        /* \"#utility.yul\":8062:8076   */\n      lt\n        /* \"#utility.yul\":8042:8060   */\n      dup2\n        /* \"#utility.yul\":8039:8077   */\n      sub\n        /* \"#utility.yul\":8036:8120   */\n      tag_175\n      jumpi\n        /* \"#utility.yul\":8092:8110   */\n      tag_176\n      tag_73\n      jump\t// in\n    tag_176:\n        /* \"#utility.yul\":8036:8120   */\n    tag_175:\n        /* \"#utility.yul\":7857:8126   */\n      pop\n        /* \"#utility.yul\":7806:8126   */\n      swap2\n      swap1\n      pop\n      jump\t// out\n        /* \"#utility.yul\":8132:8273   */\n    tag_74:\n        /* \"#utility.yul\":8181:8185   */\n      0x00\n        /* \"#utility.yul\":8204:8207   */\n      dup2\n        /* \"#utility.yul\":8196:8207   */\n      swap1\n      pop\n        /* \"#utility.yul\":8227:8230   */\n      dup2\n        /* \"#utility.yul\":8224:8225   */\n      0x00\n        /* \"#utility.yul\":8217:8231   */\n      mstore\n        /* \"#utility.yul\":8261:8265   */\n      0x20\n        /* \"#utility.yul\":8258:8259   */\n      0x00\n        /* \"#utility.yul\":8248:8266   */\n      keccak256\n        /* \"#utility.yul\":8240:8266   */\n      swap1\n      pop\n        /* \"#utility.yul\":8132:8273   */\n      swap2\n      swap1\n      pop\n      jump\t// out\n        /* \"#utility.yul\":8279:8372   */\n    tag_75:\n        /* \"#utility.yul\":8316:8322   */\n      0x00\n        /* \"#utility.yul\":8363:8365   */\n      0x20\n        /* \"#utility.yul\":8358:8360   */\n      0x1f\n        /* \"#utility.yul\":8351:8356   */\n      dup4\n        /* \"#utility.yul\":8347:8361   */\n      add\n        /* \"#utility.yul\":8343:8366   */\n      div\n        /* \"#utility.yul\":8333:8366   */\n      swap1\n      pop\n        /* \"#utility.yul\":8279:8372   */\n      swap2\n      swap1\n      pop\n      jump\t// out\n        /* \"#utility.yul\":8378:8485   */\n    tag_76:\n        /* \"#utility.yul\":8422:8430   */\n      0x00\n        /* \"#utility.yul\":8472:8477   */\n      dup3\n        /* \"#utility.yul\":8466:8470   */\n      dup3\n        /* \"#utility.yul\":8462:8478   */\n      shl\n        /* \"#utility.yul\":8441:8478   */\n      swap1\n      pop\n        /* \"#utility.yul\":8378:8485   */\n      swap3\n      swap2\n      pop\n      pop\n      jump\t// out\n        /* \"#utility.yul\":8491:8884   */\n    tag_77:\n        /* \"#utility.yul\":8560:8566   */\n      0x00\n        /* \"#utility.yul\":8610:8611   */\n      0x08\n        /* \"#utility.yul\":8598:8608   */\n      dup4\n        /* \"#utility.yul\":8594:8612   */\n      mul\n        /* \"#utility.yul\":8633:8730   */\n      tag_181\n        /* \"#utility.yul\":8663:8729   */\n      0xffffffffffffffffffffffffffffffffffffffffffffffffffffffffffffffff\n        /* \"#utility.yul\":8652:8661   */\n      dup3\n        /* \"#utility.yul\":8633:8730   */\n      tag_76\n      jump\t// in\n    tag_181:\n        /* \"#utility.yul\":8751:8790   */\n      tag_182\n        /* \"#utility.yul\":8781:8789   */\n      dup7\n        /* \"#utility.yul\":8770:8779   */\n      dup4\n        /* \"#utility.yul\":8751:8790   */\n      tag_76\n      jump\t// in\n    tag_182:\n        /* \"#utility.yul\":8739:8790   */\n      swap6\n      pop\n        /* \"#utility.yul\":8823:8827   */\n      dup1\n        /* \"#utility.yul\":8819:8828   */\n      not\n        /* \"#utility.yul\":8812:8817   */\n      dup5\n        /* \"#utility.yul\":8808:8829   */\n      and\n        /* \"#utility.yul\":8799:8829   */\n      swap4\n      pop\n        /* \"#utility.yul\":8872:8876   */\n      dup1\n        /* \"#utility.yul\":8862:8870   */\n      dup7\n        /* \"#utility.yul\":8858:8877   */\n      and\n        /* \"#utility.yul\":8851:8856   */\n      dup5\n        /* \"#utility.yul\":8848:8878   */\n      or\n        /* \"#utility.yul\":8838:8878   */\n      swap3\n      pop\n        /* \"#utility.yul\":8567:8884   */\n      pop\n      pop\n        /* \"#utility.yul\":8491:8884   */\n      swap4\n      swap3\n      pop\n      pop\n      pop\n      jump\t// out\n        /* \"#utility.yul\":8890:8950   */\n    tag_78:\n        /* \"#utility.yul\":8918:8921   */\n      0x00\n        /* \"#utility.yul\":8939:8944   */\n      dup2\n        /* \"#utility.yul\":8932:8944   */\n      swap1\n      pop\n        /* \"#utility.yul\":8890:8950   */\n      swap2\n      swap1\n      pop\n      jump\t// out\n        /* \"#utility.yul\":8956:9098   */\n    tag_79:\n        /* \"#utility.yul\":9006:9015   */\n      0x00\n        /* \"#utility.yul\":9039:9092   */\n      tag_185\n        /* \"#utility.yul\":9057:9091   */\n      tag_186\n        /* \"#utility.yul\":9066:9090   */\n      tag_187\n        /* \"#utility.yul\":9084:9089   */\n      dup5\n        /* \"#utility.yul\":9066:9090   */\n      tag_51\n      jump\t// in\n    tag_187:\n        /* \"#utility.yul\":9057:9091   */\n      tag_78\n      jump\t// in\n    tag_186:\n        /* \"#utility.yul\":9039:9092   */\n      tag_51\n      jump\t// in\n    tag_185:\n        /* \"#utility.yul\":9026:9092   */\n      swap1\n      pop\n        /* \"#utility.yul\":8956:9098   */\n      swap2\n      swap1\n      pop\n      jump\t// out\n        /* \"#utility.yul\":9104:9179   */\n    tag_80:\n        /* \"#utility.yul\":9147:9150   */\n      0x00\n        /* \"#utility.yul\":9168:9173   */\n      dup2\n        /* \"#utility.yul\":9161:9173   */\n      swap1\n      pop\n        /* \"#utility.yul\":9104:9179   */\n      swap2\n      swap1\n      pop\n      jump\t// out\n        /* \"#utility.yul\":9185:9454   */\n    tag_81:\n        /* \"#utility.yul\":9295:9334   */\n      tag_190\n        /* \"#utility.yul\":9326:9333   */\n      dup4\n        /* \"#utility.yul\":9295:9334   */\n      tag_79\n      jump\t// in\n    tag_190:\n        /* \"#utility.yul\":9356:9447   */\n      tag_191\n        /* \"#utility.yul\":9405:9446   */\n      tag_192\n        /* \"#utility.yul\":9429:9445   */\n      dup3\n        /* \"#utility.yul\":9405:9446   */\n      tag_80\n      jump\t// in\n    tag_192:\n        /* \"#utility.yul\":9397:9403   */\n      dup5\n        /* \"#utility.yul\":9390:9394   */\n      dup5\n        /* \"#utility.yul\":9384:9395   */\n      sload\n        /* \"#utility.yul\":9356:9447   */\n      tag_77\n      jump\t// in\n    tag_191:\n        /* \"#utility.yul\":9350:9354   */\n      dup3\n        /* \"#utility.yul\":9343:9448   */\n      sstore\n        /* \"#utility.yul\":9261:9454   */\n      pop\n        /* \"#utility.yul\":9185:9454   */\n      pop\n      pop\n      pop\n      jump\t// out\n        /* \"#utility.yul\":9460:9533   */\n    tag_82:\n        /* \"#utility.yul\":9505:9508   */\n      0x00\n        /* \"#utility.yul\":9460:9533   */\n      swap1\n      jump\t// out\n        /* \"#utility.yul\":9539:9728   */\n    tag_83:\n        /* \"#utility.yul\":9616:9648   */\n      tag_195\n      tag_82\n      jump\t// in\n    tag_195:\n        /* \"#utility.yul\":9657:9722   */\n      tag_196\n        /* \"#utility.yul\":9715:9721   */\n      dup2\n        /* \"#utility.yul\":9707:9713   */\n      dup5\n        /* \"#utility.yul\":9701:9705   */\n      dup5\n        /* \"#utility.yul\":9657:9722   */\n      tag_81\n      jump\t// in\n    tag_196:\n        /* \"#utility.yul\":9592:9728   */\n      pop\n        /* \"#utility.yul\":9539:9728   */\n      pop\n      pop\n      jump\t// out\n        /* \"#utility.yul\":9734:9920   */\n    tag_84:\n        /* \"#utility.yul\":9794:9914   */\n    tag_198:\n        /* \"#utility.yul\":9811:9814   */\n      dup2\n        /* \"#utility.yul\":9804:9809   */\n      dup2\n        /* \"#utility.yul\":9801:9815   */\n      lt\n        /* \"#utility.yul\":9794:9914   */\n      iszero\n      tag_200\n      jumpi\n        /* \"#utility.yul\":9865:9904   */\n      tag_201\n        /* \"#utility.yul\":9902:9903   */\n      0x00\n        /* \"#utility.yul\":9895:9900   */\n      dup3\n        /* \"#utility.yul\":9865:9904   */\n      tag_83\n      jump\t// in\n    tag_201:\n        /* \"#utility.yul\":9838:9839   */\n      0x01\n        /* \"#utility.yul\":9831:9836   */\n      dup2\n        /* \"#utility.yul\":9827:9840   */\n      add\n        /* \"#utility.yul\":9818:9840   */\n      swap1\n      pop\n        /* \"#utility.yul\":9794:9914   */\n      jump(tag_198)\n    tag_200:\n        /* \"#utility.yul\":9734:9920   */\n      pop\n      pop\n      jump\t// out\n        /* \"#utility.yul\":9926:10469   */\n    tag_85:\n        /* \"#utility.yul\":10027:10029   */\n      0x1f\n        /* \"#utility.yul\":10022:10025   */\n      dup3\n        /* \"#utility.yul\":10019:10030   */\n      gt\n        /* \"#utility.yul\":10016:10462   */\n      iszero\n      tag_203\n      jumpi\n        /* \"#utility.yul\":10061:10099   */\n      tag_204\n        /* \"#utility.yul\":10093:10098   */\n      dup2\n        /* \"#utility.yul\":10061:10099   */\n      tag_74\n      jump\t// in\n    tag_204:\n        /* \"#utility.yul\":10145:10174   */\n      tag_205\n        /* \"#utility.yul\":10163:10173   */\n      dup5\n        /* \"#utility.yul\":10145:10174   */\n      tag_75\n      jump\t// in\n    tag_205:\n        /* \"#utility.yul\":10135:10143   */\n      dup2\n        /* \"#utility.yul\":10131:10175   */\n      add\n        /* \"#utility.yul\":10328:10330   */\n      0x20\n        /* \"#utility.yul\":10316:10326   */\n      dup6\n        /* \"#utility.yul\":10313:10331   */\n      lt\n        /* \"#utility.yul\":10310:10359   */\n      iszero\n      tag_206\n      jumpi\n        /* \"#utility.yul\":10349:10357   */\n      dup2\n        /* \"#utility.yul\":10334:10357   */\n      swap1\n      pop\n        /* \"#utility.yul\":10310:10359   */\n    tag_206:\n        /* \"#utility.yul\":10372:10452   */\n      tag_207\n        /* \"#utility.yul\":10428:10450   */\n      tag_208\n        /* \"#utility.yul\":10446:10449   */\n      dup6\n        /* \"#utility.yul\":10428:10450   */\n      tag_75\n      jump\t// in\n    tag_208:\n        /* \"#utility.yul\":10418:10426   */\n      dup4\n        /* \"#utility.yul\":10414:10451   */\n      add\n        /* \"#utility.yul\":10401:10412   */\n      dup3\n        /* \"#utility.yul\":10372:10452   */\n      tag_84\n      jump\t// in\n    tag_207:\n        /* \"#utility.yul\":10031:10462   */\n      pop\n      pop\n        /* \"#utility.yul\":10016:10462   */\n    tag_203:\n        /* \"#utility.yul\":9926:10469   */\n      pop\n      pop\n      pop\n      jump\t// out\n        /* \"#utility.yul\":10475:10592   */\n    tag_86:\n        /* \"#utility.yul\":10529:10537   */\n      0x00\n        /* \"#utility.yul\":10579:10584   */\n      dup3\n        /* \"#utility.yul\":10573:10577   */\n      dup3\n        /* \"#utility.yul\":10569:10585   */\n      shr\n        /* \"#utility.yul\":10548:10585   */\n      swap1\n      pop\n        /* \"#utility.yul\":10475:10592   */\n      swap3\n      swap2\n      pop\n      pop\n      jump\t// out\n        /* \"#utility.yul\":10598:10767   */\n    tag_87:\n        /* \"#utility.yul\":10642:10648   */\n      0x00\n        /* \"#utility.yul\":10675:10726   */\n      tag_211\n        /* \"#utility.yul\":10723:10724   */\n      0x00\n        /* \"#utility.yul\":10719:10725   */\n      not\n        /* \"#utility.yul\":10711:10716   */\n      dup5\n        /* \"#utility.yul\":10708:10709   */\n      0x08\n        /* \"#utility.yul\":10704:10717   */\n      mul\n        /* \"#utility.yul\":10675:10726   */\n      tag_86\n      jump\t// in\n    tag_211:\n        /* \"#utility.yul\":10671:10727   */\n      not\n        /* \"#utility.yul\":10756:10760   */\n      dup1\n        /* \"#utility.yul\":10750:10754   */\n      dup4\n        /* \"#utility.yul\":10746:10761   */\n      and\n        /* \"#utility.yul\":10736:10761   */\n      swap2\n      pop\n        /* \"#utility.yul\":10649:10767   */\n      pop\n        /* \"#utility.yul\":10598:10767   */\n      swap3\n      swap2\n      pop\n      pop\n      jump\t// out\n        /* \"#utility.yul\":10772:11067   */\n    tag_88:\n        /* \"#utility.yul\":10848:10852   */\n      0x00\n        /* \"#utility.yul\":10994:11023   */\n      tag_213\n        /* \"#utility.yul\":11019:11022   */\n      dup4\n        /* \"#utility.yul\":11013:11017   */\n      dup4\n        /* \"#utility.yul\":10994:11023   */\n      tag_87\n      jump\t// in\n    tag_213:\n        /* \"#utility.yul\":10986:11023   */\n      swap2\n      pop\n        /* \"#utility.yul\":11056:11059   */\n      dup3\n        /* \"#utility.yul\":11053:11054   */\n      0x02\n        /* \"#utility.yul\":11049:11060   */\n      mul\n        /* \"#utility.yul\":11043:11047   */\n      dup3\n        /* \"#utility.yul\":11040:11061   */\n      or\n        /* \"#utility.yul\":11032:11061   */\n      swap1\n      pop\n        /* \"#utility.yul\":10772:11067   */\n      swap3\n      swap2\n      pop\n      pop\n      jump\t// out\n        /* \"#utility.yul\":11072:12467   */\n    tag_42:\n        /* \"#utility.yul\":11189:11226   */\n      tag_215\n        /* \"#utility.yul\":11222:11225   */\n      dup3\n        /* \"#utility.yul\":11189:11226   */\n      tag_53\n      jump\t// in\n    tag_215:\n        /* \"#utility.yul\":11291:11309   */\n      0xffffffffffffffff\n        /* \"#utility.yul\":11283:11289   */\n      dup2\n        /* \"#utility.yul\":11280:11310   */\n      gt\n        /* \"#utility.yul\":11277:11333   */\n      iszero\n      tag_216\n      jumpi\n        /* \"#utility.yul\":11313:11331   */\n      tag_217\n      tag_66\n      jump\t// in\n    tag_217:\n        /* \"#utility.yul\":11277:11333   */\n    tag_216:\n        /* \"#utility.yul\":11357:11395   */\n      tag_218\n        /* \"#utility.yul\":11389:11393   */\n      dup3\n        /* \"#utility.yul\":11383:11394   */\n      sload\n        /* \"#utility.yul\":11357:11395   */\n      tag_27\n      jump\t// in\n    tag_218:\n        /* \"#utility.yul\":11442:11509   */\n      tag_219\n        /* \"#utility.yul\":11502:11508   */\n      dup3\n        /* \"#utility.yul\":11494:11500   */\n      dup3\n        /* \"#utility.yul\":11488:11492   */\n      dup6\n        /* \"#utility.yul\":11442:11509   */\n      tag_85\n      jump\t// in\n    tag_219:\n        /* \"#utility.yul\":11536:11537   */\n      0x00\n        /* \"#utility.yul\":11560:11564   */\n      0x20\n        /* \"#utility.yul\":11547:11564   */\n      swap1\n      pop\n        /* \"#utility.yul\":11592:11594   */\n      0x1f\n        /* \"#utility.yul\":11584:11590   */\n      dup4\n        /* \"#utility.yul\":11581:11595   */\n      gt\n        /* \"#utility.yul\":11609:11610   */\n      0x01\n        /* \"#utility.yul\":11604:12222   */\n      dup2\n      eq\n      tag_221\n      jumpi\n        /* \"#utility.yul\":12266:12267   */\n      0x00\n        /* \"#utility.yul\":12283:12289   */\n      dup5\n        /* \"#utility.yul\":12280:12357   */\n      iszero\n      tag_222\n      jumpi\n        /* \"#utility.yul\":12332:12341   */\n      dup3\n        /* \"#utility.yul\":12327:12330   */\n      dup8\n        /* \"#utility.yul\":12323:12342   */\n      add\n        /* \"#utility.yul\":12317:12343   */\n      mload\n        /* \"#utility.yul\":12308:12343   */\n      swap1\n      pop\n        /* \"#utility.yul\":12280:12357   */\n    tag_222:\n        /* \"#utility.yul\":12383:12450   */\n      tag_223\n        /* \"#utility.yul\":12443:12449   */\n      dup6\n        /* \"#utility.yul\":12436:12441   */\n      dup3\n        /* \"#utility.yul\":12383:12450   */\n      tag_88\n      jump\t// in\n    tag_223:\n        /* \"#utility.yul\":12377:12381   */\n      dup7\n        /* \"#utility.yul\":12370:12451   */\n      sstore\n        /* \"#utility.yul\":12239:12461   */\n      pop\n        /* \"#utility.yul\":11574:12461   */\n      jump(tag_220)\n        /* \"#utility.yul\":11604:12222   */\n    tag_221:\n        /* \"#utility.yul\":11656:11660   */\n      0x1f\n        /* \"#utility.yul\":11652:11661   */\n      not\n        /* \"#utility.yul\":11644:11650   */\n      dup5\n        /* \"#utility.yul\":11640:11662   */\n      and\n        /* \"#utility.yul\":11690:11727   */\n      tag_224\n        /* \"#utility.yul\":11722:11726   */\n      dup7\n        /* \"#utility.yul\":11690:11727   */\n      tag_74\n      jump\t// in\n    tag_224:\n        /* \"#utility.yul\":11749:11750   */\n      0x00\n        /* \"#utility.yul\":11763:11971   */\n    tag_225:\n        /* \"#utility.yul\":11777:11784   */\n      dup3\n        /* \"#utility.yul\":11774:11775   */\n      dup2\n        /* \"#utility.yul\":11771:11785   */\n      lt\n        /* \"#utility.yul\":11763:11971   */\n      iszero\n      tag_227\n      jumpi\n        /* \"#utility.yul\":11856:11865   */\n      dup5\n        /* \"#utility.yul\":11851:11854   */\n      dup10\n        /* \"#utility.yul\":11847:11866   */\n      add\n        /* \"#utility.yul\":11841:11867   */\n      mload\n        /* \"#utility.yul\":11833:11839   */\n      dup3\n        /* \"#utility.yul\":11826:11868   */\n      sstore\n        /* \"#utility.yul\":11907:11908   */\n      0x01\n        /* \"#utility.yul\":11899:11905   */\n      dup3\n        /* \"#utility.yul\":11895:11909   */\n      add\n        /* \"#utility.yul\":11885:11909   */\n      swap2\n      pop\n        /* \"#utility.yul\":11954:11956   */\n      0x20\n        /* \"#utility.yul\":11943:11952   */\n      dup6\n        /* \"#utility.yul\":11939:11957   */\n      add\n        /* \"#utility.yul\":11926:11957   */\n      swap5\n      pop\n        /* \"#utility.yul\":11800:11804   */\n      0x20\n        /* \"#utility.yul\":11797:11798   */\n      dup2\n        /* \"#utility.yul\":11793:11805   */\n      add\n        /* \"#utility.yul\":11788:11805   */\n      swap1\n      pop\n        /* \"#utility.yul\":11763:11971   */\n      jump(tag_225)\n    tag_227:\n        /* \"#utility.yul\":11999:12005   */\n      dup7\n        /* \"#utility.yul\":11990:11997   */\n      dup4\n        /* \"#utility.yul\":11987:12006   */\n      lt\n        /* \"#utility.yul\":11984:12163   */\n      iszero\n      tag_228\n      jumpi\n        /* \"#utility.yul\":12057:12066   */\n      dup5\n        /* \"#utility.yul\":12052:12055   */\n      dup10\n        /* \"#utility.yul\":12048:12067   */\n      add\n        /* \"#utility.yul\":12042:12068   */\n      mload\n        /* \"#utility.yul\":12100:12148   */\n      tag_229\n        /* \"#utility.yul\":12142:12146   */\n      0x1f\n        /* \"#utility.yul\":12134:12140   */\n      dup10\n        /* \"#utility.yul\":12130:12147   */\n      and\n        /* \"#utility.yul\":12119:12128   */\n      dup3\n        /* \"#utility.yul\":12100:12148   */\n      tag_87\n      jump\t// in\n    tag_229:\n        /* \"#utility.yul\":12092:12098   */\n      dup4\n        /* \"#utility.yul\":12085:12149   */\n      sstore\n        /* \"#utility.yul\":12007:12163   */\n      pop\n        /* \"#utility.yul\":11984:12163   */\n    tag_228:\n        /* \"#utility.yul\":12209:12210   */\n      0x01\n        /* \"#utility.yul\":12205:12206   */\n      0x02\n        /* \"#utility.yul\":12197:12203   */\n      dup9\n        /* \"#utility.yul\":12193:12207   */\n      mul\n        /* \"#utility.yul\":12189:12211   */\n      add\n        /* \"#utility.yul\":12183:12187   */\n      dup9\n        /* \"#utility.yul\":12176:12212   */\n      sstore\n        /* \"#utility.yul\":11611:12222   */\n      pop\n      pop\n      pop\n        /* \"#utility.yul\":11574:12461   */\n    tag_220:\n      pop\n        /* \"#utility.yul\":11164:12467   */\n      pop\n      pop\n      pop\n        /* \"#utility.yul\":11072:12467   */\n      pop\n      pop\n      jump\t// out\n\n    auxdata: 0xa2646970667358221220590aaf50cf2f5c672f732ead2d06f3e69f5aa8449c0ac96b68e582f869b204b064736f6c63430008190033\n}\n",
				"bytecode": {
					"linkReferences": {},
					"object": "6080604052348015600e575f80fd5b506109d88061001c5f395ff3fe608060405234801561000f575f80fd5b506004361061004a575f3560e01c806304ee65c01461004e57806336fa96ff1461007f5780636ace5f1a146100af578063dcd10e2a146100cb575b5f80fd5b6100686004803603810190610063919061037e565b6100e9565b604051610076929190610431565b60405180910390f35b6100996004803603810190610094919061037e565b61018e565b6040516100a691906104f0565b60405180910390f35b6100c960048036038101906100c49190610666565b61027d565b005b6100d36102f3565b6040516100e091906106c0565b60405180910390f35b5f602052805f5260405f205f91509050805f01549080600101805461010d90610706565b80601f016020809104026020016040519081016040528092919081815260200182805461013990610706565b80156101845780601f1061015b57610100808354040283529160200191610184565b820191905f5260205f20905b81548152906001019060200180831161016757829003601f168201915b5050505050905082565b6101966102fa565b5f808373ffffffffffffffffffffffffffffffffffffffff1673ffffffffffffffffffffffffffffffffffffffff1681526020019081526020015f206040518060400160405290815f82015481526020016001820180546101f690610706565b80601f016020809104026020016040519081016040528092919081815260200182805461022290610706565b801561026d5780601f106102445761010080835404028352916020019161026d565b820191905f5260205f20905b81548152906001019060200180831161025057829003601f168201915b5050505050815250509050919050565b6040518060400160405280838152602001828152505f803373ffffffffffffffffffffffffffffffffffffffff1673ffffffffffffffffffffffffffffffffffffffff1681526020019081526020015f205f820151815f015560208201518160010190816102eb91906108d3565b509050505050565b5f42905090565b60405180604001604052805f8152602001606081525090565b5f604051905090565b5f80fd5b5f80fd5b5f73ffffffffffffffffffffffffffffffffffffffff82169050919050565b5f61034d82610324565b9050919050565b61035d81610343565b8114610367575f80fd5b50565b5f8135905061037881610354565b92915050565b5f602082840312156103935761039261031c565b5b5f6103a08482850161036a565b91505092915050565b5f819050919050565b6103bb816103a9565b82525050565b5f81519050919050565b5f82825260208201905092915050565b8281835e5f83830152505050565b5f601f19601f8301169050919050565b5f610403826103c1565b61040d81856103cb565b935061041d8185602086016103db565b610426816103e9565b840191505092915050565b5f6040820190506104445f8301856103b2565b818103602083015261045681846103f9565b90509392505050565b610468816103a9565b82525050565b5f82825260208201905092915050565b5f610488826103c1565b610492818561046e565b93506104a28185602086016103db565b6104ab816103e9565b840191505092915050565b5f604083015f8301516104cb5f86018261045f565b50602083015184820360208601526104e3828261047e565b9150508091505092915050565b5f6020820190508181035f83015261050881846104b6565b905092915050565b610519816103a9565b8114610523575f80fd5b50565b5f8135905061053481610510565b92915050565b5f80fd5b5f80fd5b7f4e487b71000000000000000000000000000000000000000000000000000000005f52604160045260245ffd5b610578826103e9565b810181811067ffffffffffffffff8211171561059757610596610542565b5b80604052505050565b5f6105a9610313565b90506105b5828261056f565b919050565b5f67ffffffffffffffff8211156105d4576105d3610542565b5b6105dd826103e9565b9050602081019050919050565b828183375f83830152505050565b5f61060a610605846105ba565b6105a0565b9050828152602081018484840111156106265761062561053e565b5b6106318482856105ea565b509392505050565b5f82601f83011261064d5761064c61053a565b5b813561065d8482602086016105f8565b91505092915050565b5f806040838503121561067c5761067b61031c565b5b5f61068985828601610526565b925050602083013567ffffffffffffffff8111156106aa576106a9610320565b5b6106b685828601610639565b9150509250929050565b5f6020820190506106d35f8301846103b2565b92915050565b7f4e487b71000000000000000000000000000000000000000000000000000000005f52602260045260245ffd5b5f600282049050600182168061071d57607f821691505b6020821081036107305761072f6106d9565b5b50919050565b5f819050815f5260205f209050919050565b5f6020601f8301049050919050565b5f82821b905092915050565b5f600883026107927fffffffffffffffffffffffffffffffffffffffffffffffffffffffffffffffff82610757565b61079c8683610757565b95508019841693508086168417925050509392505050565b5f819050919050565b5f6107d76107d26107cd846103a9565b6107b4565b6103a9565b9050919050565b5f819050919050565b6107f0836107bd565b6108046107fc826107de565b848454610763565b825550505050565b5f90565b61081861080c565b6108238184846107e7565b505050565b5b818110156108465761083b5f82610810565b600181019050610829565b5050565b601f82111561088b5761085c81610736565b61086584610748565b81016020851015610874578190505b61088861088085610748565b830182610828565b50505b505050565b5f82821c905092915050565b5f6108ab5f1984600802610890565b1980831691505092915050565b5f6108c3838361089c565b9150826002028217905092915050565b6108dc826103c1565b67ffffffffffffffff8111156108f5576108f4610542565b5b6108ff8254610706565b61090a82828561084a565b5f60209050601f83116001811461093b575f8415610929578287015190505b61093385826108b8565b86555061099a565b601f19841661094986610736565b5f5b828110156109705784890151825560018201915060208501945060208101905061094b565b8683101561098d5784890151610989601f89168261089c565b8355505b6001600288020188555050505b50505050505056fea2646970667358221220590aaf50cf2f5c672f732ead2d06f3e69f5aa8449c0ac96b68e582f869b204b064736f6c63430008190033",
					"opcodes": "PUSH1 0x80 PUSH1 0x40 MSTORE CALLVALUE DUP1 ISZERO PUSH1 0xE JUMPI PUSH0 DUP1 REVERT JUMPDEST POP PUSH2 0x9D8 DUP1 PUSH2 0x1C PUSH0 CODECOPY PUSH0 RETURN INVALID PUSH1 0x80 PUSH1 0x40 MSTORE CALLVALUE DUP1 ISZERO PUSH2 0xF JUMPI PUSH0 DUP1 REVERT JUMPDEST POP PUSH1 0x4 CALLDATASIZE LT PUSH2 0x4A JUMPI PUSH0 CALLDATALOAD PUSH1 0xE0 SHR DUP1 PUSH4 0x4EE65C0 EQ PUSH2 0x4E JUMPI DUP1 PUSH4 0x36FA96FF EQ PUSH2 0x7F JUMPI DUP1 PUSH4 0x6ACE5F1A EQ PUSH2 0xAF JUMPI DUP1 PUSH4 0xDCD10E2A EQ PUSH2 0xCB JUMPI JUMPDEST PUSH0 DUP1 REVERT JUMPDEST PUSH2 0x68 PUSH1 0x4 DUP1 CALLDATASIZE SUB DUP2 ADD SWAP1 PUSH2 0x63 SWAP2 SWAP1 PUSH2 0x37E JUMP JUMPDEST PUSH2 0xE9 JUMP JUMPDEST PUSH1 0x40 MLOAD PUSH2 0x76 SWAP3 SWAP2 SWAP1 PUSH2 0x431 JUMP JUMPDEST PUSH1 0x40 MLOAD DUP1 SWAP2 SUB SWAP1 RETURN JUMPDEST PUSH2 0x99 PUSH1 0x4 DUP1 CALLDATASIZE SUB DUP2 ADD SWAP1 PUSH2 0x94 SWAP2 SWAP1 PUSH2 0x37E JUMP JUMPDEST PUSH2 0x18E JUMP JUMPDEST PUSH1 0x40 MLOAD PUSH2 0xA6 SWAP2 SWAP1 PUSH2 0x4F0 JUMP JUMPDEST PUSH1 0x40 MLOAD DUP1 SWAP2 SUB SWAP1 RETURN JUMPDEST PUSH2 0xC9 PUSH1 0x4 DUP1 CALLDATASIZE SUB DUP2 ADD SWAP1 PUSH2 0xC4 SWAP2 SWAP1 PUSH2 0x666 JUMP JUMPDEST PUSH2 0x27D JUMP JUMPDEST STOP JUMPDEST PUSH2 0xD3 PUSH2 0x2F3 JUMP JUMPDEST PUSH1 0x40 MLOAD PUSH2 0xE0 SWAP2 SWAP1 PUSH2 0x6C0 JUMP JUMPDEST PUSH1 0x40 MLOAD DUP1 SWAP2 SUB SWAP1 RETURN JUMPDEST PUSH0 PUSH1 0x20 MSTORE DUP1 PUSH0 MSTORE PUSH1 0x40 PUSH0 KECCAK256 PUSH0 SWAP2 POP SWAP1 POP DUP1 PUSH0 ADD SLOAD SWAP1 DUP1 PUSH1 0x1 ADD DUP1 SLOAD PUSH2 0x10D SWAP1 PUSH2 0x706 JUMP JUMPDEST DUP1 PUSH1 0x1F ADD PUSH1 0x20 DUP1 SWAP2 DIV MUL PUSH1 0x20 ADD PUSH1 0x40 MLOAD SWAP1 DUP2 ADD PUSH1 0x40 MSTORE DUP1 SWAP3 SWAP2 SWAP1 DUP2 DUP2 MSTORE PUSH1 0x20 ADD DUP3 DUP1 SLOAD PUSH2 0x139 SWAP1 PUSH2 0x706 JUMP JUMPDEST DUP1 ISZERO PUSH2 0x184 JUMPI DUP1 PUSH1 0x1F LT PUSH2 0x15B JUMPI PUSH2 0x100 DUP1 DUP4 SLOAD DIV MUL DUP4 MSTORE SWAP2 PUSH1 0x20 ADD SWAP2 PUSH2 0x184 JUMP JUMPDEST DUP3 ADD SWAP2 SWAP1 PUSH0 MSTORE PUSH1 0x20 PUSH0 KECCAK256 SWAP1 JUMPDEST DUP2 SLOAD DUP2 MSTORE SWAP1 PUSH1 0x1 ADD SWAP1 PUSH1 0x20 ADD DUP1 DUP4 GT PUSH2 0x167 JUMPI DUP3 SWAP1 SUB PUSH1 0x1F AND DUP3 ADD SWAP2 JUMPDEST POP POP POP POP POP SWAP1 POP DUP3 JUMP JUMPDEST PUSH2 0x196 PUSH2 0x2FA JUMP JUMPDEST PUSH0 DUP1 DUP4 PUSH20 0xFFFFFFFFFFFFFFFFFFFFFFFFFFFFFFFFFFFFFFFF AND PUSH20 0xFFFFFFFFFFFFFFFFFFFFFFFFFFFFFFFFFFFFFFFF AND DUP2 MSTORE PUSH1 0x20 ADD SWAP1 DUP2 MSTORE PUSH1 0x20 ADD PUSH0 KECCAK256 PUSH1 0x40 MLOAD DUP1 PUSH1 0x40 ADD PUSH1 0x40 MSTORE SWAP1 DUP2 PUSH0 DUP3 ADD SLOAD DUP2 MSTORE PUSH1 0x20 ADD PUSH1 0x1 DUP3 ADD DUP1 SLOAD PUSH2 0x1F6 SWAP1 PUSH2 0x706 JUMP JUMPDEST DUP1 PUSH1 0x1F ADD PUSH1 0x20 DUP1 SWAP2 DIV MUL PUSH1 0x20 ADD PUSH1 0x40 MLOAD SWAP1 DUP2 ADD PUSH1 0x40 MSTORE DUP1 SWAP3 SWAP2 SWAP1 DUP2 DUP2 MSTORE PUSH1 0x20 ADD DUP3 DUP1 SLOAD PUSH2 0x222 SWAP1 PUSH2 0x706 JUMP JUMPDEST DUP1 ISZERO PUSH2 0x26D JUMPI DUP1 PUSH1 0x1F LT PUSH2 0x244 JUMPI PUSH2 0x100 DUP1 DUP4 SLOAD DIV MUL DUP4 MSTORE SWAP2 PUSH1 0x20 ADD SWAP2 PUSH2 0x26D JUMP JUMPDEST DUP3 ADD SWAP2 SWAP1 PUSH0 MSTORE PUSH1 0x20 PUSH0 KECCAK256 SWAP1 JUMPDEST DUP2 SLOAD DUP2 MSTORE SWAP1 PUSH1 0x1 ADD SWAP1 PUSH1 0x20 ADD DUP1 DUP4 GT PUSH2 0x250 JUMPI DUP3 SWAP1 SUB PUSH1 0x1F AND DUP3 ADD SWAP2 JUMPDEST POP POP POP POP POP DUP2 MSTORE POP POP SWAP1 POP SWAP2 SWAP1 POP JUMP JUMPDEST PUSH1 0x40 MLOAD DUP1 PUSH1 0x40 ADD PUSH1 0x40 MSTORE DUP1 DUP4 DUP2 MSTORE PUSH1 0x20 ADD DUP3 DUP2 MSTORE POP PUSH0 DUP1 CALLER PUSH20 0xFFFFFFFFFFFFFFFFFFFFFFFFFFFFFFFFFFFFFFFF AND PUSH20 0xFFFFFFFFFFFFFFFFFFFFFFFFFFFFFFFFFFFFFFFF AND DUP2 MSTORE PUSH1 0x20 ADD SWAP1 DUP2 MSTORE PUSH1 0x20 ADD PUSH0 KECCAK256 PUSH0 DUP3 ADD MLOAD DUP2 PUSH0 ADD SSTORE PUSH1 0x20 DUP3 ADD MLOAD DUP2 PUSH1 0x1 ADD SWAP1 DUP2 PUSH2 0x2EB SWAP2 SWAP1 PUSH2 0x8D3 JUMP JUMPDEST POP SWAP1 POP POP POP POP JUMP JUMPDEST PUSH0 TIMESTAMP SWAP1 POP SWAP1 JUMP JUMPDEST PUSH1 0x40 MLOAD DUP1 PUSH1 0x40 ADD PUSH1 0x40 MSTORE DUP1 PUSH0 DUP2 MSTORE PUSH1 0x20 ADD PUSH1 0x60 DUP2 MSTORE POP SWAP1 JUMP JUMPDEST PUSH0 PUSH1 0x40 MLOAD SWAP1 POP SWAP1 JUMP JUMPDEST PUSH0 DUP1 REVERT JUMPDEST PUSH0 DUP1 REVERT JUMPDEST PUSH0 PUSH20 0xFFFFFFFFFFFFFFFFFFFFFFFFFFFFFFFFFFFFFFFF DUP3 AND SWAP1 POP SWAP2 SWAP1 POP JUMP JUMPDEST PUSH0 PUSH2 0x34D DUP3 PUSH2 0x324 JUMP JUMPDEST SWAP1 POP SWAP2 SWAP1 POP JUMP JUMPDEST PUSH2 0x35D DUP2 PUSH2 0x343 JUMP JUMPDEST DUP2 EQ PUSH2 0x367 JUMPI PUSH0 DUP1 REVERT JUMPDEST POP JUMP JUMPDEST PUSH0 DUP2 CALLDATALOAD SWAP1 POP PUSH2 0x378 DUP2 PUSH2 0x354 JUMP JUMPDEST SWAP3 SWAP2 POP POP JUMP JUMPDEST PUSH0 PUSH1 0x20 DUP3 DUP5 SUB SLT ISZERO PUSH2 0x393 JUMPI PUSH2 0x392 PUSH2 0x31C JUMP JUMPDEST JUMPDEST PUSH0 PUSH2 0x3A0 DUP5 DUP3 DUP6 ADD PUSH2 0x36A JUMP JUMPDEST SWAP2 POP POP SWAP3 SWAP2 POP POP JUMP JUMPDEST PUSH0 DUP2 SWAP1 POP SWAP2 SWAP1 POP JUMP JUMPDEST PUSH2 0x3BB DUP2 PUSH2 0x3A9 JUMP JUMPDEST DUP3 MSTORE POP POP JUMP JUMPDEST PUSH0 DUP2 MLOAD SWAP1 POP SWAP2 SWAP1 POP JUMP JUMPDEST PUSH0 DUP3 DUP3 MSTORE PUSH1 0x20 DUP3 ADD SWAP1 POP SWAP3 SWAP2 POP POP JUMP JUMPDEST DUP3 DUP2 DUP4 MCOPY PUSH0 DUP4 DUP4 ADD MSTORE POP POP POP JUMP JUMPDEST PUSH0 PUSH1 0x1F NOT PUSH1 0x1F DUP4 ADD AND SWAP1 POP SWAP2 SWAP1 POP JUMP JUMPDEST PUSH0 PUSH2 0x403 DUP3 PUSH2 0x3C1 JUMP JUMPDEST PUSH2 0x40D DUP2 DUP6 PUSH2 0x3CB JUMP JUMPDEST SWAP4 POP PUSH2 0x41D DUP2 DUP6 PUSH1 0x20 DUP7 ADD PUSH2 0x3DB JUMP JUMPDEST PUSH2 0x426 DUP2 PUSH2 0x3E9 JUMP JUMPDEST DUP5 ADD SWAP2 POP POP SWAP3 SWAP2 POP POP JUMP JUMPDEST PUSH0 PUSH1 0x40 DUP3 ADD SWAP1 POP PUSH2 0x444 PUSH0 DUP4 ADD DUP6 PUSH2 0x3B2 JUMP JUMPDEST DUP2 DUP2 SUB PUSH1 0x20 DUP4 ADD MSTORE PUSH2 0x456 DUP2 DUP5 PUSH2 0x3F9 JUMP JUMPDEST SWAP1 POP SWAP4 SWAP3 POP POP POP JUMP JUMPDEST PUSH2 0x468 DUP2 PUSH2 0x3A9 JUMP JUMPDEST DUP3 MSTORE POP POP JUMP JUMPDEST PUSH0 DUP3 DUP3 MSTORE PUSH1 0x20 DUP3 ADD SWAP1 POP SWAP3 SWAP2 POP POP JUMP JUMPDEST PUSH0 PUSH2 0x488 DUP3 PUSH2 0x3C1 JUMP JUMPDEST PUSH2 0x492 DUP2 DUP6 PUSH2 0x46E JUMP JUMPDEST SWAP4 POP PUSH2 0x4A2 DUP2 DUP6 PUSH1 0x20 DUP7 ADD PUSH2 0x3DB JUMP JUMPDEST PUSH2 0x4AB DUP2 PUSH2 0x3E9 JUMP JUMPDEST DUP5 ADD SWAP2 POP POP SWAP3 SWAP2 POP POP JUMP JUMPDEST PUSH0 PUSH1 0x40 DUP4 ADD PUSH0 DUP4 ADD MLOAD PUSH2 0x4CB PUSH0 DUP7 ADD DUP3 PUSH2 0x45F JUMP JUMPDEST POP PUSH1 0x20 DUP4 ADD MLOAD DUP5 DUP3 SUB PUSH1 0x20 DUP7 ADD MSTORE PUSH2 0x4E3 DUP3 DUP3 PUSH2 0x47E JUMP JUMPDEST SWAP2 POP POP DUP1 SWAP2 POP POP SWAP3 SWAP2 POP POP JUMP JUMPDEST PUSH0 PUSH1 0x20 DUP3 ADD SWAP1 POP DUP2 DUP2 SUB PUSH0 DUP4 ADD MSTORE PUSH2 0x508 DUP2 DUP5 PUSH2 0x4B6 JUMP JUMPDEST SWAP1 POP SWAP3 SWAP2 POP POP JUMP JUMPDEST PUSH2 0x519 DUP2 PUSH2 0x3A9 JUMP JUMPDEST DUP2 EQ PUSH2 0x523 JUMPI PUSH0 DUP1 REVERT JUMPDEST POP JUMP JUMPDEST PUSH0 DUP2 CALLDATALOAD SWAP1 POP PUSH2 0x534 DUP2 PUSH2 0x510 JUMP JUMPDEST SWAP3 SWAP2 POP POP JUMP JUMPDEST PUSH0 DUP1 REVERT JUMPDEST PUSH0 DUP1 REVERT JUMPDEST PUSH32 0x4E487B7100000000000000000000000000000000000000000000000000000000 PUSH0 MSTORE PUSH1 0x41 PUSH1 0x4 MSTORE PUSH1 0x24 PUSH0 REVERT JUMPDEST PUSH2 0x578 DUP3 PUSH2 0x3E9 JUMP JUMPDEST DUP2 ADD DUP2 DUP2 LT PUSH8 0xFFFFFFFFFFFFFFFF DUP3 GT OR ISZERO PUSH2 0x597 JUMPI PUSH2 0x596 PUSH2 0x542 JUMP JUMPDEST JUMPDEST DUP1 PUSH1 0x40 MSTORE POP POP POP JUMP JUMPDEST PUSH0 PUSH2 0x5A9 PUSH2 0x313 JUMP JUMPDEST SWAP1 POP PUSH2 0x5B5 DUP3 DUP3 PUSH2 0x56F JUMP JUMPDEST SWAP2 SWAP1 POP JUMP JUMPDEST PUSH0 PUSH8 0xFFFFFFFFFFFFFFFF DUP3 GT ISZERO PUSH2 0x5D4 JUMPI PUSH2 0x5D3 PUSH2 0x542 JUMP JUMPDEST JUMPDEST PUSH2 0x5DD DUP3 PUSH2 0x3E9 JUMP JUMPDEST SWAP1 POP PUSH1 0x20 DUP2 ADD SWAP1 POP SWAP2 SWAP1 POP JUMP JUMPDEST DUP3 DUP2 DUP4 CALLDATACOPY PUSH0 DUP4 DUP4 ADD MSTORE POP POP POP JUMP JUMPDEST PUSH0 PUSH2 0x60A PUSH2 0x605 DUP5 PUSH2 0x5BA JUMP JUMPDEST PUSH2 0x5A0 JUMP JUMPDEST SWAP1 POP DUP3 DUP2 MSTORE PUSH1 0x20 DUP2 ADD DUP5 DUP5 DUP5 ADD GT ISZERO PUSH2 0x626 JUMPI PUSH2 0x625 PUSH2 0x53E JUMP JUMPDEST JUMPDEST PUSH2 0x631 DUP5 DUP3 DUP6 PUSH2 0x5EA JUMP JUMPDEST POP SWAP4 SWAP3 POP POP POP JUMP JUMPDEST PUSH0 DUP3 PUSH1 0x1F DUP4 ADD SLT PUSH2 0x64D JUMPI PUSH2 0x64C PUSH2 0x53A JUMP JUMPDEST JUMPDEST DUP2 CALLDATALOAD PUSH2 0x65D DUP5 DUP3 PUSH1 0x20 DUP7 ADD PUSH2 0x5F8 JUMP JUMPDEST SWAP2 POP POP SWAP3 SWAP2 POP POP JUMP JUMPDEST PUSH0 DUP1 PUSH1 0x40 DUP4 DUP6 SUB SLT ISZERO PUSH2 0x67C JUMPI PUSH2 0x67B PUSH2 0x31C JUMP JUMPDEST JUMPDEST PUSH0 PUSH2 0x689 DUP6 DUP3 DUP7 ADD PUSH2 0x526 JUMP JUMPDEST SWAP3 POP POP PUSH1 0x20 DUP4 ADD CALLDATALOAD PUSH8 0xFFFFFFFFFFFFFFFF DUP2 GT ISZERO PUSH2 0x6AA JUMPI PUSH2 0x6A9 PUSH2 0x320 JUMP JUMPDEST JUMPDEST PUSH2 0x6B6 DUP6 DUP3 DUP7 ADD PUSH2 0x639 JUMP JUMPDEST SWAP2 POP POP SWAP3 POP SWAP3 SWAP1 POP JUMP JUMPDEST PUSH0 PUSH1 0x20 DUP3 ADD SWAP1 POP PUSH2 0x6D3 PUSH0 DUP4 ADD DUP5 PUSH2 0x3B2 JUMP JUMPDEST SWAP3 SWAP2 POP POP JUMP JUMPDEST PUSH32 0x4E487B7100000000000000000000000000000000000000000000000000000000 PUSH0 MSTORE PUSH1 0x22 PUSH1 0x4 MSTORE PUSH1 0x24 PUSH0 REVERT JUMPDEST PUSH0 PUSH1 0x2 DUP3 DIV SWAP1 POP PUSH1 0x1 DUP3 AND DUP1 PUSH2 0x71D JUMPI PUSH1 0x7F DUP3 AND SWAP2 POP JUMPDEST PUSH1 0x20 DUP3 LT DUP2 SUB PUSH2 0x730 JUMPI PUSH2 0x72F PUSH2 0x6D9 JUMP JUMPDEST JUMPDEST POP SWAP2 SWAP1 POP JUMP JUMPDEST PUSH0 DUP2 SWAP1 POP DUP2 PUSH0 MSTORE PUSH1 0x20 PUSH0 KECCAK256 SWAP1 POP SWAP2 SWAP1 POP JUMP JUMPDEST PUSH0 PUSH1 0x20 PUSH1 0x1F DUP4 ADD DIV SWAP1 POP SWAP2 SWAP1 POP JUMP JUMPDEST PUSH0 DUP3 DUP3 SHL SWAP1 POP SWAP3 SWAP2 POP POP JUMP JUMPDEST PUSH0 PUSH1 0x8 DUP4 MUL PUSH2 0x792 PUSH32 0xFFFFFFFFFFFFFFFFFFFFFFFFFFFFFFFFFFFFFFFFFFFFFFFFFFFFFFFFFFFFFFFF DUP3 PUSH2 0x757 JUMP JUMPDEST PUSH2 0x79C DUP7 DUP4 PUSH2 0x757 JUMP JUMPDEST SWAP6 POP DUP1 NOT DUP5 AND SWAP4 POP DUP1 DUP7 AND DUP5 OR SWAP3 POP POP POP SWAP4 SWAP3 POP POP POP JUMP JUMPDEST PUSH0 DUP2 SWAP1 POP SWAP2 SWAP1 POP JUMP JUMPDEST PUSH0 PUSH2 0x7D7 PUSH2 0x7D2 PUSH2 0x7CD DUP5 PUSH2 0x3A9 JUMP JUMPDEST PUSH2 0x7B4 JUMP JUMPDEST PUSH2 0x3A9 JUMP JUMPDEST SWAP1 POP SWAP2 SWAP1 POP JUMP JUMPDEST PUSH0 DUP2 SWAP1 POP SWAP2 SWAP1 POP JUMP JUMPDEST PUSH2 0x7F0 DUP4 PUSH2 0x7BD JUMP JUMPDEST PUSH2 0x804 PUSH2 0x7FC DUP3 PUSH2 0x7DE JUMP JUMPDEST DUP5 DUP5 SLOAD PUSH2 0x763 JUMP JUMPDEST DUP3 SSTORE POP POP POP POP JUMP JUMPDEST PUSH0 SWAP1 JUMP JUMPDEST PUSH2 0x818 PUSH2 0x80C JUMP JUMPDEST PUSH2 0x823 DUP2 DUP5 DUP5 PUSH2 0x7E7 JUMP JUMPDEST POP POP POP JUMP JUMPDEST JUMPDEST DUP2 DUP2 LT ISZERO PUSH2 0x846 JUMPI PUSH2 0x83B PUSH0 DUP3 PUSH2 0x810 JUMP JUMPDEST PUSH1 0x1 DUP2 ADD SWAP1 POP PUSH2 0x829 JUMP JUMPDEST POP POP JUMP JUMPDEST PUSH1 0x1F DUP3 GT ISZERO PUSH2 0x88B JUMPI PUSH2 0x85C DUP2 PUSH2 0x736 JUMP JUMPDEST PUSH2 0x865 DUP5 PUSH2 0x748 JUMP JUMPDEST DUP2 ADD PUSH1 0x20 DUP6 LT ISZERO PUSH2 0x874 JUMPI DUP2 SWAP1 POP JUMPDEST PUSH2 0x888 PUSH2 0x880 DUP6 PUSH2 0x748 JUMP JUMPDEST DUP4 ADD DUP3 PUSH2 0x828 JUMP JUMPDEST POP POP JUMPDEST POP POP POP JUMP JUMPDEST PUSH0 DUP3 DUP3 SHR SWAP1 POP SWAP3 SWAP2 POP POP JUMP JUMPDEST PUSH0 PUSH2 0x8AB PUSH0 NOT DUP5 PUSH1 0x8 MUL PUSH2 0x890 JUMP JUMPDEST NOT DUP1 DUP4 AND SWAP2 POP POP SWAP3 SWAP2 POP POP JUMP JUMPDEST PUSH0 PUSH2 0x8C3 DUP4 DUP4 PUSH2 0x89C JUMP JUMPDEST SWAP2 POP DUP3 PUSH1 0x2 MUL DUP3 OR SWAP1 POP SWAP3 SWAP2 POP POP JUMP JUMPDEST PUSH2 0x8DC DUP3 PUSH2 0x3C1 JUMP JUMPDEST PUSH8 0xFFFFFFFFFFFFFFFF DUP2 GT ISZERO PUSH2 0x8F5 JUMPI PUSH2 0x8F4 PUSH2 0x542 JUMP JUMPDEST JUMPDEST PUSH2 0x8FF DUP3 SLOAD PUSH2 0x706 JUMP JUMPDEST PUSH2 0x90A DUP3 DUP3 DUP6 PUSH2 0x84A JUMP JUMPDEST PUSH0 PUSH1 0x20 SWAP1 POP PUSH1 0x1F DUP4 GT PUSH1 0x1 DUP2 EQ PUSH2 0x93B JUMPI PUSH0 DUP5 ISZERO PUSH2 0x929 JUMPI DUP3 DUP8 ADD MLOAD SWAP1 POP JUMPDEST PUSH2 0x933 DUP6 DUP3 PUSH2 0x8B8 JUMP JUMPDEST DUP7 SSTORE POP PUSH2 0x99A JUMP JUMPDEST PUSH1 0x1F NOT DUP5 AND PUSH2 0x949 DUP7 PUSH2 0x736 JUMP JUMPDEST PUSH0 JUMPDEST DUP3 DUP2 LT ISZERO PUSH2 0x970 JUMPI DUP5 DUP10 ADD MLOAD DUP3 SSTORE PUSH1 0x1 DUP3 ADD SWAP2 POP PUSH1 0x20 DUP6 ADD SWAP5 POP PUSH1 0x20 DUP2 ADD SWAP1 POP PUSH2 0x94B JUMP JUMPDEST DUP7 DUP4 LT ISZERO PUSH2 0x98D JUMPI DUP5 DUP10 ADD MLOAD PUSH2 0x989 PUSH1 0x1F DUP10 AND DUP3 PUSH2 0x89C JUMP JUMPDEST DUP4 SSTORE POP JUMPDEST PUSH1 0x1 PUSH1 0x2 DUP9 MUL ADD DUP9 SSTORE POP POP POP JUMPDEST POP POP POP POP POP POP JUMP INVALID LOG2 PUSH5 0x6970667358 0x22 SLT KECCAK256 MSIZE EXP 0xAF POP 0xCF 0x2F TLOAD PUSH8 0x2F732EAD2D06F3E6 SWAP16 GAS 0xA8 PREVRANDAO SWAP13 EXP 0xC9 PUSH12 0x68E582F869B204B064736F6C PUSH4 0x43000819 STOP CALLER "
				},
				"gasEstimates": {
					"creation": {
						"codeDepositCost": "504000",
						"executionCost": "535",
						"totalCost": "504535"
					},
					"external": {
						"c(address)": "infinite",
						"getCurrenttimestamp()": "375",
						"getpacking_address(address)": "infinite",
						"packing_varibles(uint256,string)": "infinite"
					}
				},
				"methodIdentifiers": {
					"c(address)": "04ee65c0",
					"getCurrenttimestamp()": "dcd10e2a",
					"getpacking_address(address)": "36fa96ff",
					"packing_varibles(uint256,string)": "6ace5f1a"
				}
			},
			"storageLayout": {
				"storage": [
					{
						"astId": 11,
						"contract": "contracts/question.sol:A",
						"label": "c",
						"offset": 0,
						"slot": "0",
						"type": "t_mapping(t_address,t_struct(st)6_storage)"
					}
				],
				"types": {
					"t_address": {
						"encoding": "inplace",
						"label": "address",
						"numberOfBytes": "20"
					},
					"t_mapping(t_address,t_struct(st)6_storage)": {
						"encoding": "mapping",
						"key": "t_address",
						"label": "mapping(address => struct A.st)",
						"numberOfBytes": "32",
						"value": "t_struct(st)6_storage"
					},
					"t_string_storage": {
						"encoding": "bytes",
						"label": "string",
						"numberOfBytes": "32"
					},
					"t_struct(st)6_storage": {
						"encoding": "inplace",
						"label": "struct A.st",
						"members": [
							{
								"astId": 3,
								"contract": "contracts/question.sol:A",
								"label": "age",
								"offset": 0,
								"slot": "0",
								"type": "t_uint256"
							},
							{
								"astId": 5,
								"contract": "contracts/question.sol:A",
								"label": "name",
								"offset": 0,
								"slot": "1",
								"type": "t_string_storage"
							}
						],
						"numberOfBytes": "64"
					},
					"t_uint256": {
						"encoding": "inplace",
						"label": "uint256",
						"numberOfBytes": "32"
					}
				}
			},
			"userdoc": {
				"kind": "user",
				"methods": {},
				"version": 1
			}
		}
	}
}