{
	"contracts/Bank.sol": {
		"Bank": {
			"abi": [
				{
					"inputs": [
						{
							"internalType": "address",
							"name": "account",
							"type": "address"
						}
					],
					"name": "AddressInsufficientBalance",
					"type": "error"
				},
				{
					"inputs": [],
					"name": "FailedInnerCall",
					"type": "error"
				},
				{
					"inputs": [
						{
							"internalType": "address",
							"name": "",
							"type": "address"
						}
					],
					"name": "Balanceof",
					"outputs": [
						{
							"internalType": "uint256",
							"name": "",
							"type": "uint256"
						}
					],
					"stateMutability": "view",
					"type": "function"
				},
				{
					"inputs": [],
					"name": "deposit",
					"outputs": [],
					"stateMutability": "payable",
					"type": "function"
				},
				{
					"inputs": [],
					"name": "withdraw",
					"outputs": [],
					"stateMutability": "nonpayable",
					"type": "function"
				}
			],
			"devdoc": {
				"errors": {
					"AddressInsufficientBalance(address)": [
						{
							"details": "The ETH balance of the account is not enough to perform the operation."
						}
					],
					"FailedInnerCall()": [
						{
							"details": "A call to an address target failed. The target may have reverted."
						}
					]
				},
				"kind": "dev",
				"methods": {},
				"version": 1
			},
			"evm": {
				"assembly": "    /* \"contracts/Bank.sol\":116:472  contract Bank{... */\n  mstore(0x40, 0x80)\n  callvalue\n  dup1\n  iszero\n  tag_1\n  jumpi\n  0x00\n  dup1\n  revert\ntag_1:\n  pop\n  dataSize(sub_0)\n  dup1\n  dataOffset(sub_0)\n  0x00\n  codecopy\n  0x00\n  return\nstop\n\nsub_0: assembly {\n        /* \"contracts/Bank.sol\":116:472  contract Bank{... */\n      mstore(0x40, 0x80)\n      jumpi(tag_1, lt(calldatasize, 0x04))\n      shr(0xe0, calldataload(0x00))\n      dup1\n      0x3ccfd60b\n      eq\n      tag_2\n      jumpi\n      dup1\n      0x78592150\n      eq\n      tag_3\n      jumpi\n      dup1\n      0xd0e30db0\n      eq\n      tag_4\n      jumpi\n    tag_1:\n      0x00\n      dup1\n      revert\n        /* \"contracts/Bank.sol\":314:469  function withdraw()external {... */\n    tag_2:\n      callvalue\n      dup1\n      iszero\n      tag_5\n      jumpi\n      0x00\n      dup1\n      revert\n    tag_5:\n      pop\n      tag_6\n      tag_7\n      jump\t// in\n    tag_6:\n      stop\n        /* \"contracts/Bank.sol\":176:218  mapping (address=>uint256)public Balanceof */\n    tag_3:\n      callvalue\n      dup1\n      iszero\n      tag_8\n      jumpi\n      0x00\n      dup1\n      revert\n    tag_8:\n      pop\n      tag_9\n      0x04\n      dup1\n      calldatasize\n      sub\n      dup2\n      add\n      swap1\n      tag_10\n      swap2\n      swap1\n      tag_11\n      jump\t// in\n    tag_10:\n      tag_12\n      jump\t// in\n    tag_9:\n      mload(0x40)\n      tag_13\n      swap2\n      swap1\n      tag_14\n      jump\t// in\n    tag_13:\n      mload(0x40)\n      dup1\n      swap2\n      sub\n      swap1\n      return\n        /* \"contracts/Bank.sol\":224:309  function deposit()external payable {... */\n    tag_4:\n      tag_15\n      tag_16\n      jump\t// in\n    tag_15:\n      stop\n        /* \"contracts/Bank.sol\":314:469  function withdraw()external {... */\n    tag_7:\n        /* \"contracts/Bank.sol\":351:365  uint256 amount */\n      0x00\n        /* \"contracts/Bank.sol\":366:375  Balanceof */\n      dup1\n        /* \"contracts/Bank.sol\":366:387  Balanceof[msg.sender] */\n      0x00\n        /* \"contracts/Bank.sol\":376:386  msg.sender */\n      caller\n        /* \"contracts/Bank.sol\":366:387  Balanceof[msg.sender] */\n      0xffffffffffffffffffffffffffffffffffffffff\n      and\n      0xffffffffffffffffffffffffffffffffffffffff\n      and\n      dup2\n      mstore\n      0x20\n      add\n      swap1\n      dup2\n      mstore\n      0x20\n      add\n      0x00\n      keccak256\n      sload\n        /* \"contracts/Bank.sol\":351:387  uint256 amount=Balanceof[msg.sender] */\n      swap1\n      pop\n        /* \"contracts/Bank.sol\":394:432  payable (msg.sender).sendValue(amount) */\n      tag_18\n        /* \"contracts/Bank.sol\":425:431  amount */\n      dup2\n        /* \"contracts/Bank.sol\":403:413  msg.sender */\n      caller\n        /* \"contracts/Bank.sol\":394:424  payable (msg.sender).sendValue */\n      0xffffffffffffffffffffffffffffffffffffffff\n      and\n      tag_19\n      swap1\n        /* \"contracts/Bank.sol\":394:432  payable (msg.sender).sendValue(amount) */\n      swap2\n      swap1\n      0xffffffff\n      and\n      jump\t// in\n    tag_18:\n        /* \"contracts/Bank.sol\":461:462  0 */\n      0x00\n        /* \"contracts/Bank.sol\":439:448  Balanceof */\n      dup1\n        /* \"contracts/Bank.sol\":439:460  Balanceof[msg.sender] */\n      0x00\n        /* \"contracts/Bank.sol\":449:459  msg.sender */\n      caller\n        /* \"contracts/Bank.sol\":439:460  Balanceof[msg.sender] */\n      0xffffffffffffffffffffffffffffffffffffffff\n      and\n      0xffffffffffffffffffffffffffffffffffffffff\n      and\n      dup2\n      mstore\n      0x20\n      add\n      swap1\n      dup2\n      mstore\n      0x20\n      add\n      0x00\n      keccak256\n        /* \"contracts/Bank.sol\":439:462  Balanceof[msg.sender]=0 */\n      dup2\n      swap1\n      sstore\n      pop\n        /* \"contracts/Bank.sol\":342:469  {... */\n      pop\n        /* \"contracts/Bank.sol\":314:469  function withdraw()external {... */\n      jump\t// out\n        /* \"contracts/Bank.sol\":176:218  mapping (address=>uint256)public Balanceof */\n    tag_12:\n      mstore(0x20, 0x00)\n      dup1\n      0x00\n      mstore\n      keccak256(0x00, 0x40)\n      0x00\n      swap2\n      pop\n      swap1\n      pop\n      sload\n      dup2\n      jump\t// out\n        /* \"contracts/Bank.sol\":224:309  function deposit()external payable {... */\n    tag_16:\n        /* \"contracts/Bank.sol\":291:300  msg.value */\n      callvalue\n        /* \"contracts/Bank.sol\":268:277  Balanceof */\n      0x00\n        /* \"contracts/Bank.sol\":268:289  Balanceof[msg.sender] */\n      dup1\n        /* \"contracts/Bank.sol\":278:288  msg.sender */\n      caller\n        /* \"contracts/Bank.sol\":268:289  Balanceof[msg.sender] */\n      0xffffffffffffffffffffffffffffffffffffffff\n      and\n      0xffffffffffffffffffffffffffffffffffffffff\n      and\n      dup2\n      mstore\n      0x20\n      add\n      swap1\n      dup2\n      mstore\n      0x20\n      add\n      0x00\n      keccak256\n      0x00\n        /* \"contracts/Bank.sol\":268:300  Balanceof[msg.sender]+=msg.value */\n      dup3\n      dup3\n      sload\n      tag_21\n      swap2\n      swap1\n      tag_22\n      jump\t// in\n    tag_21:\n      swap3\n      pop\n      pop\n      dup2\n      swap1\n      sstore\n      pop\n        /* \"contracts/Bank.sol\":224:309  function deposit()external payable {... */\n      jump\t// out\n        /* \"@openzeppelin/contracts/utils/Address.sol\":1531:1862  function sendValue(address payable recipient, uint256 amount) internal {... */\n    tag_19:\n        /* \"@openzeppelin/contracts/utils/Address.sol\":1640:1646  amount */\n      dup1\n        /* \"@openzeppelin/contracts/utils/Address.sol\":1616:1637  address(this).balance */\n      selfbalance\n        /* \"@openzeppelin/contracts/utils/Address.sol\":1616:1646  address(this).balance < amount */\n      lt\n        /* \"@openzeppelin/contracts/utils/Address.sol\":1612:1721  if (address(this).balance < amount) {... */\n      iszero\n      tag_24\n      jumpi\n        /* \"@openzeppelin/contracts/utils/Address.sol\":1704:1708  this */\n      address\n        /* \"@openzeppelin/contracts/utils/Address.sol\":1669:1710  AddressInsufficientBalance(address(this)) */\n      mload(0x40)\n      0xcd78605900000000000000000000000000000000000000000000000000000000\n      dup2\n      mstore\n      0x04\n      add\n      tag_25\n      swap2\n      swap1\n      tag_26\n      jump\t// in\n    tag_25:\n      mload(0x40)\n      dup1\n      swap2\n      sub\n      swap1\n      revert\n        /* \"@openzeppelin/contracts/utils/Address.sol\":1612:1721  if (address(this).balance < amount) {... */\n    tag_24:\n        /* \"@openzeppelin/contracts/utils/Address.sol\":1732:1744  bool success */\n      0x00\n        /* \"@openzeppelin/contracts/utils/Address.sol\":1750:1759  recipient */\n      dup3\n        /* \"@openzeppelin/contracts/utils/Address.sol\":1750:1764  recipient.call */\n      0xffffffffffffffffffffffffffffffffffffffff\n      and\n        /* \"@openzeppelin/contracts/utils/Address.sol\":1772:1778  amount */\n      dup3\n        /* \"@openzeppelin/contracts/utils/Address.sol\":1750:1783  recipient.call{value: amount}(\"\") */\n      mload(0x40)\n      tag_27\n      swap1\n      tag_28\n      jump\t// in\n    tag_27:\n      0x00\n      mload(0x40)\n      dup1\n      dup4\n      sub\n      dup2\n      dup6\n      dup8\n      gas\n      call\n      swap3\n      pop\n      pop\n      pop\n      returndatasize\n      dup1\n      0x00\n      dup2\n      eq\n      tag_31\n      jumpi\n      mload(0x40)\n      swap2\n      pop\n      and(add(returndatasize, 0x3f), not(0x1f))\n      dup3\n      add\n      0x40\n      mstore\n      returndatasize\n      dup3\n      mstore\n      returndatasize\n      0x00\n      0x20\n      dup5\n      add\n      returndatacopy\n      jump(tag_30)\n    tag_31:\n      0x60\n      swap2\n      pop\n    tag_30:\n      pop\n        /* \"@openzeppelin/contracts/utils/Address.sol\":1731:1783  (bool success, ) = recipient.call{value: amount}(\"\") */\n      pop\n      swap1\n      pop\n        /* \"@openzeppelin/contracts/utils/Address.sol\":1798:1805  success */\n      dup1\n        /* \"@openzeppelin/contracts/utils/Address.sol\":1793:1856  if (!success) {... */\n      tag_32\n      jumpi\n        /* \"@openzeppelin/contracts/utils/Address.sol\":1828:1845  FailedInnerCall() */\n      mload(0x40)\n      0x1425ea4200000000000000000000000000000000000000000000000000000000\n      dup2\n      mstore\n      0x04\n      add\n      mload(0x40)\n      dup1\n      swap2\n      sub\n      swap1\n      revert\n        /* \"@openzeppelin/contracts/utils/Address.sol\":1793:1856  if (!success) {... */\n    tag_32:\n        /* \"@openzeppelin/contracts/utils/Address.sol\":1602:1862  {... */\n      pop\n        /* \"@openzeppelin/contracts/utils/Address.sol\":1531:1862  function sendValue(address payable recipient, uint256 amount) internal {... */\n      pop\n      pop\n      jump\t// out\n        /* \"#utility.yul\":88:205   */\n    tag_34:\n        /* \"#utility.yul\":197:198   */\n      0x00\n        /* \"#utility.yul\":194:195   */\n      dup1\n        /* \"#utility.yul\":187:199   */\n      revert\n        /* \"#utility.yul\":334:460   */\n    tag_36:\n        /* \"#utility.yul\":371:378   */\n      0x00\n        /* \"#utility.yul\":411:453   */\n      0xffffffffffffffffffffffffffffffffffffffff\n        /* \"#utility.yul\":404:409   */\n      dup3\n        /* \"#utility.yul\":400:454   */\n      and\n        /* \"#utility.yul\":389:454   */\n      swap1\n      pop\n        /* \"#utility.yul\":334:460   */\n      swap2\n      swap1\n      pop\n      jump\t// out\n        /* \"#utility.yul\":466:562   */\n    tag_37:\n        /* \"#utility.yul\":503:510   */\n      0x00\n        /* \"#utility.yul\":532:556   */\n      tag_53\n        /* \"#utility.yul\":550:555   */\n      dup3\n        /* \"#utility.yul\":532:556   */\n      tag_36\n      jump\t// in\n    tag_53:\n        /* \"#utility.yul\":521:556   */\n      swap1\n      pop\n        /* \"#utility.yul\":466:562   */\n      swap2\n      swap1\n      pop\n      jump\t// out\n        /* \"#utility.yul\":568:690   */\n    tag_38:\n        /* \"#utility.yul\":641:665   */\n      tag_55\n        /* \"#utility.yul\":659:664   */\n      dup2\n        /* \"#utility.yul\":641:665   */\n      tag_37\n      jump\t// in\n    tag_55:\n        /* \"#utility.yul\":634:639   */\n      dup2\n        /* \"#utility.yul\":631:666   */\n      eq\n        /* \"#utility.yul\":621:684   */\n      tag_56\n      jumpi\n        /* \"#utility.yul\":680:681   */\n      0x00\n        /* \"#utility.yul\":677:678   */\n      dup1\n        /* \"#utility.yul\":670:682   */\n      revert\n        /* \"#utility.yul\":621:684   */\n    tag_56:\n        /* \"#utility.yul\":568:690   */\n      pop\n      jump\t// out\n        /* \"#utility.yul\":696:835   */\n    tag_39:\n        /* \"#utility.yul\":742:747   */\n      0x00\n        /* \"#utility.yul\":780:786   */\n      dup2\n        /* \"#utility.yul\":767:787   */\n      calldataload\n        /* \"#utility.yul\":758:787   */\n      swap1\n      pop\n        /* \"#utility.yul\":796:829   */\n      tag_58\n        /* \"#utility.yul\":823:828   */\n      dup2\n        /* \"#utility.yul\":796:829   */\n      tag_38\n      jump\t// in\n    tag_58:\n        /* \"#utility.yul\":696:835   */\n      swap3\n      swap2\n      pop\n      pop\n      jump\t// out\n        /* \"#utility.yul\":841:1170   */\n    tag_11:\n        /* \"#utility.yul\":900:906   */\n      0x00\n        /* \"#utility.yul\":949:951   */\n      0x20\n        /* \"#utility.yul\":937:946   */\n      dup3\n        /* \"#utility.yul\":928:935   */\n      dup5\n        /* \"#utility.yul\":924:947   */\n      sub\n        /* \"#utility.yul\":920:952   */\n      slt\n        /* \"#utility.yul\":917:1036   */\n      iszero\n      tag_60\n      jumpi\n        /* \"#utility.yul\":955:1034   */\n      tag_61\n      tag_34\n      jump\t// in\n    tag_61:\n        /* \"#utility.yul\":917:1036   */\n    tag_60:\n        /* \"#utility.yul\":1075:1076   */\n      0x00\n        /* \"#utility.yul\":1100:1153   */\n      tag_62\n        /* \"#utility.yul\":1145:1152   */\n      dup5\n        /* \"#utility.yul\":1136:1142   */\n      dup3\n        /* \"#utility.yul\":1125:1134   */\n      dup6\n        /* \"#utility.yul\":1121:1143   */\n      add\n        /* \"#utility.yul\":1100:1153   */\n      tag_39\n      jump\t// in\n    tag_62:\n        /* \"#utility.yul\":1090:1153   */\n      swap2\n      pop\n        /* \"#utility.yul\":1046:1163   */\n      pop\n        /* \"#utility.yul\":841:1170   */\n      swap3\n      swap2\n      pop\n      pop\n      jump\t// out\n        /* \"#utility.yul\":1176:1253   */\n    tag_40:\n        /* \"#utility.yul\":1213:1220   */\n      0x00\n        /* \"#utility.yul\":1242:1247   */\n      dup2\n        /* \"#utility.yul\":1231:1247   */\n      swap1\n      pop\n        /* \"#utility.yul\":1176:1253   */\n      swap2\n      swap1\n      pop\n      jump\t// out\n        /* \"#utility.yul\":1259:1377   */\n    tag_41:\n        /* \"#utility.yul\":1346:1370   */\n      tag_65\n        /* \"#utility.yul\":1364:1369   */\n      dup2\n        /* \"#utility.yul\":1346:1370   */\n      tag_40\n      jump\t// in\n    tag_65:\n        /* \"#utility.yul\":1341:1344   */\n      dup3\n        /* \"#utility.yul\":1334:1371   */\n      mstore\n        /* \"#utility.yul\":1259:1377   */\n      pop\n      pop\n      jump\t// out\n        /* \"#utility.yul\":1383:1605   */\n    tag_14:\n        /* \"#utility.yul\":1476:1480   */\n      0x00\n        /* \"#utility.yul\":1514:1516   */\n      0x20\n        /* \"#utility.yul\":1503:1512   */\n      dup3\n        /* \"#utility.yul\":1499:1517   */\n      add\n        /* \"#utility.yul\":1491:1517   */\n      swap1\n      pop\n        /* \"#utility.yul\":1527:1598   */\n      tag_67\n        /* \"#utility.yul\":1595:1596   */\n      0x00\n        /* \"#utility.yul\":1584:1593   */\n      dup4\n        /* \"#utility.yul\":1580:1597   */\n      add\n        /* \"#utility.yul\":1571:1577   */\n      dup5\n        /* \"#utility.yul\":1527:1598   */\n      tag_41\n      jump\t// in\n    tag_67:\n        /* \"#utility.yul\":1383:1605   */\n      swap3\n      swap2\n      pop\n      pop\n      jump\t// out\n        /* \"#utility.yul\":1611:1791   */\n    tag_42:\n        /* \"#utility.yul\":1659:1736   */\n      0x4e487b7100000000000000000000000000000000000000000000000000000000\n        /* \"#utility.yul\":1656:1657   */\n      0x00\n        /* \"#utility.yul\":1649:1737   */\n      mstore\n        /* \"#utility.yul\":1756:1760   */\n      0x11\n        /* \"#utility.yul\":1753:1754   */\n      0x04\n        /* \"#utility.yul\":1746:1761   */\n      mstore\n        /* \"#utility.yul\":1780:1784   */\n      0x24\n        /* \"#utility.yul\":1777:1778   */\n      0x00\n        /* \"#utility.yul\":1770:1785   */\n      revert\n        /* \"#utility.yul\":1797:1988   */\n    tag_22:\n        /* \"#utility.yul\":1837:1840   */\n      0x00\n        /* \"#utility.yul\":1856:1876   */\n      tag_70\n        /* \"#utility.yul\":1874:1875   */\n      dup3\n        /* \"#utility.yul\":1856:1876   */\n      tag_40\n      jump\t// in\n    tag_70:\n        /* \"#utility.yul\":1851:1876   */\n      swap2\n      pop\n        /* \"#utility.yul\":1890:1910   */\n      tag_71\n        /* \"#utility.yul\":1908:1909   */\n      dup4\n        /* \"#utility.yul\":1890:1910   */\n      tag_40\n      jump\t// in\n    tag_71:\n        /* \"#utility.yul\":1885:1910   */\n      swap3\n      pop\n        /* \"#utility.yul\":1933:1934   */\n      dup3\n        /* \"#utility.yul\":1930:1931   */\n      dup3\n        /* \"#utility.yul\":1926:1935   */\n      add\n        /* \"#utility.yul\":1919:1935   */\n      swap1\n      pop\n        /* \"#utility.yul\":1954:1957   */\n      dup1\n        /* \"#utility.yul\":1951:1952   */\n      dup3\n        /* \"#utility.yul\":1948:1958   */\n      gt\n        /* \"#utility.yul\":1945:1981   */\n      iszero\n      tag_72\n      jumpi\n        /* \"#utility.yul\":1961:1979   */\n      tag_73\n      tag_42\n      jump\t// in\n    tag_73:\n        /* \"#utility.yul\":1945:1981   */\n    tag_72:\n        /* \"#utility.yul\":1797:1988   */\n      swap3\n      swap2\n      pop\n      pop\n      jump\t// out\n        /* \"#utility.yul\":1994:2112   */\n    tag_43:\n        /* \"#utility.yul\":2081:2105   */\n      tag_75\n        /* \"#utility.yul\":2099:2104   */\n      dup2\n        /* \"#utility.yul\":2081:2105   */\n      tag_37\n      jump\t// in\n    tag_75:\n        /* \"#utility.yul\":2076:2079   */\n      dup3\n        /* \"#utility.yul\":2069:2106   */\n      mstore\n        /* \"#utility.yul\":1994:2112   */\n      pop\n      pop\n      jump\t// out\n        /* \"#utility.yul\":2118:2340   */\n    tag_26:\n        /* \"#utility.yul\":2211:2215   */\n      0x00\n        /* \"#utility.yul\":2249:2251   */\n      0x20\n        /* \"#utility.yul\":2238:2247   */\n      dup3\n        /* \"#utility.yul\":2234:2252   */\n      add\n        /* \"#utility.yul\":2226:2252   */\n      swap1\n      pop\n        /* \"#utility.yul\":2262:2333   */\n      tag_77\n        /* \"#utility.yul\":2330:2331   */\n      0x00\n        /* \"#utility.yul\":2319:2328   */\n      dup4\n        /* \"#utility.yul\":2315:2332   */\n      add\n        /* \"#utility.yul\":2306:2312   */\n      dup5\n        /* \"#utility.yul\":2262:2333   */\n      tag_43\n      jump\t// in\n    tag_77:\n        /* \"#utility.yul\":2118:2340   */\n      swap3\n      swap2\n      pop\n      pop\n      jump\t// out\n        /* \"#utility.yul\":2346:2493   */\n    tag_44:\n        /* \"#utility.yul\":2447:2458   */\n      0x00\n        /* \"#utility.yul\":2484:2487   */\n      dup2\n        /* \"#utility.yul\":2469:2487   */\n      swap1\n      pop\n        /* \"#utility.yul\":2346:2493   */\n      swap3\n      swap2\n      pop\n      pop\n      jump\t// out\n        /* \"#utility.yul\":2499:2613   */\n    tag_45:\n      pop\n      jump\t// out\n        /* \"#utility.yul\":2619:3017   */\n    tag_46:\n        /* \"#utility.yul\":2778:2781   */\n      0x00\n        /* \"#utility.yul\":2799:2882   */\n      tag_81\n        /* \"#utility.yul\":2880:2881   */\n      0x00\n        /* \"#utility.yul\":2875:2878   */\n      dup4\n        /* \"#utility.yul\":2799:2882   */\n      tag_44\n      jump\t// in\n    tag_81:\n        /* \"#utility.yul\":2792:2882   */\n      swap2\n      pop\n        /* \"#utility.yul\":2891:2984   */\n      tag_82\n        /* \"#utility.yul\":2980:2983   */\n      dup3\n        /* \"#utility.yul\":2891:2984   */\n      tag_45\n      jump\t// in\n    tag_82:\n        /* \"#utility.yul\":3009:3010   */\n      0x00\n        /* \"#utility.yul\":3004:3007   */\n      dup3\n        /* \"#utility.yul\":3000:3011   */\n      add\n        /* \"#utility.yul\":2993:3011   */\n      swap1\n      pop\n        /* \"#utility.yul\":2619:3017   */\n      swap2\n      swap1\n      pop\n      jump\t// out\n        /* \"#utility.yul\":3023:3402   */\n    tag_28:\n        /* \"#utility.yul\":3207:3210   */\n      0x00\n        /* \"#utility.yul\":3229:3376   */\n      tag_84\n        /* \"#utility.yul\":3372:3375   */\n      dup3\n        /* \"#utility.yul\":3229:3376   */\n      tag_46\n      jump\t// in\n    tag_84:\n        /* \"#utility.yul\":3222:3376   */\n      swap2\n      pop\n        /* \"#utility.yul\":3393:3396   */\n      dup2\n        /* \"#utility.yul\":3386:3396   */\n      swap1\n      pop\n        /* \"#utility.yul\":3023:3402   */\n      swap2\n      swap1\n      pop\n      jump\t// out\n\n    auxdata: 0xa26469706673582212203e412ff92261df0ff4bb9c7fb8433085e4d18de7397731df48c64be03ee3e69a64736f6c634300081a0033\n}\n",
				"bytecode": {
					"linkReferences": {},
					"object": "6080604052348015600f57600080fd5b506104738061001f6000396000f3fe6080604052600436106100345760003560e01c80633ccfd60b146100395780637859215014610050578063d0e30db01461008d575b600080fd5b34801561004557600080fd5b5061004e610097565b005b34801561005c57600080fd5b5061007760048036038101906100729190610309565b61014a565b604051610084919061034f565b60405180910390f35b610095610162565b005b60008060003373ffffffffffffffffffffffffffffffffffffffff1673ffffffffffffffffffffffffffffffffffffffff168152602001908152602001600020549050610103813373ffffffffffffffffffffffffffffffffffffffff166101b990919063ffffffff16565b60008060003373ffffffffffffffffffffffffffffffffffffffff1673ffffffffffffffffffffffffffffffffffffffff1681526020019081526020016000208190555050565b60006020528060005260406000206000915090505481565b346000803373ffffffffffffffffffffffffffffffffffffffff1673ffffffffffffffffffffffffffffffffffffffff16815260200190815260200160002060008282546101b09190610399565b92505081905550565b804710156101fe57306040517fcd7860590000000000000000000000000000000000000000000000000000000081526004016101f591906103dc565b60405180910390fd5b60008273ffffffffffffffffffffffffffffffffffffffff168260405161022490610428565b60006040518083038185875af1925050503d8060008114610261576040519150601f19603f3d011682016040523d82523d6000602084013e610266565b606091505b50509050806102a1576040517f1425ea4200000000000000000000000000000000000000000000000000000000815260040160405180910390fd5b505050565b600080fd5b600073ffffffffffffffffffffffffffffffffffffffff82169050919050565b60006102d6826102ab565b9050919050565b6102e6816102cb565b81146102f157600080fd5b50565b600081359050610303816102dd565b92915050565b60006020828403121561031f5761031e6102a6565b5b600061032d848285016102f4565b91505092915050565b6000819050919050565b61034981610336565b82525050565b60006020820190506103646000830184610340565b92915050565b7f4e487b7100000000000000000000000000000000000000000000000000000000600052601160045260246000fd5b60006103a482610336565b91506103af83610336565b92508282019050808211156103c7576103c661036a565b5b92915050565b6103d6816102cb565b82525050565b60006020820190506103f160008301846103cd565b92915050565b600081905092915050565b50565b60006104126000836103f7565b915061041d82610402565b600082019050919050565b600061043382610405565b915081905091905056fea26469706673582212203e412ff92261df0ff4bb9c7fb8433085e4d18de7397731df48c64be03ee3e69a64736f6c634300081a0033",
					"opcodes": "PUSH1 0x80 PUSH1 0x40 MSTORE CALLVALUE DUP1 ISZERO PUSH1 0xF JUMPI PUSH1 0x0 DUP1 REVERT JUMPDEST POP PUSH2 0x473 DUP1 PUSH2 0x1F PUSH1 0x0 CODECOPY PUSH1 0x0 RETURN INVALID PUSH1 0x80 PUSH1 0x40 MSTORE PUSH1 0x4 CALLDATASIZE LT PUSH2 0x34 JUMPI PUSH1 0x0 CALLDATALOAD PUSH1 0xE0 SHR DUP1 PUSH4 0x3CCFD60B EQ PUSH2 0x39 JUMPI DUP1 PUSH4 0x78592150 EQ PUSH2 0x50 JUMPI DUP1 PUSH4 0xD0E30DB0 EQ PUSH2 0x8D JUMPI JUMPDEST PUSH1 0x0 DUP1 REVERT JUMPDEST CALLVALUE DUP1 ISZERO PUSH2 0x45 JUMPI PUSH1 0x0 DUP1 REVERT JUMPDEST POP PUSH2 0x4E PUSH2 0x97 JUMP JUMPDEST STOP JUMPDEST CALLVALUE DUP1 ISZERO PUSH2 0x5C JUMPI PUSH1 0x0 DUP1 REVERT JUMPDEST POP PUSH2 0x77 PUSH1 0x4 DUP1 CALLDATASIZE SUB DUP2 ADD SWAP1 PUSH2 0x72 SWAP2 SWAP1 PUSH2 0x309 JUMP JUMPDEST PUSH2 0x14A JUMP JUMPDEST PUSH1 0x40 MLOAD PUSH2 0x84 SWAP2 SWAP1 PUSH2 0x34F JUMP JUMPDEST PUSH1 0x40 MLOAD DUP1 SWAP2 SUB SWAP1 RETURN JUMPDEST PUSH2 0x95 PUSH2 0x162 JUMP JUMPDEST STOP JUMPDEST PUSH1 0x0 DUP1 PUSH1 0x0 CALLER PUSH20 0xFFFFFFFFFFFFFFFFFFFFFFFFFFFFFFFFFFFFFFFF AND PUSH20 0xFFFFFFFFFFFFFFFFFFFFFFFFFFFFFFFFFFFFFFFF AND DUP2 MSTORE PUSH1 0x20 ADD SWAP1 DUP2 MSTORE PUSH1 0x20 ADD PUSH1 0x0 KECCAK256 SLOAD SWAP1 POP PUSH2 0x103 DUP2 CALLER PUSH20 0xFFFFFFFFFFFFFFFFFFFFFFFFFFFFFFFFFFFFFFFF AND PUSH2 0x1B9 SWAP1 SWAP2 SWAP1 PUSH4 0xFFFFFFFF AND JUMP JUMPDEST PUSH1 0x0 DUP1 PUSH1 0x0 CALLER PUSH20 0xFFFFFFFFFFFFFFFFFFFFFFFFFFFFFFFFFFFFFFFF AND PUSH20 0xFFFFFFFFFFFFFFFFFFFFFFFFFFFFFFFFFFFFFFFF AND DUP2 MSTORE PUSH1 0x20 ADD SWAP1 DUP2 MSTORE PUSH1 0x20 ADD PUSH1 0x0 KECCAK256 DUP2 SWAP1 SSTORE POP POP JUMP JUMPDEST PUSH1 0x0 PUSH1 0x20 MSTORE DUP1 PUSH1 0x0 MSTORE PUSH1 0x40 PUSH1 0x0 KECCAK256 PUSH1 0x0 SWAP2 POP SWAP1 POP SLOAD DUP2 JUMP JUMPDEST CALLVALUE PUSH1 0x0 DUP1 CALLER PUSH20 0xFFFFFFFFFFFFFFFFFFFFFFFFFFFFFFFFFFFFFFFF AND PUSH20 0xFFFFFFFFFFFFFFFFFFFFFFFFFFFFFFFFFFFFFFFF AND DUP2 MSTORE PUSH1 0x20 ADD SWAP1 DUP2 MSTORE PUSH1 0x20 ADD PUSH1 0x0 KECCAK256 PUSH1 0x0 DUP3 DUP3 SLOAD PUSH2 0x1B0 SWAP2 SWAP1 PUSH2 0x399 JUMP JUMPDEST SWAP3 POP POP DUP2 SWAP1 SSTORE POP JUMP JUMPDEST DUP1 SELFBALANCE LT ISZERO PUSH2 0x1FE JUMPI ADDRESS PUSH1 0x40 MLOAD PUSH32 0xCD78605900000000000000000000000000000000000000000000000000000000 DUP2 MSTORE PUSH1 0x4 ADD PUSH2 0x1F5 SWAP2 SWAP1 PUSH2 0x3DC JUMP JUMPDEST PUSH1 0x40 MLOAD DUP1 SWAP2 SUB SWAP1 REVERT JUMPDEST PUSH1 0x0 DUP3 PUSH20 0xFFFFFFFFFFFFFFFFFFFFFFFFFFFFFFFFFFFFFFFF AND DUP3 PUSH1 0x40 MLOAD PUSH2 0x224 SWAP1 PUSH2 0x428 JUMP JUMPDEST PUSH1 0x0 PUSH1 0x40 MLOAD DUP1 DUP4 SUB DUP2 DUP6 DUP8 GAS CALL SWAP3 POP POP POP RETURNDATASIZE DUP1 PUSH1 0x0 DUP2 EQ PUSH2 0x261 JUMPI PUSH1 0x40 MLOAD SWAP2 POP PUSH1 0x1F NOT PUSH1 0x3F RETURNDATASIZE ADD AND DUP3 ADD PUSH1 0x40 MSTORE RETURNDATASIZE DUP3 MSTORE RETURNDATASIZE PUSH1 0x0 PUSH1 0x20 DUP5 ADD RETURNDATACOPY PUSH2 0x266 JUMP JUMPDEST PUSH1 0x60 SWAP2 POP JUMPDEST POP POP SWAP1 POP DUP1 PUSH2 0x2A1 JUMPI PUSH1 0x40 MLOAD PUSH32 0x1425EA4200000000000000000000000000000000000000000000000000000000 DUP2 MSTORE PUSH1 0x4 ADD PUSH1 0x40 MLOAD DUP1 SWAP2 SUB SWAP1 REVERT JUMPDEST POP POP POP JUMP JUMPDEST PUSH1 0x0 DUP1 REVERT JUMPDEST PUSH1 0x0 PUSH20 0xFFFFFFFFFFFFFFFFFFFFFFFFFFFFFFFFFFFFFFFF DUP3 AND SWAP1 POP SWAP2 SWAP1 POP JUMP JUMPDEST PUSH1 0x0 PUSH2 0x2D6 DUP3 PUSH2 0x2AB JUMP JUMPDEST SWAP1 POP SWAP2 SWAP1 POP JUMP JUMPDEST PUSH2 0x2E6 DUP2 PUSH2 0x2CB JUMP JUMPDEST DUP2 EQ PUSH2 0x2F1 JUMPI PUSH1 0x0 DUP1 REVERT JUMPDEST POP JUMP JUMPDEST PUSH1 0x0 DUP2 CALLDATALOAD SWAP1 POP PUSH2 0x303 DUP2 PUSH2 0x2DD JUMP JUMPDEST SWAP3 SWAP2 POP POP JUMP JUMPDEST PUSH1 0x0 PUSH1 0x20 DUP3 DUP5 SUB SLT ISZERO PUSH2 0x31F JUMPI PUSH2 0x31E PUSH2 0x2A6 JUMP JUMPDEST JUMPDEST PUSH1 0x0 PUSH2 0x32D DUP5 DUP3 DUP6 ADD PUSH2 0x2F4 JUMP JUMPDEST SWAP2 POP POP SWAP3 SWAP2 POP POP JUMP JUMPDEST PUSH1 0x0 DUP2 SWAP1 POP SWAP2 SWAP1 POP JUMP JUMPDEST PUSH2 0x349 DUP2 PUSH2 0x336 JUMP JUMPDEST DUP3 MSTORE POP POP JUMP JUMPDEST PUSH1 0x0 PUSH1 0x20 DUP3 ADD SWAP1 POP PUSH2 0x364 PUSH1 0x0 DUP4 ADD DUP5 PUSH2 0x340 JUMP JUMPDEST SWAP3 SWAP2 POP POP JUMP JUMPDEST PUSH32 0x4E487B7100000000000000000000000000000000000000000000000000000000 PUSH1 0x0 MSTORE PUSH1 0x11 PUSH1 0x4 MSTORE PUSH1 0x24 PUSH1 0x0 REVERT JUMPDEST PUSH1 0x0 PUSH2 0x3A4 DUP3 PUSH2 0x336 JUMP JUMPDEST SWAP2 POP PUSH2 0x3AF DUP4 PUSH2 0x336 JUMP JUMPDEST SWAP3 POP DUP3 DUP3 ADD SWAP1 POP DUP1 DUP3 GT ISZERO PUSH2 0x3C7 JUMPI PUSH2 0x3C6 PUSH2 0x36A JUMP JUMPDEST JUMPDEST SWAP3 SWAP2 POP POP JUMP JUMPDEST PUSH2 0x3D6 DUP2 PUSH2 0x2CB JUMP JUMPDEST DUP3 MSTORE POP POP JUMP JUMPDEST PUSH1 0x0 PUSH1 0x20 DUP3 ADD SWAP1 POP PUSH2 0x3F1 PUSH1 0x0 DUP4 ADD DUP5 PUSH2 0x3CD JUMP JUMPDEST SWAP3 SWAP2 POP POP JUMP JUMPDEST PUSH1 0x0 DUP2 SWAP1 POP SWAP3 SWAP2 POP POP JUMP JUMPDEST POP JUMP JUMPDEST PUSH1 0x0 PUSH2 0x412 PUSH1 0x0 DUP4 PUSH2 0x3F7 JUMP JUMPDEST SWAP2 POP PUSH2 0x41D DUP3 PUSH2 0x402 JUMP JUMPDEST PUSH1 0x0 DUP3 ADD SWAP1 POP SWAP2 SWAP1 POP JUMP JUMPDEST PUSH1 0x0 PUSH2 0x433 DUP3 PUSH2 0x405 JUMP JUMPDEST SWAP2 POP DUP2 SWAP1 POP SWAP2 SWAP1 POP JUMP INVALID LOG2 PUSH5 0x6970667358 0x22 SLT KECCAK256 RETURNDATACOPY COINBASE 0x2F 0xF9 0x22 PUSH2 0xDF0F DELEGATECALL 0xBB SWAP13 PUSH32 0xB8433085E4D18DE7397731DF48C64BE03EE3E69A64736F6C634300081A003300 "
				},
				"gasEstimates": {
					"creation": {
						"codeDepositCost": "227800",
						"executionCost": "269",
						"totalCost": "228069"
					},
					"external": {
						"Balanceof(address)": "2814",
						"deposit()": "infinite",
						"withdraw()": "infinite"
					}
				},
				"methodIdentifiers": {
					"Balanceof(address)": "78592150",
					"deposit()": "d0e30db0",
					"withdraw()": "3ccfd60b"
				}
			},
			"storageLayout": {
				"storage": [
					{
						"astId": 262,
						"contract": "contracts/Bank.sol:Bank",
						"label": "Balanceof",
						"offset": 0,
						"slot": "0",
						"type": "t_mapping(t_address,t_uint256)"
					}
				],
				"types": {
					"t_address": {
						"encoding": "inplace",
						"label": "address",
						"numberOfBytes": "20"
					},
					"t_mapping(t_address,t_uint256)": {
						"encoding": "mapping",
						"key": "t_address",
						"label": "mapping(address => uint256)",
						"numberOfBytes": "32",
						"value": "t_uint256"
					},
					"t_uint256": {
						"encoding": "inplace",
						"label": "uint256",
						"numberOfBytes": "32"
					}
				}
			},
			"userdoc": {
				"kind": "user",
				"methods": {},
				"version": 1
			}
		}
	}
}