{
	"data": {
		"bytecode": {
			"linkReferences": {},
			"object": "6080604052348015600e575f80fd5b5061026a8061001c5f395ff3fe608060405260043610610028575f3560e01c806312065fe01461002c57806391f3ffec14610056575b5f80fd5b348015610037575f80fd5b50610040610072565b60405161004d919061011a565b60405180910390f35b610070600480360381019061006b9190610191565b610079565b005b5f47905090565b5f34116100bb576040517f08c379a00000000000000000000000000000000000000000000000000000000081526004016100b290610216565b60405180910390fd5b8073ffffffffffffffffffffffffffffffffffffffff166108fc3490811502906040515f60405180830381858888f193505050501580156100fe573d5f803e3d5ffd5b5050565b5f819050919050565b61011481610102565b82525050565b5f60208201905061012d5f83018461010b565b92915050565b5f80fd5b5f73ffffffffffffffffffffffffffffffffffffffff82169050919050565b5f61016082610137565b9050919050565b61017081610156565b811461017a575f80fd5b50565b5f8135905061018b81610167565b92915050565b5f602082840312156101a6576101a5610133565b5b5f6101b38482850161017d565b91505092915050565b5f82825260208201905092915050565b7f776520646f6e74206861766520616e79206574686572212100000000000000005f82015250565b5f6102006018836101bc565b915061020b826101cc565b602082019050919050565b5f6020820190508181035f83015261022d816101f4565b905091905056fea2646970667358221220393b8608a3b3934364f29459d17f5606938ada31024908871a67a9b63ff5d01364736f6c63430008190033",
			"opcodes": "PUSH1 0x80 PUSH1 0x40 MSTORE CALLVALUE DUP1 ISZERO PUSH1 0xE JUMPI PUSH0 DUP1 REVERT JUMPDEST POP PUSH2 0x26A DUP1 PUSH2 0x1C PUSH0 CODECOPY PUSH0 RETURN INVALID PUSH1 0x80 PUSH1 0x40 MSTORE PUSH1 0x4 CALLDATASIZE LT PUSH2 0x28 JUMPI PUSH0 CALLDATALOAD PUSH1 0xE0 SHR DUP1 PUSH4 0x12065FE0 EQ PUSH2 0x2C JUMPI DUP1 PUSH4 0x91F3FFEC EQ PUSH2 0x56 JUMPI JUMPDEST PUSH0 DUP1 REVERT JUMPDEST CALLVALUE DUP1 ISZERO PUSH2 0x37 JUMPI PUSH0 DUP1 REVERT JUMPDEST POP PUSH2 0x40 PUSH2 0x72 JUMP JUMPDEST PUSH1 0x40 MLOAD PUSH2 0x4D SWAP2 SWAP1 PUSH2 0x11A JUMP JUMPDEST PUSH1 0x40 MLOAD DUP1 SWAP2 SUB SWAP1 RETURN JUMPDEST PUSH2 0x70 PUSH1 0x4 DUP1 CALLDATASIZE SUB DUP2 ADD SWAP1 PUSH2 0x6B SWAP2 SWAP1 PUSH2 0x191 JUMP JUMPDEST PUSH2 0x79 JUMP JUMPDEST STOP JUMPDEST PUSH0 SELFBALANCE SWAP1 POP SWAP1 JUMP JUMPDEST PUSH0 CALLVALUE GT PUSH2 0xBB JUMPI PUSH1 0x40 MLOAD PUSH32 0x8C379A000000000000000000000000000000000000000000000000000000000 DUP2 MSTORE PUSH1 0x4 ADD PUSH2 0xB2 SWAP1 PUSH2 0x216 JUMP JUMPDEST PUSH1 0x40 MLOAD DUP1 SWAP2 SUB SWAP1 REVERT JUMPDEST DUP1 PUSH20 0xFFFFFFFFFFFFFFFFFFFFFFFFFFFFFFFFFFFFFFFF AND PUSH2 0x8FC CALLVALUE SWAP1 DUP2 ISZERO MUL SWAP1 PUSH1 0x40 MLOAD PUSH0 PUSH1 0x40 MLOAD DUP1 DUP4 SUB DUP2 DUP6 DUP9 DUP9 CALL SWAP4 POP POP POP POP ISZERO DUP1 ISZERO PUSH2 0xFE JUMPI RETURNDATASIZE PUSH0 DUP1 RETURNDATACOPY RETURNDATASIZE PUSH0 REVERT JUMPDEST POP POP JUMP JUMPDEST PUSH0 DUP2 SWAP1 POP SWAP2 SWAP1 POP JUMP JUMPDEST PUSH2 0x114 DUP2 PUSH2 0x102 JUMP JUMPDEST DUP3 MSTORE POP POP JUMP JUMPDEST PUSH0 PUSH1 0x20 DUP3 ADD SWAP1 POP PUSH2 0x12D PUSH0 DUP4 ADD DUP5 PUSH2 0x10B JUMP JUMPDEST SWAP3 SWAP2 POP POP JUMP JUMPDEST PUSH0 DUP1 REVERT JUMPDEST PUSH0 PUSH20 0xFFFFFFFFFFFFFFFFFFFFFFFFFFFFFFFFFFFFFFFF DUP3 AND SWAP1 POP SWAP2 SWAP1 POP JUMP JUMPDEST PUSH0 PUSH2 0x160 DUP3 PUSH2 0x137 JUMP JUMPDEST SWAP1 POP SWAP2 SWAP1 POP JUMP JUMPDEST PUSH2 0x170 DUP2 PUSH2 0x156 JUMP JUMPDEST DUP2 EQ PUSH2 0x17A JUMPI PUSH0 DUP1 REVERT JUMPDEST POP JUMP JUMPDEST PUSH0 DUP2 CALLDATALOAD SWAP1 POP PUSH2 0x18B DUP2 PUSH2 0x167 JUMP JUMPDEST SWAP3 SWAP2 POP POP JUMP JUMPDEST PUSH0 PUSH1 0x20 DUP3 DUP5 SUB SLT ISZERO PUSH2 0x1A6 JUMPI PUSH2 0x1A5 PUSH2 0x133 JUMP JUMPDEST JUMPDEST PUSH0 PUSH2 0x1B3 DUP5 DUP3 DUP6 ADD PUSH2 0x17D JUMP JUMPDEST SWAP2 POP POP SWAP3 SWAP2 POP POP JUMP JUMPDEST PUSH0 DUP3 DUP3 MSTORE PUSH1 0x20 DUP3 ADD SWAP1 POP SWAP3 SWAP2 POP POP JUMP JUMPDEST PUSH32 0x776520646F6E74206861766520616E7920657468657221210000000000000000 PUSH0 DUP3 ADD MSTORE POP JUMP JUMPDEST PUSH0 PUSH2 0x200 PUSH1 0x18 DUP4 PUSH2 0x1BC JUMP JUMPDEST SWAP2 POP PUSH2 0x20B DUP3 PUSH2 0x1CC JUMP JUMPDEST PUSH1 0x20 DUP3 ADD SWAP1 POP SWAP2 SWAP1 POP JUMP JUMPDEST PUSH0 PUSH1 0x20 DUP3 ADD SWAP1 POP DUP2 DUP2 SUB PUSH0 DUP4 ADD MSTORE PUSH2 0x22D DUP2 PUSH2 0x1F4 JUMP JUMPDEST SWAP1 POP SWAP2 SWAP1 POP JUMP INVALID LOG2 PUSH5 0x6970667358 0x22 SLT KECCAK256 CODECOPY EXTCODESIZE DUP7 ADDMOD LOG3 0xB3 SWAP4 NUMBER PUSH5 0xF29459D17F JUMP MOD SWAP4 DUP11 0xDA BALANCE MUL BLOBHASH ADDMOD DUP8 BYTE PUSH8 0xA9B63FF5D0136473 PUSH16 0x6C634300081900330000000000000000 "
		},
		"gasEstimates": {
			"creation": {
				"codeDepositCost": "123600",
				"executionCost": "169",
				"totalCost": "123769"
			},
			"external": {
				"callAnotherFunction(address)": "infinite",
				"getBalance()": "312"
			}
		},
		"methodIdentifiers": {
			"callAnotherFunction(address)": "91f3ffec",
			"getBalance()": "12065fe0"
		}
	},
	"abi": [
		{
			"inputs": [
				{
					"internalType": "address payable",
					"name": "b",
					"type": "address"
				}
			],
			"name": "callAnotherFunction",
			"outputs": [],
			"stateMutability": "payable",
			"type": "function"
		},
		{
			"inputs": [],
			"name": "getBalance",
			"outputs": [
				{
					"internalType": "uint256",
					"name": "",
					"type": "uint256"
				}
			],
			"stateMutability": "view",
			"type": "function"
		}
	]
}